:0400000080313E28E5
:100008007E14803100308600003087000B1F0D28D9
:100018000E283C282100111E122813281E28200013
:10002800111E172818281E286C088A006B080A0059
:1000380080313C282100911E222823282F282000C7
:10004800911E272828282F28210064088A00630881
:100058000A0080313C282100911C332834283C2890
:100068002000911C382839283C288631F526803113
:100078007E10090080314028873196278031ED00B5
:10008800FA01FB01473084000030850022308731B7
:1000980077278031A03084000030850040308731D8
:1000A8007727803120308400013085004030873147
:1000B80077278031A03084000130850040308731B7
:1000C8007727803120308400023085002030873146
:1000D800772780317E1020008131B82920000C0C50
:1000E800890C0139C4000E0C890C0139C400680858
:1000F80003197F2880289528003058026530031995
:100108005702031C8828892895282230B700863092
:10011800B8008631D626803122008E102000E801F2
:10012800B72968088431D924803198296D03031DC3
:100138009E289F28B5294408031DA328A428B5296B
:100148000130E700E601D030F2000030F300F4009F
:100158001030F5000030F60086319A268031643080
:100168002000D9000030DA000130E800B5296D031D
:10017800031DBF28C028CB284408031DC428C52850
:10018800CB280130E7076430D9000030DA00440397
:10019800031DCF28D028FB2859085A04031DD52849
:1001A800D628FB2867080319DA28DB28FB280A3039
:1001B80067060319E028E128E9286708BC00BD01A3
:1001C8003C08BF003D08C000EB28BF01C0013F0844
:1001D800BE006608D03E860087013E08303E81009A
:1001E8000130E607E701F430DB000130DC004403AE
:1001F800031DFF280029B52959085A04031D05299C
:100208000629B5296708031D0A290B29B5295B08A2
:100218005C04031D10291129B5296608031915293D
:100228001629B5294230B7008730B800D030B90058
:100238000030BA008631D626803102302000E8002E
:10024800B5295B085C04031D2A292B29B529E5017A
:10025800E3016430DB000030DC000430E800B5293D
:100268005B085C04031D39293A29B5296308031D75
:100278003E293F296A296508C03E86008701010892
:1002880003194729482965296508C03E8600870162
:100298000108D03EC30043080319532954295C2997
:1002A8004308BC00BD013C08C1003D08C2006029EC
:1002B8000A30C1000030C2004108E4000130E30008
:1002C8006A2922008E1405302000E8006303031D0C
:1002D8006E296F29792922008E1021302000DB0039
:1002E8000030DC000230E300B52902306306031D4C
:1002F8007E297F29B52922008E1401302000E402CE
:10030800640803198829892990294330DB000030C3
:10031800DC000130E300B5292030DB000330DC00CD
:10032800E3010130E507B52920006808BC00BD01DC
:100338003D08003A0319A129B5293C08003A0319D8
:100348009A28013A0319BB28033A0319B529013A37
:1003580003192529073A03193429013A0319B5293C
:10036800B5294408ED0008008631C6268131B13030
:100378002000B7008630B8008631D62681312200A9
:100388008E1012302000B7008730B8008631D6268C
:1003980081312100E001E101031022008C1E0314C9
:1003A8000318D729DA2922008C16DC2922008C129E
:1003B80003100C1E03140318E229E52922000C1669
:1003C800E72922000C1203108E1E03140318ED29CE
:1003D800F02922008E16F22922008E120530200004
:1003E800C6000F30C500F130890BF829C50BF82974
:1003F800C60BF829640001302100E0070030E13D18
:1004080000306102643003196002031C0C2A0D2AB3
:10041800D02907308431D9248131640022008E1418
:1004280015302000C6004B30C500BE30890B1A2A93
:10043800C50B1A2AC60B1A2A0000640022008E1067
:1004480015302000C6004B30C500BE30890B2A2A63
:10045800C50B2A2AC60B2A2A000022008E14640023
:1004680015302000C6004B30C500BE30890B3A2A33
:10047800C50B3A2AC60B3A2A000022008E10A43077
:10048800F2000530F30087317D2781318B170B1778
:1004980056302000B7008730B8008631D626813123
:1004A80000308431D924813120000E0C890C0139A7
:1004B800ED006400873168278131003A0319652A05
:1004C800662A9D2A8631642681312100E2000D309A
:1004D80062060319702A712A772A0A306206031DF8
:1004E800762A772A8B2A2000620803197C2A7D2A1B
:1004F8009D2A6208C03E8600013087008101C03015
:10050800F80083317B2381312000E2019D2A1F30CE
:10051800200062020318912A922A9D2A6208C03E8E
:100528008600013087002100620881000130200028
:10053800E2078031722081315D2A80313E28200017
:10054800270886008701403FAA00413FAB002A08E0
:1005580084002B0885001200253A031DB42AB52A09
:10056800602B270886008701013081074131031875
:10057800810AC701C8010030DD00FF30C900FF3023
:10058800CA00AE01270886008701403FAA00413F04
:10059800AB002A0884002B0885001200733A031D5B
:1005A800D62AD72AE22A2708860087010130810740
:1005B80041310318810A0130AE00242B2708860038
:1005C8008701403FAA00413FAB002A0884002B085E
:1005D800850012006C3A031DF22AF32A242B2708FF
:1005E80086008701403FAA00413FAB0001302A073F
:1005F80084002B080318013E850012006C3A031D85
:10060800062B072B242B270886008701403FAA00CA
:10061800413FAB0002302A0784002B080318013E33
:1006280085001200733A031D1A2B1B2B242B270855
:10063800860087010330810741310318810ADF2AC8
:100648002E080319282B292B562B28088600290841
:10065800870001088400850102308107003FAA0055
:10066800013FAB002A08AF004D2B2F0886008701F9
:100678000108AA00AB012A08F5002B08F600260895
:10068800F8002508F7008331DA2382310130200091
:10069800AF072F08860087010108031D542B552B2F
:1006A800392B7A2B20002708860087010130810723
:1006B80041310318810A7A2B270886008701403FB9
:1006C800AA00413FAB002A0884002B0885000008D7
:1006D800AC00AD012C08F5002D08F6002608F8003E
:1006E8002508F7008331DA238231562B0800780871
:1006F800F2007130F3008730F4000530F500003067
:10070800F60084318924833172087304031D8D2B0C
:100718008E2BAA2B20006808031D932B942BD92B12
:10072800C030F2007808053EF3000F30F4000030C6
:10073800F50085314325833122008E14583020007E
:10074800DB000230DC000330E800D92B7808F20027
:100758008E30F3008730F4008531752583317208B7
:100768007304031DB82BB92BC62B02302000680672
:10077800031DBF2BC02BD92B22008E14053020005F
:10078800E800D92B7808F2008930F3008730F400AC
:1007980085317525833172087304031DD42BD52B3D
:1007A800D92B22008E102000E80108007708780471
:1007B8000319DF2BE02BE62B77087804031DE52BC4
:1007C800E62BEB2B7508873104278331372C770804
:1007D8008600780887004931160001040319F52BB3
:1007E800F62B172C77088600780887004931403F98
:1007F8002000A000413FA100770886007808870004
:100808004231403FA200413FA3002308803AA400A0
:100818002108803A2402031D132C20082202031801
:10082800162C172C372C7708860078088700423159
:100838007708840078088500003F2000A000013F69
:10084800A100403F20078400413F213D85007508F5
:1008580080007708860078088700423101308107D8
:1008680041310318810A08007B35203E860001309B
:1008780087000030C03FC13F23009D1C442C452CFD
:10088800572C7B35203E860001308700011520005B
:100898004B084C040319512C522C572C4C088A0035
:1008A8004B080A00843123001D1D5B2C5C2C6E2C28
:1008B8007B35203E860001308700811420004D08DA
:1008C8004E040319682C692C6E2C4E088A004D08BA
:1008D8000A00843123001908F0007B08013E1F3903
:1008E800F10071087A06031D7A2C7B2C7C2C882C4D
:1008F8007B08A03E860001308700700881007108DF
:10090800FB0001302000DE0708000130F50200304E
:10091800F63B750A031D942C760A031D942C952C1E
:10092800A22CF201F301D82C0130F2070130F307B1
:100938000030F43D0130F5020030F63B72088600C5
:100948000130870001080319AA2CAB2CCA2C7308A4
:1009580084007408850012000319B32CB42CCA2C27
:10096800750876040319B92CBA2CCA2C73088400AC
:10097800740885000008F7007208860001308700B7
:10098800010877060319C92CCA2C982C720886000E
:10099800013087007308840074088500000801028C
:1009A800F200F301031CF3030800F20022008C128A
:1009B8000C128E12F62C8C16102D0C16102D8C166F
:1009C8000C16102D8E16102D8C168E16102D0C163A
:1009D8008E16102D8C160C168E16102D8C120C12CD
:1009E8008E12102D7208003A0319102D013A0319BE
:1009F800DF2C033A0319E12C013A0319E32C073AD7
:100A08000319E62C013A0319E82C033A0319EB2CD5
:100A1800013A0319EE2CF22C08002100911238300B
:100A2800E3000430E40011127F302000EB000630B0
:100A3800EC00483023009F0090309D0026309E0037
:100A480040309B0003309C009830F2000730F300E0
:100A580087312B2785319230F2000730F300873138
:100A68001F2785312000D301D401E101E0012030A6
:100A7800DF00FB01FA01DE0121009116080072086F
:100A8800F6005B2D0130F4020030F53B7608860055
:100A98008701F60A7308840001308500F30A00080C
:100AA800C03F8908031D592D5A2D5B2D682D7408E8
:100AB8007504031D602D612D462D682D760886006E
:100AC800870181010130F6070130F4020030F53B5F
:100AD800740A031D732D750A031D732D742D622D61
:100AE80008007C2D0130F2070130F3070030F43D97
:100AF80073088400740885000008F50072088600F1
:100B08000130870001087506031D8B2D8C2D952D4E
:100B180072088600013087000108031D942D952D69
:100B2800762D7208860001308700730884007408E7
:100B3800850000080102F200F301031CF30308001A
:100B480020005B085C040319AA2DAB2DAF2D0130E2
:100B5800DB020030DC3B59085A040319B42DB52DCB
:100B6800B92D0130D9020030DA3B0C19BC2DBD2D4E
:100B7800CF2D0E1CC02DC12DCF2DFD305802E830D1
:100B8800031957020318C92DCA2DD12D0130D707D3
:100B98000030D83DD12DD701D801080022008C01A2
:100BA80008308E000C3021008C0015308E00230098
:100BB8008C018E01043024008C0005308E00250045
:100BC8008C018E01373026008C003F308E003F307C
:100BD80027008C003F308E0014303C00A4001430F5
:100BE8003D00A3002700910192019301970198010C
:100BF80099010800F3002100111A032E042E082E73
:100C0800730823009A001F2E20005F0803190D2E79
:100C18000E2E1F2E6108A03E8600870173088100F2
:100C28006108013E1F39F2007208E100210011122B
:100C380001302000DF02210011160800443452342C
:100C48004F3450342034283452346534613473348A
:100C58006F346E343A3420345034423458342034AB
:100C6800423455345334593420346434653474343C
:100C78006534633474346534643429340D340A3487
:100C8800003420003308B6003208B500572E31086A
:100C9800A6003008A5003530A7003408A800A9012F
:100CA8008231A32286312000350884003608850069
:100CB8001200031D602E612E4B2EB001B1010800F9
:100CC8007A08A03E8600013087000108F3007A0800
:100CD800013E1F39F2007208FA002100911220002B
:100CE8005E080319782E792E7B2E0130DE02210052
:100CF800911673080800203020005F020318852E23
:100D0800862E972E6008A03E8600870101082300E2
:100D18009A0020006008013E1F39F0007008E000CA
:100D28000130DF07992E2100111208007208F70020
:100D3800A42E770886008701730881000130F70721
:100D48000130F5020030F63B750A031DAF2E760A16
:100D5800031DAF2EB02E9D2E08000D340A344934E1
:100D68005034203455346E34693474342034533458
:100D78007434613472347434653464342E340D340C
:100D88000A34003487314C2786318531D2258631A3
:100D98008631E62686318531112586318731372718
:100DA8008631080039302000BB000030B000B100A7
:100DB8003808B3003708B2003B30B4008631452606
:100DC800863108007C3020009E009D019730E900A4
:100DD8000730EA00911021009114073020009F008D
:100DE8000800200069086A040319FB2EFC2E012F55
:100DF8006A088A0069080A008731200091100800F3
:100E0800F40087315F278731003A03190C2F0D2F23
:100E1800052F74088531FE25873108005734613461
:100E28006934743469346E3467342E342E342E3475
:100E38000D340A340034720873040319242F252F43
:100E48002A2F73082000CC007208CB000800720813
:100E580073040319302F312F362F73082000CE006A
:100E68007208CD000800200010100B140030F200AA
:100E78000030F30087318327873108004434493430
:100E880041344C342034253473340D340A3400345E
:100E98006030320099009B019D0107309F009E0140
:100EA8009C010800523465346134643479342E343A
:100EB8000D340A34003420005F08031D642F662FA8
:100EC8000130672F0030080020005E08031D6D2FD9
:100ED8006F2F0130702F00300800523449344E34DF
:100EE800473420340034640080010131890B782FA5
:100EF800003473082000EA007208E900080073084B
:100F08002000D6007208D5000800443452344F340B
:100F18005034003441344E345334003423001D120D
:0A0F28001D1608000134080008003F
:020000040001F9
:08000E008C3FF33FFF3FFF3F71
:00000001FF
