:1000000080313F28080008007E14803100308600CF
:10001000003087000B1F0D280E283D282100111EDF
:10002000122813281F282000111E172818281F28FF
:10003000210063088A0062080A0080313D282100FF
:10004000911E2328242830282000911E28282928A2
:100050003028210061088A0060080A0080313D28AC
:100060002100911C342835283D282000911C392876
:100070003A283D288731D22780317E10090080310F
:1000800041288F31A8278031E9008F31A92780319D
:10009000EA008F31AA278031EB00FA01FB01203002
:1000A00084000030850025308F31BB278031A0309F
:1000B00084000030850040308F31BB2780312030F4
:1000C00084000130850040308F31BB278031A03063
:1000D00084000130850040308F31BB2780312030D3
:1000E00084000230850020308F31BB2780317E10A4
:1000F000200082312C2A20000C0C890C0139E600EA
:100100000E0C890C0139E600440803198828892857
:100110009E2800303302653003193202031C9128F7
:1001200092289E28FC30DC008630DD008731B32722
:10013000803122008E102000C4012B2A4408853112
:10014000DC258031092A6B03031DA728A828292A4A
:100150006608031DAC28AD28292A0130C200C10160
:10016000D030F2000030F300F4001030F500003021
:10017000F60087317427803164302000B4000030ED
:10018000B5000130C400292A6B03031DC828C92803
:10019000D4286608031DCD28CE28D4280130C207F4
:1001A0006430B4000030B5006603031DD828D92898
:1001B000252934083504031DDE28DF2825294208B7
:1001C0000319E328E428252942080319E828E92827
:1001D000F9280A3042020318EE28EF28F9284108CE
:1001E000D03E860087014208303E81000130C107C1
:1001F00020290A304206031DFE28FF28062941084F
:10020000D03E8600870130308100F6280B30420650
:10021000031D0B290C2913294108D03E86008701B4
:100220002A308100F6280C304206031D18291929AE
:1002300020294108D03E8600870123308100F6281E
:10024000C201F430B6000130B7006603031D29294E
:100250002A29292A34083504031D2F293029292A5F
:100260004208031D34293529292A36083704031D7D
:100270003A293B29292A410803193F294029292ADB
:10028000430803194429452954290030DC009030E3
:10029000DD00D030DE000030DF008731B327803151
:1002A00002302000C400292A22008E1405302000CC
:1002B000E2000F30E100F130890B5C29E10B5C2991
:1002C000E20B5C2922008E102000C401292A430879
:1002D000031D6B296C29292A22008E140530200069
:1002E000E2000F30E100F130890B7429E10B742931
:1002F000E20B742922008E10642936083704031D8E
:1003000082298329292AC001BE016430B600003049
:10031000B7000430C400292A36083704031D912988
:100320009229292A3E08031D96299729C2294008A7
:10033000C03E86008701010803199F29A029BD2915
:100340004008C03E860087010108D03EE5006508F0
:100350000319AB29AC29B4296508E100E201610861
:10036000E3006208E400B8290A30E3000030E4004A
:100370006308BF000130BE00C22922008E1406307F
:100380002000C4003E03031DC629C729D12922002D
:100390008E1021302000B6000030B7000230BE00C1
:1003A000292A02303E06031DD629D729292A2200F0
:1003B0008E1401302000BF023F080319E029E12913
:1003C000E8294330B6000030B7000130BE00292ACA
:1003D0002030B6000330B700BE010130C007292A23
:1003E00036083704031DF529F629292A0C1DF92999
:1003F000FA29292A0E1CFD29FE29292A1A30DC0097
:100400009030DD008731B327803105302000C400F3
:10041000292A20004408E100E2016208003A031999
:10042000122A292A6108003A0319A328013A03195C
:10043000C428033A03196729013A03197D29073AA9
:1004400003198C29013A0319292A033A0319F029BF
:10045000292A6608EB0008008731A02782318B30FB
:100460002000DC008730DD008731B3278231220095
:100470008E10EF302000DC008730DD008731B3279D
:1004800082312100E401E501031022008C1E0314D7
:1004900003184B2A4E2A22008C16502A22008C1256
:1004A00003100C1E03140318562A592A22000C1696
:1004B0005B2A22000C1203108E1E03140318612AFB
:1004C000642A22008E16662A22008E120530200031
:1004D000E8000F30E700F130890B6C2AE70B6C2A3B
:1004E000E80B6C2A640001302100E4070030E53D90
:1004F00000306502643003196402031C802A812ADB
:10050000442A07308531DC258231640022008E14B4
:1005100015302000E8004B30E700BE30890B8E2AF2
:10052000E70B8E2AE80B8E2A0000640022008E1052
:1005300015302000E8004B30E700BE30890B9E2AC2
:10054000E70B9E2AE80B9E2A000022008E1464000E
:1005500015302000E8004B30E700BE30890BAE2A92
:10056000E70BAE2AE80BAE2A000022008E107E3088
:10057000F2000430F3008F31B52782318B170B174F
:100580000A302000DC009030DD008731B327823153
:1005900000308531DC25823120000E0C890C0139B8
:1005A000EB0064008F31C1278231003A0319D92A48
:1005B000DA2A112B87313E2782312100E6000D30E7
:1005C00066060319E42AE52AEB2A0A306606031DAB
:1005D000EA2AEB2AFF2A20003D080319F02AF12A13
:1005E000112B3D08C03E8600013087008101C030DC
:1005F000E1008331EF2382312000BD01112B1F3038
:1006000020003D020318052B062B112B3D08C03E90
:10061000860001308700210066088100013020003B
:10062000BD0780317B208231D12A80313F282000D4
:100630004C0886008701403FCF00413FD0004F0863
:100640008400500885001200253A031D282B292B11
:10065000D42B4C08860087010130810741310318F3
:10066000810AA001A1010030B800FF30A200FF30D4
:10067000A300D3014C0886008701403FCF00413FD3
:10068000D0004F088400500885001200733A031D03
:100690004A2B4B2B562B4C088600870101308107D3
:1006A00041310318810A0130D300982B4C08860091
:1006B0008701403FCF00413FD0004F0884005008E1
:1006C000850012006C3A031D662B672B982B4C0893
:1006D00086008701403FCF00413FD00001304F07E7
:1006E000840050080318013E850012006C3A031D77
:1006F0007A2B7B2B982B4C0886008701403FCF003C
:10070000413FD00002304F07840050080318013EDB
:1007100085001200733A031D8E2B8F2B982B4C08EB
:10072000860087010330810741310318810A532B6A
:10073000530803199C2B9D2BCA2B4D0886004E088D
:10074000870001088400850102308107003FCF0047
:10075000013FD0004F08D400C12B54088600870108
:100760000108CF00D0014F08F5005008F6004B08F3
:10077000F8004A08F7008431DD248331013020007D
:10078000D4075408860087010108031DC82BC92B14
:10079000AD2BEE2B20004C0886008701013081072D
:1007A00041310318810AEE2B4C0886008701403F37
:1007B000CF00413FD0004F0884005008850000085A
:1007C000D100D2015108F5005208F6004B08F8009C
:1007D0004A08F7008431DD248331CA2B0800200049
:1007E0006108F2002630F3009030F40086317D2657
:1007F000833172087304031DFE2BFF2B0E2C9830DF
:100800002000B0003A30B1000130C3001330DC00EA
:100810009030DD008731B32783317D2C20006108C3
:10082000F2002030F3009030F4000530F500003085
:10083000F60085318C25833172087304031D212C49
:10084000222C3E2C20004408031D272C282C7D2C14
:10085000C030F2006108053EF3000F30F4000030B4
:10086000F50086311A26833122008E14583020007C
:10087000B6000230B7000330C4007D2C20006108B0
:10088000F2003030F3009030F40086317D26833161
:1008900072087304031D4D2C4E2C5B2C023020007B
:1008A0004406031D542C552C7D2C22008E1405303B
:1008B0002000C4007D2C20006108F2002B30F300E2
:1008C0009030F40086317D26833172087304031D55
:1008D0006A2C6B2C7D2C22008E1405302000E30046
:1008E0000F30E200F130890B732CE20B732CE30B19
:1008F000732C22008E102000C4010800200036084E
:1009000037040319842C852C892C0130B602003061
:10091000B73B3408350403198E2C8F2C932C0130EF
:10092000B4020030B53B300831040319982C992CDF
:10093000A42C0130B0020030B13B30083104031D5B
:10094000A22CA32CA42CC3014308031DA82CA92C62
:10095000C42C0130E9020030EA3B69086A04031D37
:10096000B22CB32CC42C031022008E1E03140318C7
:10097000BA2CBD2C22008E16BF2C22008E12F43011
:100980002000E9000130EA000C19C72CC82CDA2C31
:100990000E1CCB2CCC2CDA2CFD303302E8300319A2
:1009A00032020318D42CD52CDC2C0130B2070030D5
:1009B000B33DDC2CB201B3010800770878040319B9
:1009C000E22CE32CE92C77087804031DE82CE92CB1
:1009D000EE2C75088731E12784313A2D770886009F
:1009E000780887004931160001040319F82CF92C06
:1009F0001A2D77088600780887004931403F20008B
:100A0000C500413FC600770886007808870042315C
:100A1000403FC700413FC8004808803AC900460827
:100A2000803A4902031D162D450847020318192D67
:100A30001A2D3A2D7708860078088700423177080A
:100A4000840078088500003F2000C500013FC600F3
:100A5000403F45078400413F463D850075088000C2
:100A600077088600780887004231013081074131DC
:100A70000318810A08007B35203E8600013087007C
:100A80000030C03FC13F23009D1C472D482D5A2DEB
:100A90007B35203E860001308700011520002408A8
:100AA00025040319542D552D5A2D25088A00240894
:100AB0000A00853123001D1D5E2D5F2D712D7B35B4
:100AC000203E86000130870081142000260827047C
:100AD00003196B2D6C2D712D27088A0026080A003A
:100AE000853123001908F0007B08013E1F39F10011
:100AF00071087A06031D7D2D7E2D7F2D8B2D7B08A1
:100B0000A03E860001308700700881007108FB005C
:100B100001302000B90708000130F5020030F63B33
:100B2000750A031D972D760A031D972D982DA52D67
:100B3000F201F301DB2D0130F2070130F307003041
:100B4000F43D0130F5020030F63B720886000130BA
:100B5000870001080319AD2DAE2DCD2D730884003B
:100B60007408850012000319B62DB72DCD2D750818
:100B700076040319BC2DBD2DCD2D73088400740897
:100B800085000008F7007208860001308700010820
:100B900077060319CC2DCD2D9B2D720886000130D0
:100BA0008700730884007408850000080102F200C1
:100BB000F301031CF3030800F200200043080319AB
:100BC000E22DE32D192E22008C120C128E12FF2D15
:100BD0008C16192E0C16192E8C160C16192E8E1614
:100BE000192E8C168E16192E0C168E16192E8C1682
:100BF0000C168E16192E8C120C128E12192E7208CB
:100C0000003A0319192E013A0319E82D033A031982
:100C1000EA2D013A0319EC2D073A0319EF2D013A99
:100C20000319F12D033A0319F42D013A0319F72D95
:100C3000FB2D08007208F600322E0130F40200305D
:100C4000F53B760886008701F60A730884000130B8
:100C50008500F30A0008C03F8908031D302E312E9D
:100C6000322E3F2E74087504031D372E382E1D2E8C
:100C70003F2E76088600870181010130F60701309A
:100C8000F4020030F53B740A031D4A2E750A031D59
:100C90004A2E4B2E392E0800210091123B30E000E5
:100CA0000530E10011125930E2000730E30048300E
:100CB00023009F0090309D0026309E0040309B0016
:100CC00003309C000230F2000030F3008F31E8273F
:100CD0008631AB30F2000F30F3008F31F4278631CC
:100CE0002000AC01AD01BC01BB012030BA00FB010A
:100CF000FA01B901210091160800842E0130F20793
:100D00000130F3070030F43D730884007408850057
:100D10000008F5007208860001308700010875069A
:100D2000031D932E942E9D2E72088600013087009D
:100D30000108031D9C2E9D2E7E2E72088600013018
:100D40008700730884007408850000080102F2001F
:100D5000F301031CF303080022008C0108308E000D
:100D60000C3021008C0015308E0023008C018E0188
:100D7000043024008C0005308E0025008C018E018B
:100D8000373026008C003F308E003F3027008C002B
:100D90003F308E0014303C00A40014303D00A3000E
:100DA0002700910192019301970198019901080090
:100DB000F3002100111ADD2EDE2EE22E730823002F
:100DC0009A00F92E20003A080319E72EE82EF92E92
:100DD0003C08A03E86008701730881003C08013E64
:100DE0001F39F2007208BC002100111201302000EE
:100DF000BA02210011160800443452344F345034E2
:100E00002034283452346534613473346F346E3492
:100E10003A34203450344234583420344234553437
:100E20005334593420346434653474346534633451
:100E300074346534643429340D340A3400342000A9
:100E40005808DB005708DA00312F5608CB00550848
:100E5000CA005A30CC005908CD00CE018331172387
:100E6000873120005A0884005B0885001200031DAA
:100E70003A2F3B2F252FD501D60108007A08A03E36
:100E80008600013087000108F3007A08013E1F390F
:100E9000F2007208FA0021009112200039080319AB
:100EA000522F532F552F0130B9022100911673088C
:100EB0000800203020003A0203185F2F602F712FA6
:100EC0003B08A03E86008701010823009A0020000D
:100ED0003B08013E1F39F0007008BB000130BA0723
:100EE000732F2100111208007208F7007E2F770877
:100EF00086008701730881000130F7070130F50291
:100F00000030F63B750A031D892F760A031D892FD1
:100F10008A2F772F08000D340A3449345034203496
:100F200055346E3469347434203453347434613439
:100F300072347434653464342E340D340A3400341D
:100F40008F31D32787318631AC2687318731C3274C
:100F5000873186314C2687318731FC2787318F31A5
:100F6000DD27873108005E302000E0000030D5002A
:100F7000D6005D08D8005C08D7006030D900873102
:100F80001F27873108007C3020009E009D01033020
:100F9000EC000030ED00911021009114073020008A
:100FA0009F00080020006C086D040319D82FD92F6A
:100FB000DE2F6D088A006C080A008731200091102E
:100FC0000800F4008F31CA278731003A0319E92F4E
:100FD000EA2FE22F74088631D8268731080057346B
:100FE00061346934743469346E3467342E342E3489
:100FF0002E340D340A3400341D30210097000800CF
:101F5000F4340134013423001D121D1608007308E7
:101F60002000AF007208AE00080073082000ED00EA
:101F70007208EC000800640080010131890BBC2F5D
:101F8000003420003908031DC62FC82F0130C92F87
:101F90000030080020003A08031DCF2FD12F013058
:101FA000D22F003008006030320099009B019D0163
:101FB00007309F009E019C010800200010100B14A8
:101FC0000030F2000030F3008F31AF278F3108006E
:101FD000720873040319ED2FEE2FF32F73082000FE
:101FE000A7007208A6000800720873040319F92FED
:101FF000FA2FFF2F73082000A5007208A400080024
:102000004434493441344C342034253473340D3451
:102010000A340034523465346134643479342E34F3
:102020000D340A34003450344F344E3447340D34B8
:102030000A34003441344E3453340D340A340034FD
:10204000523449344E344734203400345034493407
:102050004E3447340034443452344F345034003416
:0820600041344E3453340034C6
:020000040001F9
:08000E008C3FFF3FFF3FFF3F65
:00000001FF
