:1000000080313F28080008007E14803100308600CF
:10001000003087000B1F0D280E283D282100111EDF
:10002000122813281F282000111E172818281F28FF
:10003000210065088A0064080A0080313D282100FB
:10004000911E2328242830282000911E28282928A2
:100050003028210063088A0062080A0080313D28A8
:100060002100911C342835283D282000911C392876
:100070003A283D288731A52780317E10090080313C
:1000800041288F31CB278031EC008F31CC27803154
:10009000ED008F31CD278031EE00FA01FB014730B2
:1000A00084000030850025308F31DE278031A0307C
:1000B00084000030850040308F31DE2780312030D1
:1000C00084000130850040308F31DE278031A03040
:1000D00084000130850040308F31DE2780312030B0
:1000E00084000230850020308F31DE2780317E1081
:1000F000200082310B2A20000C0C890C0139C4002D
:100100000E0C890C0139C4006B0803198828892852
:100110009E2800305A02653003195902031C9128A9
:1001200092289E28CD30B7008630B80087319527B9
:10013000803122008E102000EB010A2A6B088531E5
:10014000AD258031E8296E03031DA728A828082AB9
:100150004408031DAC28AD28082A0130E900E80155
:10016000D030F2000030F300F4001030F500003021
:10017000F60087314527803164302000DB000030F5
:10018000DC000130EB00082A6E03031DC828C928D3
:10019000D4284408031DCD28CE28D4280130E907EF
:1001A0006430DB000030DC004403031DD828D9286C
:1001B00004295B085C04031DDE28DF280429690884
:1001C0000319E328E42804290A3069060319E928F9
:1001D000EA28F2286908BC00BD013C08BF003D08C0
:1001E000C000F428BF01C0013F08BE006808D03E2F
:1001F000860087013E08303E81000130E807E901B2
:10020000F430DD000130DE004403031D0829092914
:10021000082A5B085C04031D0E290F29082A6908B7
:10022000031D13291429082A5D085E04031D1929DA
:100230001A29082A680803191E291F29082A6A088A
:100240000319232924293329F230B7008730B80055
:10025000D030B9000030BA008731952780310230A4
:100260002000EB00082A22008E1405302000BD007B
:100270000F30BC00F130890B3B29BC0B3B29BD0B77
:100280003B2922008E102000EB01082A6A08031D7A
:100290004A294B29082A22008E1405302000BD006F
:1002A0000F30BC00F130890B5329BC0B5329BD0B17
:1002B000532922008E1043295D085E04031D612925
:1002C0006229082AE701E5016430DD000030DE0024
:1002D0000430EB00082A5D085E04031D70297129B3
:1002E000082A6508031D75297629A1296708C03EDB
:1002F00086008701010803197E297F299C29670848
:10030000C03E860087010108D03EC30043080319A0
:100310008A298B2993294308BC00BD013C08C100F0
:100320003D08C20097290A30C1000030C2004108D0
:10033000E6000130E500A12922008E1406302000DD
:10034000EB006503031DA529A629B02922008E1004
:1003500021302000DD000030DE000230E500082AF8
:1003600002306506031DB529B629082A22008E141D
:1003700001302000E60266080319BF29C029C729F9
:100380004330DD000030DE000130E500082A203077
:10039000DD000330DE00E5010130E707082A5D08D3
:1003A0005E04031DD429D529082A0C1DD829D92972
:1003B000082A0E1CDC29DD29082A1030B7009030ED
:1003C000B80087319527803105302000EB00082ADE
:1003D00020006B08BC00BD013D08003A0319F1295B
:1003E000082A3C08003A0319A328013A0319C42833
:1003F000033A03194629013A03195C29073A0319FC
:100400006B29013A0319082A033A0319CF29082A4C
:100410004408EE0008008731712782315C302000EB
:10042000B7008730B80087319527823122008E10BF
:10043000C2302000B7008730B8008731952782315D
:100440002100E601E701031022008C1E03140318AB
:100450002A2A2D2A22008C162F2A22008C12031001
:100460000C1E03140318352A382A22000C163A2AC7
:1004700022000C1203108E1E03140318402A432A74
:1004800022008E16452A22008E1205302000C6005A
:100490000F30C500F130890B4B2AC50B4B2AC60B18
:1004A0004B2A640001302100E6070030E73D0030B0
:1004B0006702643003196602031C5F2A602A232A3C
:1004C00007308531AD258231640022008E1415304D
:1004D0002000C6004B30C500BE30890B6D2AC50B0D
:1004E0006D2AC60B6D2A0000640022008E101530A4
:1004F0002000C6004B30C500BE30890B7D2AC50BDD
:100500007D2AC60B7D2A000022008E14640015305F
:100510002000C6004B30C500BE30890B8D2AC50BAC
:100520008D2AC60B8D2A000022008E104F30F2005B
:100530000430F3008F31D82782318B170B1700302E
:100540002000B7009030B800873195278231003005
:100550008531AD25823120000E0C890C0139EE0069
:1005600064008F31E4278231003A0319B82AB92A8E
:10057000F02A87310F2782312100E8000D3068060C
:100580000319C32AC42ACA2A0A306806031DC92AC5
:10059000CA2ADE2A200064080319CF2AD02AF02AAA
:1005A0006408C03E8600013087008101C030BC0075
:1005B0008331CE2382312000E401F02A1F30200055
:1005C00064020318E42AE52AF02A6408C03E860083
:1005D0000130870021006808810001302000E40715
:1005E00080317B208231B02A80313F2820002708CB
:1005F00086008701403FAA00413FAB002A088400E3
:100600002B0885001200253A031D072B082BB32B5E
:100610002708860087010130810741310318810ACC
:10062000C701C8010030DF00FF30C900FF30CA0039
:10063000AE01270886008701403FAA00413FAB007A
:100640002A0884002B0885001200733A031D292B09
:100650002A2B352B2708860087010130810741317D
:100660000318810A0130AE00772B27088600870126
:10067000403FAA00413FAB002A0884002B088500B8
:1006800012006C3A031D452B462B772B270886005A
:100690008701403FAA00413FAB0001302A07840098
:1006A0002B080318013E850012006C3A031D592BDC
:1006B0005A2B772B270886008701403FAA00413F2D
:1006C000AB0002302A0784002B080318013E850086
:1006D0001200733A031D6D2B6E2B772B27088600B3
:1006E00087010330810741310318810A322B2E081C
:1006F00003197B2B7C2BA92B28088600290887004F
:1007000001088400850102308107003FAA00013FF3
:10071000AB002A08AF00A02B2F0886008701010834
:10072000AA00AB012A08F5002B08F6002608F800FD
:100730002508F7008431AE24823101302000AF0754
:100740002F08860087010108031DA72BA82B8C2BDF
:10075000CD2B200027088600870101308107413119
:100760000318810ACD2B270886008701403FAA0085
:10077000413FAB002A0884002B0885000008AC002C
:10078000AD012C08F5002D08F6002608F800250814
:10079000F7008431AE248231A92B080020003C08E8
:1007A000F2001C30F3009030F40086314E26833185
:1007B00072087304031DDD2BDE2BED2B9830200017
:1007C000D7003A30D8000130EA000930B700903045
:1007D000B8008731952783314E2C20003C08F20069
:1007E0001630F3009030F4000530F5000030F600CC
:1007F00085315D25833172087304031D002C012CA3
:100800001D2C20006B08031D062C072C4E2CC0301D
:10081000F2003C08053EF3000F30F4000030F50014
:100820008531EB25833122008E1458302000DD0005
:100830000230DE000330EB004E2C20003C08F200BA
:100840002630F3009030F40086314E268331720852
:100850007304031D2C2C2D2C3A2C023020006B0627
:10086000031D332C342C4E2C22008E140530200016
:10087000EB004E2C20003C08F2002130F3009030B9
:10088000F40086314E26833172087304031D492C0F
:100890004A2C4E2C22008E102000EB010800200074
:1008A0005D085E040319552C562C5A2C0130DD02CC
:1008B0000030DE3B5B085C0403195F2C602C642C69
:1008C0000130DB020030DC3B570858040319692C67
:1008D0006A2C752C0130D7020030D83B57085804D9
:1008E000031D732C742C752CEA016A08031D792CE6
:1008F0007A2C952C0130EC020030ED3B6C086D0435
:10090000031D832C842C952C031022008E1E0314AF
:1009100003188B2C8E2C22008E16902C22008E1207
:10092000F4302000EC000130ED000C19982C992CCB
:10093000AB2C0E1C9C2C9D2CAB2CFD305A02E830AD
:10094000031959020318A52CA62CAD2C0130D90788
:100950000030DA3DAD2CD901DA01080077087804BF
:100960000319B32CB42CBA2C77087804031DB92CC6
:10097000BA2CBF2C75088731B42784310B2D77082A
:100980008600780887004931160001040319C92C34
:10099000CA2CEB2C77088600780887004931403F45
:1009A0002000A000413FA10077088600780887005A
:1009B0004231403FA200413FA3002308803AA400F7
:1009C0002108803A2402031DE72C20082202031884
:1009D000EA2CEB2C0B2D7708860078088700423133
:1009E0007708840078088500003F2000A000013FC0
:1009F000A100403F20078400413F213D850075084C
:100A0000800077088600780887004231013081072E
:100A100041310318810A08007B35203E86000130F1
:100A200087000030C03FC13F23009D1C182D192DA9
:100A30002B2D7B35203E86000130870001152000DC
:100A40004B084C040319252D262D2B2D4C088A000C
:100A50004B080A00853123001D1D2F2D302D422DFE
:100A60007B35203E860001308700811420004D0830
:100A70004E0403193C2D3D2D422D4E088A004D0891
:100A80000A00853123001908F0007B08013E1F3958
:100A9000F10071087A06031D4E2D4F2D502D5C2D4F
:100AA0007B08A03E86000130870070088100710835
:100AB000FB0001302000E00708000130F5020030A3
:100AC000F63B750A031D682D760A031D682D692DF6
:100AD000762DF201F301AC2D0130F2070130F3075E
:100AE0000030F43D0130F5020030F63B720886001C
:100AF00001308700010803197E2D7F2D9E2D73087C
:100B000084007408850012000319872D882D9E2DFE
:100B10007508760403198D2D8E2D9E2D7308840083
:100B2000740885000008F70072088600013087000D
:100B30000108770603199D2D9E2D6C2D72088600E5
:100B400001308700730884007408850000080102E2
:100B5000F200F301031CF3030800F20020006A080E
:100B60000319B32DB42DEA2D22008C120C128E1213
:100B7000D02D8C16EA2D0C16EA2D8C160C16EA2DAB
:100B80008E16EA2D8C168E16EA2D0C168E16EA2D70
:100B90008C160C168E16EA2D8C120C128E12EA2D63
:100BA0007208003A0319EA2D013A0319B92D033AE4
:100BB0000319BB2D013A0319BD2D073A0319C02DA6
:100BC000013A0319C22D033A0319C52D013A03193D
:100BD000C82DCC2D08007208F600032E0130F40257
:100BE0000030F53B760886008701F60A730884001A
:100BF00001308500F30A0008C03F8908031D012E5B
:100C0000022E032E102E74087504031D082E092EC3
:100C1000EE2D102E76088600870181010130F6073F
:100C20000130F4020030F53B740A031D1B2E750AD7
:100C3000031D1B2E1C2E0A2E0800210091120C30C1
:100C4000E2000530E30011122A30E4000730E5002D
:100C5000483023009F0090309D0026309E00403099
:100C60009B0003309C000230F2000030F30087311B
:100C7000DB278631CE30F2000F30F3008731CF27EB
:100C800086312000D301D401E301E2012030E100EC
:100C9000FB01FA01E001210091160800552E0130F8
:100CA000F2070130F3070030F43D73088400740844
:100CB00085000008F50072088600013087000108F1
:100CC0007506031D642E652E6E2E72088600013097
:100CD00087000108031D6D2E6E2E4F2E72088600B0
:100CE0000130870073088400740885000008010241
:100CF000F200F301031CF303080022008C0108300A
:100D00008E000C3021008C0015308E0023008C01E9
:100D10008E01043024008C0005308E0025008C01EB
:100D20008E01373026008C003F308E003F30270088
:100D30008C003F308E0014303C00A40014303D0085
:100D4000A300270091019201930197019801990155
:100D50000800F3002100111AAE2EAF2EB32E730837
:100D600023009A00CA2E200061080319B82EB92E5C
:100D7000CA2E6308A03E86008701730881006308BD
:100D8000013E1F39F2007208E30021001112013008
:100D90002000E102210011160800443452344F347F
:100DA00050342034283452346534613473346F3411
:100DB0006E343A342034503442345834203442347F
:100DC00055345334593420346434653474346534C0
:100DD000633474346534643429340D340A34003493
:100DE00020003308B6003208B500022F3108A600F3
:100DF0003008A5003530A7003408A800A9018231C9
:100E0000F62286312000350884003608850012005D
:100E1000031D0B2F0C2FF62EB001B10108007A082C
:100E2000A03E8600013087000108F3007A08013EE9
:100E30001F39F2007208FA002100911220006008A8
:100E40000319232F242F262F0130E00221009116B1
:100E5000730808002030200061020318302F312F62
:100E6000422F6208A03E86008701010823009A00F5
:100E700020006208013E1F39F0007008E2000130D6
:100E8000E107442F2100111208007208F7004F2FCC
:100E9000770886008701730881000130F707013069
:100EA000F5020030F63B750A031D5A2F760A031D22
:100EB0005A2F5B2F482F08000D340A344934503420
:100EC000203455346E3469347434203453347434DB
:100ED000613472347434653464342E340D340A341D
:100EE00000348F31F627873186317D26873187316F
:100EF0008427873186311D2687318731FC2787314A
:100F00008731E727873108007C3020009E009D0153
:100F100003302100E0000030E100200091102100AA
:100F20009114073020009F00080039302000BB00DA
:100F30000030B000B1003808B3003708B2003B30D1
:100F4000B4008631F0268731080021006008610472
:100F50000319AB2FAC2FB12F61088A0060080A007B
:100F60008731200091100800F4008F31ED27873180
:100F7000003A0319BC2FBD2FB52F74088631A9265E
:100F800087310800573461346934743469346E34FD
:100F900067342E342E342E340D340A340034720863
:100FA00073040319D42FD52FDA2F73082000CC0037
:100FB0007208CB000800720873040319E02FE12FB8
:100FC000E62F73082000CE007208CD000800200034
:100FD00010100B140030F2000030F3008F31D227D4
:100FE000873108004434493441344C3420342534AA
:100FF00073340D340A3400341D302100970008008A
:101F9600F4340134013423001D121D1608007308A1
:101FA6002000D6007208D500080073082100E10061
:101FB6007208E0000800640080010131890BDF2F00
:101FC600003420006008031DE92FEB2F0130EC2FB1
:101FD6000030080020006108031DF22FF42F0130A5
:101FE600F52F003008006030320099009B019D01FA
:101FF60007309F009E019C0108005234653461340D
:10200600643479342E340D340A34003450344F3469
:102016004E3447340D340A34003441344E3453348C
:102026000D340A340034523449344E3447342034A3
:102036000034503449344E34473400344434523436
:0E2046004F345034003441344E34533400349F
:020000040001F9
:08000E008C3FFF3FFF3FFF3F65
:00000001FF
