:0400000080313F28E4
:1000060008007E14803100308600003087000B1F08
:100016000D280E283D282100111E122813281F28FE
:100026002000111E172818281F28210065088A009D
:1000360064080A0080313D282100911E23282428C7
:1000460030282000911E28282928302821006308FE
:100056008A0062080A0080313D282100911C34285C
:1000660035283D282000911C39283A283D2887311B
:10007600862780317E100900803141288F31E427A0
:100086008031EC008F31E5278031ED008F31E62796
:100096008031EE00FA01FB01473084000030850014
:1000A60025308731F9278031A03084000030850063
:1000B60040308731F92780312030840001308500B7
:1000C60040308731F9278031A03084000130850027
:1000D60040308731F9278031203084000230850096
:1000E60020308731F92780317E1020008131EF29B9
:1000F60020000C0C890C0139C4000E0C890C013946
:10010600C4006B080319882889289E2800305A02E3
:10011600653003195902031C912892289E28B13094
:10012600B7008630B80087317627803122008E10DE
:100136002000EB01EE296B08853191258031CF290E
:100146006E03031DA728A828EC294408031DAC2824
:10015600AD28EC290130E900E801D030F20000308A
:10016600F300F4001030F5000030F600873129273F
:10017600803164302000DB000030DC000130EB0011
:10018600EC296E03031DC828C928D4284408031D7A
:10019600CD28CE28D4280130E9076430DB000030B2
:1001A600DC004403031DD828D92804295B085C0415
:1001B600031DDE28DF28042969080319E328E4283B
:1001C60004290A3069060319E928EA28F228690889
:1001D600BC00BD013C08BF003D08C000F428BF01BB
:1001E600C0013F08BE006808D03E860087013E0871
:1001F600303E81000130E807E901F430DD000130CE
:10020600DE004403031D08290929EC295B085C0468
:10021600031D0E290F29EC296908031D132914292A
:10022600EC295D085E04031D19291A29EC296808C2
:1002360003191E291F29EC296A08031923292429D1
:100246003329D330B7008730B800D030B90000303A
:10025600BA0087317627803102302000EB00EC2986
:1002660022008E1405302000BD000F30BC00F13096
:10027600890B3B29BC0B3B29BD0B3B2922008E1069
:100286002000EB01EC296A08031D4A294B29EC29B9
:1002960022008E1405302000BD000F30BC00F13066
:1002A600890B5329BC0B5329BD0B532922008E10F1
:1002B60043295D085E04031D61296229EC29E701D3
:1002C600E5016430DD000030DE000430EB00EC298F
:1002D6005D085E04031D70297129EC296508031D5C
:1002E60075297629A1296708C03E8600870101087D
:1002F60003197E297F299C296708C03E860087014D
:100306000108D03EC300430803198A298B29932983
:100316004308BC00BD013C08C1003D08C200972946
:100326000A30C1000030C2004108E6000130E50095
:10033600A12922008E1405302000EB006503031D61
:10034600A529A629B02922008E1021302000DD0023
:100356000030DE000230E500EC2902306506031DA0
:10036600B529B629EC2922008E1401302000E602B8
:1003760066080319BF29C029C7294330DD000030AC
:10038600DE000130E500EC292030DD000330DE0020
:10039600E5010130E707EC2920006B08BC00BD0130
:1003A6003D08003A0319D829EC293C08003A0319FC
:1003B600A328013A0319C428033A03194629013A26
:1003C60003195C29073A03196B29013A0319EC2929
:1003D600EC294408EE000800873166278131403059
:1003E6002000B7008730B800873176278131220098
:1003F6008E10A3302000B7008730B80087317627EB
:1004060081312100E601E701031022008C1E03144E
:1004160003180E2A112A22008C16132A22008C1287
:1004260003100C1E03140318192A1C2A22000C168A
:100436001E2A22000C1203108E1E03140318242AEF
:10044600272A22008E16292A22008E120530200025
:10045600C6000F30C500F130890B2F2AC50B2F2A95
:10046600C60B2F2A640001302100E6070030E73D65
:1004760000306702643003196602031C432A442ACB
:10048600072A0730853191258131640022008E14B8
:1004960015302000C6004B30C500BE30890B512AEE
:1004A600C50B512AC60B512A0000640022008E108B
:1004B60015302000C6004B30C500BE30890B612ABE
:1004C600C50B612AC60B612A000022008E14640047
:1004D60015302000C6004B30C500BE30890B712A8E
:1004E600C50B712AC60B712A000022008E1033300C
:1004F600F2000430F3008F31F12781318B170B178F
:10050600E7302000B7008730B80087317627813181
:10051600003085319125813120000E0C890C01397E
:10052600EE0064008F31F7278131003A03199C2AC7
:100536009D2AD42A8631F32681312100E8000D3028
:1005460068060319A72AA82AAE2A0A306806031DD8
:10055600AD2AAE2AC22A200064080319B32AB42A97
:10056600D42A6408C03E8600013087008101C0306D
:10057600BC008331B22381312000E401D42A1F302C
:10058600200064020318C82AC92AD42A6408C03E77
:1005960086000130870021006808810001302000B4
:1005A600E40780317B208131942A80313F28200066
:1005B600270886008701403FAA00413FAB002A0872
:1005C60084002B0885001200253A031DEB2AEC2A2D
:1005D600972B2708860087010130810741310318D0
:1005E600810AC701C8010030DF00FF30C900FF30B3
:1005F600CA00AE01270886008701403FAA00413F96
:10060600AB002A0884002B0885001200733A031DEC
:100616000D2B0E2B192B2708860087010130810729
:1006260041310318810A0130AE005B2B2708860092
:100636008701403FAA00413FAB002A0884002B08EF
:10064600850012006C3A031D292B2A2B5B2B2708E9
:1006560086008701403FAA00413FAB0001302A07D0
:1006660084002B080318013E850012006C3A031D16
:100676003D2B3E2B5B2B270886008701403FAA00B7
:10068600413FAB0002302A0784002B080318013EC5
:1006960085001200733A031D512B522B5B2B270842
:1006A600860087010330810741310318810A162B22
:1006B6002E0803195F2B602B8D2B2808860029082E
:1006C600870001088400850102308107003FAA00E7
:1006D600013FAB002A08AF00842B2F088600870154
:1006E6000108AA00AB012A08F5002B08F600260827
:1006F600F8002508F7008431922482310130200069
:10070600AF072F08860087010108031D8B2B8C2B52
:10071600702BB12B20002708860087010130810746
:1007260041310318810AB12B270886008701403F13
:10073600AA00413FAB002A0884002B088500000868
:10074600AC00AD012C08F5002D08F6002608F800CF
:100756002508F7008431922482318D2B0800200071
:100766003C08F2000D30F3009030F400863132265A
:10077600833172087304031DC12BC22BD12B983011
:100786002000D7003A30D8000130EA000030B70028
:100796009030B800873176278331322C20003C0810
:1007A600F2000730F3009030F4000530F500003019
:1007B600F60085314125833172087304031DE42B4D
:1007C600E52B012C20006B08031DEA2BEB2B322CAA
:1007D600C030F2003C08053EF3000F30F400003054
:1007E600F5008531CF25833122008E145830200044
:1007F600DD000230DE000330EB00322C20003C0826
:10080600F2001730F3009030F4008631322683313F
:1008160072087304031D102C112C1E2C02302000AC
:100826006B06031D172C182C322C22008E14053053
:100836002000EB00322C20003C08F2001230F300BE
:100846009030F40086313226833172087304031D1A
:100856002D2C2E2C322C22008E102000EB010800AD
:1008660020005D085E040319392C3A2C3E2C013019
:10087600DD020030DE3B5B085C040319432C442C8C
:10088600482C0130DB020030DC3B570858040319C2
:100896004D2C4E2C592C0130D7020030D83B57082E
:1008A6005804031D572C582C592CEA016A08031DBD
:1008B6005D2C5E2C792C0130EC020030ED3B6C088F
:1008C6006D04031D672C682C792C031022008E1EE4
:1008D600031403186F2C722C22008E16742C22001F
:1008E6008E12F4302000EC000130ED000C197C2C47
:1008F6007D2C8F2C0E1C802C812C8F2CFD305A02C7
:10090600E830031959020318892C8A2C912C0130DE
:10091600D9070030DA3D912CD901DA0108007708B1
:1009260078040319972C982C9E2C77087804031DBD
:100936009D2C9E2CA32C7508873195278431EF2C8E
:1009460077088600780887004931160001040319E4
:10095600AD2CAE2CCF2C770886007808870049315D
:10096600403F2000A000413FA1007708860078089C
:1009760087004231403FA200413FA3002308803A4E
:10098600A4002108803A2402031DCB2C2008220251
:100996000318CE2CCF2CEF2C77088600780887001A
:1009A60042317708840078088500003F2000A000C7
:1009B600013FA100403F20078400413F213D8500C3
:1009C6007508800077088600780887004231013074
:1009D600810741310318810A08007B35203E8600D5
:1009E600013087000030C03FC13F23009D1CFC2C16
:1009F600FD2C0F2D7B35203E86000130870001152A
:100A060020004B084C040319092D0A2D0F2D4C0804
:100A16008A004B080A00853123001D1D132D142D55
:100A2600262D7B35203E860001308700811420006C
:100A36004D084E040319202D212D262D4E088A001F
:100A46004D080A00853123001908F0007B08013E95
:100A56001F39F10071087A06031D322D332D342D0E
:100A6600402D7B08A03E860001308700700881007B
:100A76007108FB0001302000E00708000130F50294
:100A86000030F63B750A031D4C2D760A031D4C2DCE
:100A96004D2D5A2DF201F301902D0130F207013050
:100AA600F3070030F43D0130F5020030F63B7208E2
:100AB60086000130870001080319622D632D822DFF
:100AC6007308840074088500120003196B2D6C2DC1
:100AD600822D750876040319712D722D822D7308E7
:100AE6008400740885000008F7007208860001304B
:100AF6008700010877060319812D822D502D720873
:100B06008600013087007308840074088500000899
:100B16000102F200F301031CF3030800F2002000B7
:100B26006A080319972D982DCE2D22008C120C12CF
:100B36008E12B42D8C16CE2D0C16CE2D8C160C16B0
:100B4600CE2D8E16CE2D8C168E16CE2D0C168E16FE
:100B5600CE2D8C160C168E16CE2D8C120C128E12D5
:100B6600CE2D7208003A0319CE2D013A03199D2D98
:100B7600033A03199F2D013A0319A12D073A0319C8
:100B8600A42D013A0319A62D033A0319A92D013AFA
:100B96000319AC2DB02D08007208F600E72D0130C0
:100BA600F4020030F53B760886008701F60A7308E2
:100BB600840001308500F30A0008C03F8908031D40
:100BC600E52DE62DE72DF42D74087504031DEC2D97
:100BD600ED2DD22DF42D7608860087018101013096
:100BE600F6070130F4020030F53B740A031DFF2DB1
:100BF600750A031DFF2D002EEE2D0800210091120F
:100C0600F030E2000430E30011120E30E400073049
:100C1600E500483023009F0090309D0026309E005E
:100C260040309B0003309C000330F2000030F3009C
:100C36008731BC278631E730F2000F30F300873169
:100C4600B02786312000D301D401E301E201203030
:100C5600E100FB01FA01E001210091160800392E9E
:100C66000130F2070130F3070030F43D73088400C9
:100C7600740885000008F5007208860001308700B8
:100C860001087506031D482E492E522E720886004D
:100C9600013087000108031D512E522E332E720893
:100CA60086000130870073088400740885000008F8
:100CB6000102F200F301031CF303080022008C0179
:100CC60008308E000C3021008C0015308E00230079
:100CD6008C018E01043024008C0005308E00250026
:100CE6008C018E01373026008C003F308E003F305D
:100CF60027008C003F308E0014303C00A4001430D6
:100D06003D00A300270091019201930197019801EC
:100D160099010800F3002100111A922E932E972EA6
:100D2600730823009A00AE2E2000610803199C2E3A
:100D36009D2EAE2E6308A03E8600870173088100B3
:100D46006308013E1F39F2007208E3002100111208
:100D560001302000E102210011160800443452340B
:100D66004F3450342034283452346534613473346B
:100D76006F346E343A34203450344234583420348C
:100D8600423455345334593420346434653474341D
:100D96006534633474346534643429340D340A3468
:100DA600003420003308B6003208B500E62E3108BC
:100DB600A6003008A5003530A7003408A800A90110
:100DC6008231DA2286312000350884003608850013
:100DD6001200031DEF2EF02EDA2EB001B10108002D
:100DE6007A08A03E8600013087000108F3007A08E1
:100DF600013E1F39F2007208FA002100911220000C
:100E060060080319072F082F0A2F0130E00221007E
:100E16009116730808002030200061020318142F71
:100E2600152F262F6208A03E8600870101082300A1
:100E36009A0020006208013E1F39F0007008E200A7
:100E46000130E107282F2100111208007208F7006F
:100E5600332F770886008701730881000130F70772
:100E66000130F5020030F63B750A031D3E2F760A67
:100E7600031D3E2F3F2F2C2F08000D340A34493412
:100E86005034203455346E34693474342034533439
:100E96007434613472347434653464342E340D34ED
:100EA6000A3400347C3020009E009D01FF30210072
:100EB600E0000730E1002000911021009114073076
:100EC60020009F0008008731DD27873186316126A3
:100ED600873187315527873186310126873187311A
:100EE600C8278731080039302000BB000030B00029
:100EF600B1003808B3003708B2003B30B400863181
:100F0600D4268731080021006008610403198C2F5C
:100F16008D2F922F61088A0060080A008731200011
:100F260091100800F4008731F0278731003A031941
:100F36009D2F9E2F962F740886318D2687310800A7
:100F4600573461346934743469346E3467342E34FA
:100F56002E342E340D340A34003472087304031907
:100F6600B52FB62FBB2F73082000CC007208CB001C
:100F76000800720873040319C12FC22FC72F730804
:100F86002000CE007208CD000800200010100B14BF
:100F96000030F2000030F3008F31EB278731080074
:100FA6004434493441344C342034253473340D34BC
:100FB6000A3400346030320099009B019D010730ED
:100FC6009F009E019C0108005234653461346434EC
:100FD60079342E340D340A34003420006108031DA0
:100FE600F52FF72F0130F82F00300800640080013C
:0A0FF6000131890BFA2F00340800C6
:101FC800F4340134013423001D121D16080073086F
:101FD8002000D6007208D500080073082100E1002F
:101FE8007208E000080020006008031DFC2FFE2F87
:101FF8000130FF2F0030080050344F344E3447343E
:102008000D340A340034523449344E3447342034C1
:102018000034503449344E34473400344434523454
:0E2028004F345034003441344E3453340034BD
:020000040001F9
:08000E008C3FF33FFF3FFF3F71
:00000001FF
