:1000000080313F28080008007E14803100308600CF
:10001000003087000B1F0D280E283D282100111EDF
:10002000122813281F282000111E172818281F28FF
:10003000210065088A0064080A0080313D282100FB
:10004000911E2328242830282000911E28282928A2
:100050003028210063088A0062080A0080313D28A8
:100060002100911C342835283D282000911C392876
:100070003A283D288731B32780317E10090080312E
:1000800041288F31C7278031EC008F31C82780315C
:10009000ED008F31C9278031EE00FA01FB014730B6
:1000A00084000030850025308F31DE278031A0307C
:1000B00084000030850040308F31DE2780312030D1
:1000C00084000130850040308F31DE278031A03040
:1000D00084000130850040308F31DE2780312030B0
:1000E00084000230850020308F31DE2780317E1081
:1000F000200082310B2A20000C0C890C0139C4002D
:100100000E0C890C0139C4006B0803198828892852
:100110009E2800305A02653003195902031C9128A9
:1001200092289E28DB30B7008630B8008731A3279D
:10013000803122008E102000EB010A2A6B088531E5
:10014000BB258031E8296E03031DA728A828082AAB
:100150004408031DAC28AD28082A0130E900E80155
:10016000D030F2000030F300F4001030F500003021
:10017000F60087315327803164302000DB000030E7
:10018000DC000130EB00082A6E03031DC828C928D3
:10019000D4284408031DCD28CE28D4280130E907EF
:1001A0006430DB000030DC004403031DD828D9286C
:1001B00004295B085C04031DDE28DF280429690884
:1001C0000319E328E42804290A3069060319E928F9
:1001D000EA28F2286908BC00BD013C08BF003D08C0
:1001E000C000F428BF01C0013F08BE006808D03E2F
:1001F000860087013E08303E81000130E807E901B2
:10020000F430DD000130DE004403031D0829092914
:10021000082A5B085C04031D0E290F29082A6908B7
:10022000031D13291429082A5D085E04031D1929DA
:100230001A29082A680803191E291F29082A6A088A
:1002400003192329242933290030B7008830B80046
:10025000D030B9000030BA008731A3278031023096
:100260002000EB00082A22008E1405302000BD007B
:100270000F30BC00F130890B3B29BC0B3B29BD0B77
:100280003B2922008E102000EB01082A6A08031D7A
:100290004A294B29082A22008E1405302000BD006F
:1002A0000F30BC00F130890B5329BC0B5329BD0B17
:1002B000532922008E1043295D085E04031D612925
:1002C0006229082AE701E5016430DD000030DE0024
:1002D0000430EB00082A5D085E04031D70297129B3
:1002E000082A6508031D75297629A1296708C03EDB
:1002F00086008701010803197E297F299C29670848
:10030000C03E860087010108D03EC30043080319A0
:100310008A298B2993294308BC00BD013C08C100F0
:100320003D08C20097290A30C1000030C2004108D0
:10033000E6000130E500A12922008E1406302000DD
:10034000EB006503031DA529A629B02922008E1004
:1003500021302000DD000030DE000230E500082AF8
:1003600002306506031DB529B629082A22008E141D
:1003700001302000E60266080319BF29C029C729F9
:100380004330DD000030DE000130E500082A203077
:10039000DD000330DE00E5010130E707082A5D08D3
:1003A0005E04031DD429D529082A0C1DD829D92972
:1003B000082A0E1CDC29DD29082A1030B7009030ED
:1003C000B8008731A327803105302000EB00082AD0
:1003D00020006B08BC00BD013D08003A0319F1295B
:1003E000082A3C08003A0319A328013A0319C42833
:1003F000033A03194629013A03195C29073A0319FC
:100400006B29013A0319082A033A0319CF29082A4C
:100410004408EE00080087317F2782316A302000CF
:10042000B7008730B8008731A327823122008E10B1
:10043000D0302000B7008730B8008731A327823141
:100440002100E601E701031022008C1E03140318AB
:100450002A2A2D2A22008C162F2A22008C12031001
:100460000C1E03140318352A382A22000C163A2AC7
:1004700022000C1203108E1E03140318402A432A74
:1004800022008E16452A22008E1205302000C6005A
:100490000F30C500F130890B4B2AC50B4B2AC60B18
:1004A0004B2A640001302100E6070030E73D0030B0
:1004B0006702643003196602031C5F2A602A232A3C
:1004C00007308531BB258231640022008E1415303F
:1004D0002000C6004B30C500BE30890B6D2AC50B0D
:1004E0006D2AC60B6D2A0000640022008E101530A4
:1004F0002000C6004B30C500BE30890B7D2AC50BDD
:100500007D2AC60B7D2A000022008E14640015305F
:100510002000C6004B30C500BE30890B8D2AC50BAC
:100520008D2AC60B8D2A000022008E105D30F2004D
:100530000430F3008F31D82782318B170B1700302E
:100540002000B7009030B8008731A32782310030F7
:100550008531BB25823120000E0C890C0139EE005B
:1005600064008F31E4278231003A0319B82AB92A8E
:10057000F02A87311D2782312100E8000D306806FE
:100580000319C32AC42ACA2A0A306806031DC92AC5
:10059000CA2ADE2A200064080319CF2AD02AF02AAA
:1005A0006408C03E8600013087008101C030BC0075
:1005B0008331CE2382312000E401F02A1F30200055
:1005C00064020318E42AE52AF02A6408C03E860083
:1005D0000130870021006808810001302000E40715
:1005E00080317B208231B02A80313F2820002708CB
:1005F00086008701403FAA00413FAB002A088400E3
:100600002B0885001200253A031D072B082BB32B5E
:100610002708860087010130810741310318810ACC
:10062000C701C8010030DF00FF30C900FF30CA0039
:10063000AE01270886008701403FAA00413FAB007A
:100640002A0884002B0885001200733A031D292B09
:100650002A2B352B2708860087010130810741317D
:100660000318810A0130AE00772B27088600870126
:10067000403FAA00413FAB002A0884002B088500B8
:1006800012006C3A031D452B462B772B270886005A
:100690008701403FAA00413FAB0001302A07840098
:1006A0002B080318013E850012006C3A031D592BDC
:1006B0005A2B772B270886008701403FAA00413F2D
:1006C000AB0002302A0784002B080318013E850086
:1006D0001200733A031D6D2B6E2B772B27088600B3
:1006E00087010330810741310318810A322B2E081C
:1006F00003197B2B7C2BA92B28088600290887004F
:1007000001088400850102308107003FAA00013FF3
:10071000AB002A08AF00A02B2F0886008701010834
:10072000AA00AB012A08F5002B08F6002608F800FD
:100730002508F7008431BC24823101302000AF0746
:100740002F08860087010108031DA72BA82B8C2BDF
:10075000CD2B200027088600870101308107413119
:100760000318810ACD2B270886008701403FAA0085
:10077000413FAB002A0884002B0885000008AC002C
:10078000AD012C08F5002D08F6002608F800250814
:10079000F7008431BC248231A92B080020003C08DA
:1007A000F2001C30F3009030F40086315C26833177
:1007B00072087304031DDD2BDE2BED2B9830200017
:1007C000D7003A30D8000130EA000930B700903045
:1007D000B8008731A32783315C2C20003C08F2004D
:1007E0001630F3009030F4000530F5000030F600CC
:1007F00085316B25833172087304031D002C012C95
:100800001D2C20006B08031D062C072C5C2CC0300F
:10081000F2003C08053EF3000F30F4000030F50014
:100820008531F925833122008E1458302000DD00F7
:100830000230DE000330EB005C2C20003C08F200AC
:100840002630F3009030F40086315C268331720844
:100850007304031D2C2C2D2C3A2C023020006B0627
:10086000031D332C342C5C2C22008E140530200008
:10087000EB005C2C20003C08F2002130F3009030AB
:10088000F40086315C26833172087304031D492C01
:100890004A2C5C2C22008E1405302000BE000F3044
:1008A000BD00F130890B522CBD0B522CBE0B522CCB
:1008B00022008E102000EB01080020005D085E047D
:1008C0000319632C642C682C0130DD020030DE3B00
:1008D0005B085C0403196D2C6E2C722C0130DB025A
:1008E0000030DC3B570858040319772C782C832CF4
:1008F0000130D7020030D83B57085804031D812C23
:10090000822C832CEA016A08031D872C882CA32CD7
:100910000130EC020030ED3B6C086D04031D912C9E
:10092000922CA32C031022008E1E03140318992C62
:100930009C2C22008E169E2C22008E12F430200059
:10094000EC000130ED000C19A62CA72CB92C0E1CC4
:10095000AA2CAB2CB92CFD305A02E83003195902ED
:100960000318B32CB42CBB2C0130D9070030DA3D6E
:10097000BB2CD901DA010800770878040319C12CCF
:10098000C22CC82C77087804031DC72CC82CCD2C8A
:1009900075088731C2278431192D770886007808B9
:1009A00087004931160001040319D72CD82CF92CE3
:1009B00077088600780887004931403F2000A00072
:1009C000413FA10077088600780887004231403F08
:1009D000A200413FA3002308803AA4002108803AE6
:1009E0002402031DF52C200822020318F82CF92CF0
:1009F000192D77088600780887004231770884002F
:100A000078088500003F2000A000013FA100403F82
:100A100020078400413F213D85007508800077084C
:100A20008600780887004231013081074131031880
:100A3000810A08007B35203E8600013087000030A7
:100A4000C03FC13F23009D1C262D272D392D7B350E
:100A5000203E860001308700011520004B084C0421
:100A60000319332D342D392D4C088A004B080A0008
:100A7000853123001D1D3D2D3E2D502D7B35203E03
:100A8000860001308700811420004D084E040319B0
:100A90004A2D4B2D502D4E088A004D080A008531F5
:100AA00023001908F0007B08013E1F39F10071088E
:100AB0007A06031D5C2D5D2D5E2D6A2D7B08A03E00
:100AC000860001308700700881007108FB0001304A
:100AD0002000E00708000130F5020030F63B750AFF
:100AE000031D762D760A031D762D772D842DF201B8
:100AF000F301BA2D0130F2070130F3070030F43D65
:100B00000130F5020030F63B7208860001308700A4
:100B1000010803198C2D8D2DAC2D730884007408E9
:100B2000850012000319952D962DAC2D75087604BD
:100B300003199B2D9C2DAC2D73088400740885002F
:100B40000008F70072088600013087000108770668
:100B50000319AB2DAC2D7A2D720886000130870069
:100B6000730884007408850000080102F200F30194
:100B7000031CF3030800F20020006A080319C12DCA
:100B8000C22DF82D22008C120C128E12DE2D8C1626
:100B9000F82D0C16F82D8C160C16F82D8E16F82D37
:100BA0008C168E16F82D0C168E16F82D8C160C162B
:100BB0008E16F82D8C120C128E12F82D7208003A37
:100BC0000319F82D013A0319C72D033A0319C92D4A
:100BD000013A0319CB2D073A0319CE2D013A031917
:100BE000D02D033A0319D32D013A0319D62DDA2D4E
:100BF00008007208F600112E0130F4020030F53BB7
:100C0000760886008701F60A7308840001308500A3
:100C1000F30A0008C03F8908031D0F2E102E112E65
:100C20001E2E74087504031D162E172EFC2D1E2E65
:100C300076088600870181010130F6070130F40251
:100C40000030F53B740A031D292E750A031D292E59
:100C50002A2E182E0800210091121A30E2000530C9
:100C6000E30011123830E4000730E500483023007B
:100C70009F0090309D0026309E0040309B00033046
:100C80009C000230F2000030F3008731E927863102
:100C9000CA30F2000F30F3008731DD2786312000A3
:100CA000D301D401E301E2012030E100FB01FA01AC
:100CB000E001210091160800632E0130F207013097
:100CC000F3070030F43D73088400740885000008C1
:100CD000F500720886000130870001087506031DC3
:100CE000722E732E7C2E7208860001308700010858
:100CF000031D7B2E7C2E5D2E72088600013087003E
:100D0000730884007408850000080102F200F301F2
:100D1000031CF303080022008C0108308E000C3005
:100D200021008C0015308E0023008C018E010430D0
:100D300024008C0005308E0025008C018E01373098
:100D400026008C003F308E003F3027008C003F3063
:100D50008E0014303C00A40014303D00A300270096
:100D60009101920193019701980199010800F30004
:100D70002100111ABC2EBD2EC12E730823009A002B
:100D8000D82E200061080319C62EC72ED82E63085E
:100D9000A03E86008701730881006308013E1F3969
:100DA000F2007208E3002100111201302000E1027C
:100DB000210011160800443452344F34503420348A
:100DC000283452346534613473346F346E343A34B9
:100DD000203450344234583420344234553453345F
:100DE0005934203464346534743465346334743471
:100DF0006534643429340D340A3400342000330857
:100E0000B6003208B500102F3108A6003008A50042
:100E10003530A7003408A800A9018231F6228631B6
:100E2000200035088400360885001200031D192FA4
:100E30001A2F042FB001B10108007A08A03E8600E5
:100E4000013087000108F3007A08013E1F39F200E3
:100E50007208FA0021009112200060080319312F56
:100E6000322F342F0130E002210091167308080060
:100E700020302000610203183E2F3F2F502F6208C0
:100E8000A03E86008701010823009A002000620826
:100E9000013E1F39F0007008E2000130E107522FD7
:100EA0002100111208007208F7005D2F77088600F4
:100EB0008701730881000130F7070130F502003027
:100EC000F63B750A031D682F760A031D682F692FEC
:100ED000562F08000D340A34493450342034553428
:100EE0006E3469347434203453347434613472345D
:100EF0007434653464342E340D340A3400348F3144
:100F0000F627873186318B268731873192278731C3
:100F100086312B2687318F31CE2787318731F527D0
:100F2000873108007C3020009E009D0103302100A5
:100F3000E0000030E1002000911021009114073002
:100F400020009F00080039302000BB000030B000B6
:100F5000B1003808B3003708B2003B30B400863126
:100F6000FE26873108002100600861040319B92FAB
:100F7000BA2FBF2F61088A0060080A00873120005D
:100F800091100800F4008F31ED278731003A0319E2
:100F9000CA2FCB2FC32F74088631B726873108009C
:100FA000573461346934743469346E3467342E34A0
:100FB0002E342E340D340A340034720873040319AD
:100FC000E22FE32FE82F73082000CC007208CB003B
:100FD0000800720873040319EE2FEF2FF42F730823
:100FE0002000CE007208CD000800200010100B1465
:100FF0000030F2000030F3008F31D2278731080033
:101000004434493441344C342034253473340D3461
:041010000A3400346A
:101F8E00F4340134013423001D121D1608001D30D7
:101F9E0021009700080073082000D6007208D500B3
:101FAE00080073082100E1007208E00008006400D8
:101FBE0080010131890BDF2F003420006008031DE2
:101FCE00E92FEB2F0130EC2F0030080020006108C4
:101FDE00031DF22FF42F0130F52F00300800603072
:101FEE00320099009B019D0107309F009E019C01CC
:101FFE000800523465346134643479342E340D342F
:10200E000A34003450344F344E3447340D340A34CD
:10201E00003441344E3453340D340A3400345234C7
:10202E0049344E34473420340034503449344E341D
:10203E0047340034443452344F3450340034413435
:06204E004E34533400344F
:020000040001F9
:08000E008C3FFF3FFF3FFF3F65
:00000001FF
