:1000000080315728080008007E14803100308600B7
:10001000003087000B1F0D280E2855282100111EC7
:10002000122813281E282000111E172818281E2801
:1000300024005D088A005C080A0080312100911EBE
:10004000222823282E282000911E272828282E2801
:1000500024005B088A005A080A0080312100141E1F
:10006000322833283B282000141E372838283B2804
:100070009031002080312100131C3F28402848285F
:100080002000131C4428452848289E312026803112
:100090002100111F4C284D2855282000111F5128E0
:1000A000522855289E31112680317E10090080315A
:1000B0005928633084009D308500EC308600013083
:1000C000870004309D3184258031E23084009D30EA
:1000D000850062308600023087000A309D31842519
:1000E00080319A3084009D308500E03086000230F7
:1000F000870008309D3184258031FC01FD01563098
:100100008400003085000D309D317E258031A03087
:100110008400013085003E309D317E2580312030C5
:100120008400023085002E309D317E258031A03044
:1001300084000230850040309D317E2580312030A2
:1001400084000330850040309D317E2580317E1053
:10015000200088311228D70123005803031DB1283D
:10016000B228D22825006908031DB728B828D2284C
:1001700001302300E0070030E13D6D086102031DFE
:10018000C3286C086002031CC628C728D228013087
:100190002500E90030302000AF00A030B0009031E1
:1001A0001720803123005C08031DD728D9288E3101
:1001B000662E200061080319DE28DF28D728E10118
:1001C0002600E601E7016708803A2200A00080309F
:1001D0002002031DEE28083026006602031CF128C9
:1001E000F228F4288C31532C26006635303E8600E8
:1001F00002308700403F2200A000413FA1002008BC
:100200002000AD00220021082000AE00890D893BAE
:100210008909AF00B00026006635303E8600023006
:100220008700403F2200A200413FA3002208200097
:10023000B100220023082000B200890D893B890902
:10024000B300B4009031D420803120003008210068
:10025000E30020002F082100E20020002E082100EA
:10026000E10020002D082100E00026006635203E38
:10027000860002308700403F2200A000413FA100DD
:1002800020082000AD00220021082000AE00890DCA
:10029000893B8909AF00B00026006635203E860004
:1002A00002308700403F2200A200413FA300220805
:1002B0002000B100220023082000B200890D893BF4
:1002C0008909B300B4009031D42080312000300877
:1002D0002200EB0020002F082200EA0020002E0858
:1002E0002200E90020002D082200E80026006635E3
:1002F000303E860002308700403F2200A000413F90
:10030000A10020082000AD00220021082000AE003E
:10031000890D893B8909AF00B00026006635203E73
:10032000860002308700403F2200A200413FA30028
:1003300022082000B100220023082000B200890D0D
:10034000893B8909B300B4009031D420803120006A
:1003500030082600EB0020002F082600EA002000CD
:100360002E082600E90020002D082600E8000030B5
:100370002300EB000030EA000030E9000030E80024
:10038000692D68082200A000260069082200A1004B
:1003900026006A082200A20026006B082200A300A3
:1003A000260068082200A400260069082200A50093
:1003B00026006A082200A60026006B082200A7007B
:1003C0000630A800A737A60CA50CA40CA80BE229A0
:1003D000260068082200A900260069082200AA0059
:1003E00026006A082200AB0026006B082200AC0041
:1003F0000430AD00AC37AB0CAA0CA90CAD0BFA293C
:10040000260068082200AE00260069082200AF001E
:1004100026006A082200B00026006B082200B10006
:100420000330B200B137B00CAF0CAE0CB20B122AD5
:10043000260068082200B300260069082200B400E4
:1004400026006A082200B50026006B082200B600CC
:100450000130B700B637B50CB40CB30CB70B2A2A71
:100460003308AE073408AF3D3508B03D3608B13D1E
:100470002E08A9072F08AA3D3008AB3D3108AC3D36
:100480002908A4072A08A53D2B08A63D2C08A73D4E
:100490002408A0072508A13D2608A23D2708A33D62
:1004A00023082300EB00220022082300EA00220098
:1004B00021082300E900220020082300E800892DFC
:1004C00068082200A000260069082200A10026007A
:1004D0006A082200A20026006B082200A300260062
:1004E00068082200A400260069082200A500260052
:1004F0006A082200A60026006B082200A700083028
:10050000A800A737A60CA50CA40CA80B812A2600CE
:1005100068082200A900260069082200AA00260017
:100520006A082200AB0026006B082200AC000730EE
:10053000AD00AC37AB0CAA0CA90CAD0B992A260068
:1005400068082200AE00260069082200AF002600DD
:100550006A082200B00026006B082200B1000330B8
:10056000B200B137B00CAF0CAE0CB20BB12A260002
:1005700068082200B300260069082200B4002600A3
:100580006A082200B50026006B082200B600013080
:10059000B700B637B50CB40CB30CB70BC92A330887
:1005A000AE073408AF3D3508B03D3608B13D2E08E2
:1005B000A9072F08AA3D3008AB3D3108AC3D2908FA
:1005C000A4072A08A53D2B08A63D2C08A73D240812
:1005D000A0072508A13D2608A23D2708A33D230822
:1005E0002300EB00220022082300EA002200210859
:1005F0002300E900220020082300E800892D680874
:100600002200A000260069082200A10026006A0836
:100610002200A20026006B082200A3002600680822
:100620002200A400260069082200A50026006A080E
:100630002200A60026006B082200A7000430A800B4
:10064000A737A60CA50CA40CA80B202B2600680825
:100650002200A900260069082200AA0026006A08D4
:100660002200AB0026006B082200AC000130AD0078
:10067000AC37AB0CAA0CA90CAD0B382B2908A4077E
:100680002A08A53D2B08A63D2C08A73D2408A00755
:100690002508A13D2608A23D2708A33D23082300E5
:1006A000EB00220022082300EA0022002108230098
:1006B000E900220020082300E800892D68082200B4
:1006C000A000260069082200A10026006A08220076
:1006D000A20026006B082200A30026006808220062
:1006E000A400260069082200A50026006A0822004E
:1006F000A60026006B082200A7000630A800A73736
:10070000A60CA50CA40CA80B7F2B260068082200C1
:10071000A900260069082200AA0026006A08220013
:10072000AB0026006B082200AC000130AD00AC37F6
:10073000AB0CAA0CA90CAD0B972B2408A902250819
:10074000AA3B2608AB3B2708AC3B2908A0072A0890
:10075000A13D2B08A23D2C08A33D23082300EB005C
:10076000220022082300EA00220021082300E900D9
:10077000220020082300E800892D68082200A0003C
:10078000260069082200A10026006A082200A200B3
:1007900026006B082200A300260068082200A4009F
:1007A000260069082200A50026006A082200A6008B
:1007B00026006B082200A7000730A800A737A60C68
:1007C000A50CA40CA80BDE2B260068082200A900AB
:1007D000260069082200AA0026006A082200AB0051
:1007E00026006B082200AC000530AD00AC37AB0C26
:1007F000AA0CA90CAD0BF62B260068082200AE004F
:10080000260069082200AF0026006A082200B00016
:1008100026006B082200B1000330B200B137B00CE3
:10082000AF0CAE0CB20B0E2C2E08A9072F08AA3D58
:100830003008AB3D3108AC3D2908A4072A08A53D86
:100840002B08A63D2C08A73D2408A0072508A13D9C
:100850002608A23D2708A33D23082300EB00220021
:1008600022082300EA00220021082300E9002200D8
:1008700020082300E800892D68082200A000260037
:1008800069082200A10026006A082200A2002600B2
:100890006B082200A300260068082200A40026009E
:1008A00069082200A50026006A082200A60026008A
:1008B0006B082200A7000730A800A737A60CA50CDC
:1008C000A40CA80B5D2C2408A0072508A13D260830
:1008D000A23D2708A33D23082300EB0022002208A5
:1008E0002300EA00220021082300E900220020085A
:1008F0002300E800892D68082200A000260069086E
:100900002200A10026006A082200A20026006B082F
:100910002200A3000730A400A337A20CA10CA00C56
:10092000A40B8C2C260068082200A500260069086C
:100930002200A60026006A082200A70026006B08F5
:100940002200A8000530A900A837A70CA60CA50C0A
:10095000A90BA42C260068082200AA00260069081A
:100960002200AB0026006A082200AC0026006B08BB
:100970002200AD000230AE00AD37AC0CAB0CAA0CBF
:10098000AE0BBC2C260068082200AF0026006908C8
:100990002200B00026006A082200B10026006B0881
:1009A0002200B2000130B300B237B10CB00CAF0C72
:1009B000B30BD42C2F08AA073008AB3D3108AC3D4F
:1009C0003208AD3D2A08A5072B08A63D2C08A73DF7
:1009D0002D08A83D2508A0072608A13D2708A23D0F
:1009E0002808A33D23082300EB002200220823004F
:1009F000EA00220021082300E90022002008230049
:100A0000E800892D68082200A0002600690822005D
:100A1000A10026006A082200A20026006B0822001E
:100A2000A3000830A400A337A20CA10CA00CA40BB7
:100A3000132D260068082200A50026006908220060
:100A4000A60026006A082200A70026006B082200E4
:100A5000A8000430A900A837A70CA60CA50CA90B68
:100A60002B2D260068082200AA0026006908220013
:100A7000AB0026006A082200AC0026006B082200AA
:100A8000AD000130AE00AD37AC0CAB0CAA0CAE0B18
:100A9000432D2A08A5072B08A63D2C08A73D2D08A5
:100AA000A83D2008A5022108A63B2208A73B230851
:100AB000A83B28082300EB00220027082300EA00B7
:100AC000220026082300E900220025082300E80070
:100AD000892D26006708003A03196F2D892D6608B5
:100AE000003A0319C129013A0319602A033A03198C
:100AF000FF2A013A03195E2B073A0319BD2B013A6D
:100B000003193C2C033A03197B2C013A0319022DDB
:100B1000892D22006808A0006908A1006A08A200C7
:100B20006B08A30023006808210060022200A400D3
:100B3000230069082100613B2200A50023006A0808
:100B40002100623B2200A60023006B082100633BCA
:100B50002200A7002408A0072508A13D2608A23DE1
:100B60002708A33D260066082200A8000230A83509
:100B7000890BB72D2808483E8600013087002008E1
:100B8000C03F2108C13F2208C23F2308C33F0130B4
:100B90002600E6070030E73DE328200039088600FC
:100BA0008701403FBC00413FBD003C0884003D0838
:100BB00085001200253A031DDE2DDF2D362F390862
:100BC000860087010130810741310318810A240022
:100BD000C001C10100302300CE00FF302400C2005C
:100BE000FF30C3002000390886008701403FC10064
:100BF000413FC20041088400420885001200643A67
:100C00000319032E042E0E2E41088400420885008D
:100C10001200693A031D0D2E0E2E9B2E3A088600F7
:100C20003B08870001088400850102308107003FEE
:100C3000C400013FC5004108013EBC000030423DF8
:100C4000BD003908860087013C08C03F3D08C13F10
:100C50002030C800C51B2D2E2F2E0130302E003025
:100C6000C3000130C8024808203E860003308700D8
:100C70000A30AD000030AE004508B0004408AF00B7
:100C80009231A022853120002E08B4002D08B30037
:100C900088310020853120003308303E81000A3041
:100CA000AD000030AE004508B0004408AF009331FD
:100CB0004B23853120002E08C5002D08C4004408B0
:100CC00045040319642E652E6A2E4808031D692EFB
:100CD0006A2E312E480803196E2E6F2E942E43086B
:100CE0000319732E742E942E0130C8024808203E3A
:100CF0008600033087002D308100942E4808203E66
:100D00008600033087000108BC00BD013C08AD002F
:100D10003D08AE003808B0003708AF009231F2222B
:100D2000853101302000C80720304806031D992E68
:100D30009A2E7E2E502FC301390886008701403F2E
:100D4000BC00413FBD003C0884003D088500120006
:100D5000733A031DAC2EAD2EB82E390886008701DC
:100D60000130810741310318810A0130C300FA2E96
:100D7000390886008701403FBC00413FBD003C0868
:100D800084003D08850012006C3A031DC82EC92E50
:100D9000FA2E390886008701403FBC00413FBD0064
:100DA00001303C0784003D080318013E8500120015
:100DB0006C3A031DDC2EDD2EFA2E390886008701E1
:100DC000403FBC00413FBD0002303C0784003D086D
:100DD0000318013E85001200733A031DF02EF12E18
:100DE000FA2E390886008701033081074131031844
:100DF000810AB52E43080319FE2EFF2E2C2F3A0828
:100E000086003B08870001088400850102308107C5
:100E1000003FBC00013FBD003C08C000232F40083C
:100E2000860087010108BC00BD013C08AD003D08FB
:100E3000AE003808B0003708AF009231F222853199
:100E400001302000C0074008860087010108031D0B
:100E50002A2F2B2F0F2F502F2000390886008701B3
:100E60000130810741310318810A502F390886006B
:100E70008701403FBC00413FBD003C0884003D0865
:100E800085000008BE00BF013E08AD003F08AE006F
:100E90003808B0003708AF009231F22285312C2F8C
:100EA000080023005C08031D562F572FDC2FF22F5C
:100EB0000130CC020030CD3B4C084D04031D612FA6
:100EC000622FF22F0230DD0024004D082300CD00F8
:100ED00024004C082300CC003E009113F22F013077
:100EE000CC020030CD3B4C084D04031D782F792FE8
:100EF000F22F01302000E00260080319802F812FBB
:100F00008F2F01302300DD00200057082300CD0083
:100F1000200056082300CC003E009117F22F03302A
:100F20002300DD0024006B082300CD0024006A08A4
:100F30002300CC00F22F0130CC020030CD3B4C0816
:100F40004D04031DA42FA52FF22F01302000DF0731
:100F500023005B0820005F020318AF2FB02FD72FAC
:100F60005F08403E8600033087000108F200313000
:100F70007202031CBC2FBD2FC72F3A307202031818
:100F8000C22FC32FC72F7208D03EE000D12F3030C0
:100F90007206031DCC2FCD2FD02F0A30E000D12FA9
:100FA000E00160080319D52FD62FD72F812F2300FA
:100FB000DC01DB01DD01F22F5D08F000F1017108B9
:100FC000003A0319E42FF22F7008003A0319F22FA8
:100FD000013A0319582F033A03196F2F013A0319E5
:100FE0009B2FF22F0800C03029009F009A01990121
:100FF00098019D019C011A309B0080309E000800E2
:101000002000B41B04280528062811283309B50040
:101010003409B600B50A0319B60A3508B300360814
:10102000B400080090316F20883129302000AD00D5
:101030000930AE009D31A22588310A309E31BE268E
:10104000883151302000AD000730AE009D31CF25F2
:1010500088316C302000AD001D30AE009D31B425CC
:1010600088318B170B172300E4012200EE01EF01FA
:101070002300E5012400EC01ED012300E70101302C
:101080002000D50001302100E40003302300E200FD
:101090000A302000D4002300E001E1012500E9012D
:1010A0009431AA24883110309D31722588319D31C8
:1010B0008A2588319D315F258831003A03196128DE
:1010C00062285A289D314C2588319D31F725883179
:1010D000640023004A084B0403196F2870289828DD
:1010E0005C08031D7428752898280130CA02003056
:1010F000CB3B4A084B04031D7E287F2898285B08B9
:1011000003198328842898289D319225883121004D
:101110008E1268302200A000E430890B8D28A00BCD
:101120008D2800009D318A2588319131B821883180
:101130002300530803199D289E28E0285908031905
:10114000A228A328E0280130D9025908031DA928A4
:10115000AA28E0285A080319AE28AF28E0289D31B4
:1011600067258831013A031DB628B728DE280A30E2
:1011700023005A02031CBD28BE28C228303022009A
:10118000EC00C6285A08303E2200EC00623086008F
:101190000230870038308400013085000830A0001C
:1011A00016001A00A00BD0286C08BD0038302000B3
:1011B000AF000130B0009031172088312300DA01F0
:1011C0009D31672588312300E30063085806031921
:1011D000EA28EC288031AB280130D70705305702C8
:1011E000031CF328F5288031AC286308D800D70108
:1011F0005803031DFC28FD28112927302000AF00CB
:10120000A030B0009031172088319D3140258831C1
:101210009D313A2588312300E001E1012500E901F3
:10122000F32838302000AF00A030B00090311720F4
:1012300088319D31372588319D313D258831230006
:10124000E001E1012500E9012300DB01CA01CB0136
:10125000F32821001B08003EF000FE301C3DF10089
:1012600070082000A5007108A6002608F1002508D6
:10127000F000710DF10CF00C710DF10CF00C700818
:10128000A5007108A6002300310D310C2000AC0030
:101290002300300C2000AB002C08F1002B08F000DC
:1012A000710DF10CF00C710DF10CF00C7008A9002F
:1012B0007108AA002A0D2A0CA400290CA3002408F6
:1012C000F1002308F000710DF10CF00C710DF10C20
:1012D000F00C7008A0007108A10023002008300263
:1012E000F0002108313BF100200025087007F200D2
:1012F0002608713DF3002B087207F4002C08733D9B
:10130000F50029087407F6002A08753DF700230840
:101310007607F8002408773DF90020087807A70031
:101320002108793DA80023003108A1003008A00061
:10133000200028082300B100200027082300B00067
:10134000330D330C2000AC002300320C2000AB0026
:101350002C08F1002B08F000710DF10CF00C710D50
:10136000F10CF00C7008A9007108AA00290E0F39C1
:10137000A3002A0EF039A3042A0E0F39A400F0307E
:10138000A41D0030A404240D240CA100230CA000F3
:101390000230A03E8600013087000230B03E84005B
:1013A00001308500403F0002F0000131413F003B29
:1013B000F10025087007F2002608713DF3002B08A4
:1013C0007207F4002C08733DF50029087407F60035
:1013D0002A08753DF70023087607F8002408773DB2
:1013E000F90020087807FA002108793DFB007A0807
:1013F000A7007B08A80023003308A3003208A2003E
:10140000200028082300B300200027082300B20092
:10141000350D350C2000AC002300340C2000AB004F
:101420002C08F1002B08F000710DF10CF00C710D7F
:10143000F10CF00C710DF10CF00C7008A9007108A2
:10144000AA000430A03E8600013087000430B03E80
:10145000840001308500403F0002F0000131413F2F
:10146000003BF10025087007F2002608713DF300EB
:101470002B087207F4002C08733DF5002908740747
:10148000F6002A08753DF7007608A7007708A8003F
:1014900023003508A5003408A400200028082300F4
:1014A000B500200027082300B400370D370C2000BA
:1014B000AC002300360C2000AB002C08F1002B08F8
:1014C000F0000530F200710DF10CF00CF20B632A04
:1014D0007008A9007108AA000630B03E86000130ED
:1014E00087000630A03E8400013085002909F00005
:1014F0002A09F100F00A0319F10A003F7002F20014
:10150000013F713BF300403F7207F400413F733DE0
:10151000F50025087407F6002608753DF7002B082E
:101520007607F8002C08773DF9007808A7007908BD
:10153000A80023003708A7003608A60020002808C6
:101540002300B700200027082300B6000830B03E73
:10155000860001308700403FF000413FF100710DEF
:10156000F10CF00C710DF10CF00C710DF10CF00C94
:1015700070082000AB007108AC002C08F1002B08AB
:10158000F000710DF10CF00C710DF10CF00C700805
:10159000A9007108AA002A08F1002908F000710DBD
:1015A000F10CF00C710DF10CF00C7008A300710837
:1015B000A4000830A03E8600013087000830B03E0D
:1015C000840001308500403F0002F0000131413FBE
:1015D000003BF10025087007F2002608713DF3007A
:1015E0002B087207F4002C08733DF50029087407D6
:1015F000F6002A08753DF70023087607F80024084E
:10160000773DF9007808A7007908A8002300390879
:10161000A9003808A800200028082300B9002000ED
:1016200027082300B8000A30B03E8600013087004A
:10163000403FF000413FF1000730F200710DF10C26
:10164000F00CF20B1E2B70082000AB007108AC00F0
:101650000A30A03E8600013087000A30B03E840088
:1016600001308500403F0002F0000131413F003B66
:10167000F10025087007F2002608713DF3002B08E1
:101680007207F4002C08733DF5007408A700750874
:10169000A80023003B08AB003A08AA002000280855
:1016A0002300BB00200027082300BA003D0D3D0C9D
:1016B0002000AC0023003C0C2000AB002C0D2C0CB7
:1016C000AA002B0CA9002A08F1002908F000710DCE
:1016D000F10CF00C710DF10CF00C710DF10CF00C23
:1016E0007008A3007108A4002408F1002308F0008A
:1016F000710DF10CF00C710DF10CF00C7008A000E4
:101700007108A1000C30A03E860001308700403FE8
:101710002502F000413F263BF1002B087007F20044
:101720002C08713DF30029087207F4002A08733D64
:10173000F50023087407F6002408753DF70020081B
:101740007607F8002108773DF9007808A7007908A6
:10175000A80023003D08AD003C08AC00200028088C
:101760002300BD00200027082300BC003F0D3F0CD4
:101770002000AC0023003E0C2000AB002C08F10040
:101780002B08F000710DF10CF00C710DF10CF00C48
:10179000710DF10CF00C7008A9007108AA00290E57
:1017A0000F39A3002A0EF039A3042A0E0F39A40022
:1017B000F030A41D0030A4040E30A03E860001309D
:1017C00087002309F0002409F100F00A0319F10A47
:1017D000403F7002F200413F713BF3002508720761
:1017E000F4002608733DF5002B087407F6002C085A
:1017F000753DF70029087607F8002A08773DF900BB
:101800007808A7007908A80023003F08AF003E0829
:10181000AE00200028082300BF0020002708230076
:10182000BE0001302000E207CD306202031C192CFB
:101830001A2C522CA2012235B03E860001308700BE
:101840002235303E840002308500403F803F413FDA
:10185000813F2235A03E8600013087002235203EA0
:10186000840002308500403F803F413F813F223568
:10187000B03E8600013087000030C03FC13F2235B6
:10188000A03E8600013087000030C03FC13F0130DC
:10189000A20708302202031C4E2C4F2C1B2CE20105
:1018A0000130E10008002200ED0104302300DE00D9
:1018B00000302500ED000030EC000030EB0000307F
:1018C000EA0000302600E3000030E2000030E100D2
:1018D0000030E0002500EF0104306F02031C712C82
:1018E000722C732CBC2C6F082200A0000230A03593
:1018F000890B772C2008483E860001308700403F46
:10190000A100413FA200423FA300433FA40024089E
:1019100025006D02031D9C2C2200230825006C026B
:10192000031D9C2C2200220825006B02031D9C2C09
:101930002200210825006A0203189F2CA02CB82C35
:101940006F082200A0000230A035890BA42C2008CB
:10195000483E860001308700403F2500EA00413FB5
:10196000EB00423FEC00433FED006F082200ED002A
:1019700001302500EF076C2C04302600E40008300D
:101980006402031CC42CC52CC62C0F2D6408220035
:10199000A0000230A035890BCA2C2008483E8600E2
:1019A00001308700403FA100413FA200423FA30019
:1019B000433FA400240826006302031DEF2C2200ED
:1019C000230826006202031DEF2C220022082600B5
:1019D0006102031DEF2C220021082600600203187B
:1019E000F22CF32C0B2D64082200A0000230A0354D
:1019F000890BF72C2008483E860001308700403FC5
:101A00002600E000413FE100423FE200433FE300A7
:101A100064082300DE0001302600E407BF2C0130FB
:101A20002300DF00260060082200A00026006108D5
:101A30002200A100260062082200A20026006308FE
:101A40002200A3000330A035A10DA20DA30D890B28
:101A5000232D25006D0822002302031D3F2D2500A4
:101A60006C0822002202031D3F2D25006B08220076
:101A70002102031D3F2D25006A08220020020318C1
:101A8000422D432D462D2300DF01782D25006A08C5
:101A90002200A00025006B082200A10025006C0890
:101AA0002200A20025006D082200A3000330A0350B
:101AB000A10DA20DA30D890B572D2600630822004E
:101AC0002302031D732D2600620822002202031D3B
:101AD000732D2600610822002102031D732D2600AC
:101AE0006008220020020318762D772D782D432DD3
:101AF0002600E50125006D08031D882DA1306A022E
:101B000086306B3B01306C3B031C872D882DB92D33
:101B100026006308031D962DA13060028630613BCC
:101B20000130623B031C952D962DB92D23005F08D3
:101B300003199B2D9C2DB92D22006D08A000A10139
:101B4000A035A10DA035A10DFC30A2009F30A3004F
:101B500023005E0822002207A4000030233DA500D8
:101B60002408200784002508213D85000008260060
:101B7000E500260065080319BE2DBF2D552E65080A
:101B800023005206031DC52DC62D402E2000DC016A
:101B900002305D020318CD2DCE2DD02D0130DD0792
:101BA00002305D02031CD52DD62D662E2300510870
:101BB000031DDB2DDC2D662E0130D1006E080319CC
:101BC000E22DE32DE92D25006903031DE82DE92D04
:101BD000042EE0308600023087004030840001305F
:101BE000850008302200A00016001A00A00BF42D7A
:101BF000260065082200C50040302000AF000130FB
:101C0000B000903117208C3125006908031D092E82
:101C10000A2E662E23006E03031D0F2E102E662E35
:101C2000303026006502031C162E172E662E3A3021
:101C3000650203181C2E1D2E662E103023005B0239
:101C40000318232E242E332E5B08403E86000330DB
:101C5000870026006508810001302300DB07503033
:101C6000CA000030CB0010305B02031C382E392E26
:101C7000662E9131B8218C312300CA01CB01662E2A
:101C800001302000DC0702305C02031C482E492E84
:101C9000662E260065082300D20001302000DD00FA
:101CA0002300D1012000DC01662E01302000DC077A
:101CB00002305C02031C5D2E5E2E662E2300D201D4
:101CC0002000DD012300D1012000DC019D31AB2586
:101CD0008C31003A03196D2E6E2EAD2E9E31DA2610
:101CE0008C312400EE000D306E060319782E792E0B
:101CF0007F2E0A306E06031D7E2E7F2E942E23002B
:101D000056080319842E852EAD2E5608503E8600A7
:101D100003308700810150302000D10095313F25EC
:101D20008C312300D601AD2E0F302300560203184C
:101D30009A2E9B2EA62E5608503E86000330870012
:101D400024006E08810001302300D6070F305602B0
:101D5000031CAB2EAC2EAD2E912E20005503031D7F
:101D6000B22EB32EBA2E0E19B62EB72EBA2E2400CE
:101D7000EC01ED0120000E0C890C0139D500210089
:101D80006403031DC42EC52ECD2E20008C1AC92E2F
:101D9000CA2ECD2E2400EC01ED0120000C0E890C82
:101DA00001392100E40001302400EC070030ED3D52
:101DB00000306D02293003196C020318E02EE12E69
:101DC000E52E01302300E700F32E00306D0279305C
:101DD00003196C020318ED2EEE2EF12E2300E701FD
:101DE000F32EEC01ED0101302200EE070030EF3D53
:101DF00000306F02143003196E02031C002F012FF4
:101E00000C2FEE01EF01230065080319082F0A2F9C
:101E100001300B2F0030E50020000E1D102F112F78
:101E2000172F230055080319162F172F332F2300C0
:101E30005808031D1C2F1D2F332F6703031D212F4F
:101E4000222F2F2F22000E1420008E18282F292F2A
:101E50002C2F22008E145A2F22008E105A2F22006F
:101E60000E108E145A2F5408031D372F382F522F5F
:101E700020008E1D3C2F3D2F442F22000E108E106F
:101E800003302300E200522F23006208031D492F74
:101E90004A2F502F22000E108E142300E201522FE1
:101EA0000130E20254080319562F572F5A2F2200EF
:101EB0000E108E1420000C0E01392500E8002000C1
:101EC0000C0E890C01392400EF0003302500EE00D0
:101ED00020005E0803196D2F6E2F712F0130250031
:101EE000E80025006808031D762F772F802F240037
:101EF0006F08031D7C2F7D2F802F2500EE01A32F5F
:101F000025006808031D852F862F902F24006F035E
:101F1000031D8B2F8C2F902F01302500EE00A32F57
:101F200025006803031D952F962FA02F24006F080E
:101F3000031D9B2F9C2FA02F02302500EE00A32F06
:101F400003302500EE0023005B080319A82FA92FFA
:101F5000AC2F03302500EE00033025006E06031D74
:101F6000B22FB32FB72F23006F082500EE000330E8
:101F70006E06031DBC2FBD2FC12F21008E16883188
:101F80005A282300E601E62F01302300E600F22F55
:101F900023006508E600F22F23006703031DD12FFD
:101FA000D22FE42F6403031DD62FD72FDA2F013051
:101FB000E600DB2FE60164080319DF2FE12F013073
:101FC000E22F0030E400F22FE601F22F25006E0828
:101FD000003A0319C42F013A0319C82F033A031911
:101FE000CC2FF22F230066080319F72FF82FFB2FB1
:101FF00021008E12BF2F21008E16BF2F803157284F
:1020000023004308F1004208F0009E317026903111
:1020100024005208530403190E280F2814285308CB
:102020008A0052080A009031200014120800230090
:102030005308031D1C281D281E283E282C282F0865
:1020400084003008850000089F31D9279031013085
:102050002000AF070030B03D20002F08840030087A
:1020600085001200031D352836281F280D309F31AA
:10207000D92790310A309F31D9279031080046285E
:102080000130AD070130AE070030AF3D20002E0813
:1020900084002F0885000008B0002D08860003305A
:1020A000870001083006031D5628572860282D0890
:1020B0008600033087000108031D5F286028402840
:1020C0002D088600033087002E0884002F08850025
:1020D00000080102AD00AE01031CAE0308009D31F3
:1020E000D82590319031A02090319E315C269031DE
:1020F0009E31032690319F31332790319F317227D3
:1021000090319E314D2690319E31F72690319E318F
:10211000882690319D317825903191310821903178
:102120009D31532590318731F32790319D315725CB
:1021300090319D315B2590319D31EC259031080027
:10214000103022008C008E012E3021008C000C30CB
:102150008E00033023008C0030308E003430240099
:102160008C000C308E0025008C018E01373026004B
:102170008C003F308E003F3027008C003F308E00B7
:1021800002303C00A8001330A40004303D00A4003D
:102190001D30A50014309400270091019201930195
:1021A000970198019901080000302000B800003024
:1021B000B7000030B6000030B5002D1CE028E12843
:1021C000E9283108B5073208B63D3308B73D340871
:1021D000B83D0130B135B20DB30DB40D890BEA280D
:1021E0000130B036AF0CAE0CAD0C890BF1283008C5
:1021F0002F042E042D04031DFE28FF28DD28380897
:10220000B0003708AF003608AE003508AD00080052
:1022100021009112FF302400DA001130DB00210090
:102220001112A2302400DC001E30DD0048302300F3
:102230009F0090309D0026309E000A309B001A308F
:102240009C0036302000AD001D30AE009E312F26A0
:1022500091314F302000AD001D30AE009E313E2642
:1022600091312400CA01CB012000DB01DA011030DA
:10227000D900FD01FC01D8012100911608002000C1
:10228000B201B3012D082E040319472948297529E5
:102290000130B10052290130AD35AE0D890B4C290A
:1022A0000130B107AE1F552956294B290130B235EF
:1022B000B30D890B57292E083002031D61292D0803
:1022C0002F02031C642965296A292D08AF022E08F4
:1022D000B03B32140130AE36AD0C890B6B290130A6
:1022E000B102031D7429752956293308AE0032083E
:1022F000AD0008002000AE003100151720002E08A8
:1023000031009100703092001514130820002D0642
:1023100003198B298C29B729310095189029912907
:102320008C29151720002E08310091007030920082
:10233000940120002D0831009300200003108B1F12
:10234000A229A329A42903148B1331001515553094
:102350009600AA30960095149518AF29B029AC299B
:1023600015112000031CB529B629B7298B170800C1
:1023700023006E080319BD29BE29FE295C08031D30
:10238000C229C329FE295B08031DC729C829C929F9
:10239000FE292000DF015F08403E860003308700F1
:1023A0000108AD0031302D02031CD729D829E229BC
:1023B0003A302D020318DD29DE29E2292D08D03E0E
:1023C000E000EE2930302D06031DE729E829EB292E
:1023D0000A30E000EE292300DB01FE290130230052
:1023E000DD00200057082300CD0020005608230000
:1023F000CC003E00911701302300DC0008007D3541
:10240000A03E8600023087000030C03FC13F23005D
:102410009D1C0B2A0C2A1E2A7D35A03E8600023008
:10242000870001152400440845040319182A192AB5
:102430001E2A45088A0044080A00923123001D1D07
:10244000222A232A342A7D35A03E860002308700C6
:1024500081144008410403192E2A2F2A342A4108E6
:102460008A0040080A00923123001908F0007D0814
:10247000013E0F39F10071087C06031D402A412AF4
:10248000422A4E2A7D08C03E86000230870070082E
:1024900081007108FD0001302000D80708000130DC
:1024A0002000B0020030B13B300A031D5B2A310A24
:1024B000031D5B2A5C2A692AAD01AE019F2A013007
:1024C000AD070130AE070030AF3D0130B002003043
:1024D000B13B2D0886000330870001080319712ADB
:1024E000722A912A2E0884002F08850012000319F1
:1024F0007A2A7B2A912A300831040319802A812AFA
:10250000912A2E0884002F0885000008B2002D08AB
:10251000860003308700010832060319902A912AA9
:102520005F2A2D088600033087002E0884002F08BC
:10253000850000080102AD00AE01031CAE030800D7
:102540002000B201B01FA52AA62AAD2AAF09B00902
:10255000AF0A0319B00A0130B200AE1FB02AB12A87
:10256000B62AAD09AE09AD0A0319AE0A2D082E042C
:102570000319BB2ABC2AE32A0130B100C62A013064
:10258000AD35AE0D890BC02A0130B107AE1FC92A87
:10259000CA2ABF2A2E083002031DD02A2D082F0276
:1025A000031CD32AD42AD82A2D08AF022E08B03B08
:1025B0000130AE36AD0C890BD92A0130B102031DB2
:1025C000E22AE32ACA2A32080319E72AE82AED2A6E
:1025D000AF09B009AF0A0319B00A3008AE002F08DE
:1025E000AD00080020002F0830040319F82AF92A4A
:1025F000FF2A2F083004031DFE2AFF2A042B2D0872
:102600008031032092314A2B2F08860087014931FF
:102610001600010403190D2B0E2B2C2B2F088600FE
:1026200087014931403FB100413FB2002F08860089
:1026300087014231403FB300413FB4003408803A43
:10264000B5003208803A3502031D282B31083302C9
:1026500003182B2B2C2B4A2B20002F0886008701D8
:1026600042312F08840030088500003FB100013F4F
:10267000B200403F31078400413F323D85002D08C4
:1026800080002F08860087014231013081074131E7
:102690000318810A08002000B201AE1F502B512BF5
:1026A000582BAD09AE09AD0A0319AE0A0130B200CC
:1026B000B01F5B2B5C2B632BAF09B009AF0A03196A
:1026C000B00A0130B206B301B4012D082E0403197B
:1026D0006A2B6B2B982B0130B100752B0130AD3577
:1026E000AE0D890B6F2B0130B107AE1F782B792B04
:1026F0006E2B0130B335B40D890B7A2B2E083002C6
:10270000031D842B2D082F02031C872B882B8D2B58
:102710002D08AF022E08B03B33140130AE36AD0C9D
:10272000890B8E2B0130B102031D972B982B792B2F
:10273000320803199C2B9D2BA22BB309B409B30AB1
:102740000319B40A3408AE003308AD0008002000B5
:10275000B801B901B701AE2B0130B30733088600C9
:1027600003308700203001060319B72BB82BAC2BA0
:102770003308860003308700F7300107B5000530C5
:102780003502031CC42BC52BAC2B33088600033049
:1027900087002D300106031DCE2BCF2BD42B01300B
:1027A000B7000130B307FD2B3308860003308700E4
:1027B0002B300106031DDD2BDE2BFD2BD12B330827
:1027C0008600033087003908AE003808AD000A30B3
:1027D000AF000030B0009F315227933120002E0807
:1027E000B60001082D02B500031CB6033508303EC3
:1027F000B8000030363DB900D12B330886000330D5
:102800008700D0300107B5000A303502031C092CBF
:102810000A2CDF2B3708031D0E2C0F2C1B2C38091C
:10282000B5003909B600B50A0319B60A3508B30070
:102830003608B4001F2C3908B4003808B30008006B
:1028400031009518242C252C202C1517910170305F
:1028500092009401AA309300200003108B1F312CAA
:10286000322C332C03148B13310015155530960080
:10287000AA309600951495183E2C3F2C3B2C151130
:102880002000031C442C452C462C8B170A30AD002D
:10289000013091317A2194312000AD010230913123
:1028A0007A2194311E302000AD00033091317A211D
:1028B00094313100151701309100703092001514D9
:1028C00013082000B5000A3035060319682C692C5E
:1028D0006F2C14303506031D6E2C6F2C742C3508AC
:1028E0009E31BE269431782C0A309E31BE2694311A
:1028F0003100151702309100703092001514130347
:102900000319832C852C0130862C00302300D30042
:1029100053082000DE00310015170330910070309D
:102920009200151413082000B300B4013308AD0061
:102930003408AE002830AF000030B0009F3152277D
:10294000943120002E082300ED0020002D082300E4
:10295000EC00080031001517910170309200151439
:10296000AA3013060319B52CB62CEE2C9518B92CE9
:10297000BA2CB62C15179101703092009401AA3030
:102980009300200003108B1FC62CC72CC82C0314E7
:102990008B133100151555309600AA30960095140A
:1029A0009518D32CD42CD02C15112000031CD92C15
:1029B000DA2CDB2C8B170A30AD00013091317A21F3
:1029C00094312000AD01023091317A2194311E30D2
:1029D0002000AD00033091317A2194313100151778
:1029E0000130910070309200151413082000B500DA
:1029F0000A3035060319FD2CFE2C042D1430350643
:102A0000031D032D042D092D35089E31BE2694315A
:102A10000D2D0A309E31BE2694313100151702303B
:102A2000910070309200151413030319182D1A2DFC
:102A300001301B2D00302300D30053082000DE009E
:102A400031001517033091007030920015141308EF
:102A50002000B300B4013308AD003408AE002830C4
:102A6000AF000030B0009F315227943120002E0873
:102A70002300ED0020002D082300EC0008002100B9
:102A8000DF0120005108AD004330AE00A030AF00A0
:102A900090313F20953120002D082E04031D512D2B
:102AA000522D5B2D03302300EF00D501D4010130FE
:102AB0002100DF00E82F5108AD007930AE00A030D2
:102AC000AF0090313F20953120002D082E04031DCA
:102AD0006A2D6B2D722D03302300EF000130210091
:102AE000DF00E82F5108AD008D30AE00A030AF0000
:102AF00090313F20953120002D082E04031D812D9B
:102B0000822D852D2300EF01572D5108AD0089300E
:102B1000AE00A030AF0090313F20953120002D084D
:102B20002E04031D942D952D9C2D01302300EF00C4
:102B300001302100DF00E82F5108AD006530AE0004
:102B4000A030AF0090313F20953120002D082E0499
:102B5000031DAB2DAC2DB32D02302300EF0001304F
:102B60002100DF00E82F5108AD006D30AE00A0302D
:102B7000AF0090313F20953120002D082E04031D19
:102B8000C22DC32DCA2D01302300D50001302100F4
:102B9000DF00E82F5108AD007130AE00A030AF006B
:102BA00090313F20953120002D082E04031DD92D92
:102BB000DA2DDD2D2300D501572D5108AD009130C0
:102BC000AE00A030AF0090313F20953120002D089D
:102BD0002E04031DEC2DED2DF42D01302300D40027
:102BE00001302100DF00E82F5108AD009530AE0024
:102BF000A030AF0090313F20953120002D082E04E9
:102C0000031D032E042E072E2300D401572D510837
:102C1000AD007D30AE00A030AF0090313F20953147
:102C200020002D082E04031D162E172E1E2E0130F7
:102C30002300EE0001302100DF00E82F5108AD0035
:102C40008130AE00A030AF0090313F2095312000A0
:102C50002D082E04031D2D2E2E2E312E2300EE01C5
:102C6000572D5108AD004730AE00A030AF00903175
:102C70003F20953120002D082E04031D402E412EAB
:102C80004D2E0A309E31BE2695310A302000AD000F
:102C9000013091317A219531572D5108AD005130D5
:102CA000AE00A030AF0090313F20953120002D08BC
:102CB0002E04031D5C2E5D2E692E14309E31BE261F
:102CC000953114302000AD00013091317A219531D9
:102CD000572D5108AD005B30AE00A030AF009031F1
:102CE0003F20953120002D082E04031D782E792ECB
:102CF0008F2E9D31432595319D31462595310130EB
:102D00002300D30001302100DF0001302000DE006D
:102D1000AD01AD0A023091317A219531E82F510889
:102D2000AD006030AE00A030AF0090313F20953153
:102D300020002D082E04031D9E2E9F2EAC2E230056
:102D4000D30101302100DF002000DE01AD0102309F
:102D500091317A219531E82F5108AD007530AE00E0
:102D6000A030AF0090313F20953120002D082E0477
:102D7000031DBB2EBC2ED42E230058080319C12ED0
:102D8000C22ECB2E27302000AF00A030B0009031F3
:102D900017209531572D38302000AF00A030B000FB
:102DA000903117209531572D5108AD006930AE0094
:102DB000A030AF000330B0000030B10092314F229C
:102DC000953120002D082E04031DE72EE82E172F25
:102DD0005108033EB3009331A723953120003308F7
:102DE0002100DE005E080319F62EF72EE82F5E089C
:102DF0002000D200D3015208AD005308AE002830A5
:102E0000AF000030B0009F315227953120002E08CE
:102E10002300ED0020002D082300EC0021005E08B7
:102E20002000AD00033091317A219531572D5108A2
:102E3000AD004C30AE00A030AF000430B000003028
:102E4000B10092314F22953120002D082E04031D30
:102E50002A2F2B2F8F2F433056065704031D312F57
:102E6000322F362F0A302100DD00432F2130560645
:102E70005704031D3C2F3D2F412F14302100DD004E
:102E8000432F2100DD0123006E03031D482F492F2E
:102E9000502F44302100D9005030DA00DB01562F8A
:102EA0002D302100D9002D30DA004E2FB530A00092
:102EB0001030A100A030A2005D082000D200D30194
:102EC00052082100A300200053082100A400D9309B
:102ED000A5000030A60028302000AD000030AE0074
:102EE00023006D082000B00023006C082000AF0014
:102EF00091313F21953120002E082100A8002000AB
:102F00002D082100A7009F3192279531B530200070
:102F1000AF000030B000903117209531572D510887
:102F2000AD005630AE00A030AF000430B00000302D
:102F3000B10092314F22953120002D082E04031D3F
:102F4000A22FA32FD42F2100D60123005503031D48
:102F5000AA2FAB2FAF2F52302100D500B22F2D302A
:102F60002100D500C530A0001D30A100A030A20076
:102F700023006F082000D200D30152082100A300D3
:102F8000200053082100A400D530A5000030A60081
:102F90009F3192279531C5302000AF000030B0003E
:102FA000903117209531572D5108AD004030AE00BB
:102FB000A030AF0090313F20953120002D082E0425
:102FC000031DE32FE42FE82F943120249531572D52
:102FD00021005F03031DED2FEE2FF72F9930200006
:102FE000AF00A030B000903117209531FF2F853011
:102FF0002000AF00A030B0009031172095310800BC
:103A6A00080008002100111308002100111708009E
:103A7A0021001D10080021001D14080023009E12B9
:103A8A00080023009E160800310095110800200046
:103A9A001312080023001D121D1608008A30220086
:103AAA00970008009D3149259D31080015302100F5
:103ABA00970008002000130E01390800B0340434BE
:103ACA00013403343E00100E890C0139080001301C
:103ADA002300DA071430D90008002000AD002D08B1
:103AEA00220099000800A83022009800103099009E
:103AFA000800640080010131890B7F2D0034FE002B
:103B0A0012001E00FE0B852D00341A3029009B007E
:103B1A0000309C0000309D000800343029009B00D2
:103B2A0000309C0000309D000800443454344D3469
:103B3A0046343A3400340034003420002E0823007E
:103B4A00C90020002D082300C800080020005808DA
:103B5A00031DB02DB22D0130B32D00300800200016
:103B6A002E082400E10020002D082400E0000800AF
:103B7A0020002E082400DF0020002D082400DE008B
:103B8A00080020002E082300C70020002D0823006B
:103B9A00C600080020002E082400D30020002D08AB
:103BAA002400D20008006030320099009B019D0178
:103BBA0007309F009E019C01080052345F34443450
:103BCA0050343A3458340034003458340234200023
:103BDA0010100B140030AD000030AE009D31C62528
:103BEA009D310800230045082000AE002300440848
:103BFA002000AD009F31B5279D310800F930200023
:103C0A009E009D0100302400D8000030D900200019
:103C1A00911005309F000800200011132300480866
:103C2A0049040319192E1A2E1F2E49088A0048081A
:103C3A000A009E3108002000131024006008610465
:103C4A000319282E292E2E2E61088A0060080A00E0
:103C5A009E31080020002D082E040319352E362E19
:103C6A003D2E2E082300C10020002D082300C0008D
:103C7A00080020002D082E040319442E452E4C2E30
:103C8A002E082400C50020002D082400C4000800C6
:103C9A00BB3028009D009C0100302400CE0000307B
:103CAA00CF0020009213073028009E000800210050
:103CBA001D1001309D00E3309E009C019B010530E0
:103CCA009F002300C801C901200011132100111708
:103CDA0001309D00080028001A1D742E752E832EAF
:103CEA001A080139F2001A10710899007008980030
:103CFA00720C031C1A1003181A14872E71089900E3
:103D0A007008980008003E00A5012330A600A7010C
:103D1A00A801A9010230AA000830AB00AC01AD012C
:103D2A008530A40000302000AD000030AE009D3187
:103D3A00BD259E31200013110800103020005902C1
:103D4A000318A82EA92EBB2E5A08D03E8600023090
:103D5A008700010823009A0020005A08013E0F3903
:103D6A00F0007008DA000130D907BD2E21001112C7
:103D7A0008002000AD0014302D06031DC52EC62EE6
:103D8A00D02E2130D6000030D70011302400CC00CC
:103D9A000030CD00D92E4330D6000030D700213074
:103DAA002400CC000030CD0008007C08C03E86000C
:103DBA000230870001082000AE007C08013E0F395E
:103DCA00AD002D08FC0021009112200058080319AB
:103DDA00EF2EF02EF22E0130D8022100911620008B
:103DEA002E08080002303E00910023309200930111
:103DFA00063094009501023096001430970098011D
:103E0A0099018D309000200013103530AD001D301F
:103E1A00AE009D31B4259E31210013140800200004
:103E2A004C08D0004B08CF00262F4A08B800490892
:103E3A00B7004F30B9004D08BA00BB018531CD2516
:103E4A009F3120004F088400500885001200031D8E
:103E5A002F2F302F1A2FC901CA010800280013106A
:103E6A003C309200B030910012082300C5002800AF
:103E7A0011082300C4002800940100302400D60051
:103E8A000030D7000030D4000030D50020001312D3
:103E9A00931225302800930008002000B101B201D6
:103EAA002D1C582F592F5D2F2F08B1073008B23D0E
:103EBA000130AF35B00D890B5E2F0130AE36AD0C37
:103ECA00890B632F2D082E04031D6C2F6D2F552F80
:103EDA003208AE003108AD00080028001A10E030A0
:103EEA009900C030980019082300C3002800180858
:103EFA002300C20028009B0102302400D2000030B7
:103F0A00D3000030D0000030D1002000141221006C
:103F1A001416053028009A000800A3302100A900D1
:103F2A002008AA00AB01AC01AD01B301B401AA306B
:103F3A002000C9000030CA00210022082000CC005D
:103F4A00210021082000CB00A930CD009F31142781
:103F5A009F31210020082C07860087018101080073
:103F6A002800131DB92FBA2FD02F130801392000AA
:103F7A00AF002800131020002E082800920020000D
:103F8A002D082800910020002F0C2800031C131074
:103F9A0003181314D82F20002E082800920020009E
:103FAA002D082800910008002000AE002100111AF7
:103FBA00DF2FE02FE52F20002E0823009A00FD2F87
:103FCA00200059080319EA2FEB2FFD2F5B08D03E7A
:103FDA008600023087002E0881005B08013E0F39F7
:103FEA00AD002D08DB002100111201302000D9029A
:103FFA002100111608003134323433344134343458
:10400A0035343634423437343834393443342A3444
:10401A003034233444345334543431343A34253428
:10402A0064342C34253473342C3425346434003409
:10403A005334543432343A34253464342C342534E9
:10404A007334003448344F344F344B343A344F3499
:10405A00463446340034543441344C344B343A34C4
:10406A004F344E34003448344F344F344B343A349E
:10407A004F344E3400342B342B34463452345334B8
:10408A00543400342B3450345034313400343F34F7
:10409A0053345434313400342B34503450343234A1
:1040AA0000343F3453345434323400342B345334D0
:1040BA004534523400342D345334453452340034A8
:1040CA002B345234423400342B3454344D340034BB
:1040DA002B3452344E3400342D3452344E3400349E
:1040EA003F3448344F3400342D3454344F34003480
:1040FA002B344434503400342D3444345034003496
:10410A0045345234523400342B344234543400345B
:10411A002B344334543400342B3452345634003460
:0E412A002D345234563400344F344B340034AC
:020000040001F9
:08000E00EC3FDC3FFF3FFF3F28
:00000001FF
