:1000000080315728080008007E14803100308600B7
:10001000003087000B1F0D280E2855282100111EC7
:10002000122813281E282000111E172818281E2801
:10003000240059088A0058080A0080312100911EC6
:10004000222823282E282000911E272828282E2801
:10005000240057088A0056080A0080312100141E27
:10006000322833283B282000141E372838283B2804
:100070009F31262780312100131C3F284028482823
:100080002000131C4428452848289E31C126803171
:100090002100111F4C284D2855282000111F5128E0
:1000A000522855289E31B22680317E1009008031B9
:1000B0005928193084009E308500EC3086000130CC
:1000C000870004309E313A268031003084009F3012
:1000D00085005E3086000230870012309E313A265D
:1000E0008031FC01FD0156308400003085000D3068
:1000F0009E3134268031A0308400013085003E30AE
:100100009E313426803120308400023085002A3030
:100110009E3134268031A03084000230850050307A
:100120009E31342680312030840003308500203019
:100130009E31342680317E1020008B31542B5408A0
:100140002200A000260055082200A1002600560823
:100150002200A200260057082200A3000730A400B6
:10016000A337A20CA10CA00CA40BB02826005408A5
:100170002200A500260055082200A60026005608E9
:100180002200A700260057082200A8000530A90079
:10019000A837A70CA60CA50CA90BC8282600540844
:1001A0002200AA00260055082200AB0026005608AF
:1001B0002200AC00260057082200AD000230AE003D
:1001C000AD37AC0CAB0CAA0CAE0BE02826005408E3
:1001D0002200AF00260055082200B0002600560875
:1001E0002200B100260057082200B2000130B300FF
:1001F000B237B10CB00CAF0CB30BF8282F08AA071C
:100200003008AB3D3108AC3D3208AD3D2A08A507AA
:100210002B08A63D2C08A73D2D08A83D2508A007C2
:100220002608A13D2708A23D2808A33D2308230056
:10023000EB00220022082300EA002200210823000C
:10024000E900220020082300E800AF29540822001A
:10025000A000260055082200A10026005608220012
:10026000A200260057082200A3000830A400A337EC
:10027000A20CA10CA00CA40B3729260054082200C4
:10028000A500260055082200A600260056082200D8
:10029000A700260057082200A8000430A900A837AC
:1002A000A70CA60CA50CA90B4F2926005408220068
:1002B000AA00260055082200AB002600560822009E
:1002C000AC00260057082200AD000130AE00AD376B
:1002D000AC0CAB0CAA0CAE0B67292A08A5072B089F
:1002E000A63D2C08A73D2D08A83D2008A502210801
:1002F000A63B2208A73B2308A83B28082300EB00C5
:10030000220027082300EA00220026082300E90033
:10031000220025082300E800AF2926005308003AF0
:1003200003199329AF295208003A8D310319452D3D
:10033000013A0319E52D033A0319842E013A0319F2
:10034000E32E073A0319422F8031013A0319582D41
:10035000033A03199F28013A03192629AF292200DD
:100360006808A0006908A1006A08A2006B08A30041
:1003700023006808210060022200A400230069080D
:100380002100613B2200A50023006A082100623B96
:100390002200A60023006B082100633B2200A70077
:1003A0002408A0072508A13D2608A23D2708A33D53
:1003B000260052082200A8000230A835890BDD294A
:1003C0002808483E8600013087002008C03F2108E9
:1003D000C13F2208C23F2308C33F01302600D20795
:1003E0000030D33D8C31662C2200ED010430230017
:1003F000DE0000302600C9000030C8000030C70011
:100400000030C6000030CD000030CC000030CB0002
:100410000030CA00CF0104304F02031C102A112AF9
:10042000122A5B2A4F082200A0000230A035890B57
:10043000162A2008483E860001308700403FA10070
:10044000413FA200423FA300433FA40024082600EE
:100450004902031D3B2A2200230826004802031DEF
:100460003B2A2200220826004702031D3B2A2200C5
:1004700021082600460203183E2A3F2A572A4F0821
:100480002200A0000230A035890B432A2008483EF4
:10049000860001308700403F2600C600413FC7006C
:1004A000423FC800433FC9004F082200ED00013021
:1004B0002600CF070B2A0430D00008305002031C5E
:1004C000622A632A642AAD2A50082200A000023062
:1004D000A035890B682A2008483E86000130870035
:1004E000403FA100413FA200423FA300433FA40080
:1004F000240826004D02031D8D2A22002308260011
:100500004C02031D8D2A2200220826004B02031DE7
:100510008D2A2200210826004A020318902A912AD7
:10052000A92A50082200A0000230A035890B952A84
:100530002008483E860001308700403F2600CA0060
:10054000413FCB00423FCC00433FCD005008230049
:10055000DE0001302600D0075D2A01302300DF00D5
:1005600026004A082200A00026004B082200A10015
:1005700026004C082200A20026004D082200A300FD
:100580000330A035A10DA20DA30D890BC12A2600B1
:10059000490822002302031DDD2A26004808220004
:1005A0002202031DDD2A2600470822002102031D26
:1005B000DD2A26004608220020020318E02AE12A4C
:1005C000E42A2300DF01162B260046082200A000A3
:1005D000260047082200A100260048082200A200A9
:1005E000260049082200A3000330A035A10DA20D6A
:1005F000A30D890BF52A26004D0822002302031DB6
:10060000112B26004C0822002202031D112B26006C
:100610004B0822002102031D112B26004A0822004C
:1006200020020318142B152B162BE12A2600D101CA
:100630004908031D252BA13046028630473B013077
:10064000483B031C242B252B562B26004D08031D4D
:10065000332BA1304A0286304B3B01304C3B031C0C
:10066000322B332B562B23005F080319382B392BE1
:10067000562B22006D08A000A101A035A10DA035C8
:10068000A10DFC30A2009F30A30023005E082200D1
:100690002207A4000030233DA50024082007840081
:1006A0002508213D850000082600D10026005108BC
:1006B00003195B2B5C2BC12B510823005206031D31
:1006C000622B632BAC2B2000DE0102305F0203188B
:1006D0006A2B6B2B6D2B0130DF0702305F02031C8E
:1006E000722B732BD22B23005108031D782B792BEF
:1006F000D22B0130D1006E0803197F2B802B862B63
:1007000026004503031D852B862BA12B5E3086001A
:10071000023087004030840001308500083022001C
:10072000A00016001A00A00B912B260051082200F1
:10073000C50040302000AF000130B00088310220F9
:10074000803126004508031DA62BA72BD22B51086C
:100750009131DD218031D22B01302000DE070230C3
:100760005E02031CB42BB52BD22B260051082300AC
:10077000D20001302000DF002300D1012000DE0183
:10078000D22B01302000DE0702305E02031CC92B91
:10079000CA2BD22B2300D2012000DF012300D1017C
:1007A0002000DE019E3149268031003A0319D92B01
:1007B000DA2B192C9F31A72780312600C2000D307B
:1007C00042060319E42BE52BEB2B0A304206031DEE
:1007D000EA2BEB2B002C230056080319F02BF12BEE
:1007E000192C5608E03E8600023087008101E03077
:1007F0002000D10095313F2580312300D601192CEE
:100800000F30230056020318062C072C122C560812
:10081000E03E860002308700260042088100013059
:100820002300D6070F305602031C172C182C192C46
:10083000FD2B20005503031D1E2C1F2C262C0E19EA
:10084000222C232C262C2600C001C10120000E0CD6
:10085000890C0139D50021006403031D302C312C93
:10086000392C20008C1A352C362C392C2600C0014E
:10087000C10120000C0E890C01392100E400013077
:100880002600C0070030C13D003041022930031965
:10089000400203184C2C4D2C512C01302300E70052
:1008A0005F2C003041027930031940020318592CA3
:1008B0005A2C5D2C2300E7015F2CC001C1010130DF
:1008C0002200EE070030EF3D00306F0214300319B4
:1008D0006E02031C6C2C6D2C782CEE01EF012300B2
:1008E00065080319742C762C0130772C0030E50054
:1008F00020000E1D7C2C7D2C832C23005508031911
:10090000822C832C9F2C23005808031D882C892CB3
:100910009F2C6703031D8D2C8E2C9B2C22000E1404
:1009200020008E18942C952C982C22008E14C62C06
:1009300022008E10C62C22000E108E14C62C5408D5
:10094000031DA32CA42CBE2C20008E1DA82CA92C8A
:10095000B02C22000E108E1003302300E200BE2CBB
:1009600023006208031DB52CB62CBC2C22000E10EF
:100970008E142300E201BE2C0130E2025408031958
:10098000C22CC32CC62C22000E108E1420000C0E7C
:1009900001392600C40020000C0E890C0139260004
:1009A000C3000330CE00200060080319D82CD92CD6
:1009B000DC2C01302600C40026004408031DE12C75
:1009C000E22CE92C4308031DE62CE72CE92CCE0190
:1009D000052D4408031DED2CEE2CF62C4303031DBE
:1009E000F22CF32CF62C0130CE00052D4403031D10
:1009F000FA2CFB2C032D4308031DFF2C002D032D87
:100A00000230CE00052D0330CE0003304E06031D0C
:100A10000A2D0B2D0F2D23006F082600CE0003306A
:100A20004E06031D142D152D192D21008E168B3108
:100A3000992B2300E6013E2D01302300E6004A2DCC
:100A400023006508E6004A2D23006703031D292DB6
:100A50002A2D3C2D6403031D2E2D2F2D322D013008
:100A6000E600332DE60164080319372D392D0130D6
:100A70003A2D0030E4004A2DE6014A2D26004E08AA
:100A8000003A03191C2D013A0319202D033A0319CA
:100A9000242D4A2D2300660803194F2D502D532D68
:100AA00021008E12172D21008E16172D8031572808
:100AB0008F31C12F2000390886008701403FBC00DC
:100AC000413FBD003C0884003D0885001200253AE6
:100AD000031D6B2D6C2DC32E390886008701013054
:100AE000810741310318810A2400C001C10100308F
:100AF0002300D000FF302400C200FF30C3002000DC
:100B0000390886008701403FC100413FC2004108CB
:100B10008400420885001200643A0319902D912D3B
:100B20009B2D41088400420885001200693A031D8C
:100B30009A2D9B2D282E3A0886003B088700010835
:100B40008400850102308107003FC400013FC500D9
:100B50004108013EBC000030423DBD00390886001E
:100B600087013C08C03F3D08C13F2030C800C51B7D
:100B7000BA2DBC2D0130BD2D0030C3000130C8029C
:100B80004808203E8600033087000A30AD00003060
:100B9000AE004508B0004408AF00933130238531E2
:100BA00020002E08B4002D08B3009E31EE268531BA
:100BB00020003308303E81000A30AD000030AE0026
:100BC0004508B0004408AF009331DB238531200095
:100BD0002E08C5002D08C400440845040319F12D52
:100BE000F22DF72D4808031DF62DF72DBE2D4808D0
:100BF0000319FB2DFC2D212E43080319002E012E75
:100C0000212E0130C8024808203E860003308700AC
:100C10002D308100212E4808203E860003308700B9
:100C20000108BC00BD013C08AD003D08AE0038081D
:100C3000B0003708AF0093318223853101302000A6
:100C4000C80720304806031D262E272E0B2EDD2E2A
:100C5000C301390886008701403FBC00413FBD0009
:100C60003C0884003D0885001200733A031D392EAC
:100C70003A2E452E3908860087010130810741311F
:100C80000318810A0130C300872E390886008701C6
:100C9000403FBC00413FBD003C0884003D0885004A
:100CA00012006C3A031D552E562E872E39088600E9
:100CB0008701403FBC00413FBD0001303C0784003C
:100CC0003D080318013E850012006C3A031D692E91
:100CD0006A2E872E390886008701403FBC00413FBD
:100CE000BD0002303C0784003D080318013E85002A
:100CF0001200733A031D7D2E7E2E872E3908860042
:100D000087010330810741310318810A422E4308CD
:100D100003198B2E8C2EB92E3A0886003B088700CB
:100D200001088400850102308107003FBC00013FBB
:100D3000BD003C08C000B02E4008860087010108B5
:100D4000BC00BD013C08AD003D08AE003808B00055
:100D50003708AF0093318223853101302000C0076E
:100D60004008860087010108031DB72EB82E9C2E6F
:100D7000DD2E2000390886008701013081074131CE
:100D80000318810ADD2E390886008701403FBC0028
:100D9000413FBD003C0884003D0885000008BE00BE
:100DA000BF013E08AD003F08AE003808B00037086C
:100DB000AF00933182238531B92E08003100151719
:100DC0009101703092001514AA3013060319E92E10
:100DD000EA2E222F9518ED2EEE2EEA2E15179101F0
:100DE000703092009401AA309300200003108B1FF2
:100DF000FA2EFB2EFC2E03148B13310015155530E3
:100E00009600AA30960095149518072F082F042FE6
:100E100015112000031C0D2F0E2F0F2F8B170A30DA
:100E2000AD0001309231522286312000AD010230F6
:100E30009231522286311E302000AD0003309231B3
:100E40005222863131001517013091007030920026
:100E5000151413082000B5000A3035060319312F88
:100E6000322F382F14303506031D372F382F3D2FE2
:100E700035089F318B278631412F0A309F318B27D0
:100E80008631310015170230910070309200151430
:100E9000130303194C2F4E2F01304F2F0030230026
:100EA000D30053082000E0003100151703309100F3
:100EB00070309200151413082000B300B4013308F9
:100EC000AD003408AE002830AF000030B0009031E3
:100ED0002F20863120002E082300ED0020002D0851
:100EE0002300EC00080031009518772F782F732F1E
:100EF00015179101703092009401AA3093002000E0
:100F000003108B1F842F852F862F03148B13310022
:100F1000151555309600AA30960095149518912F06
:100F2000922F8E2F15112000031C972F982F992F89
:100F30008B170A30AD0001309231522287312000E8
:100F4000AD0102309231522287311E302000AD00B7
:100F50000330923152228731310015170130910050
:100F600070309200151413082000B5000A303506C1
:100F70000319BB2FBC2FC22F14303506031DC12F00
:100F8000C22FC72F35089F318B278731CB2F0A30CF
:100F90009F318B2787313100151702309100703057
:100FA0009200151413030319D62FD82F0130D92F0F
:100FB00000302300D30053082000E0003100151753
:100FC0000330910070309200151413082000B30014
:100FD000B4013308AD003408AE002830AF00003053
:100FE000B00090312F20873120002E082300ED0023
:100FF00020002D082300EC00080020001312080038
:101000000800080023005308031D072808280928A2
:10101000292817282F0884003008850000089031FF
:10102000B620883101302000AF070030B03D2000ED
:101030002F088400300885001200031D2028212875
:101040000A280D309031B62088310A309031B62010
:101050008831080021001B08003EF000FE301C3DD6
:10106000F10070082000A5007108A6002608F10014
:101070002508F000710DF10CF00C710DF10CF00C65
:101080007008A5007108A6002300310D310C200066
:10109000AC002300300C2000AB002C08F1002B0822
:1010A000F000710DF10CF00C710DF10CF00C7008EA
:1010B000A9007108AA002A0D2A0CA400290CA3007B
:1010C0002408F1002308F000710DF10CF00C710DF3
:1010D000F10CF00C7008A0007108A100230020089A
:1010E0003002F0002108313BF10020002508700794
:1010F000F2002608713DF3002B087207F4002C085B
:10110000733DF50029087407F6002A08753DF700BD
:1011100023087607F8002408773DF90020087807AF
:10112000A7002108793DA80023003108A10030085C
:10113000A000200028082300B10020002708230079
:10114000B000330D330C2000AC002300320C200023
:10115000AB002C08F1002B08F000710DF10CF00C25
:10116000710DF10CF00C7008A9007108AA00290E8D
:101170000F39A3002A0EF039A3042A0E0F39A40058
:10118000F030A41D0030A404240D240CA100230C75
:10119000A0000230A03E8600013087000230B03E41
:1011A000840001308500403F0002F0000131413FE2
:1011B000003BF10025087007F2002608713DF3009E
:1011C0002B087207F4002C08733DF50029087407FA
:1011D000F6002A08753DF70023087607F800240872
:1011E000773DF90020087807FA002108793DFB00D7
:1011F0007A08A7007B08A80023003308A300320860
:10120000A200200028082300B300200027082300A4
:10121000B200350D350C2000AC002300340C20004A
:10122000AB002C08F1002B08F000710DF10CF00C54
:10123000710DF10CF00C710DF10CF00C7008A9009F
:101240007108AA000430A03E8600013087000430F7
:10125000B03E840001308500403F0002F0000131C3
:10126000413F003BF10025087007F2002608713D60
:10127000F3002B087207F4002C08733DF5002908D1
:101280007407F6002A08753DF7007608A70077086E
:10129000A80023003508A5003408A4002000280871
:1012A0002300B500200027082300B400370D370CB9
:1012B0002000AC002300360C2000AB002C08F1000D
:1012C0002B08F0000530F200710DF10CF00CF20B60
:1012D00064297008A9007108AA000630B03E860093
:1012E000013087000630A03E8400013085002909C6
:1012F000F0002A09F100F00A0319F10A003F700218
:10130000F200013F713BF300403F7207F400413FA0
:10131000733DF50025087407F6002608753DF700B3
:101320002B087607F8002C08773DF9007808A7000D
:101330007908A80023003708A7003608A600200077
:1013400028082300B700200027082300B600083033
:10135000B03E860001308700403FF000413FF10081
:10136000710DF10CF00C710DF10CF00C710DF10C14
:10137000F00C70082000AB007108AC002C08F100E4
:101380002B08F000710DF10CF00C710DF10CF00C4C
:101390007008A9007108AA002A08F1002908F000C5
:1013A000710DF10CF00C710DF10CF00C7008A30034
:1013B0007108A4000830A03E860001308700083084
:1013C000B03E840001308500403F0002F000013152
:1013D000413F003BF10025087007F2002608713DEF
:1013E000F3002B087207F4002C08733DF500290860
:1013F0007407F6002A08753DF70023087607F80001
:101400002408773DF9007808A7007908A800230090
:101410003908A9003808A800200028082300B900CE
:10142000200027082300B8000A30B03E86000130B3
:101430008700403FF000413FF1000730F200710D9E
:10144000F10CF00CF20B1F2A70082000AB007108A1
:10145000AC000A30A03E8600013087000A30B03E62
:10146000840001308500403F0002F0000131413F1F
:10147000003BF10025087007F2002608713DF300DB
:101480002B087207F4002C08733DF5007408A700C0
:101490007508A80023003B08AB003A08AA0020000A
:1014A00028082300BB00200027082300BA003D0DB8
:1014B0003D0C2000AC0023003C0C2000AB002C0DA8
:1014C0002C0CAA002B0CA9002A08F1002908F00016
:1014D000710DF10CF00C710DF10CF00C710DF10CA3
:1014E000F00C7008A3007108A4002408F100230880
:1014F000F000710DF10CF00C710DF10CF00C700896
:10150000A0007108A1000C30A03E860001308700C9
:10151000403F2502F000413F263BF1002B087007B9
:10152000F2002C08713DF30029087207F4002A0824
:10153000733DF50023087407F6002408753DF70095
:1015400020087607F8002108773DF9007808A70001
:101550007908A80023003D08AD003C08AC0020003D
:1015600028082300BD00200027082300BC003F0DF1
:101570003F0C2000AC0023003E0C2000AB002C08E8
:10158000F1002B08F000710DF10CF00C710DF10C55
:10159000F00C710DF10CF00C7008A9007108AA0094
:1015A000290E0F39A3002A0EF039A3042A0E0F3991
:1015B000A400F030A41D0030A4040E30A03E86002C
:1015C000013087002309F0002409F100F00A031913
:1015D000F10A403F7002F200413F713BF3002508E1
:1015E0007207F4002608733DF5002B087407F60017
:1015F0002C08753DF70029087607F8002A08773D82
:10160000F9007808A7007908A80023003F08AF0078
:101610003E08AE00200028082300BF002000270855
:101620002300BE0001302000E207CD306202031C1F
:101630001A2B1B2B532BA2012235B03E8600013002
:1016400087002235303E840002308500403F803FD5
:10165000413F813F2235A03E860001308700223580
:10166000203E840002308500403F803F413F813F63
:101670002235B03E8600013087000030C03FC13FB8
:101680002235A03E8600013087000030C03FC13FB8
:101690000130A20708302202031C4F2B502B1C2BB9
:1016A000E2010130E100080091310D218B312A3037
:1016B0002000AD000830AE009E3140268B310A304C
:1016C0009F318B278B31B0302000AD001430AE003D
:1016D0009E316D268B3122302000AD001E30AE00D1
:1016E0009E3152268B318B170B172300E401220009
:1016F000EE01EF012300E5012600C001C101230036
:10170000E70101302000D50001302100E400033062
:101710002300E2000A302000D4002300E001E101B0
:101720002600C5018631DE268B3110309E312826F9
:101730008B319E3115268B31003A0319A02BA12B3A
:10174000992B8731FD278B319E318B268B3164009D
:10175000230053080319AD2BAE2BF02B59080319A6
:10176000B22BB32BF02B0130D9025908031DB92B32
:10177000BA2BF02B5A080319BE2BBF2BF02B9E312E
:101780001D268B31013A031DC62BC72BEE2B0A30C9
:1017900023005A02031CCD2BCE2BD22B303022003B
:1017A000EC00D62B5A08303E2200EC006630860052
:1017B0000230870038308400013085000830A000F6
:1017C00016001A00A00BE02B6C08BD00383020007A
:1017D000AF000130B000883102208B312300DA01E4
:1017E0009E311D268B312300E30063085806031940
:1017F000FA2BFB2B2E2C0130D70705305702031C88
:10180000022C032C2F2C6308D800D7015803031D8A
:101810000A2C0B2C1F2C27302000AF00A030B0006A
:10182000883102208B319D31F9258B319D31F32593
:101830008B312300E001E1012600C5012F2C383057
:101840002000AF00A030B000883102208B319D31E4
:10185000F0258B319D31F6258B31192CD7012300D2
:101860005803031D342C352C552C26004508031D28
:101870003A2C3B2C552C01302300E0070030E13D91
:101880006D086102031D462C6C086002031C492C84
:101890004A2C552C01302600C50030302000AF0006
:1018A000A030B000883102208B3123005B08031D7B
:1018B0005A2C5C2C8331D22B200061080319612C37
:1018C000622C5A2CE1012600D201D3015308803A40
:1018D0002200A00080302002031D712C0830260059
:1018E0005202031C742C752C772C8131F4292600AC
:1018F0005235303E860002308700403F2200A00073
:10190000413FA10020082000AD0022002108200056
:10191000AE00890D893B8909AF00B0002600523521
:10192000303E860002308700403F2200A200413F47
:10193000A30022082000B100220023082000B200EA
:10194000890D893B8909B300B400913172218B3133
:10195000200030082100E30020002F082100E200D1
:1019600020002E082100E10020002D082100E000C9
:1019700026005235203E860002308700403F22007C
:10198000A000413FA10020082000AD002200210856
:101990002000AE00890D893B8909AF00B000260008
:1019A0005235203E860002308700403F2200A200D0
:1019B000413FA30022082000B1002200230820009C
:1019C000B200890D893B8909B300B40091317221BD
:1019D0008B31200030082200EB0020002F0822006D
:1019E000EA0020002E082200E90020002D08220035
:1019F000E80026005235303E860002308700403F26
:101A00002200A000413FA10020082000AD002200DC
:101A100021082000AE00890D893B8909AF00B00084
:101A200026005235203E860002308700403F2200CB
:101A3000A200413FA30022082000B1002200230899
:101A40002000B200890D893B8909B300B4009131AF
:101A500072218B31200030082600D70020002F088B
:101A60002600D60020002E082600D50020002D08D4
:101A70002600D40000302300EB000030EA000030E4
:101A8000E9000030E80081318D2954082200A000CF
:101A9000260055082200A100260056082200A200B8
:101AA000260057082200A300260054082200A400A4
:101AB000260055082200A500260056082200A60090
:101AC000260057082200A7000630A800A737A60C5A
:101AD000A50CA40CA80B662D260054082200A90012
:101AE000260055082200AA00260056082200AB0056
:101AF000260057082200AC000430AD00AC37AB0C18
:101B0000AA0CA90CAD0B7E2D260054082200AE00B5
:101B1000260055082200AF00260056082200B0001B
:101B2000260057082200B1000330B200B137B00CD4
:101B3000AF0CAE0CB20B962D260054082200B30059
:101B4000260055082200B400260056082200B500E1
:101B5000260057082200B6000130B700B637B50C92
:101B6000B40CB30CB70BAE2D3308AE073408AF3D41
:101B70003508B03D3608B13D2E08A9072F08AA3D0B
:101B80003008AB3D3108AC3D2908A4072A08A53D23
:101B90002B08A63D2C08A73D2408A0072508A13D39
:101BA0002608A23D2708A33D23082300EB002200BE
:101BB00022082300EA00220021082300E900220075
:101BC00020082300E8008131AF2954082200A0003A
:101BD000260055082200A100260056082200A20077
:101BE000260057082200A300260054082200A40063
:101BF000260055082200A500260056082200A6004F
:101C0000260057082200A7000830A800A737A60C16
:101C1000A50CA40CA80B062E260054082200A9002F
:101C2000260055082200AA00260056082200AB0014
:101C3000260057082200AC000730AD00AC37AB0CD3
:101C4000AA0CA90CAD0B1E2E260054082200AE00D3
:101C5000260055082200AF00260056082200B000DA
:101C6000260057082200B1000330B200B137B00C93
:101C7000AF0CAE0CB20B362E260054082200B30077
:101C8000260055082200B400260056082200B500A0
:101C9000260057082200B6000130B700B637B50C51
:101CA000B40CB30CB70B4E2E3308AE073408AF3D5F
:101CB0003508B03D3608B13D2E08A9072F08AA3DCA
:101CC0003008AB3D3108AC3D2908A4072A08A53DE2
:101CD0002B08A63D2C08A73D2408A0072508A13DF8
:101CE0002608A23D2708A33D23082300EB0022007D
:101CF00022082300EA00220021082300E900220034
:101D000020082300E800E32D54082200A00026004C
:101D100055082200A100260056082200A200260035
:101D200057082200A300260054082200A400260021
:101D300055082200A500260056082200A60026000D
:101D400057082200A7000430A800A737A60CA50C4E
:101D5000A40CA80BA52E260054082200A9002600DA
:101D600055082200AA00260056082200AB002600D3
:101D700057082200AC000130AD00AC37AB0CAA0C08
:101D8000A90CAD0BBD2E2908A4072A08A53D2B08D8
:101D9000A63D2C08A73D2408A0072508A13D26083C
:101DA000A23D2708A33D23082300EB0022002208C0
:101DB0002300EA00220021082300E9002200200875
:101DC0002300E800E32D54082200A0002600550857
:101DD0002200A100260056082200A2002600570873
:101DE0002200A300260054082200A4002600550863
:101DF0002200A500260056082200A600260057084B
:101E00002200A7000630A800A737A60CA50CA40C3A
:101E1000A80B042F260054082200A900260055080C
:101E20002200AA00260056082200AB002600570810
:101E30002200AC000130AD00AC37AB0CAA0CA90CF1
:101E4000AD0B1C2F2408A9022508AA3B2608AB3B92
:101E50002708AC3B2908A0072A08A13D2B08A23D72
:101E60002C08A33D23082300EB00220022082300B6
:101E7000EA00220021082300E900220020082300B4
:101E8000E800E32D54082200A00026005508220097
:101E9000A100260056082200A200260057082200B2
:101EA000A300260054082200A400260055082200A2
:101EB000A500260056082200A6002600570822008A
:101EC000A7000730A800A737A60CA50CA40CA80BE8
:101ED000632F260054082200A9002600550822007E
:101EE000AA00260056082200AB0026005708220050
:101EF000AC000530AD00AC37AB0CAA0CA90CAD0B97
:101F00007B2F260054082200AE0026005508220030
:101F1000AF00260056082200B00026005708220015
:101F2000B1000330B200B137B00CAF0CAE0CB20B45
:101F3000932F2E08A9072F08AA3D3008AB3D310882
:101F4000AC3D2908A4072A08A53D2B08A63D2C086E
:101F5000A73D2408A0072508A13D2608A23D270883
:101F6000A33D23082300EB00220022082300EA00FF
:101F7000220021082300E900220020082300E800B5
:101F8000E32D54082200A000260055082200A100DD
:101F9000260056082200A200260057082200A300AF
:101FA000260054082200A400260055082200A5009F
:101FB000260056082200A600260057082200A70087
:101FC0000730A800A737A60CA50CA40CA80BE22F7D
:101FD0002408A0072508A13D2608A23D2708A33D07
:101FE00023082300EB00220022082300EA0022003D
:101FF00021082300E900220020082300E800E32D47
:10200200BB3028009D009C0100302400CA00003033
:10201200CB0020009213073028009E000800280001
:1020220013103C309200B030910012082300C70018
:10203200280011082300C600280094010030240063
:10204200D2000030D3000030D0000030D100200098
:102052001312931225302800930008002000B101CA
:10206200B2012D1C352836283A282F08B10730082E
:10207200B23D0130AF35B00D890B3B280130AE3691
:10208200AD0C890B40282D082E04031D49284A282F
:1020920032283208AE003108AD00080028001A10BC
:1020A200E0309900C030980019082300C5002800CC
:1020B20018082300C40028009B0102302400CE002F
:1020C2000030CF000030CC000030CD0020001412D0
:1020D20021001416053028009A000800A3302100C0
:1020E200A9002008AA00AB01AC01AD01B301B40103
:1020F200AA302000C9000030CA00210022082000B6
:10210200CC00210021082000CB00A930CD009F3156
:10211200E1279031210020082C07860087018101E8
:1021220008002800131D96289728AD2813080139A6
:102132002000AF002800131020002E082800920073
:1021420020002D082800910020002F0C2800031CDD
:10215200131003181314B52820002E08280092002B
:1021620020002D082800910008002000AE00210068
:10217200111ABC28BD28C22820002E0823009A006C
:10218200DA28200059080319C728C828DA285B086A
:10219200D03E8600023087002E0881005B08013E97
:1021A2000F39AD002D08DB00210011120130200093
:1021B200D902210011160800E4280130AD070130D0
:1021C200AE070030AF3D20002E0884002F088500A6
:1021D2000008B0002D088600023087000108300692
:1021E200031DF428F528FE282D08860002308700FA
:1021F2000108031DFD28FE28DE282D088600023076
:1022020087002E0884002F08850000080102AD0017
:10221200AE01031CAE0308009E3176269131913146
:102222003E2191319F31122791319E31A426913165
:1022320090311020913190314F2091319031012015
:1022420091319F31C42791319F31552791319E3170
:102252002E2691319131A62191319E31092691315B
:102262009E31972691319E310D2691319E31112654
:1022720091319E31802691310800103022008C006D
:102282008E012E3021008C000C308E000330230092
:102292008C0030308E00343024008C000C308E00E4
:1022A20025008C018E01373026008C003F308E00D5
:1022B2003F3027008C003F308E0002303C00A800E7
:1022C2001330A40004303D00A4001D30A5001430DA
:1022D20094002700910192019301970198019901BD
:1022E200080000302000B8000030B7000030B6000F
:1022F2000030B5002D1C7E297F2987293108B507BA
:102302003208B63D3308B73D3408B83D0130B13527
:10231200B20DB30DB40D890B88290130B036AF0C64
:10232200AE0CAD0C890B8F2930082F042E042D041E
:10233200031D9C299D297B293808B0003708AF006E
:102342003608AE003508AD00080021009112903029
:102352002400D6001230D700210011126F30240061
:10236200D8001F30D900483023009F0090309D00D4
:1023720026309E000A309B001A309C00013020005B
:10238200AD000830AE009E31D026913105302000DC
:10239200AD001E30AE009E31DF2691312400C8010F
:1023A200C9012000DB01DA011030D900FD01FC0176
:1023B200D8012100911608002000AD0023006E080C
:1023C200031DE429E529E629162A313020002D02D1
:1023D200031CEC29ED29F8293A302D020318F229C1
:1023E200F329F8292D08D03E2300DC00012A3030E1
:1023F2002D06031DFD29FE29162A0A302300DC00C2
:102402005B080319052A062A072A162A0130DD006D
:10241200200057082300CF00200056082300CE00DA
:102422003E00911701302300DB0008002000B201BA
:10243200B3012D082E0403191F2A202A4D2A013028
:10244200B1002A2A0130AD35AE0D890B242A0130A4
:10245200B107AE1F2D2A2E2A232A0130B235B30D21
:10246200890B2F2A2E083002031D392A2D082F022C
:10247200031C3C2A3D2A422A2D08AF022E08B03BFB
:1024820032140130AE36AD0C890B432A0130B10251
:10249200031D4C2A4D2A2E2A3308AE003208AD0005
:1024A20008002000AE003100151720002E08310070
:1024B2009100703092001514130820002D060319A4
:1024C200632A642A8F2A31009518682A692A642AA5
:1024D200151720002E0831009100703092009401EF
:1024E20020002D0831009300200003108B1F7A2A50
:1024F2007B2A7C2A03148B13310015155530960064
:10250200AA30960095149518872A882A842A1511CC
:102512002000031C8D2A8E2A8F2A8B1708007D35F6
:10252200A03E8600023087000030C03FC13F23003A
:102532009D1C9C2A9D2AAE2A7D35A03E8600023033
:1025420087000115400841040319A82AA92AAE2AC6
:1025520041088A0040080A00923123001D1DB22A58
:10256200B32AC42A7D35A03E86000230870081143A
:10257200420843040319BE2ABF2AC42A43088A0018
:1025820042080A00923123001908F0007D08013E3A
:102592000F39F10071087C06031DD02AD12AD22AF4
:1025A200DE2A7D08C03E8600023087007008810066
:1025B2007108FD0001302000D8070800013020001A
:1025C200B0020030B13B300A031DEB2A310A031D71
:1025D200EB2AEC2AF92AAD01AE012F2B0130AD070F
:1025E2000130AE070030AF3D0130B0020030B13BE8
:1025F2002D0886000230870001080319012B022BE7
:10260200212B2E0884002F088500120003190A2BA3
:102612000B2B212B300831040319102B112B212BEA
:102622002E0884002F0885000008B2002D088600BD
:1026320002308700010832060319202B212BEF2AD2
:102642002D088600023087002E0884002F0885009E
:1026520000080102AD00AE01031CAE030800200019
:10266200B201B01F352B362B3D2BAF09B009AF0A93
:102672000319B00A0130B200AE1F402B412B462B8A
:10268200AD09AE09AD0A0319AE0A2D082E040319CD
:102692004B2B4C2B732B0130B100562B0130AD3537
:1026A200AE0D890B502B0130B107AE1F592B5A2B9F
:1026B2004F2B2E083002031D602B2D082F02031C06
:1026C200632B642B682B2D08AF022E08B03B013020
:1026D200AE36AD0C890B692B0130B102031D722B92
:1026E200732B5A2B32080319772B782B7D2BAF09CA
:1026F200B009AF0A0319B00A3008AE002F08AD00C6
:10270200080020002F0830040319882B892B8F2BF7
:102712002F083004031D8E2B8F2B942B2D08803114
:1027220003209331DA2B2F088600870149311600E6
:10273200010403199D2B9E2BBC2B2F0886008701B9
:102742004931403FB100413FB2002F088600870166
:102752004231403FB300413FB4003408803AB500F3
:102762003208803A3502031DB82B310833020318B0
:10277200BB2BBC2BDA2B20002F08860087014231AD
:102782002F08840030088500003FB100013FB200ED
:10279200403F31078400413F323D85002D088000D3
:1027A2002F08860087014231013081074131031829
:1027B200810A08002000B201AE1FE02BE12BE82BBA
:1027C200AD09AE09AD0A0319AE0A0130B200B01F5D
:1027D200EB2BEC2BF32BAF09B009AF0A0319B00AAC
:1027E2000130B206B301B4012D082E040319FA2BED
:1027F200FB2B282C0130B100052C0130AD35AE0D7C
:10280200890BFF2B0130B107AE1F082C092CFE2BC0
:102812000130B335B40D890B0A2C2E083002031D8A
:10282200142C2D082F02031C172C182C1D2C2D08DC
:10283200AF022E08B03B33140130AE36AD0C890B1B
:102842001E2C0130B102031D272C282C092C320822
:1028520003192C2C2D2C322CB309B409B30A0319F9
:10286200B40A3408AE003308AD0008002000B801F5
:10287200B901B7013E2C0130B3073308860002309C
:102882008700203001060319472C482C3C2C3308C2
:10289200860002308700F7300107B50005303502A7
:1028A200031C542C552C3C2C330886000230870024
:1028B2002D300106031D5E2C5F2C642C0130B70005
:1028C2000130B3078D2C33088600023087002B308D
:1028D2000106031D6D2C6E2C8D2C612C3308860095
:1028E200023087003908AE003808AD000A30AF0068
:1028F2000030B00090312F20943120002E08B60015
:1029020001082D02B500031CB6033508303EB8009D
:102912000030363DB900612C330886000230870052
:10292200D0300107B5000A303502031C992C9A2CCD
:102932006F2C3708031D9E2C9F2CAB2C3809B50039
:102942003909B600B50A0319B60A3508B3003608C4
:10295200B400AF2C3908B4003808B30008002300D3
:102962005B08031DB52CB62C282D3E2D0130CE025E
:102972000030CF3B4E084F04031DC02CC12C3E2D0E
:102982000230DD004D08CF004C08CE003E0091130E
:102992003E2D0130CE020030CF3B4E084F04031DC6
:1029A200D32CD42C3E2D0130DC025C080319DA2C26
:1029B200DB2CE82C0130DD00200057082300CF007B
:1029C200200056082300CE003E0091173E2D033012
:1029D200DD0024006F082300CF0024006E082300CE
:1029E200CE003E2D0130CE020030CF3B4E084F04C8
:1029F200031DFC2CFD2C3E2DDB0121008E12033029
:102A0200F1000830F0007730890B052DF00B052D11
:102A1200F10B052D000021008E16D030F000CA30D7
:102A2200890B112DF00B112D21008E120330F100B4
:102A32000830F0007730890B1C2DF00B1C2DF10BA8
:102A42001C2D000021008E162300DD013E2D5D08A5
:102A5200F000F1017108003A0319302D3E2D700883
:102A6200003A03193E2D013A0319B72C033A031910
:102A7200CA2C013A0319F32C3E2D08002100DF0174
:102A820020005108AD004330AE00A030AF009031BD
:102A9200DD20953120002D082E04031D512D522DCD
:102AA2005B2D03302300EF00D501D401013021005A
:102AB200DF00E82F5108AD007930AE00A030AF0042
:102AC2009031DD20953120002D082E04031D6A2D42
:102AD2006B2D722D03302300EF0001302100DF0047
:102AE200E82F5108AD008D30AE00A030AF0090311C
:102AF200DD20953120002D082E04031D812D822D0D
:102B0200852D2300EF01572D5108AD008930AE000D
:102B1200A030AF009031DD20953120002D082E0429
:102B2200031D942D952D9C2D01302300EF000130C3
:102B32002100DF00E82F5108AD006530AE00A03063
:102B4200AF009031DD20953120002D082E04031DA9
:102B5200AB2DAC2DB32D02302300EF00013021004C
:102B6200DF00E82F5108AD006D30AE00A030AF009D
:102B72009031DD20953120002D082E04031DC22D39
:102B8200C32DCA2D01302300D50001302100DF0002
:102B9200E82F5108AD007130AE00A030AF00903187
:102BA200DD20953120002D082E04031DD92DDA2DAC
:102BB200DD2D2300D501572D5108AD009130AE0017
:102BC200A030AF009031DD20953120002D082E0479
:102BD200031DEC2DED2DF42D01302300D400013026
:102BE2002100DF00E82F5108AD009530AE00A03083
:102BF200AF009031DD20953120002D082E04031DF9
:102C0200032E042E072E2300D401572D5108AD00A8
:102C12007D30AE00A030AF009031DD209531200034
:102C22002D082E04031D162E172E1E2E01302300F2
:102C3200EE0001302100DF00E82F5108AD008130A5
:102C4200AE00A030AF009031DD20953120002D087C
:102C52002E04031D2D2E2E2E312E2300EE01572D74
:102C62005108AD004730AE00A030AF009031DD20FA
:102C7200953120002D082E04031D402E412E4D2E8D
:102C82000A309F318B2795310A302000AD00013088
:102C9200923152229531572D5108AD005130AE007C
:102CA200A030AF009031DD20953120002D082E0498
:102CB200031D5C2E5D2E692E14309F318B279531BA
:102CC20014302000AD000130923152229531572D3F
:102CD2005108AD005B30AE00A030AF009031DD2076
:102CE200953120002D082E04031D782E792E8F2E6B
:102CF2009D31FC2595319D31FF2595310130230011
:102D0200D30001302100DF0001302000E000AD01DE
:102D1200AD0A0230923152229531E82F5108AD00AE
:102D22006030AE00A030AF009031DD209531200040
:102D32002D082E04031D9E2E9F2EAC2E2300D301A0
:102D420001302100DF002000E001AD0102309231AC
:102D520052229531E82F5108AD007530AE00A030F7
:102D6200AF009031DD20953120002D082E04031D87
:102D7200BB2EBC2ED42E230058080319C12EC22EFE
:102D8200CB2E27302000AF00A030B00088310220C7
:102D92009531572D38302000AF00A030B000883177
:102DA20002209531572D5108AD006930AE00A03098
:102DB200AF000330B0000030B1009231DF22953114
:102DC20020002D082E04031DE72EE82E172F510890
:102DD200033EB3009431372495312000330821009B
:102DE200DE005E080319F62EF72EE82F5E0820009B
:102DF200D200D3015208AD005308AE002830AF0014
:102E02000030B00090312F20953120002E08230091
:102E1200ED0020002D082300EC0021005E082000B8
:102E2200AD000330923152229531572D5108AD0039
:102E32004C30AE00A030AF000430B0000030B10022
:102E42009231DF22953120002D082E04031D2A2FF6
:102E52002B2F8F2F433056065704031D312F322F4D
:102E6200362F0A302100DD00432F21305606570449
:102E7200031D3C2F3D2F412F14302100DD00432F35
:102E82002100DD0123006E03031D482F492F502F1F
:102E920044302100D9005030DA00DB01562F2D30AA
:102EA2002100D9002D30DA004E2FB530A0001030AD
:102EB200A100A030A2005D082000D200D301520878
:102EC2002100A300200053082100A400D930A5004E
:102ED2000030A60028302000AD000030AE002300F4
:102EE2006D082000B00023006C082000AF00923172
:102EF2001722953120002E082100A80020002D085D
:102F02002100A70090316F209531B5302000AF002D
:102F12000030B000883102209531572D5108AD00A4
:102F22005630AE00A030AF000430B0000030B10027
:102F32009231DF22953120002D082E04031DA22F8D
:102F4200A32FD42F2100D60123005503031DAA2F3E
:102F5200AB2FAF2F52302100D500B22F2D302100E0
:102F6200D500C530A0001D30A100A030A200230072
:102F72006F082000D200D30152082100A3002000D4
:102F820053082100A400D530A5000030A6009031DE
:102F92006F209531C5302000AF000030B00088317D
:102FA20002209531572D5108AD004030AE00A030BF
:102FB200AF009031DD20953120002D082E04031D35
:102FC200E32FE42FE82F873173279531572D210006
:102FD2005F03031DED2FEE2FF72F99302000AF0076
:102FE200A030B000883102209531FF2F85302000BB
:0E2FF200AF00A030B0008831022095310800F9
:103BE00021001113080021001117080021001D10E9
:103BF000080021001D14080023009E120800230065
:103C00009E16080031009511080023001D121D1694
:103C100008008A302200970008009E3102269E315B
:103C2000080015302100970008002000130E01390C
:103C30000800B0340434013403343E00100E890C03
:103C40000139080001302300DA071430D9000800D8
:103C50002000AD002D08220099000800A8302200A5
:103C60009800103099000800640080010131890B30
:103C7000352E0034FE0012001E00FE0B3B2E0034D9
:103C800020002E082300CB0020002D082300CA00AE
:103C9000080020005808031D4E2E502E0130512ED2
:103CA0000030080020002E082400DD0020002D0830
:103CB0002400DC00080020002E082400DB00200087
:103CC0002D082400DA00080020002E082300C90077
:103CD00020002D082300C800080020002E08240022
:103CE000CF0020002D082400CE00080060303200F4
:103CF00099009B019D0107309F009E019C010800D7
:103D0000200010100B140030AD000030AE009E31CA
:103D100064269E310800230047082000AE002300DF
:103D200046082000AD00903192209E310800C0303E
:103D300029009F009A01990198019D019C011A3068
:103D40009B0080309E000800F93020009E009D01FD
:103D500000302400D4000030D50020009110053040
:103D60009F0008002000111323004A084B04031988
:103D7000BA2EBB2EC02E4B088A004A080A009E317C
:103D800008002000131024005C085D040319C92EEC
:103D9000CA2ECF2E5D088A005C080A009E310800FA
:103DA00020002D082E040319D62ED72EDE2E2E0825
:103DB0002300C30020002D082300C20008002000BB
:103DC0002D082E040319E52EE62EED2E2E082300D5
:103DD000C10020002D082300C00008002000B41BF3
:103DE000F22EF32EF42EFF2E3309B5003409B6005F
:103DF000B50A0319B60A3508B3003608B40008003E
:103E0000443454344D3446343A34003400340034AD
:103E100052345F34443450343A345834003400342B
:103E20005834023421001D1001309D00E3309E0003
:103E30009C019B0105309F002300CA01CB0120009B
:103E400011132100111701309D00080023004508BF
:103E5000F1004408F0009F313D279F3124004E08B7
:103E60004F040319342F352F3A2F4F088A004E087C
:103E70000A009F3120001412080028001A1D412F4B
:103E8000422F502F1A080139F2001A1071089900B8
:103E900070089800720C031C1A1003181A14542F7F
:103EA000710899007008980008003E00A5012330B1
:103EB000A600A701A801A9010230AA000830AB00A2
:103EC000AC01AD018530A40000302000AD00003011
:103ED000AE009E315B269F31200013110800103088
:103EE000200059020318752F762F882F5A08D03ECC
:103EF000860002308700010823009A0020005A083B
:103F0000013E0F39F0007008DA000130D9078A2F1E
:103F10002100111208002000AD0014302D06031DF1
:103F2000922F932F9D2F2130D6000030D7001130D3
:103F30002300CC000030CD00A62F4330D600003047
:103F4000D70021302300CC000030CD0008007C08D1
:103F5000C03E86000230870001082000AE007C08C9
:103F6000013E0F39AD002D08FC0021009112200008
:103F700058080319BC2FBD2FBF2F0130D8022100D4
:103F8000911620002E08080002303E0091002330D8
:103F9000920093010630940095010230960014308F
:103FA0009700980199018D30900020001310003087
:103FB000AD000830AE009E3152269F31210013140F
:103FC000080020004C08D0004B08CF00F32F4A080F
:103FD000B8004908B7004F30B9004D08BA00BB011E
:103FE00085315A259F3120004F08840050088500F4
:103FF0001200031DFC2FFD2FE72FC901CA01080085
:104000003134323433344134343435343634423458
:1040100037343834393443342A3430342334443454
:104020005334543431343A34253464342C34253404
:1040300073342C34253464340034533454343234DF
:104040003A34253464342C34253473340034483401
:104050004F344F344B343A344F34463446340034C2
:10406000543441344C344B343A344F344E340034AD
:1040700048344F344F344B343A344F344E34003498
:104080002B342B34463452345334543400342B34D0
:1040900050345034313400343F3453345434313498
:1040A00000342B3450345034323400343F345334E1
:1040B0005434323400342B345334453452340034C5
:1040C0002D3453344534523400342B34523442347A
:1040D00000342B3454344D3400342B3452344E34A9
:1040E00000342D3452344E3400343F3448344F348D
:1040F00000342D3454344F3400342B344434503491
:1041000000342D3444345034003445345234523465
:1041100000342B344234543400342B34433454347C
:1041200000342B345234563400342D345234563447
:0841300000344F344B3400341D
:020000040001F9
:08000E00EC3FDC3FFF3FFF3F28
:00000001FF
