:1000000080313F28023008007E14803100308600A5
:10001000003087000B1F0D280E283D282100111EDF
:10002000122813281F282000111E172818281F28FF
:10003000210035088A0034080A0080313D2821005B
:10004000911E2328242830282000911E28282928A2
:100050003028210033088A0032080A0080313D2808
:100060002100911C342835283D282000911C392876
:100070003A283D289031882080317E100900803157
:100080004128210090314E208031EC0070308400F6
:10009000273085008030FE000030FF0088310020CE
:1000A0008031F001F101F201F301F401F5012000CA
:1000B000EE01EF01A0308400003085003630FE00F4
:1000C0000030FF0088310020803120308400013072
:1000D00085002030FE000030FF0088310020803194
:1000E000A0308400013085004030FE000030FF0069
:1000F000883100208031203084000230850040307B
:10010000FE000030FF00883100208031A0308400E4
:10011000023085004030FE000030FF0088310020B2
:1001200080317E1020008831F22820006C08860083
:10013000023087000108031D9E289F28A028F12D6A
:100140003030E100A130E2009031C5208031200044
:100150006C08A0004730A100A130A2009231892292
:100160008031200020082104031DB728B828642905
:100170006E30E1009F30E2009031C52080312100D7
:10018000E8015529BB302000E1009F30E20021004A
:100190006808013E2000E300003003180130E4004D
:1001A00021006808B63E860087010108D600D70105
:1001B00056082000E500210057082000E6000E3018
:1001C000A0002100680891311E218031BA3E8600CE
:1001D0008701010895318E25803120002408E80030
:1001E0002308E7009031C52080310E302000A000A8
:1001F0002100680891311E218031C73E86008701A9
:10020000010A0319042905291F293D302000E100B6
:10021000A030E2000E30A0002100680891311E21BC
:100220008031C73E860087010108013E2000E300BF
:10023000003003180130E4009031C52080310E30C9
:100240002000A0002100680891311E218031BB3EB2
:10025000860087010108031D2E292F293529283002
:100260002100DE00A130DF003A291B302100DE0032
:10027000A130DF0089302000E100A030E200210041
:100280005F082000E40021005E082000E3009031B8
:10029000C520803130302000E100A130E2009031F3
:1002A000C520803101302100E8076C086802031C7A
:1002B0005A295B29C22888302000E1009F30E200E3
:1002C0009031C5208031F12D6C08A0009E30A10036
:1002D000A030A2000830A3000030A40093317323A3
:1002E0008031200020082104031D77297829FC296A
:1002F0006C08083E8600023087000108CF3E2100CE
:10030000E1006C086102031886298729E029200092
:100310006C08093E86000230870020300106031D6C
:1003200092299329E0296C080A3E86000230870052
:1003300030300102031C9D299E29E0296C080A3EE9
:100340008600023087003A3001020318A829A92943
:10035000E0296C080B3E8600023087000A30A000BE
:100360006C080A3E840002308500000891311E218D
:1003700080310107F03E2100E0006108B63E8600B2
:100380008701600881002D302000E1009C30E200F0
:1003900021006108013E2000E30000300318013015
:1003A000E40021006008D600D70156082000E500CF
:1003B000210057082000E6009031C5208031F12D42
:1003C000A2302000E1009F30E2009031C520803152
:1003D000D1302000E1009930E20021006C08D60005
:1003E000D70156082000E300210057082000E40050
:1003F0009031C5208031F12D6C08A000B030A100F3
:10040000A030A2000730A3000030A4009331732372
:100410008031200020082104031D0F2A102ACE2A33
:100420006C08073E8600023087000108CF3E21009D
:10043000E700E20120006C08093EA0006230A10044
:10044000A130A2000230A3000030A4009331732336
:100450008031200020082104031D2F2A302A342A4D
:1004600002302100E2004C2A6C08093EA000553001
:10047000A100A130A2000330A3000030A4009331FA
:1004800073238031200020082104031D482A492AB3
:100490004C2A01302100E20021006C086702031899
:1004A000522A532AB22A62080319572A582AB22A12
:1004B0006203031D5C2A5D2A7B2A0E302000A00007
:1004C0002100670891311E218031BA3E86008701E4
:1004D0008101EB302000E1009C30E2002100670840
:1004E000013E2000E300003003180130E4009031A9
:1004F000C5208031F12D02306206031D802A812A39
:10050000A02A0E302000A0002100670891311E2192
:100510008031BA3E86008701093081008D3020008D
:10052000E1009A30E20021006708013E2000E3006C
:10053000003003180130E4009031C5208031F12DE6
:10054000E0302000E1009E30E20021006708013E1B
:100550002000E300003003180130E4009031C52092
:100560008031F12DA2302000E1009F30E200903177
:10057000C5208031C6302000E1009C30E20021001F
:100580006C08D600D70156082000E3002100570868
:100590002000E4009031C5208031F12D6C08A000CE
:1005A0007030A100A030A200923189228031200059
:1005B00020082104031DDD2ADE2AF32AD330E100BE
:1005C0009F30E2009031C520803129302100D700D2
:1005D0009630D6007F30890BEB2AD60BEB2AD70B4F
:1005E000EB2A0100F12D6C08A0001430A100A1300D
:1005F000A2000630A3000030A400933173238031A1
:10060000200020082104031D062B072B922C6C08C8
:10061000063EA0003830A100A130A2000430A300A3
:100620000030A4009331732380312000200821047E
:10063000031D1B2B1C2BB42B6C080A3E86000230BA
:1006400087000108D03E2100E30020006C080C3E2A
:100650008600023087000108D03E2100E40020001F
:100660006C080B3E86000230870020300106031D17
:100670003A2B3B2B992B8830E1009E30E200210081
:100680006308D600D70156082000E3002100570870
:100690002000E40021006408D800D9015808200097
:1006A000E500210059082000E60021006408DA0076
:1006B000DB015A082000E70021005B082000E80069
:1006C00021006308DC00DD015C082000E900210056
:1006D0005D082000EA009031C520803121006308C8
:1006E0002000A800210064082000A9000130873103
:1006F00035278031DE302000E1009B30E200210010
:100700006308D600D70156082000E30021005708EF
:100710002000E40021006408D800D9015808200016
:10072000E500210059082000E6009031C520803105
:10073000F12D3630E1009F30E2009031C52080314C
:100740000E302000E1009B30E20021006C08D60052
:10075000D70156082000E300210057082000E400DC
:100760009031C5208031F12D6C08063EA000333059
:10077000A100A130A2000430A3000030A4009331F6
:1007800073238031200020082104031DC82BC92BAE
:10079000612C6C080A3E8600023087000108D03EBA
:1007A0002100E50020006C080C3E86000230870026
:1007B0000108D03E2100E60020006C080B3E8600B8
:1007C0000230870020300106031DE72BE82B462C62
:1007D0006A30E1009E30E20021006508D600D701B2
:1007E00056082000E300210057082000E400210003
:1007F0006608D800D90158082000E50021005908F2
:100800002000E60021006608DA00DB015A0820001B
:10081000E70021005B082000E80021006508DC00FB
:10082000DD015C082000E90021005D082000EA00ED
:100830009031C5208031210065082000A8002100EA
:1008400066082000A90000308731352780318C30C0
:100850002000E1009B30E20021006508D600D701AE
:1008600056082000E300210057082000E400210082
:100870006608D800D90158082000E5002100590871
:100880002000E6009031C5208031F12D3630E100A6
:100890009F30E2009031C5208031E4302000E1003B
:1008A0009A30E20021006C08D600D70156082000DB
:1008B000E300210057082000E4009031C52080317A
:1008C000F12D6C08063EA0007330A100A030A200FC
:1008D000923189228031200020082104031D712CCF
:1008E000722C822C0D30A400A130A5009131602122
:1008F0008031C4302000E1009D30E2009031C520FD
:100900008031F12D7E30E1009D30E2009031C52034
:100910008031E7302000E1009D30E2009031C520B9
:100920008031F12D6C08A0006130A100A030A20040
:10093000923189228031200020082104031DA12C3E
:10094000A22C482D2100E901412D4A302000E10070
:100950009E30E20021006908013E2000E3000030E3
:1009600003180130E40021006908B63E86008701C3
:100970000108D600D70156082000E50021005708DD
:100980002000E6000E30A0002100690891311E21F0
:100990008031BA3E86008701010895318E2580316D
:1009A00020002408E8002308E7009031C5208031AA
:1009B00031009518DC2CDD2CD82C15172100693559
:1009C000023E3100910070309200940121006908CC
:1009D000B63E860087010108310093002000031015
:1009E0008B1FF32CF42CF52C03148B1331001515ED
:1009F00055309600AA30960095149518002D012DBB
:100A0000FD2C15112000031C062D072D082D8B171A
:100A1000310095180C2D0D2D082D15172100693565
:100A2000033E310091007030920094010E3020009E
:100A3000A0002100690891311E218031BA3E860054
:100A40008701010831009300200003108B1F292D1E
:100A50002A2D2B2D03148B133100151555309600BC
:100A6000AA30960095149518362D372D332D151173
:100A70002000031C3C2D3D2D3E2D8B170130210005
:100A8000E9076C086902031C462D472DA52CF12DA2
:100A90006C08A0004230A100A130A200923189224E
:100AA0008031200020082104031D572D582DE62DEC
:100AB0005030E100A030E2009031C52080315A3042
:100AC0002000E1009D30E2009031C52080312C30C3
:100AD0002000E1009A30E2009031C5208031C7301B
:100AE0002000E1009930E20021006C08D600D70117
:100AF00056082000E300210057082000E400903150
:100B0000C520803138302000E1009B30E200903178
:100B1000C52080315D302000E1009A30E2002100E4
:100B20006C08D600D70156082000E30021005708C2
:100B30002000E4009031C52080315F302000E100CA
:100B40009930E2009031C5208031FA302000E10078
:100B50009930E2009031C52080313F302000E10023
:100B60009830E2009031C520803100302000E10053
:100B70009830E2009031C5208031BA302000E10089
:100B80009830E2009031C520803130302000E10003
:100B9000A130E2009031C52080312B302000E100EF
:100BA0009930E2009031C520803162302000E100B0
:100BB0009B30E2009031C520803191302000E1006F
:100BC0009F30E2009031C5208031F12DEA30E10004
:100BD0009F30E2006C08E3000230E4009031C52051
:100BE0008031080020004B0886008701403FCE007E
:100BF000413FCF004E0884004F0885001200253A7F
:100C0000031D032E042E1A2F4B0886008701013086
:100C1000810741310318810A2100A001A1010030A0
:100C2000B800FF30A200FF30A3002000D801372E0B
:100C30002100381420004B0886008701013081070D
:100C400041310318810A372E0130D800372E4B0866
:100C500086008701403FCE00413FCF004E08840010
:100C60004F08850000082D3A0319182E242E580825
:100C700003193B2E3C2E272E4B08A6004C08A7003C
:100C8000943172248531200027082100A100200022
:100C900026082100A000A11F4E2E4F2E552E3814DD
:100CA000A009A109A00A0319A10A20004B08860087
:100CB0008701403FD600413FD700560884005708BF
:100CC00085001200643A0319662E672E712E5608AD
:100CD0008400570885001200693A031D702E712E9A
:100CE000972E4C0886004D08870001088400850176
:100CF00002308107003FD200013FD3005608013E79
:100D0000CE000030573DCF004B08860087014E08CB
:100D1000C03F4F08C13F4A08BD004908BC00530806
:100D2000BF005208BE0097315F278531342FD801AC
:100D30004B0886008701403FCE00413FCF004E0860
:100D400084004F0885001200733A031DA82EA92EB7
:100D5000B42E4B088600870101308107413103180A
:100D6000810A0130D800F62E4B0886008701403FEB
:100D7000CE00413FCF004E0884004F08850012008E
:100D80006C3A031DC42EC52EF62E4B088600870133
:100D9000403FCE00413FCF0001304E0784004F0856
:100DA0000318013E850012006C3A031DD82ED92E7F
:100DB000F62E4B0886008701403FCE00413FCF0012
:100DC00002304E0784004F080318013E85001200D0
:100DD000733A031DEC2EED2EF62E4B08860087018C
:100DE0000330810741310318810AB12E58080319D5
:100DF000FA2EFB2E102F4A08AD004908AC004C0813
:100E000086004D08870001088400850102308107B3
:100E1000003FAE00013FAF009631C0268531342F30
:100E200020004B08860087010130810741310318FB
:100E3000810A342F4B0886008701403FCE00413F96
:100E4000CF004E0884004F0885000008D000D10173
:100E50005008A3005108A4004A08A6004908A500AC
:100E60009431CE248531102F08002000AC002C03D3
:100E7000031D3B2F3C2F3F2F4330AD00412F5230FD
:100E8000AD000D30B200B3010A30A0000030A10067
:100E90002808AA00AB012A08A2002B08A30094315D
:100EA0001624873120002008303EAE000A30A00012
:100EB0000030A1002808AA00AB012A08A2002B08D4
:100EC000A3009331C423873120002008303EAF00B7
:100ED0000A30A0000030A1002908AA00AB012A08AE
:100EE000A2002B08A300943116248731200020088B
:100EF000303EB0000A30A0000030A1002908AA004E
:100F0000AB012A08A2002B08A3009331C423873128
:100F100020002008303EB1002D30A4000030A50094
:100F20009131602187310B302000AA006230890B9B
:100F3000972FAA0B972F00000A302000A000003046
:100F4000A1002908AA00AB012A08A2002B08A300CF
:100F500094311624873120002008303EAE000A303C
:100F6000A0000030A1002908AA00AB012A08A200B5
:100F70002B08A3009331C423873120002008303E82
:100F8000AF000A30A0000030A1002808AA00AB0181
:100F90002A08A2002B08A3009431162487312000D0
:100FA0002008303EB0000A30A0000030A100280820
:100FB000AA00AB012A08A2002B08A3009331C42386
:100FC000873120002008303EB1002D30A4000030D1
:100FD000A5009131602187310B302000AA006230DA
:100FE000890BF02FAA0BF02F0000080060303200B0
:100FF00099009B019D0107309F009E019C01080004
:101000006400800101310130FE020030FF3B7F08A7
:101010007E04031D012800343100151701309100B2
:101020007030920015145A301306031D1828192821
:1010300057282000A5014E2831001517200025351E
:10104000023E3100910070309200151420002508F6
:10105000B63E860087013100130881001517200075
:101060002535033E310091007030920015141308AD
:101070002000A30009302306031D3F2840284B28E9
:101080000E30A000250891311E218831BA3E86001D
:1010900087010930810001302000A50721006C087C
:1010A00020002502031C552856281C28F128200062
:1010B000A4012408B63E8600870124080B3E810067
:1010C0000130A40702302402031C6728682859282D
:1010D000A601310095186D286E2869281517200083
:1010E0002635023E310091007030920094012000BC
:1010F0002608B63E860087010108310093002000D3
:1011000003108B1F84288528862803148B13310035
:10111000151555309600AA3096009514951891280B
:1011200092288E2815112000031C972898289928AA
:101130008B17310095189D289E2899281517200097
:101140002635033E310091007030920094019301E6
:10115000200003108B1FAD28AE28AF2803148B137B
:101160003100151555309600AA3096009514951843
:10117000BA28BB28B72815112000031CC028C12895
:10118000C2288B170130A60702302602031CC9288B
:10119000CA28692831009518CE28CF28CA281517E3
:1011A000013091007030920094015A309300200079
:1011B00003108B1FDC28DD28DE2803148B1331007D
:1011C000151555309600AA30960095149518E92803
:1011D000EA28E62815112000031CEF28F028F12842
:1011E0008B17080015302100EB004B30EA00BE30B1
:1011F000890BF828EA0BF828EB0BF828000091314E
:101200000B218831F1302000A0001530A100903171
:10121000742088318B170B172E302000E100A1308D
:10122000E2009031C520883129302000E100A03053
:10123000E2009031C52088319131472188318031D9
:10124000022088312100EC0015302000E100A030A0
:10125000E20021006C08EA00EB016A082000E300CC
:1012600021006B082000E4009031C5208831353022
:101270002000E1009D30E2009031C52088315930D6
:101280002000E100A130E2009031C52088310D300E
:101290002000A400A130A5009131602188312930BF
:1012A0002100EB009630EA007F30890B5529EA0BCC
:1012B0005529EB0B55295C302000E100A130E200FC
:1012C0009031C52088310D302000A400A130A50048
:1012D00091316021883129302100EB009630EA00FD
:1012E0007F30890B7129EA0B7129EB0B71295F3073
:1012F0002000E100A130E2009031C52088310D309E
:101300002000A400A130A50091316021883129304E
:101310002100EB009630EA007F30890B8D29EA0B23
:101320008D29EB0B8D2981302000E100A030E200F7
:101330009031C52088311A302000E1009F30E20052
:101340009031C5208831FD302000E1009E30E20060
:101350009031C52088312200C401272A0E30200098
:10136000A0002200440891311E218831BA3E860037
:10137000870181010E302000A00022004408913135
:101380001E218831BB3E860087012200440891312E
:101390003221883181000E302000A0002200440854
:1013A00091311E218831BC3E860087010E3020001D
:1013B000A0002200440891311E218831BB3E8400E8
:1013C0008501000881000E302000A00022004408A2
:1013D00091311E218831BD3E8600870181010E308A
:1013E0002000A0002200440891311E218831BE3E19
:1013F0008600870181010E302000A00022004408F1
:1014000091311E218831C13E860087010030C03FE6
:10141000C13F0E302000A0002200440891311E215F
:101420008831C33E860087010030C03FC13F0E3087
:101430002000A0002200440891311E218831C73EBF
:1014400086008701FF30810001302200C40721009F
:101450006C0822004402031C2E2A2F2AAE290530D4
:101460002100EB000F30EA00F130890B352AEA0B3E
:10147000352AEB0B352A7E302000E100A030E20057
:101480009031C520883109302000E1009E30E20013
:101490009031C52088312200C201902A943020006A
:1014A000E100A030E20022004208013E2000E300FB
:1014B000003003180130E4009031C52088310E302F
:1014C0002000A0002200420891311E218831BB3E3D
:1014D000860087010108031D6E2A6F2A782A0630CC
:1014E0002000E100A130E2009031C52088318D2A32
:1014F0000E302000A0002200420891311E218831C8
:10150000BA3E8600870108308100FF302000E100EC
:10151000A030E2009031C520883101302200C2079E
:1015200021006C0822004202031C972A982A4E2AA6
:10153000B5302000E1009B30E2009031C5208831B9
:1015400088310C2088312200C101CA2A00302000D5
:10155000E100A030E20022004108013E2000E3004B
:10156000003003180130E40022004108B63E860036
:10157000870101082100EA00EB016A082000E5006C
:1015800021006B082000E6009031C5208831013031
:101590002200C10721006C0822004102031CD12A4D
:1015A000D22AA62A30302000E100A130E20090319A
:1015B000C5208831A6302000E1009E30E200903145
:1015C000C520883164002200C001ED2A40088B311B
:1015D0007923883101302200C00721006C082200E5
:1015E0004002031CF42AF52AE62A90316220883151
:1015F000003A0319FC2AFD2AE22A9131952188310B
:101600002200C3000D3043060319072B082B0E2BB5
:101610000A304306031D0D2B0E2B322B430892314B
:101620003722883121003908A03E86000230870029
:101630008101A0302000EC008031952088313030CD
:101640002000E100A130E2009031C5208831223035
:101650002000E100A130E2009031C5208831210056
:10166000B901E22A083043060319372B382B3E2BE9
:101670007F304306031D3D2B3E2B4F2B21003908A5
:101680000319432B442BE22A0130B90251302000C8
:10169000E100A130E2009031C5208831E22A3F30DC
:1016A000210039020318552B562BE22A2200430849
:1016B000923137228831613022004302031C612BB2
:1016C000622B6A2B7B3043020318672B682B6A2B33
:1016D0002030C30221003908A03E86000230870076
:1016E00022004308810001302100B907E22A80313D
:1016F0003F282100DF000E302000A00021005F08FD
:1017000091311E218B31BA3E2100E000600A860033
:1017100087015F08913132218B3181002100600AFD
:10172000860087010108031D962B972BC82F6008A0
:10173000023E860087010103031D9F2BA02BAF2BC8
:10174000E8302000EC000330ED00210060080B3E83
:101750008600870120006C08C03F6D08C13F210052
:1017600060080B3E8600870116000104031DB92B9B
:10177000BA2BC82F60088600870101080319C12B06
:10178000C22BC82F600886008701053001060319A7
:10179000CA2BCB2BC82F60080D3E86008701010A9B
:1017A0000319D32BD42BA92C60080D3E860087018A
:1017B0000108DD0060088600870104300106031D72
:1017C000E22BE32B1E2C2000A00121005D089131AB
:1017D000F1218B310E302000A00021005D089131F5
:1017E0001E218B31BA3E8600870181010E30200018
:1017F000A00021005D0891311E218B31C73E86007B
:101800008701FF30810093302000E1009930E20031
:1018100021005F08013E2000E30000300318013082
:10182000E40021005D08013E2000E50000300318BF
:101830000130E6009031C5208B31A92C600886006C
:10184000870106300106031D262C272CA92C5F08D2
:10185000013E2000A80021005D08013E2000A900F3
:101860000030873135278B310E302000A000210059
:101870005D0891311E218B31BA3E86008701093007
:1018800001060319442C452C822C03302000A000B3
:1018900021005D0895312C258B310E302000A000F1
:1018A00021005D0891311E218B31BA3E86008701EF
:1018B000073081000E302000A00021005D0891312A
:1018C0001E218B31C73E86008701FF308100F63034
:1018D0002000E1009830E20021005F08013E200076
:1018E000E300003003180130E40021005D08013EF0
:1018F0002000E500003003180130E6009031C520DB
:101900008B31A92C0E302000A00021005D08913100
:101910001E218B31C73E86008701FF3081007E305B
:101920002000E1009830E20021005F08013E200025
:10193000E300003003180130E40021005D08013E9F
:101940002000E500003003180130E6009031C5208A
:101950008B312000A00121005F0895312C258B31AF
:101960002000A00121005F089131F1218B3121007D
:10197000600886008701093001060319C02CC12CBC
:10198000C82F600886008701810160080D3E86002F
:101990008701FF30810052302000E1009F30E200DB
:1019A00021005F08013E2000E300003003180130F1
:1019B000E4009031C5208B31C82F21006008023E21
:1019C000860087010108031DE62CE72CF52F600A2D
:1019D000860087010103031DEE2CEF2CF52F20005C
:1019E000A001A00A21005F0895312C258B31210030
:1019F0006008033E8600870181016008043E86007E
:101A000087018101600886008701013081002A304A
:101A10002000E1009E30E20021005F08013E20002E
:101A2000E300003003180130E4009031C5208B3111
:101A3000F52F21006008023E860087010103031D87
:101A4000222D232DF52F600A860087010108031D32
:101A50002A2D2B2DF52F2000A00121005F089531A4
:101A60002C258B3121006008033E86008701013060
:101A7000810058302000EC000230ED0021006008A9
:101A8000073E8600870120006C08C03F6D08C13FFB
:101A90002100600886008701023081005430200058
:101AA000E1009C30E20021005F08013E2000E300DD
:101AB000003003180130E4009031C5208B31F52F40
:101AC00021006008023E860087010103031D692D85
:101AD0006A2D872D600A860087010108031D712D7C
:101AE000722D872D6008033E860087010130810733
:101AF00058302000EC000230ED0021006008073E65
:101B00008600870120006C08C03F6D08C13F21009E
:101B1000600A860087010103031D8F2D902DF52F8C
:101B20006008073E8600870116000104031D992DF9
:101B30009A2DF52F6008033E8600870101080319DE
:101B4000A22DA32DF52F6008033E860087010A30E1
:101B500001060319AC2DAD2DBD2D6008033E860096
:101B6000870101082000EC00ED016C082100D7007E
:101B700020006D082100D800BF2DD701D8015708DB
:101B8000D9006008043E8600870101086007200034
:101B9000EC006C08053E8600870121005908810091
:101BA0006008043E86008701013081076008033E1B
:101BB000860087018101C3302000E1009E30E200F1
:101BC00021005F08013E2000E300003003180130CF
:101BD000E400210059082000EC00ED016C08E5004C
:101BE0006D08E6009031C5208B3121006008043E6D
:101BF0008600870102300102031CFF2D002EF52F05
:101C000060088600870103308100A0302000E100D9
:101C10009C30E20021005F08013E2000E30000301C
:101C200003180130E4009031C5208B31F52F2100DD
:101C30006008063E860087010A302000A0002100CF
:101C40006008053E84008501000891311E218B311A
:101C500001072100DA00FF30DE00DB013E2E5B08C9
:101C6000B63E8600870101085A06031D382E392E1C
:101C70003C2E5B08DE00442E0130DB076C085B0263
:101C8000031C432E442E2F2E5E0A0319482E492E84
:101C90004F2E5E085F06031D4E2E4F2E782E03300A
:101CA0002000A00021005F0895312C258B312100F8
:101CB0006008860087010730810010302000E100B5
:101CC0009D30E20021005F08013E2000E30000306B
:101CD00003180130E40021005A082000EC00ED0157
:101CE0006C08E5006D08E6009031C5208B31F52FBA
:101CF0000E302000A00021005E0891311E218B31A2
:101D0000BA3E860087010108031D872E882EDB2E30
:101D1000210060080D3E860087015E0881000E30BC
:101D20002000A00021005E0891311E218B31C73EAA
:101D30008600870121005F08810002302000A0009A
:101D400021005F0895312C258B3121006008860029
:101D50008701043081002000A001A00A21005E0854
:101D60009131F1218B310E302000A00021005E085E
:101D700091311E218B31BA3E8600870105308100EA
:101D80007A302000E1009C30E20021005F08013E33
:101D90002000E300003003180130E40021005E0859
:101DA000013E2000E500003003180130E6009031CC
:101DB000C5208B31F52F0E302000A00021005E08D9
:101DC00091311E218B31BA3E860087010930010610
:101DD000031DEB2EEC2E3C2F210060080D3E8600EB
:101DE00087015E0881000E302000A00021005E08FF
:101DF00091311E218B31C73E8600870121005F088B
:101E000081002000A00121005F0895312C258B3135
:101E100021006008860087010630810060080D3EC1
:101E2000860087010108D6005F08013E2000A80057
:101E300021005608013E2000A900013087313527D6
:101E40008B31B9302000E1009A30E20021005F08B8
:101E5000013E2000E300003003180130E4002100BF
:101E60005E08013E2000E500003003180130E60066
:101E70009031C5208B31F52F03302000A0002100C8
:101E80005F0895312C258B31210060088600870181
:101E900007308100A1302000E1009D30E2002100E8
:101EA0005F08013E2000E300003003180130E40029
:101EB00021005E08013E2000E500003003180130DB
:101EC000E6009031C5208B31F52F21006008023EDD
:101ED000860087010108031D6E2F6F2FF52F600A02
:101EE000860087010103031D762F772FF52F200031
:101EF000A00121005F089131F1218B3121006008A0
:101F00000D3E860087010108DC002000A0012100B1
:101F10005C0895312C258B3121005F08013E2000A3
:101F2000A80021005C08013E2000A9000130873193
:101F300035278B312100600886008701063081003B
:101F40000E302000A00021005C0891311E218B3151
:101F5000BA3E860087010630810006302000E1008D
:101F60009C30E20021005F08013E2000E3000030C9
:101F700003180130E40021005C08013E2000E50068
:101F8000003003180130E6009031C5208B31F52F69
:101F9000210060088600870101082000EC00ED01A7
:101FA0006D08003A0319D52FF52F6C08003A031974
:101FB000DD2C013A0319192D033A0319602D013A5A
:101FC0000319172E073A0319F52F013A0319652F44
:101FD000033A0319F52F013A0319F52F0F3A0319A4
:101FE000F52F013A0319F52FF52F21006008023E65
:101FF00086008701600A84008501000881000800CE
:1020980008000800083431009511080023001D12BB
:1020A8001D16080090314F20903108007208031D5A
:1020B8005E286028013061280030080020006E0882
:1020C800031D6728692801306A28003008002000AD
:1020D80021082100B100200020082100B0000800DC
:1020E800200021082100AF00200020082100AE00B8
:1020F8000800200010100B140030A0000030A100D0
:1021080090316B209031080021002E082F0403190C
:102118008E288F2894282F088A002E080A009031CC
:1021280020009110080020002008210403199D2890
:102138009E28A52821082100A700200020082100AA
:10214800A60008002000200821040319AC28AD28A7
:10215800B42821082100A500200020082100A4009F
:1021680008002000A20090315A209031003A03194B
:10217800BE28BF28B7282000220892313722903184
:10218800080063302000EB000030D900DA00620854
:10219800DC006108DB006B30DD009131B221903149
:1021A80008007C3020009E009D014D302100AE00CB
:1021B8001030AF002000911021009114073020004A
:1021C8009F0008002000A71BEA28EB28EC28F72826
:1021D8002609A8002709A900A80A0319A90A280896
:1021E800A6002908A7000800F800F701781CFD28B8
:1021F800FE2800297608F7070310F60D0310F80CDF
:102208007808031D08290929FA2877080800873162
:10221800F627913192315D2291319031D52091315B
:102228009231B922913190315620913190317D20EF
:10223800913108002000A200A101221C242925298F
:1022480027292008A1070310A00D0310A20C2208BB
:10225800031D2F2930292129210808002000A0006A
:102268003E290E08013946290E0E890C01394629E6
:10227800003046292008003A03193529013A031984
:1022880038293C2908002000A601A001260895311C
:102298002C2591312000A00126089131F12191319E
:1022A80001302000A60702302602031C5C295D29A4
:1022B800492922008E1508006E2924088400250863
:1022C800850000089231ED22913101302000A407E9
:1022D8000030A53D20002408840025088500120050
:1022E800031D7729782961290800403072020318F4
:1022F8007E297F29922920006F08A03E86000130A0
:102308008700010823009A0020006F08013E3F392A
:10231800F6007608EF000130F20794292100111227
:1023280008007008203E860002308700010820005F
:10233800A1007008013E3F39A0002008F0002100EC
:10234800911220006E080319AA29AB29AD29013082
:10235800EE022100911620002108080020005C08E8
:10236800E0005B08DF00C4295A08CA005908C90000
:102378005F30CB005D08CC00CD018531F22591316D
:1023880020005F088400600885001200031DCD2925
:10239800CE29B829D901DA0108002000A401A50135
:1023A800201CD729D829DC292208A4072308A53D01
:1023B8000130A235A30D890BDD290130A136A00C0F
:1023C800890BE22920082104031DEB29EC29D429D3
:1023D8002508A1002408A00008002000A1000A2A5E
:1023E80020080319F829F929FC2922000C11122ABE
:1023F80022000C15122A20080319032A042A072A86
:1024080022000E12122A22000E16122A2108003A61
:102418000319F429013A0319FF29122A0800200098
:10242800B201B3012A2A3108AF00B0012F08A30076
:102438003008A4002E08A6002D08A5009431CE244B
:10244800923101302000B2070030B33D2C0832072A
:102458008600013087000108B1003108031D352AC4
:10246800362A172A08002000A1002100111A3D2A47
:102478003E2A432A2000210823009A005A2A72087B
:102488000319472A482A5A2A7308A03E86000130B1
:1024980087002000210881007308013E3F39A00011
:1024A8002008F300210011120130F2022100111658
:1024B8000800103022008C008E01283021008C008A
:1024C80021308E0023008C018E01023024008C0004
:1024D80021308E0025008C018E01373026008C00BB
:1024E8003F308E003F3027008C003F308E00053093
:1024F8003C00A40014303D00940027009101920193
:1025080093019701980199010800902A0130A007CA
:102518000130A1070030A23D2000210884002208D4
:1025280085000008A3002008860002308700010803
:102538002306031DA02AA12AAA2A20088600023001
:1025480087000108031DA92AAA2A8A2A20088600CA
:102558000230870021088400220885000008010253
:10256800A000A101031CA10308002100911257300B
:10257800B2001630B30011127930B4001130B50032
:10258800483023009F0090309D0026309E00403048
:102598009B0003309C004C302000A0001030A100AC
:1025A80090319720923152302000A0001030A100C5
:1025B8009031A62092312100AC01AD01F301200039
:1025C800EF014030F200F101F001EE012100911617
:1025D80008002000A1008B1322008E11A6300032C3
:1025E800890BF32A00322000A201A3012000211C3C
:1025F800FE2AFF2A022B22008E15042B22008E11A0
:10260800A6300032890B052B003203102000A10CE4
:102618000130A2070030A33D2308803AA000803093
:102628002002031D192B08302202031C1C2B1D2B12
:10263800FA2A22008E15A6300032890B202B003290
:102648008B17A6300032890B262B00320800210098
:10265800381C2F2B302B3A2B20003608AC003508BD
:10266800AE003408AD009231132293312000B81F18
:102678003E2B3F2B412BB701B801BA01BB01552BAB
:1026880020302000A3000030A4003508A60034083C
:10269800A5009431CE24933101302000BA070030D0
:1026A800BB3D3B08803AB9003808803A3902031D1F
:1026B8005F2B37083A02031C622B632B442B210043
:1026C8003818672B682B722B20003608AC003508A9
:1026D800AE003408AD009231132293310800013066
:1026E8002000A3020030A43B230A031D7F2B240AE9
:1026F800031D7F2B802B8D2BA001A101C32B013043
:10270800A0070130A1070030A23D0130A30200302C
:10271800A43B200886000230870001080319952B86
:10272800962BB52B21088400220885001200031976
:102738009E2B9F2BB52B230824040319A42BA52B10
:10274800B52B21088400220885000008A500200870
:10275800860002308700010825060319B42BB52B23
:10276800832B200886000230870021088400220875
:10277800850000080102A000A101031CA1030800B4
:102788002000A501A31FC92BCA2BD12BA209A3097D
:10279800A20A0319A30A0130A500A11FD42BD52B27
:1027A800DA2BA009A109A00A0319A10A200821040B
:1027B8000319DF2BE02B072C0130A400EA2B013092
:1027C800A035A10D890BE42B0130A407A11FED2B27
:1027D800EE2BE32B21082302031DF42B20082202F1
:1027E800031CF72BF82BFC2B2008A2022108A33B83
:1027F8000130A136A00C890BFD2B0130A402031D6A
:10280800062C072CEE2B250803190B2C0C2C112C4D
:10281800A209A309A20A0319A30A2308A1002208EE
:10282800A00008002000A501A11F1B2C1C2C232C94
:10283800A009A109A00A0319A10A0130A500A31F34
:10284800262C272C2E2CA209A309A20A0319A30AB5
:102858000130A506A601A701200821040319352C7B
:10286800362C632C0130A400402C0130A035A10D7A
:10287800890B3A2C0130A407A11F432C442C392C76
:102888000130A635A70D890B452C21082302031D0D
:102898004F2C20082202031C522C532C582C2008A1
:1028A800A2022108A33B26140130A136A00C890BF3
:1028B800592C0130A402031D622C632C442C2508DA
:1028C8000319672C682C6D2CA609A709A60A0319F9
:1028D800A70A2708A1002608A00008002000AC01CC
:1028E800AD01260886008701403FA800413FA900A6
:1028F800280884002908850012002A3A031D852C1F
:10290800862CB52C260886008701013081074131C5
:102918000318810A270886008701010884008501B9
:1029280002308107003FAC00013FAD00C92C2D08E3
:10293800A1002C08A0000A30A2000030A3009131A9
:10294800D121943120002B082007AC000030213D14
:10295800AD00260886008701013081074131031840
:10296800810A260886008701403FA800413FA90048
:1029780028088400290885000008D03EAB000A30EA
:102988002B02031CC82CC92C9B2C2D08A7002C0833
:10299800A60008002000250826040319D42CD52CED
:1029A800DB2C25082604031DDA2CDB2CE02C23085D
:1029B8009031B52094312B2D2508860026088700F4
:1029C8004931160001040319EA2CEB2C0B2D2508BC
:1029D8008600260887004931403FA700413FA800EC
:1029E80025088600260887004231403FA900413F5C
:1029F800AA002A08803AAB002808803A2B02031D57
:102A0800072D2708290203180A2D0B2D2B2D20002E
:102A180025088600260887004231250884002608F4
:102A28008500003FA700013FA800403F270784001A
:102A3800413F283D85002308800025088600260898
:102A4800870042310130810741310318810A0800AB
:102A58002000A3000130A4000130A500432D01305F
:102A6800A4000130A500852DA401A501852D013004
:102A7800A400A501852DA4010130A500852D2008FD
:102A8800A100A2012208003A03194B2D852D210827
:102A9800003A0319332D013A0319382D033A031963
:102AA8003B2D013A03193F2D852D240803195D2D6F
:102AB8005E2D612D22000E15632D22000E112000BF
:102AC80025080319682D692D6C2D22008E148D2D73
:102AD80022008E108D2D24080319732D742D772D47
:102AE80022008C14792D22008C102000250803194F
:102AF8007E2D7F2D822D22000C148D2D22000C108E
:102B08008D2D2308003A0319592D013A03196F2D09
:102B18008D2D08002000A700C82D3D30A300A1304E
:102B2800A400F02DA730A300A030A400F02DC830D9
:102B3800A300A030A400F02DD830A300A030A4003A
:102B4800F02DD030A300A030A400F02DB830A300A1
:102B5800A030A400F02DC030A300A030A400F02DB8
:102B68004C30A300A130A400F02DE030A300A03029
:102B7800A400F02DF030A300A030A400F02DE83020
:102B8800A300A030A400F02D2708A500A601260860
:102B9800003A0319D02DC32D2508003A0319912DA9
:102BA800013A0319962D033A03199B2D013A03198B
:102BB800A02D073A0319A52D013A0319AA2D033AA6
:102BC8000319AF2D013A0319B42D0F3A0319B92D82
:102BD800013A0319BE2DC32D0800FB014F2E0E30FC
:102BE800F6007B089031F8209531C13E86008701B8
:102BF800160001040319012E022E112E0E30F600C4
:102C08007B089031F8209531C13E8600870101305C
:102C1800810241310030813B7F310E30F6007B0864
:102C28009031F8209531C33E8600870116000104D3
:102C380003191F2E202E2F2E0E30F6007B08903100
:102C4800F8209531C33E8600870101308102413169
:102C58000030813B7F310E30F6007B089031F82040
:102C68009531C53E860087011600010403193D2EE3
:102C78003E2E4D2E0E30F6007B089031F82095310F
:102C8800C53E860087010130810241310030813B19
:102C98007F310130FB0721006C087B02031C552E95
:102CA800562EF32D08007135703E860087012730B7
:102CB800873D71350030873D0030C03FC13F23005C
:102CC8009D1C672E682E842E7108F600F701F635D4
:102CD800F70D7030F8002730F9007608780786007D
:102CE8007708793D87000115210024082504031978
:102CF8007E2E7F2E842E25088A0024080A0096310D
:102D080023001D1D882E892EA52E7108F600F701B7
:102D1800F635F70D7030F8002730F9007608780797
:102D280086007708793D870081142100260827044A
:102D380003199F2EA02EA52E27088A0026080A0010
:102D4800963123001908FA007108013E3F39FB004B
:102D58007B087006031DB12EB22EB32EBF2E71084C
:102D6800203E8600023087007A0881007B08F10047
:102D780001302000EE07080020002F08B7002E08B9
:102D8800B60036083704031DCA2ECB2ECF2EF830D6
:102D9800B600A030B700B801B901D62E0130B80787
:102DA8000030B93D3608380784003708393D8500BA
:102DB8001200031DE02EE12ED22E3908B300380888
:102DC800B200210021082000B500210020082000C1
:102DD800B40021003818F12EF22E2B2F042F2030AA
:102DE8002000A3000030A4002D08A6002C08A50090
:102DF8009431CE24963101302000B8070030B93D17
:102E080020003908803AB0003508803A3002031DA6
:102E18000F2F34083802031C122F132FF32E2B2FD9
:102E280036088400370885000008B000B101300872
:102E3800A3003108A4002D08A6002C08A500943191
:102E4800CE24963101302000B6070030B73DFF3060
:102E58002000B207FF30B33D320A031D372F330A73
:102E6800031D372F382F142F2100381C3C2F3D2FDE
:102E78005E2F4F2F20302000A3000030A4002D0823
:102E8800A6002C08A5009431CE24963101302000EC
:102E9800B8070030B93D20003908803AB00035083D
:102EA800803A3002031D5A2F34083802031C5D2F64
:102EB8005E2F3E2F080001302000C300BF1B652F86
:102EC800672F0130682F0030C6002100210820003C
:102ED800C500210020082000C40046080319752FEA
:102EE800762F8A2FFF30C407FF30C53D4608031DE3
:102EF8007E2F7F2F842F2B30C1000030C200882FF7
:102F08002D30C1000030C2004108C6001F30C70084
:102F18000030C8002200BF01C62FFF30C707FF30AE
:102F2800C83D4708203E8600013087000A30A000CF
:102F38000030A1003F08A3003E08A2009331C4233B
:102F4800973120002108A7002008A6009031E6202C
:102F5800973120002608303E8100C301FF30C407A6
:102F6800FF30C53D0A30A0000030A1003F08A30093
:102F78003E08A20094311624973120002108BF0092
:102F88002008BE0020004808803AC0008030400277
:102F9800031DD02F01304702031CD32FD42FE02F5D
:102FA80020003E083F04031DDA2FDB2F912F430832
:102FB800031DDF2FE02F912F200046080319E52F6E
:102FC800E62FF12FFF30C707FF30C83D4708203EE6
:102FD800860001308700460881003D08B5003C089E
:102FE800B4004708203EB6004508B8004408B700BA
:102FF80093312B2397310800203420342034203497
:10300800203420342034203420342034453478349B
:1030180061346D3470346C3465343A34203453344C
:103028004234433454344C342034523445344C34D0
:1030380020343134203432342034203420342D34B8
:103048002034523465346C346534613473346534F7
:1030580020343134203461346E34643420343234D2
:1030680020345334773469347434633468342E34F8
:103078000D340A34003420342034203420342034F1
:1030880020342034203420342034453478346134DA
:103098006D3470346C3465343A34203453344234EB
:1030A800433454344C34203443344F344E34203475
:1030B8003134203432342034203420342D34203438
:1030C80043346F346E346E3465346334743420346E
:1030D8003134203461346E34643420343234203452
:1030E8005334773469347434633468342E340D348B
:1030F8000A34003450346F34723474342034253434
:1031080064343A342034483475346E3467342034A7
:1031180075347034203464347534723469346E34E0
:1031280067342034743461346C346B342E34203476
:1031380050346F3472347434203425346434203479
:103148006934733420346E346F3477342034413426
:10315800553454344F34203441344E345334573476
:10316800453452342E340D340A340034203420349B
:1031780020342034203420342034203420342034A7
:103188004534783461346D3470346C3465343A3491
:10319800203453344234433454344C342034463489
:1031A80055344C344C345F345234453453344534FC
:1031B8005434203420342D3420345234653473345C
:1031C8006534743420345334773469347434633454
:1031D800683462346F346134723464342E340D349C
:1031E8000A34003450346F34723474342034253443
:1031F80064343A342034483475346E3467342034B7
:1032080075347034203464347534723469346E34EF
:1032180067342034743461346C346B342E34203485
:1032280050346F3472347434203425346434203488
:103238006934733420346E346F3477342034423434
:103248005534533459342E340D340A34003453343D
:103258004134563445345F3454344F345F34453444
:103268004534503452344F344D3420343A342034B9
:1032780053346134763465342034633475347234AD
:10328800723465346E347434203473346534743471
:10329800743469346E3467347334203474346F345E
:1032A800203445344534503452344F344D342E3460
:1032B8000D340A34003453344234433454344C34D7
:1032C8002034203420343A3420344D3461346E3480
:1032D800753461346C346C34793420344F344E3462
:1032E8002F344F34463446342F34463455344C3416
:1032F8004C345F34523445345334453454342034D8
:1033080053347734693474346334683462346F34D2
:103318006134723464342E340D340A340034503439
:103328006F34723474342034253464343A3420349D
:10333800433461346C346C34653472342034613411
:1033480062346F3472347434653464342E34203407
:1033580050346F3472347434203425346434203457
:10336800733474346F347034703465346434203496
:10337800723469346E34673469346E3467342E3489
:103388000D340A34003420342034203420342034DE
:1033980020342034203420342034553473346134BC
:1033A800673465343A342034533445345434203443
:1033B80045345834543420343C3470346F347234C7
:1033C80074343A3431342D34253464343E34203462
:1033D8003C346534783474343A34313430342D34F0
:1033E800393439343E340D340A340034203420342E
:1033F8002034203420342034203420342034203425
:103408005534733461346734653420343A342034A5
:1034180053344234433454344C34203443344F34DA
:103428004E342F34523445344C3420343C347034C8
:103438006F347234743431343E3420343C34703454
:103448006F347234743432343E340D340A340034F8
:1034580053344534543420344534583454342034A7
:103468003A34203453346534743420346534783431
:10347800743465346E34733469346F346E3428347C
:103488006E3475346D3462346534723429342034C2
:1034980066346F347234203465346134633468348C
:1034A800203470346F34723474342E340D340A344A
:1034B8000034203420342034203420342034203484
:1034C80020342034203455347334613467346534FF
:1034D8003A3420345334453454342034413441345C
:1034E800203420343C3470346F34723474343A34B9
:1034F80031342D34253464343E3420343C344F3454
:103508004E342F344F34463446343E340D340A3466
:10351800003453347534633463346534733473342A
:103528003A34203450346F347234743420342534AF
:10353800643420347334743461347434653420341E
:10354800733465347434203474346F342034413423
:10355800553454344F34203441344E345334573472
:10356800453452340D340A34003450346F347234D4
:1035780074342034253464343A3420344334613488
:103588006C346C3465346434203450346F347234A1
:10359800743420342534643420342D343E342034BB
:1035A8004134553454344F34203441344E34533438
:1035B800573445345234653464340D340A34003495
:1035C800553473346134673465343A3420345334B1
:1035D8004234433454344C342034523445344C341B
:1035E80020343C346C3469346E34653431343E34C0
:1035F80020343C346C3469346E34653432343E34AF
:103608002034283431342D342534643429340D34AD
:103618000A340034553473346134673465343A34C9
:10362800203453344234433454344C3420344334F7
:103638004F344E3420343C346C3469346E34653441
:1036480031343E3420343C346C3469346E3465345F
:1036580032343E342034283431342D342534643423
:1036680029340D340A340034533445345434203466
:1036780041344134203420343A34203453346534CE
:103688007434203470346F347234743420347434A5
:103698006F3420344134553454344F342034413459
:1036A8004E34533457344534523420346D346F34E7
:1036B800643465342E340D340A34003444344F34C1
:1036C8005F34463455344C344C345F3452344534CA
:1036D800533445345434203420343A34203452346A
:1036E8006534733465347434203450344234583477
:1036F80043346F34723465342034703472346F3428
:103708006734723461346D342E340D340A34003425
:1037180045347834653463347534743465346434CA
:103728003A34203453347734693474346334683425
:1037380043346F346E34743472346F346C342834D8
:10374800663461346C34733465342C342034253455
:1037580064342C3420342534643429340D340A3448
:10376800003450344234583443346F34723465343E
:103778003A3420344C346F346134643469346E34F0
:1037880067342034733465347434743469346E3473
:10379800673473342034663472346F346D342034B3
:1037A80045344534503452344F344D342E340D346E
:1037B8000A340034453478346534633475347434E9
:1037C800653464343A342034533477346934743487
:1037D8006334683443346F346E34743472346F3401
:1037E8006C34283474347234753465342C34203491
:1037F800253464342C3420342534643429340D348D
:103808000A34003450346F3472347434203425341C
:1038180064343A34203441346E3473347734653444
:10382800723465346434203450346F3472347434F0
:1038380020342534643420342D343E342034543438
:1038480041344C344B3449344E3447340D340A3403
:1038580000345334753463346334653473347334E7
:103868003A34203450346F3472347434203425346C
:103878006434203465347834743465346E34733485
:1038880069346F346E3420347334653474342034BE
:1038980074346F342034253464340D340A340034DD
:1038A80050346F34723474342034253464343A34E8
:1038B80020344434693461346C3469346E34673488
:1038C8002034733474346134723474346534643439
:1038D80020342D343E3420344434493441344C347B
:1038E80049344E3447340D340A34003450346F347C
:1038F800723474342034253464343A3420344334F4
:1039080061346C346C3469346E3467342034503428
:103918006F347234743420342534643420342D34B4
:103928003E342034433441344C344C3449344E34DE
:1039380047340D340A34003450346F3472347434DC
:103948002034253464343A3420344E3475346D349C
:10395800623465347234203463346F346D347034B7
:103968006C3465347434653420342D343E3420345A
:1039780052344F345534543449344E3447340D346A
:103988000A340034553473346134673465343A3456
:1039980020345334453454342034413441342034B1
:1039A8003C3470346F34723474343A3431342D34D6
:1039B800253464343E3420343C344F344E342F3470
:1039C8004F34463446343E340D340A3400345334CC
:1039D8007534633463346534733473343A3420345F
:1039E80050346F34723474342034253464342034C1
:1039F8007334743461347434653420347334653406
:103A08007434203474346F342034493444344C349E
:103A180045340D340A34003450346F3472347434FD
:103A28002034253464343A34203449346E347634BE
:103A380061346C346934643420346E3475346D34D4
:103A480062346534723420342534643420342D349F
:103A58003E34203442345534533459340D340A3406
:103A6800003450344234583443346F34723465343B
:103A78003A34203449346E346934743469346134E6
:103A88006C3469347A3469346E346734203453348E
:103A98007734693474346334683462346F3461342D
:103AA800723464342E342E342E3400345334543467
:103AB8004134543420342034203420343A342034EF
:103AC80044346934733470346C3461347934203458
:103AD800633475347234723465346E34743420341B
:103AE8005334743461347434753473342E340D346F
:103AF8000A3400344534723472346F3472343A34D0
:103B0800203455346E346B346E346F3477346E34FD
:103B1800203453344234433454344C3420347334D2
:103B28007534623463346F346D346D3461346E349B
:103B380064342E340D340A34003450346F34723403
:103B480074342034253464343A34203450346F3497
:103B58007234743420342534643420346934733432
:103B68002034623475347334793420342D343E343F
:103B7800203442345534533459340D340A34003423
:103B88004534783465346334753474346534643456
:103B98003A342034533477346934743463346834B1
:103BA80062346F346134723464342034463475348A
:103BB8006C346C3420345234653473346534743462
:103BC8000D340A34003441347634613469346C3449
:103BD800613462346C3465343A34203443344F34BD
:103BE8004E342C342034523445344C342C34203464
:103BF800463455344C344C345F34523445345334A1
:103C0800453454340D340A34003450344234583472
:103C180043346F34723465343A342034433468346E
:103C2800653463346B3469346E34673420344C340F
:103C380049344E34453420346D346F34643475342B
:103C48006C34653473340D340A34003450346F34B2
:103C5800723474342034253464343A3420344F3484
:103C6800663466342D3448346F346F346B34203402
:103C78002D343E3420344434493441344C345434A3
:103C88004F344E3445340D340A3400342034503423
:103C98006F34723474343A34203425346434203424
:103CA8002D3420344534783474343A34203425346F
:103CB80064342034533474346134743465343A349D
:103CC8002034253473340D340A34003452346534C6
:103CD8006C34653461347334653420345334773448
:103CE80069347434633468343A34203425346434A1
:103CF8002D34253464342034253464342D3425346B
:103D080064340D340A34003443346F346E346E3402
:103D180065346334743420345334773469347434F8
:103D2800633468343A342034253464342D342534EB
:103D380064342034253464342D34253464340D340B
:103D48000A34003450344234583443346F347234B3
:103D580065343A3420343D343D343D3420345034D5
:103D680042345834203452346534613464347934FC
:103D780020343D343D343D340D340A34003450345D
:103D88006F34723474342034253464343A34203433
:103D980044346934673469347434203425346434E1
:103DA8002034723465346334653469347634653468
:103DB80064340D340A3400344534723472346F3448
:103DC80072343A34203450346F34723474342034BA
:103DD8002534643420347334743461347434653471
:103DE80020346534723472346F3472340D340A34CA
:103DF800003450344234583443346F3472346534A8
:103E08003A34203452346534733465347434693444
:103E18006E346734203441346C346C342034533479
:103E28007434613474346534733400345034423437
:103E3800583443346F34723465343A34203454344B
:103E480065347334743469346E34673420345334CD
:103E58007734693474346334683473342E340D34ED
:103E68000A3400344534723472346F3472343A345C
:103E7800203449346E34763461346C3469346434B3
:103E8800203461347234673475346D3465346E347B
:103E9800743473342E340D340A34003450346F348F
:103EA800723474342034253464343A342034483439
:103EB80075346E3467342034753470342E342034BD
:103EC8002D343E342034493444344C3445340D3494
:103ED8000A3400342D342D342D3420344C346934D4
:103EE8006E34653420345334743461347434753426
:103EF800733420342D342D342D342D342D342D3479
:103F08002D340D340A3400342D342D342D342D3411
:103F18002D342D342D342D342D342D342D342D3491
:103F28002D342D342D342D342D342D342D342D3481
:103F38002D342D342D340D340A3400344534723484
:103F480072346F3472343A34203449346E347634EF
:103F580061346C3469346434203466346F347234B8
:103F68006D34613474342E340D340A3400345034D2
:103F78006F347234743420342534643420345B3420
:103F88004534783474343A34253464345D34203418
:103F98003A34203425342D343834733400345234D0
:103FA8006534733465347434743469346E34673406
:103FB800203450344234583443346F3472346534C6
:103FC8002E342E342E340D340A34003455346E34E5
:103FD8006B346E346F3477346E34203443346F343A
:103FE8006D346D3461346E3464343A34203425349D
:103FF80073340D340A340034203450346F3472343E
:104008007434203425343234643420343A3420343F
:104018004534783474342034253464340D340A3407
:10402800003420344134633474346934763465346C
:1040380020344C3449344E34453453343A342034E3
:10404800253464340D340A3400345034423458343E
:1040580043346F34723465343A342034533474340E
:1040680061347234743469346E3467340D340A340C
:10407800003420342834543461347234673465345D
:1040880074343A34203450346F34723474342034F5
:1040980025346434293400342D342D342D344334FC
:1040A8006F346D346D3461346E34643473342D344C
:1040B8002D342D340D340A340034533441345634FD
:1040C80045345F3454344F345F34453445345034C8
:1040D80052344F344D34003444344F345F34463412
:1040E80055344C344C345F345234453453344534AD
:1040F8005434003420342D34203464346F346E3416
:1041080065342E340D340A34003420347C342034A1
:1041180048346F346F346B343A3425347334003494
:10412800203450346F3472347434203425343234AB
:1041380064340034533445345434203445345834CA
:104148005434203400344434493441344C345434E5
:104158004F344E34453400345334453454342034C9
:104168004134413420340034523449344E344734D5
:1041780049344E3447340034543441344C344B348D
:1041880049344E34473400344434493441344C348F
:1041980049344E3447340034433441344C344C347D
:1041A80049344E344734003452344F34553454343F
:1041B80049344E344734003455344E34413456343F
:1041C800413449344C34003455344E344B344E3435
:1041D8004F3457344E3400344134553454344F340A
:1041E80041344E345334003428346E3475346C34CE
:1041F8006C34293400342D3420344E3447340D3493
:104208000A3400342D3420344F344B340D340A34FE
:104218000034523446344634463446340D3400347F
:1042280053344234433454344C34203400344F34FF
:1042380046344634283448342934003443344C3422
:1042480049343E34203400344F344E3428344C340E
:10425800293400340D340A340D340A34003452340D
:1042680045344C342034003443344F344E342034F5
:104278000034493444344C344534003448344534EB
:104288004C345034003453345434413454340034AE
:104298004234553453345934003408342034083403
:1042A80000344F3446344634003431342E3400342C
:1042B80032342E34003433342E3400344F344E34F8
:0242C8000034C0
:020000040001F9
:08000E008C3FF33FFF3FFF3F71
:00000001FF
