:020000003D2899
:100008007E14803100308600003087000B1F0D28D9
:100018000E283B282100911C122813281C28200098
:10002800911C172818281C288431EC2480313B287F
:100038002100111E202821282C282000111E2528E7
:1000480026282C286C088A006B080A0080313B2877
:100058002100911E302831283B282000911E352888
:1000680036283B286A088A0069080A0080317E1011
:1000780009003E28FA01FB01203084000030850089
:100088003E308531FA258031A0308400003085006B
:1000980040308531FA2580312030840001308500D8
:1000A80020308531FA2580317E1020001C2C20005C
:1000B8005F08F200F430F3008530F40084319B24AB
:1000C800803172087304031D6A286B289728200062
:1000D8005208031D7028712882282100911085314B
:1000E800C525803122008C100E100C100C118E10BA
:1000F8000E120E118E1201302000D2008531DA2541
:100108008031ED30F7008530F800F901F90A8531C2
:1001180040258031ED30F7008530F800F901853150
:10012800402580316D2A20005F08F200853159256D
:1001380080310530720673040319A328A428A52862
:100148006D2A20005F08860087010108E30043301C
:1001580063060319B028B128B8285230630603197A
:10016800B628B728B8286D2A5F08023E860087019E
:100178000A30F2005F0A8400850100088531802575
:1001880080310107F03E2000E4005F08043E86004D
:1001980087010A30F2005F08033E840085010008E9
:1001A8008531802580310107F03E2000E500640894
:1001B8000319DF28E0286D2A64306402031CE5284F
:1001C800E628E7286D2A65080319EB28EC286D2A2C
:1001D80064306502031CF128F228F3286D2A0330E5
:1001E8006402031CF828F92838290230E4025F0A5F
:1001F800860087010A30F2000030F3006408E0004E
:10020800E1016008F4006108F50082316E22803156
:100218007208303E810020005F08023E8600870198
:100228000A30F2000030F3006408E000E1016008E1
:10023800F4006108F50083317D2380317208303E77
:10024800810020005F08F700F801F901F90A8531FB
:1002580040258031F230F7008530F800F901F90ABD
:100268008531402580316D2A05306502031C3D2902
:100278003E297C290430E5025F08033E8600870199
:100288000A30F2000030F3006508E000E101600880
:10029800F4006108F50082316E2280317208303E28
:1002A800810020005F08043E860087010A30F200C2
:1002B8000030F3006508E000E1016008F40061081F
:1002C800F50083317D2380317208303E81002000A3
:1002D8005F08F700F801F901853140258031F230D7
:1002E800F7008530F800F9018531402580316D2A05
:1002F800433063060319812983290130842900309A
:10030800E2006208031989298A29FC296403031D6C
:100318008E298F2997296503031D932994299729E5
:1003280022008C146D2A6403031D9B299C29A5298E
:1003380002306506031DA129A229A52922000E1451
:100348006D2A6403031DA929AA29B3290330650668
:10035800031DAF29B029B32922008E146D2A640326
:10036800031DB729B829C12904306506031DBD2915
:10037800BE29C12922000E166D2A02306406031D0B
:10038800C629C729CF296503031DCB29CC29CF2925
:1003980022000C146D2A02306406031DD429D529C5
:1003A800DE2902306506031DDA29DB29DE29220051
:1003B8000C156D2A02306406031DE329E429ED2992
:1003C80003306506031DE929EA29ED2922000E15E7
:1003D8006D2A02306406031DF229F3296D2A0430C0
:1003E8006506031DF829F9296D2A22008E166D2A43
:1003F8006403031D002A012A092A6503031D052A2F
:10040800062A092A22008C106D2A6403031D0D2A6E
:100418000E2A172A02306506031D132A142A172AE2
:1004280022000E106D2A6403031D1B2A1C2A252A8C
:1004380003306506031D212A222A252A22008E1050
:100448006D2A6403031D292A2A2A332A04306506E3
:10045800031D2F2A302A332A22000E126D2A023059
:100468006406031D382A392A412A6503031D3D2ADB
:100478003E2A412A22000C106D2A02306406031D10
:10048800462A472A502A02306506031D4C2A4D2A5F
:10049800502A22000C116D2A02306406031D552AC9
:1004A800562A5F2A03306506031D5B2A5C2A5F2AE9
:1004B80022000E116D2A02306406031D642A652A83
:1004C8006D2A04306506031D6A2A6B2A6D2A2200EC
:1004D8008E120800F701F31F722A732A7A2AF2098A
:1004E800F309F20A0319F30A0130F700F51F7D2A10
:1004F8007E2A852AF409F509F40A0319F50A013058
:10050800F706F801F9017208730403198C2A8D2A79
:10051800BA2A0130F600972A0130F235F30D890B1B
:10052800912A0130F607F31F9A2A9B2A902A013054
:10053800F835F90D890B9C2A73087502031DA62A44
:1005480072087402031CA92AAA2AAF2A7208F402A4
:100558007308F53B78140130F336F20C890BB02A96
:100568000130F602031DB92ABA2A9B2A7708031913
:10057800BE2ABF2AC42AF809F909F80A0319F90A90
:100588007908F3007808F2000800F4008B13720869
:100598000319CF2AD02AD32A22000C12D52A2200E6
:1005A8008E11A6300032890BD62A0032F501F601E9
:1005B800741CDF2AE02AEB2A72080319E42AE52AC8
:1005C800E82A22000C16F52A22008E15F52A720850
:1005D8000319EF2AF02AF32A22000C12F52A220026
:1005E8008E11A6300032890BF62A00320310F40C63
:1005F8000130F5070030F63D7608803AF300803088
:100608007302031D092B08307502031C0C2B0D2BDC
:10061800DC2A72080319112B122B152B22000C1639
:10062800172B22008E15A6300032890B182B0032AA
:100638008B17A6300032890B1E2B003208000310DE
:1006480022008C1C031403182A2B2D2B22008C1437
:100658002F2B22008C1003100E1C03140318352BAB
:10066800382B22000E143A2B22000E1003100C1CFB
:1006780003140318402B432B22000C14452B220093
:100688000C1003100C1D031403184B2B4E2B2200C7
:100698000C15502B22000C1103108E1C0314031888
:1006A800562B592B22008E145B2B22008E10031020
:1006B8000E1E03140318612B642B22000E16662BE2
:1006C80022000E1203100E1D031403186C2B6F2B3F
:1006D80022000E15712B22000E1103108E1E03141A
:1006E8000318772B7A2B22008E167C2B22008E1271
:1006F8000800F701F51F812B822B892BF409F509D6
:10070800F40A0319F50A0130F700F31F8C2B8D2B1F
:10071800922BF209F309F20A0319F30A7208730417
:100728000319972B982BBF2B0130F600A22B013011
:10073800F235F30D890B9C2B0130F607F31FA52B1F
:10074800A62B9B2B73087502031DAC2B7208740231
:10075800031CAF2BB02BB42B7208F4027308F53BC3
:100768000130F336F20C890BB52B0130F602031D6C
:10077800BE2BBF2BA62B77080319C32BC42BC92B61
:10078800F409F509F40A0319F50A7508F300740861
:10079800F20008007B35A03E860087010030C03F8C
:1007A800C13F23009D1CD92BDA2BEB2B7B35A03EB8
:1007B8008600870101152000400841040319E52B34
:1007C800E62BEB2B41088A0040080A0083312300FE
:1007D8001D1DEF2BF02B012C7B35A03E86008701D9
:1007E80081142000420843040319FB2BFC2B012C25
:1007F80043088A0042080A00843123001908F000DF
:100808007B08013E1F39F10071087A06031D0D2C83
:100818000E2C0F2C1B2C7B08203E860001308700F5
:10082800700881007108FB0001302000CE07080025
:1008380085316D2584318B170B172330F200033077
:10084800F30086310026843122000C168E156400D0
:100858008531E4258431003A0319332C342C2B2CB0
:1008680085310A2584312000E6000D30660603191B
:100878003E2C3F2C452C0A306606031D442C452C83
:10088800572C53080319492C4A2C2B2C5308543E37
:100898008600870181015430DF0080315B2084317C
:1008A8002000D3012B2C0930530203185C2C5D2C3B
:1008B8002B2C5308543E86008701660881000130BE
:1008C800D3072B2C3D2821009112CE302000E900BF
:1008D8000330EA002100111225302000EB0005301A
:1008E800EC00483023009F0090309D0026309E0089
:1008F80040309B0003309C001530F2000630F300B6
:100908008531AE2584311030F2000630F300853190
:10091800A22584312000C801C901D101D0012030AD
:10092800CF00FB01FA01CE01210091160800A22C8C
:100938000130F2070130F3070030F43D73088400FA
:10094800740885000008F500720886008701010810
:100958007506031DB02CB12CB92C720886008701CE
:100968000108031DB82CB92C9C2C7208860087013D
:10097800730884007408850000080102F200F3017E
:10098800031CF303080022008C018E01283021008B
:100998008C008E0123008C018E0124008C018E01B5
:1009A80025008C018E01373026008C003F308E00E8
:1009B8003F3027008C003F308E0005303C00A400FB
:1009C800270091019201930197019801990108006C
:1009D80001302000CA070030CB3D00304B02803088
:1009E80003194A02031CF92CFA2C082D670868041D
:1009F8000319FF2C002D052D68088A0067080A00D6
:100A080085312000CA01CB01911008007A08203EE8
:100A18008600013087000108F3007A08013E1F397B
:100A2800F2007208FA002100911220004E08031902
:100A38001E2D1F2D212D0130CE0221009116730885
:100A48000800203020004F0203182B2D2C2D3D2D9F
:100A58005008203E86008701010823009A002000E4
:100A68005008013E1F39F0007008D0000130CF0750
:100A78003F2D2100111208004F2D7908F200770848
:100A880084007808850000088231C9228531013048
:100A9800F7070030F83D77088400780885001200D1
:100AA800031D572D582D412D08007208F4005E2DA6
:100AB8000130F2077208860087010108031D652DC1
:100AC800662D5C2D74087202F200F301F21BF30329
:100AD80008008531D02585318431C7248531853199
:100AE8009325853184316724853186310C268531FB
:100AF8008531BA2585310800F400F301741C852D71
:100B0800862D882D7208F3070310F20D0310F40CDC
:100B18007408031D902D912D822D73080800FF3055
:100B280020009E009D011430E7000630E800911077
:100B380021009114073020009F00080072087304F8
:100B48000319A72DA82DAD2D73082000C100720828
:100B5800C0000800720873040319B32DB42DB92D11
:100B680073082000C3007208C2000800200010109B
:100B78000B140030F2000030F30086310626853170
:100B8800080020001F1191102100911020009F01E2
:100B9800FF309E009D0108006030320099009B01E3
:100BA8009D0107309F009E019C01080022008C10C7
:100BB8000E100C100C118E100E120E118E12080051
:100BC80020004E08031DE92DEB2D0130EC2D0030DF
:100BD8000800523446344634463446340D34003422
:100BE8005234463446344634463400346400800176
:100BF8000131890BFB2D003473082000E8007208CE
:100C0800E700080073082000CD007208CC00080037
:100C1800153021009700080023001D121D1608003A
:040C280008000800B8
:020000040001F9
:08000E00EC3FDD3FFF3FFF3F27
:00000001FF
