:020000004B288B
:100008007E14803100308600003087002100101EE9
:100018000E280F2818282000101E13281428182826
:100028008631CD26803149280B1F1B281C284928DA
:100038002100911C202821282A282000911C2528ED
:1000480026282A288531B025803149282100111E0B
:100058002E282F283A282000111E332834283A2821
:1000680067088A0066080A00803149282100911E25
:100078003E283F2849282000911E43284428492823
:1000880065088A0064080A0080317E1009004C283F
:10009800FA01FB01203084000030850040308631B1
:1000A800E3268031A030840000308500403086315E
:1000B800E3268031203084000130850020308631ED
:1000C800E32680317E102000A52A20006908F2006E
:1000D800DD30F3008630F400853141258031720827
:1000E8007304031D78287928A82820005208031DC6
:1000F8007E287F288C28210091108631AF268031F8
:1001080022008E100E110C128C1201302000D20029
:100118003130F4008730F500853191258031863102
:10012800FB268031D630F7008630F800F901F90A4D
:10013800863104268031D630F7008630F800F90180
:10014800863104268031A42A20006908F200243070
:10015800F3008730F400853141258031720873043B
:10016800031DB728B828C02801302000D40001306A
:10017800D30021000C10A42A20006908F2001F30C7
:10018800F3008730F400853141258031720873040B
:10019800031DCF28D028DC2801302000D400D3014B
:1001A80021000C1427001114121421001016A42A7F
:1001B80020006908F2001A30F3008730F400853116
:1001C8004125803172087304031DEB28EC28FB28B5
:1001D8002000D401D30121001012270011101210A1
:1001E80022008E100E110C1021000C14A42A2000DD
:1001F8006908F200863134268031053072067304AE
:1002080003190729082910290130F4008730F5005F
:10021800853191258031A42A20006908860087014C
:100228000108ED0043306D0603191B291C292A29F2
:1002380052306D060319212922292A290B30F4008E
:100248008730F500853191258031A42A6908023E5E
:10025800860087010A30F200690A840085010008D7
:1002680086315B2680310107F03E2000EE006908E8
:10027800043E860087010A30F2006908033E8400C4
:100288008501000886315B2680310107F03E200099
:10029800EF006E08031951295229582964306E025B
:1002A800031C5729582960290630F4008730F500C7
:1002B800853191258031A42A6F080319642965299D
:1002C8006B2964306F02031C6A296B29732910306B
:1002D800F4008730F500853191258031A42A033058
:1002E8006E02031C78297929C6290230EE02690AB0
:1002F800860087010A30F2000030F3006E08EA0039
:10030800EB016A08F4006B08F5008331542380314F
:100318007208303E810020006908023E860087018D
:100328000A30F2000030F3006E08EA00EB016A08B8
:10033800F4006B08F5008431092480317208303EDE
:1003480081003930F4008730F500853191258031FE
:1003580020006908F400F5018531912580312000DD
:100368006908F700F801F901F90A86310426803195
:10037800DB30F7008630F800F901F90A86310426E7
:100388008031A42A03306F02031CCB29CC29182AF8
:100398000230EF026908033E860087010A30F20046
:1003A8000030F3006F08EA00EB016A08F4006B08FC
:1003B800F5008331542380317208303E81002000DB
:1003C8006908043E860087010A30F2000030F30015
:1003D8006F08EA00EB016A08F4006B08F500843145
:1003E800092480317208303E81002930F4008730BA
:1003F800F50085319125803120006908F400F50168
:1004080085319125803120006908F700F801F9014C
:10041800863104268031DB30F7008630F800F90198
:10042800863104268031A42A43306D0603191D2A1B
:100438001F2A0130202A0030EC003530F4008730C4
:10044800F50085319125803120006908F400F50117
:1004580085319125803120006C080319342A352A0A
:100468006D2A6E03031D392A3A2A422A6F03031D97
:100478003E2A3F2A422A22008E14A42A6E03031D14
:10048800462A472A502A02306F06031D4C2A4D2A55
:10049800502A22000E15A42A02306E06031D552A82
:1004A800562A5E2A6F03031D5A2A5B2A5E2A2200F7
:1004B8000C16A42A02306E06031D632A642AA42A95
:1004C80002306F06031D692A6A2AA42A22008C16A4
:1004D800A42A6E03031D712A722A7A2A6F03031D48
:1004E800762A772A7A2A22008E10A42A6E03031D00
:1004F8007E2A7F2A882A02306F06031D842A852ACD
:10050800882A22000E11A42A02306E06031D8D2AA5
:100518008E2A962A6F03031D922A932A962A22006E
:100528000C12A42A02306E06031D9B2A9C2AA42AB8
:1005380002306F06031DA12AA22AA42A22008C12C7
:1005480008008631482682318B170B1721001012BC
:100558002700111012101D30F2000630F30086310A
:10056800EF2682311330F2000530F3008631E92698
:1005780082312D30F4008730F500853191258231A4
:1005880022000C118E150E1664008631C4268231A5
:10059800003A0319D02AD12A1A2B8531CE25823167
:1005A8002100E000600885316D2582310D30210081
:1005B80060060319E02AE12AE72A0A306006031DCB
:1005C800E62AE72A092B200055080319EC2AED2A08
:1005D8001A2B5508563E860087018101DC30F4004D
:1005E8008630F5008531912582311530F400873049
:1005F800F50085319125823156302000E90080319F
:10060800692082312000D5011A2B093020005502BB
:1006180003180F2B102B1A2B5508563E86008701FE
:1006280021006008810001302000D5072000540314
:10063800031D1F2B202BC82A5303031D242B252BF6
:10064800C82A0C18282B292B3E2B22008E100E119D
:100658000530890B2D2B000022008E144030890BA9
:10066800332B22008E100530890B382B0000220016
:100678000C14C82A22008E100E110530890B422B4B
:10068800000022000E154030890B482B22000E1165
:100698000530890B4D2B000022000C10C82A4B286E
:1006A800F701F31F582B592B602BF209F309F20AB3
:1006B8000319F30A0130F700F51F632B642B6B2B2A
:1006C800F409F509F40A0319F50A0130F706F801E7
:1006D800F901720873040319722B732BA02B0130D4
:1006E800F6007D2B0130F235F30D890B772B0130A5
:1006F800F607F31F802B812B762B0130F835F90D87
:10070800890B822B73087502031D8C2B72087402E7
:10071800031C8F2B902B952B7208F4027308F53B62
:1007280078140130F336F20C890B962B0130F6025F
:10073800031D9F2BA02B812B77080319A42BA52B16
:10074800AA2BF809F909F80A0319F90A7908F30034
:100758007808F2000800F4008B1372080319B52B0F
:10076800B62BB92B22008E11BB2B22000E12A630FD
:100778000032890BBC2B0032F501F601741CC52B25
:10078800C62BD12B72080319CA2BCB2BCE2B2200D8
:100798008E15DB2B22000E16DB2B72080319D52BC6
:1007A800D62BD92B22008E11DB2B22000E12A6305D
:1007B8000032890BDC2B00320310F40C0130F507F2
:1007C8000030F63D7608803AF30080307302031D4E
:1007D800EF2B08307502031CF22BF32BC22B720887
:1007E8000319F72BF82BFB2B22008E15FD2B22006B
:1007F8000E16A6300032890BFE2B00328B17A6305E
:100808000032890B042C00320800F701F51F0D2C6B
:100818000E2C152CF409F509F40A0319F50A013010
:10082800F700F31F182C192C1E2CF209F309F20AF1
:100838000319F30A720873040319232C242C4B2C74
:100848000130F6002E2C0130F235F30D890B282CDF
:100858000130F607F31F312C322C272C7308750250
:10086800031D382C72087402031C3B2C3C2C402CB2
:100878007208F4027308F53B0130F336F20C890B69
:10088800412C0130F602031D4A2C4B2C322C7708E0
:1008980003194F2C502C552CF409F509F40A0319A7
:1008A800F50A7508F3007408F20008007B35A03ECD
:1008B800860087010030C03FC13F23009D1C652C86
:1008C800662C772C7B35A03E860087010115200019
:1008D800400841040319712C722C772C41088A00B6
:1008E80040080A00843123001D1D7B2C7C2C8D2C94
:1008F8007B35A03E8600870181142000420843040E
:100908000319872C882C8D2C43088A0042080A007A
:10091800843123001908F0007B08013E1F39F100DB
:1009280071087A06031D992C9A2C9B2CA72C7B08FE
:10093800203E860001308700700881007108FB00A6
:1009480001302000CE07080022008C0101308E0003
:100958000B3021008C0020308E00023023008C00E8
:100968008E01013024008C008E0125008C018E013F
:10097800373026008C003F308E003F3027008C0037
:100988003F308E0015303C00A40014303D00A0001C
:1009980001302700910001309200930197019801DE
:1009A80099014630F2000730F3008631EF26843192
:1009B800210010160800210091125A302000E4008E
:1009C8000430E50021001112E9302000E60005306E
:1009D800E700483023009F0090309D0026309E009D
:1009E80040309B0003309C004730F2000730F30092
:1009F8008631982684314130F2000730F300863181
:100A08008C2684312000C801C901D101D0012030D1
:100A1800CF00FB01FA01CE01210091160800031056
:100A280022008E1C031403181A2D1D2D22008E146B
:100A38001F2D22008E1003100E1D03140318252DE0
:100A4800282D22000E152A2D22000E1103100C1E2F
:100A580003140318302D332D22000C16352D2200D7
:100A68000C1203108C1E031403183B2D3E2D22007C
:100A78008C16402D22008C120800482D0130F207F8
:100A88000130F3070030F43D7308840074088500D2
:100A98000008F50072088600870101087506031D25
:100AA800562D572D5F2D7208860087010108031DFA
:100AB8005E2D5F2D422D7208860087017308840021
:100AC8007408850000080102F200F301031CF30317
:100AD8000800F3002100111A722D732D772D730869
:100AE80023009A008E2D20004F0803197C2D7D2DA0
:100AF8008E2D5108203E8600870173088100510819
:100B0800013E1F39F2007208D10021001112013094
:100B18002000CF022100111608009E2D74088400C1
:100B280075088500000885316D2585310130F40789
:100B38000030F53D74088400750885001200031D17
:100B4800A62DA72D922D0D3085316D2585310A30C2
:100B580085316D258531080001302000CA07003035
:100B6800CB3D00304B02803003194A02031CBD2DD7
:100B7800BE2DCC2D600861040319C32DC42DC92DC9
:100B880061088A0060080A0085312000CA01CB018B
:100B9800911008007A08203E86000130870001087D
:100BA800F3007A08013E1F39F2007208FA002100AA
:100BB800911220004E080319E22DE32DE52D013096
:100BC800CE022100911673080800203020004F0241
:100BD8000318EF2DF02D012E5008203E86008701C6
:100BE800010823009A0020005008013E1F39F00038
:100BF8007008D0000130CF07032E21001112080021
:100C0800132E7908F2007708840078088500000818
:100C18008331AF2386310130F7070030F83D77087C
:100C28008400780885001200031D1B2E1C2E052E3B
:100C3800080020005403031D222E232E332E5308B0
:100C4800031D272E282E332E0C182B2E2C2E302E3B
:100C580022008E140E11332E22008E100E1508005D
:100C68007208F400392E0130F207720886008701F5
:100C78000108031D402E412E372E74087202F2001F
:100C8800F301F21BF30308008631BA26863184315A
:100C9800A824863186316E2686318431DF24863158
:100CA80087313D2786318631A42686310800F40035
:100CB800F301741C602E612E632E7208F307031073
:100CC800F20D0310F40C7408031D6B2E6C2E5D2EB0
:100CD80073080800FF3020009E009D014530E000A9
:100CE8000730E100911021009114073020009F0087
:100CF80008002000620863040319832E842E892EBD
:100D080063088A0062080A00863127001310080069
:100D1800720873040319912E922E972E73082000DF
:100D2800C1007208C00008007208730403199D2EE0
:100D38009E2EA32E73082000C3007208C20008006C
:100D4800200010100B140030F2000030F300863140
:100D5800F5268631080020001F11911021009110FE
:100D680020009F01FF309E009D0108006030320086
:100D780099009B019D0107309F009E019C0108007E
:100D880020004E08031DC92ECB2E0130CC2E00307A
:100D980008002700131CD12ED22ED52E86317D2691
:100DA80086310800523446344634463446340D34CD
:100DB80000345234463446344634463400346400F1
:100DC80080010131890BE42E003473082000E10012
:100DD8007208E000080073082000E3007208E200CF
:100DE800080073082000CD007208CC00080022001B
:100DF8008E100E110C128C12080043344534213425
:100E080031340034523445342134313400344334DD
:100E180045342134323400345234453421343234A8
:100E280000342D3443344D34443400345434443481
:100E38004D344F340034543444344D345234003437
:100E4800543444344D345334003446344834233411
:100E58000034443452342334003447345234233475
:100E680000344C3453342334003446345634233459
:100E78000034153021009700080023001D121D16AC
:080E8800080008000800080042
:020000040001F9
:08000E00EC3FDD3FFF3FFF3F27
:00000001FF
