:1000000080315228080004347E148031003086008C
:10001000003087000B1F0D280E2850284E01191E96
:10002000122813281E280F1E162817281E284101E3
:100030005B088A005A080A0080315028991E21283E
:1000400022282D288F1E252826282D2841015908D1
:100050008A0058080A0080315028991C302831281D
:1000600039288F1C342835283928A1316521803161
:100070005028191C3C283D2845280F1C40284128A1
:100080004528A1316921803150289A1C48284928E7
:100090005028901C4C284D285028A131F121803146
:1000A0007E10090080315428803103208031EF0018
:1000B0008F308400A130850041011200DD00120064
:1000C000DE001200DF001200E0001200E10012006A
:1000D000E2004201983100208031DC00983101209B
:1000E0008031DD00983102208031DE00983103201C
:1000F0008031DF00703084002E3085008030FE00BB
:100100000130FF00A131E5218031F001F101F20160
:10011000F301F401F501F6014001ED01EE01CA30F1
:100120008400003085001330FE000030FF00A13154
:10013000E521803120308400013085003C30FE0014
:100140000030FF00A131E5218031A0308400013072
:1001500085002030FE000030FF00A131E521803114
:1001600020308400023085004030FE000030FF0067
:10017000A131E5218031A03084000230850040307B
:10018000FE000030FF00A131E521803120308400E5
:10019000033085004030FE000030FF00A131E52132
:1001A00080317E1040019331FA2B380886003908DF
:1001B000870042310103031DDE28DF28FD283808AF
:1001C00086003908870041310108031DE828E92825
:1001D000FD2838088600390887004331013081073F
:1001E0005830A0000230A100380886003908870086
:1001F00055312008C03F2108C13F38088600390822
:10020000870041310103031D06290729DD2938082C
:10021000860039088700553116000104031D112995
:100220001229DD2938088600390887004331010882
:1002300003191B291C29DD29380886003908870085
:1002400043310A30010603192629272934293808A1
:1002500086003908870043310108A000A101200869
:10026000A7002108A8003629A701A8012708AD008A
:100270003808860039088700443101083807A00093
:100280000030393DA1002008860021088700453153
:100290002D08810038088600390887004431013074
:1002A00081073808860039088700433181012430EE
:1002B0004001E100B230E20041013708013E400157
:1002C000E300003003180130E40041012D08A000D4
:1002D000A10120084001E500410121084001E6009C
:1002E000A2313D228031410138088600390887005B
:1002F00044310103031D7D297E29A1295E0A0319CA
:1003000082298329A1292D085E06031D88298929B0
:10031000A12938088600390887005C310130810046
:10032000AB304001E100AA30E20041013708013E54
:100330004001E300003003180130E400A2313D2207
:100340008031410138088600390887005C31010896
:100350000319AB29AC29CC29380886003908870055
:10036000443110300102031CB629B729BE293808D0
:1003700086003908870003308100DD29B830A000ED
:100380000B30A10038088600390887005731200853
:10039000C03F2108C13FDD293808860039088700A1
:1003A000443102300102031CD629D729DD2938083F
:1003B0008600390887000330810038088600390834
:1003C000870041310103031DE629E729832F3808FF
:1003D000860039088700553116000104031DF129F4
:1003E000F229832F38088600390887004331010835
:1003F000031DFB29FC29832F380886003908870054
:100400005C3101080319052A062A832F3808860063
:1004100039088700443102300102031C102A112AD6
:10042000832F3808860039088700573116000104E9
:10043000031D1B2A1C2A832F39304001E100AE30F6
:10044000E20041013708013E4001E300003003189B
:100450000130E400A2313D2280314101380886009C
:100460003908870003308100832F38088600390857
:1004700087005C31010803193E2A3F2A822BFF3096
:10048000B400B201722A05304001A00041013208D7
:10049000A23182228031373E86000130870001037D
:1004A000031D532A542A6F2A41013208A000A101DA
:1004B0000530A035A10D890B592A7030A2002E30CD
:1004C000A3002008220786002108233D8700010899
:1004D000031D6B2A6C2A6F2A3208B400782A013077
:1004E0004101B2075D083202031C772A782A432AA9
:1004F000340A03197C2A7D2A612B380886003908C2
:1005000087005B31340881003408A000A101053068
:10051000A035A10D890B882A8B30A2002E30A300B4
:100520002008220786002108233D87003708810024
:100530004001D301410137089D31D125803141016E
:100540003808860039088700043081003408A0008C
:10055000A1010530A035A10D890BAA2A8D30A2007A
:100560002E30A3002008220786002108233D8700A3
:10057000013081003408A000A1010530A035A10D93
:10058000890BBE2A8E30A2002E30A300200822073D
:1005900086002108233D870081013408A000A101C5
:1005A0000530A035A10D890BD12A8F30A2002E3045
:1005B000A3002008220786002108233D870081012F
:1005C0006430A0000030A1003408A200A30105306F
:1005D000A235A30D890BE82A8730A4002E30A50090
:1005E0002208240786002308253D87002008C03FF5
:1005F0002108C13F3408A000A1010530A035A10D9C
:10060000890BFE2A7030A2002E30A300200822079A
:1006100086002108233D87000A3081006E304001AA
:10062000E100AB30E20041013708013E4001E30048
:10063000003003180130E40041013408013E40015C
:10064000E500003003180130E600A2313D22803180
:1006500001304101AC004D2BAA304001E100B53022
:10066000E20041012C083807A0000030393DA1000C
:10067000200886002108870045310108A200A30157
:1006800022084001E300410123084001E400A231B7
:100690003D22803101304101AC073808860039081D
:1006A0008700443101082C02031C572B582B2C2B9C
:1006B00062304001E100B530E200A2313D228031DC
:1006C000832F03304001D300410137089D31D125EC
:1006D00080314101380886003908870007308100E1
:1006E00007304001E100B230E20041013708013E2D
:1006F0004001E300003003180130E400A2313D2244
:100700008031832F380886003908870046310A3047
:100710004001A000410138088400390885000531F6
:100720000008A2318222803101074101AB00FF3075
:10073000B500B001B32B05304001A00041013008E5
:10074000A23182228031343E8600013087000108C8
:1007500041012B06031DAD2BAE2BB12B3008B5008C
:10076000B92B0130B0075D083002031CB82BB92B40
:100770009B2B350A0319BD2BBE2BD52B350837060D
:100780000319C32BC42BD52B05304001A000410118
:100790003508A23182228031373E86000130870041
:1007A0000103031DD42BD52B012C03304001D300B2
:1007B000410137089D31D12580314101380886003B
:1007C00039088700073081003E304001E100AB303E
:1007D000E20041013708013E4001E3000030031808
:1007E0000130E40041012B08A000A10120084001D4
:1007F000E500410121084001E600A2313D2280319F
:10080000832F41013508A000A1010530A035A10DBD
:10081000890B062C7030A2002E30A300200822077E
:1008200086002108233D87000108031D182C192C80
:100830007B2C38088600390887005B313508810039
:100840003508A000A1010530A035A10D890B242C8D
:100850008B30A2002E30A30020082207860021083A
:10086000233D87003708810002304001D300410159
:1008700037089D31D125803141013808860039087B
:100880008700043081004001D301D30A41013508BB
:100890009A316922803141013508A000A10105305B
:1008A000A035A10D890B502C7030A2002E30A30072
:1008B0002008220786002108233D8700053081009B
:1008C000D4304001E100AE30E20041013708013E82
:1008D0004001E300003003180130E4004101350815
:1008E000013E4001E500003003180130E600A2316E
:1008F0003D228031832F3508A000A1010530A035AD
:10090000A10D890B7F2C7030A2002E30A30020088F
:10091000220786002108233D870009300106031DB8
:10092000922C932CEB2C38088600390887005B3119
:10093000350881003508A000A1010530A035A10DC2
:10094000890B9E2C8B30A2002E30A300200822079A
:1009500086002108233D8700370881004001D3012C
:10096000410137089D31D125803141013808860089
:10097000390887000630810038088600390887006A
:100980005B310108A6003708013E4001AB00410180
:100990002608013E4001AC0001309D311025803118
:1009A0004E304001E100AC30E20041013708013E29
:1009B0004001E300003003180130E4004101350834
:1009C000013E4001E500003003180130E600A2318D
:1009D0003D228031832F03304001D300410137088D
:1009E0009D31D125803141013808860039088700C2
:1009F0000730810067304001E100B030E200410182
:100A00003708013E4001E300003003180130E400E4
:100A100041013508013E4001E50000300318013076
:100A2000E600A2313D228031832F38088600390844
:100A3000870042310108031D1E2D1F2D832F38080A
:100A400086003908870041310103031D282D292D17
:100A5000832F4001D301410137089A316922803147
:100A6000410138088600390887005B310108B10070
:100A70004001D301410131089D31D125803141012F
:100A80003708013E4001AB0041013108013E400101
:100A9000AC0001309D3110258031410138088600BD
:100AA00039088700063081003108A000A101053017
:100AB000A035A10D890B582D7030A2002E30A30057
:100AC0002008220786002108233D87000630810088
:100AD000EB304001E100AD30E20041013708013E5A
:100AE0004001E300003003180130E4004101310807
:100AF000013E4001E500003003180130E600A2315C
:100B00003D228031832F380886003908870057310D
:100B100016000104031D8D2D8E2D832F38088600AD
:100B2000390887005B310108B300330A0319992D96
:100B30009A2DB22D3308A000A1010530A035A10DDA
:100B4000890B9E2D7030A2002E30A30020082207B2
:100B500086002108233D8700043001060319B12DCA
:100B6000B22DC02D4001D301410137089A316922CD
:100B70008031410138088600390887008101832FC0
:100B800038088600390887005F310108031DC92D28
:100B9000CA2D582E38088600390887005D31330881
:100BA000A000A1010530A035A10D890BD32D743013
:100BB000A2002E30A3002008220784002108233D34
:100BC0008500000801020318E62DE72D422E3308A8
:100BD000A000A1010530A035A10D890BEB2D38082F
:100BE0008600390887005D317530A2002E30A300E1
:100BF00001082207A4000030233DA5002008240797
:100C000086002108253D87000108AE002E08031943
:100C10000A2E0B2E132E2E08A000A1012008A900D9
:100C20002108AA00172E0A30A9000030AA003808AF
:100C30008600390887005E3129088100380886005F
:100C4000390887005F3101308100CB304001E1007D
:100C5000AB30E20041013708013E4001E3000030C3
:100C600003180130E40041012E08A000A101200872
:100C70004001E500410121084001E600A2313D228A
:100C80008031582E38088600390887000B308100E3
:100C90004001D301410137089A3169228031023085
:100CA0004001D300410133089D31D1258031832F8C
:100CB000410138088600390887005F310103031DB0
:100CC000622E632E812E4001D301D30A41013708E1
:100CD0009A316922803114304101A0000030A10016
:100CE000380886003908870057312008C03F21089E
:100CF000C13F38088600390887005F310230810023
:100D0000832F38088600390887005F3102300106DA
:100D1000031D8B2E8C2E832F4001D30141013708F8
:100D20009A316922803141013808860039088700EC
:100D30005E310130810238088600390887005E3153
:100D400001080319A42EA52EBA2E1430A0000030DD
:100D5000A100380886003908870057312008C03FB5
:100D60002108C13F38088600390887005F3101300B
:100D70008100832F2C30A0000130A10038088600AC
:100D80003908870057312008C03F2108C13F380883
:100D90008600390887005F318101380886003908EC
:100DA00087005D3101308107832F380886003908BC
:100DB000870042310108031DDE2EDF2E832F380805
:100DC00086003908870041310103031DE82EE92E12
:100DD000832F38088600390887005B310108AF008F
:100DE0004001D30141012F089D31D12580314101BE
:100DF0003708013E4001AB0041012F08013E400190
:100E0000AC0001309D311025803141013808860049
:100E100039088700063081002F08A000A1010530A5
:100E2000A035A10D890B102F7030A2002E30A30029
:100E30002008220786002108233D87000630810014
:100E400012304001E100AE30E20041013708013EBE
:100E50004001E300003003180130E400A2313D22DC
:100E60008031832F380886003908870057311600F3
:100E70000104031D3C2F3D2F832F4001D30141016D
:100E800037089D31D1258031410138088600390865
:100E900087008101832F41013808860039088700C7
:100EA0000108A000A1012108003A0319582F832F3F
:100EB0002008003A92310319D52A8031013A0319EA
:100EC000912F033A0319D528013A0319352A073A15
:100ED0000319832F013A0319152D033A0319832FA0
:100EE000013A0319832F0F3A0319832F013A03198B
:100EF000832F033A0319832D013A0319D52E073A9C
:100F00000319322F832F41013808860039088700E2
:100F10004231380884003908850001310008810019
:100F200008009331B22B4001B70004303702031898
:100F30009A2F9B2FBA2FAC2F0C0C890C0139FF2F45
:100F40000D0E0139FF2F0E0C890C0139FF2F0E0EEB
:100F5000890C890C0139FF2F3708003A03199C2F9F
:100F6000013A0319A02F033A0319A32F013A0319D9
:100F7000A72FFE2F05306F02031CBF2FC02FFE2F9F
:100F80003708FC3EB60004303706031DC82FC92FB2
:100F9000D82F2030A9000030AA001230AB00DF307B
:100FA000AC000230AD000030AE00A7313B278731E6
:100FB0000230400136020318DE2FE02F0130E12F0E
:100FC0000030B200361CE52FE62FEB2F8030B40046
:100FD0000030B500EF2F0830B4000030B500340801
:100FE000B3003208DF3E8600870101083305031D88
:100FF000FA2FFC2F0130FD2F0030FF2F00300800AA
:1010000050019E11080040012508260403190928F3
:101010000A28102825082604031D0F281028152843
:101020002308A2312D228831602825088600260851
:10103000870049311600010403191F282028402881
:1010400025088600260887004931403FA700413F18
:10105000A80025088600260887004231403FA900E5
:10106000413FAA002A08803AAB002808803A2B02A8
:10107000031D3C282708290203183F284028602820
:101080004001250886002608870042312508840093
:1010900026088500003FA700013FA800403F270722
:1010A0008400413F283D85002308800025088600F4
:1010B0002608870042310130810741310318810A37
:1010C000080040016C088600033087000108031DFA
:1010D0006A286B286C28FF2F6230E100B530E200EF
:1010E000A2313D22883140016C08A0007E30A10071
:1010F000B530A200A4311F2488314001200821040A
:10110000031D83288428D32941015E0A031D8928F1
:101110008A289328A9304001E100B330E200A231CF
:101120003D228831A62868304001E100B330E2005A
:1011300041015E08A000A10120084001E300410137
:1011400021084001E400A2313D228831EA3040010B
:10115000E100B230E200A2313D2288314101B90103
:10116000C42905304001A00041013908A231822282
:101170008831373E8600013087000103031DC128F6
:10118000C228CD28A8304001A0008330A100B5308E
:10119000A200A231DC228831D728A8304001A0006B
:1011A0006F30A100B530A200A231DC22883154306A
:1011B0004001E100B130E20041013908013E400147
:1011C000E300003003180130E4000530A0004101C5
:1011D0003908A23182228831343E860001308700EE
:1011E00001084101A000A10120084001E5004101E2
:1011F00021084001E600A830E7000030E800410186
:101200003908A200A3010530A235A30D890B0429DA
:101210007030A4002E30A500220824078600230881
:10122000253D870001089831C320883140012108FD
:10123000EA002008E900A2313D2288314101390845
:10124000A000A1010530A035A10D890B23298B3009
:10125000A2002E30A3002008220786002108233D8B
:101260008700010A0319352936295929FA30400126
:10127000E100B330E20041013908A000A1010530CE
:10128000A035A10D890B40298B30A2002E30A30080
:101290002008220786002108233D87000108013E1F
:1012A0004001E300003003180130E400A2313D2288
:1012B000883141013908A000A1010530A035A10DF8
:1012C000890B5E297130A2002E30A300200822076E
:1012D00086002108233D87000108031D702971291C
:1012E00076295A30AC00B530AD007A294D30AC00CB
:1012F000B530AD008C304001E100B430E200410176
:101300002D084001E40041012C084001E300A23116
:101310003D22883105304001A00041013908A23149
:1013200082228831363E860001308700010A031987
:101330009A299B29B9292F304001E100B430E200FD
:101340000530A00041013908A23182228831363EA1
:1013500086000130870001084101A000A10120089A
:101360004001E300410121084001E400A2313D2297
:10137000883162304001E100B530E200A2313D2207
:10138000883101304101B9075D083902031CC929C0
:10139000CA29B12804304001E100B330E200A23193
:1013A0003D228831FF2F6C08A000BF30A100B4306F
:1013B000A2000830A3000030A400A531E025883148
:1013C000400120082104031DE629E729742A6C083E
:1013D000083E8600033087000108CF3E4101B0007F
:1013E0005D0830020318F529F629582A40016C08D7
:1013F000093E86000330870020300106031D012AC4
:10140000022A582A6C080A3E8600033087003030D2
:101410000102031C0C2A0D2A582A6C080A3E860079
:10142000033087003A3001020318172A182A582A75
:101430006C080B3E8600033087000A30A0006C0861
:101440000A3E8400033085000008A23182228831E0
:101450000107F03E4101AE0005304001A00041010E
:101460003008A23182228831343E86000130870064
:1014700041012E08810060304001E100AE30E20001
:1014800041013008013E4001E30000300318013003
:10149000E40041012E08A000A10120084001E50060
:1014A000410121084001E600A2313D228831FF2F91
:1014B00038304001E100B330E200A2313D228831F2
:1014C00050304001E100AA30E20041015D08A00077
:1014D000A10120084001E300410121084001E4008E
:1014E000A2313D228831FF2F6C08A000DA30A10024
:1014F000B430A2000730A3000030A400A531E025DD
:101500008831400120082104031D872A882A542B92
:101510006C08073E8600033087000108CF3E41017A
:10152000B800B10140016C08093EA000A430A10040
:10153000B530A2000230A3000030A400A531E025A0
:101540008831400120082104031DA72AA82AAC2ABB
:1015500002304101B100C42A6C08093EA00091305C
:10156000A100B530A2000330A3000030A400A531D3
:10157000E0258831400120082104031DC02AC12A2A
:10158000C42A01304101B10041015D08380203184D
:10159000CA2ACB2A382B31080319CF2AD02A382B54
:1015A0003103031DD42AD52AFA2A3808A000A10144
:1015B0000530A035A10D890BD92A7030A2002E303C
:1015C000A3002008220786002108233D870081010F
:1015D0006A304001E100AF30E20041013808013ECD
:1015E0004001E300003003180130E400A2313D2245
:1015F0008831FF2F02303106031DFF2A002B262BD6
:101600003808A000A1010530A035A10D890B042BDD
:101610007030A2002E30A300200822078600210887
:10162000233D870009308100F7304001E100AB30F5
:10163000E20041013808013E4001E3000030031898
:101640000130E400A2313D228831FF2F41304001BA
:10165000E100B230E20041013808013E4001E30000
:10166000003003180130E400A2313D228831FF2F01
:1016700038304001E100B330E200A2313D22883130
:1016800045304001E100AF30E20041015D08A000BB
:10169000A10120084001E300410121084001E400CC
:1016A000A2313D228831FF2F6C08A0004F30A100ED
:1016B000B430A200A4311F24883140012008210445
:1016C000031D632B642B792B5130E100B330E20012
:1016D000A2313D22883129304101A1009630A0007D
:1016E0007F30890B712BA00B712BA10B712B01008B
:1016F000FF2F6C08A0004630A100B530A2000630D4
:10170000A3000030A400A531E02588314001200865
:101710002104031D8C2B8D2B182D6C08063EA00078
:101720006A30A100B530A2000430A3000030A4004C
:10173000A531E0258831400120082104031DA12B9B
:10174000A22B3A2C6C080A3E860003308700010861
:10175000D03E4101B20040016C080C3E86000330CF
:1017600087000108D03E4101B30040016C080B3EE8
:1017700086000330870020300106031DC02BC12BDB
:101780001F2CAF30E100B130E20041013208A0006F
:10179000A10120084001E300410121084001E400CB
:1017A00041013308A200A30122084001E5004101E4
:1017B00023084001E60041013308A400A5012408E4
:1017C0004001E700410125084001E80041013208DD
:1017D000A600A70126084001E900410127084001B1
:1017E000EA00A2313D228831410132084001AB00BC
:1017F000410133084001AC0001309D311025883192
:101800009C304001E100AD30E20041013208A0000F
:10181000A10120084001E300410121084001E4004A
:1018200041013308A200A30122084001E500410163
:1018300023084001E600A2313D228831FF2F973076
:10184000E100B230E200A2313D228831A3304001F4
:10185000E100AC30E20041015D08A000A1012008D8
:101860004001E300410121084001E400A2313D2292
:101870008831FF2F6C08063EA0006530A100B5300E
:10188000A2000430A3000030A400A531E025883177
:10189000400120082104031D4E2C4F2CE72C6C081E
:1018A0000A3E8600033087000108D03E4101B400A3
:1018B00040016C080C3E8600033087000108D03ED2
:1018C0004101B50040016C080B3E860003308700E3
:1018D00020300106031D6D2C6E2CCC2C9130E100C4
:1018E000B130E20041013408A000A101200840010C
:1018F000E300410121084001E40041013508A20054
:10190000A30122084001E500410123084001E6004F
:1019100041013508A400A50124084001E700410168
:1019200025084001E80041013408A600A701260867
:101930004001E900410127084001EA00A2313D22AF
:101940008831410134084001AB00410135084001B4
:10195000AC0000309D311025883121304001E1007C
:10196000AD30E20041013408A000A101200840018F
:10197000E300410121084001E40041013508A200D3
:10198000A30122084001E500410123084001E600CF
:10199000A2313D228831FF2F9730E100B230E200C2
:1019A000A2313D22883179304001E100AC30E200C3
:1019B00041015D08A000A10120084001E3004101B0
:1019C00021084001E400A2313D228831FF2F6C083C
:1019D000063EA0005230A100B430A200A4311F2462
:1019E0008831400120082104031DF72CF82C082D14
:1019F0003F30A400B530A500A231AA228831AD3015
:101A00004001E100B030E200A2313D228831FF2FD9
:101A10004430E100B030E200A2313D228831D030C4
:101A20004001E100B030E200A2313D228831FF2FB9
:101A30006C08A000E230A100B430A2000730A3007F
:101A40000030A400A531E0258831400120082104A0
:101A5000031D2B2D2C2DE52D6C08073E8600033031
:101A600087000108CF3E4101B6005D083602031829
:101A70003A2D3B2DD12D40016C08083E86000330E5
:101A8000870020300106031D462D472DD12D6C08FF
:101A9000093EA0009130A100B530A2000330A300A0
:101AA0000030A400A531E025883140012008210440
:101AB000031D5B2D5C2D7B2D0530A00041013608F8
:101AC000A23182228831363E860001308700FF3005
:101AD0008100FC304001E100AF30E20041013608F6
:101AE000013E4001E300003003180130E400A23160
:101AF0003D228831FF2F6C08093E860003308700A5
:101B000030300102031C852D862DFF2F6C08093E05
:101B10008600033087003A3001020318902D912D82
:101B2000FF2F6C080A3E8600033087000A30A000B1
:101B30006C08093E8400033085000008A23182222F
:101B400088310107F03E4101AF0005304001A0009F
:101B500041013608A23182228831363E86000130AA
:101B6000870041012F08810073304001E100AD3052
:101B7000E20041013608013E4001E3000030031855
:101B80000130E40041012F08A000A101200840011C
:101B9000E500410121084001E600A2313D228831E3
:101BA000FF2F12304001E100A930E20041015D0841
:101BB000A000A10120084001E300410121084001EB
:101BC000E400A2313D228831FF2F6C08A000403094
:101BD000A100B430A200A4311F24883140012008A4
:101BE0002104031DF42DF52D012E99313E2188315C
:101BF00020304001E100AF30E200A2313D228831C7
:101C0000FF2F6C08A000C830A100B430A20008303B
:101C1000A3000030A400A531E02588314001200850
:101C20002104031D142E152E712E6C08083EA000F1
:101C30009130A100B530A2000330A3000030A40011
:101C4000A531E0258831400120082104031D292EFB
:101C50002A2E362EFF304101DE00CF304001E10058
:101C6000B230E200A2313D228831FF2F6C08083EDD
:101C700086000330870030300102031C402E412EC5
:101C8000692E6C08083E8600033087003A30010256
:101C900003184B2E4C2E692E6C08083E860003302C
:101CA00087000108D03E4101DE00C4304001E10060
:101CB000AD30E20041015E08A000A1012008400112
:101CC000E300410121084001E400A2313D228831B6
:101CD000FF2F7330E100B130E200A2313D228831A4
:101CE000FF2F6C08A0009730A100B430A20009308B
:101CF000A3000030A400A531E02588314001200870
:101D00002104031D842E852E1B2F6C08093E86009E
:101D1000033087000108CF3E4101B7005D0837025C
:101D20000318932E942E072F40016C080A3E86005C
:101D30000330870020300106031D9F2EA02E072FA1
:101D40006C080B3EA0006F30A100B530A20004303B
:101D5000A3000030A400A531E0258831400120080F
:101D60002104031DB42EB52ED32E0530A000410151
:101D70003708A23182228831373E86000130870041
:101D80008101D8304001E100AF30E2004101370865
:101D9000013E4001E300003003180130E400A231AD
:101DA0003D228831FF2F6C080B3EA000A730A10018
:101DB000B530A2000230A3000030A400A531E02518
:101DC0008831400120082104031DE72EE82E072F4B
:101DD0000530A00041013708A23182228831373E08
:101DE0008600013087000130810087304001E1002A
:101DF000AE30E20041013708013E4001E30000300F
:101E000003180130E400A2313D228831FF2F233036
:101E10004001E100AC30E20041015D08A000A101F9
:101E200020084001E300410121084001E400A23103
:101E30003D228831FF2F6C08A0007930A100B53019
:101E4000A200A4311F248831400120082104031D71
:101E50002A2F2B2FF42F0D30E100B430E200A231F5
:101E60003D228831B4304001E100AF30E200A231C0
:101E70003D228831DD304001E100AA30E200A2318C
:101E80003D22883146304001E100AA30E2004101A4
:101E90005D08A000A10120084001E30041012108E4
:101EA0004001E400A2313D228831CD304001E10003
:101EB000AC30E200A2313D2288310E304001E10019
:101EC000AB30E20041015D08A000A1012008400103
:101ED000E300410121084001E400A2313D228831A4
:101EE00020304001E100B030E200A2313D228831D3
:101EF00008304001E100A930E20041015D08A00086
:101F0000A10120084001E300410121084001E40053
:101F1000A2313D228831FA304001E100AE30E200CA
:101F2000A2313D228831F2304001E100B030E200C0
:101F3000A2313D2288318A304001E100B030E20018
:101F4000A2313D2288319E304001E100AB30E200F9
:101F5000A2313D228831AA304001E100A930E200DF
:101F6000A2313D22883179304001E100AA30E200FF
:101F7000A2313D22883151304001E100A830E20019
:101F8000A2313D22883112304001E100A830E20048
:101F9000A2313D228831CC304001E100A830E2007E
:101FA000A2313D22883162304001E100B530E200CB
:101FB000A2313D22883176304001E100A930E200B3
:101FC000A2313D228831F7304001E100AC30E2001F
:101FD000A2313D2288310D304001E100B330E200F2
:101FE000A2313D228831FF2F7E30E100B330E20084
:101FF0006C08E3000330E400A2313D228831080080
:102000004301901290164201A00100300800FD012A
:102010009B287D08F700F8010530F735F80D890B8E
:102020000D288530F9002E30FA00770879078600F0
:1020300078087A3D8700160001040319202821281A
:1020400039287D08F700F8010530F735F80D890BC0
:1020500025288530F9002E30FA00770879078600A8
:1020600078087A3D87000130810241310030813BA0
:102070007F317D08F700F8010530F735F80D890B41
:102080003D288730F9002E30FA007708790786005E
:1020900078087A3D8700160001040319502851285A
:1020A00069287D08F700F8010530F735F80D890B30
:1020B00055288730F9002E30FA0077087907860016
:1020C00078087A3D87000130810241310030813B40
:1020D0007F317D08F700F8010530F735F80D890BE1
:1020E0006D288930F9002E30FA00770879078600CC
:1020F00078087A3D8700160001040319802881289A
:1021000099287D08F700F8010530F735F80D890B9F
:1021100085288930F9002E30FA0077087907860083
:1021200078087A3D87000130810241310030813BDF
:102130007F310130FD0741015D087D02031CA128AC
:10214000A2280928080040014B0886008701403F6B
:10215000CE00413FCF004E0884004F08850012009A
:10216000253A031DB428B528D8294B0886008701D5
:102170000130810741310318810A4101CA01CB01B5
:1021800000304001ED00FF304201AE00FF30AF00F3
:102190004001D801ED286D144B08860087010130FD
:1021A000810741310318810AED28ED14CC28013054
:1021B000D800ED284B0886008701403FCE00413F04
:1021C000CF004E0884004F08850000082D3A0319FF
:1021D000CB281D3A0319D528D72858080319F12808
:1021E000F228DA286D1CF528F628F828FD30ED05D0
:1021F0004B08A6004C08A700A631DF26903140010D
:1022000027084101CB00400126084101CA00CB1F2D
:102210000A290B29132940016D144101CA09CB0970
:10222000CA0A0319CB0A40014B0886008701403FC8
:10223000D600413FD7005608840057088500120099
:10224000643A0319242925292F29560884005708A0
:1022500085001200693A031D2E292F2955294C08A3
:1022600086004D088700010884008501023081073F
:10227000003FD200013FD3005608013ECE0000309F
:10228000573DCF004B08860087014E08C03F4F08DE
:10229000C13F4A08BD004908BC005308BF005208AE
:1022A000BE009B319E239031F229D8014B08860055
:1022B0008701403FCE00413FCF004E0884004F08C9
:1022C00085001200733A031D6629672972294B089D
:1022D000860087010130810741310318810A0130EE
:1022E000D800B4294B0886008701403FCE00413F0B
:1022F000CF004E0884004F08850012006C3A031D81
:1023000082298329B4294B0886008701403FCE00EB
:10231000413FCF0001304E0784004F080318013EB3
:10232000850012006C3A031D96299729B4294B08A1
:1023300086008701403FCE00413FCF0002304E076C
:1023400084004F080318013E85001200733A031DF4
:10235000AA29AB29B4294B088600870103308107DD
:1023600041310318810A6F2958080319B829B9297E
:10237000CE294A08AD004908AC004C0886004D083B
:10238000870001088400850102308107003FAE000C
:10239000013FAF009B3103239031F22940014B08EC
:1023A000860087010130810741310318810AF22933
:1023B0004B0886008701403FCE00413FCF004E08CA
:1023C00084004F0885000008D000D1015008A30008
:1023D0005108A4004A08A6004908A5008831032036
:1023E0009031CE2908003808860039088700063069
:1023F0000106031DFC29FD299D2A3708013E4001E5
:10240000AB0041013608013E4001AC0000309D3177
:102410001025913141013608A000A1010530A035F9
:10242000A10D890B0F2A7030A2002E30A3002008C6
:10243000220786002108233D870009300106031981
:10244000222A232A6F2A03304001D3004101360893
:102450009D31D125913141013608A000A1010530FF
:10246000A035A10D890B302A7030A2002E30A300B8
:102470002008220786002108233D870007308100BD
:102480003608A000A1010530A035A10D890B442A12
:102490008B30A2002E30A3002008220786002108DE
:1024A000233D8700FF30810041304001E100A93029
:1024B000E20041013708013E4001E300003003180B
:1024C0000130E40041013608013E4001E5000030E2
:1024D00003180130E600A2313D2291319D2A3608D1
:1024E000A000A1010530A035A10D890B732A8B3006
:1024F000A2002E30A3002008220786002108233DD9
:102500008700FF30810090304001E100A830E200F8
:1025100041013708013E4001E3000030031801305B
:10252000E40041013608013E4001E5000030031897
:102530000130E600A2313D2291314001D301410139
:1025400037089D31D12591314001D3014101370830
:102550009A31692291314101380886003908870093
:10256000093001060319B52AB72A87314B2F3808DD
:1025700086003908870081013808860039088700FD
:102580005B31FF308100B3304001E100B230E20046
:1025900041013708013E4001E300003003180130DB
:1025A000E400A2313D229131B52A3808860039086D
:1025B000870042310108031DDE2AE02A8731832F7C
:1025C000380886003908870041310103031DE92AD4
:1025D000EA2ADE2A38088600390887005C31810142
:1025E00005304001A00041013708A231822291311B
:1025F000363E860001308700010A0319002B012BAB
:10260000852B4101380886003908870045310A309A
:102610004001A3000030A4000530A00041013708AC
:10262000A23182229131363E8400013085000008BB
:102630004101A000A10120084001A500410121089D
:102640004001A600A6318326913140012308810074
:102650004101380886003908870046310A304001B8
:10266000A3000030A4000530A00041013708A231CA
:1026700082229131363E84000130850000084101FC
:10268000A000A10120084001A5004101210840014E
:10269000A600A63131269131400123088100410175
:1026A0003808860039088700443110308100380826
:1026B0008600390887000330810012304001E100B4
:1026C000AA30E20041013708013E4001E30000303A
:1026D00003180130E4000530A00041013708A231A1
:1026E00082229131363E8600013087000108410187
:1026F000A000A10120084001E5004101210840019E
:10270000E600A2313D229131DE2A4001D301D30AF5
:10271000410137089D31D1259131410138088600AA
:10272000390887004331810138088600390887005D
:102730004431810138088600390887000130810062
:1027400034304001E100B130E20041013708013E80
:102750004001E300003003180130E400A2313D22C3
:102760009131DE2A3808860039088700423101039A
:10277000031DBB2BBC2BDE2A3808860039088700D6
:1027800041310108031DC52BC62BDE2A4001D301B0
:10279000410137089D31D12591314101380886002A
:1027A000390887004331013081005830A0000230E1
:1027B000A100380886003908870055312008C03F3D
:1027C0002108C13F3808860039088700023081009F
:1027D000AE304001E100AE30E20041013708013E79
:1027E0004001E300003003180130E400A2313D2233
:1027F0009131DE2A15304101BB004B30BA00BE30AA
:10280000890B002CBA0B002CBB0B002C0000A23152
:10281000C322933107304001A0001030A100A13144
:10282000C62193318B170B1760304001E100B530A2
:10283000E200A2313D229331E6304001E100B330A5
:10284000E200A2313D2293319931D1219331A1315E
:10285000572193314101DD00D2304001E100B33016
:10286000E20041015D08BA00BB013A084001E30003
:1028700041013B084001E400A2313D2293318F30F9
:102880004001E100AF30E200A2313D2293319530AA
:102890004001E100B530E200A2313D2293313F30EA
:1028A0004001A400B530A500A231AA229331153011
:1028B0004101BB004B30BA00BE30890B5D2CBA0B16
:1028C0005D2CBB0B5D2C000098304001E100B53061
:1028D000E200A2313D2293313F304001A400B530E7
:1028E000A500A231AA22933115304101BB004B3023
:1028F000BA00BE30890B7A2CBA0B7A2CBB0B7A2C1F
:1029000000009B304001E100B530E200A2313D22E1
:1029100093313F304001A400B530A500A231AA2276
:10292000933115304101BB004B30BA00BE30890BEA
:10293000972CBA0B972CBB0B972C00009E304001B4
:10294000E100B530E200A2313D2293313F30400139
:10295000A400B530A500A231AA229331153041015F
:10296000BB004B30BA00BE30890BB42CBA0BB42C70
:10297000BB0BB42C0000A1304001E100B530E200F7
:10298000A2313D2293313F304001A400B530A50073
:10299000A231AA22933115304101BB004B30BA005D
:1029A000BE30890BD12CBA0BD12CBB0BD12C000023
:1029B00079304001E100B430E200A2313D22933190
:1029C0007B304001E100B230E200A2313D22933180
:1029D00001304101C600312D0130C700292D6400AE
:1029E000410146084001AB00410147084001AC00ED
:1029F00001309D31102593316A304001E100B4303F
:102A0000E20041014608BA00BB013A084001E30078
:102A100041013B084001E40041014708BC00BD0101
:102A20003C084001E50041013D084001E600A231BB
:102A30003D22933103304101BB000830BA007730AA
:102A4000890B202DBA0B202DBB0B202D023041010C
:102A5000C70747085D0203182E2D2F2DEF2C0130DC
:102A6000C60746085D020318362D372DEC2C0130C1
:102A7000C6007F2D0130C700772D64004101460854
:102A80004001AB00410147084001AC0000309D31DE
:102A9000102593315D304001E100B430E200410186
:102AA0004608BA00BB013A084001E30041013B0877
:102AB0004001E40041014708BC00BD013C08400161
:102AC000E50041013D084001E600A2313D2293317D
:102AD00003304101BB000830BA007730890B6E2DFE
:102AE000BA0B6E2DBB0B6E2D02304101C707470894
:102AF0005D0203187C2D7D2D3D2D0130C607460853
:102B00005D020318842D852D3A2DCD304001E10062
:102B1000B130E200A2313D2293315E304001E1004C
:102B2000B230E200A2313D2293314101C901552E5C
:102B30004908BA00BB010530BA35BB0D890B9C2D85
:102B40007030BC002E30BD003A083C0786003B08C0
:102B50003D3D870081014908873193279331410129
:102B6000BA004908BB00BC010530BB35BC0D890B60
:102B7000B52D7130BD002E30BE003B083D07BF00B3
:102B80003C083E3DC0003F088600400887003A08E8
:102B900081004908BA00BB010530BA35BB0D890B6D
:102BA000CD2D7230BC002E30BD003A083C078600A7
:102BB0003B083D3D87004908BE00BF010530BE35DA
:102BC000BF0D890BDF2D7130C0002E30C1003E08D3
:102BD000400784003F08413D850000088100490806
:102BE000BA00BB010530BA35BB0D890BF32D73302C
:102BF000BC002E30BD003A083C0786003B083D3D36
:102C0000870081014908BA00BB010530BA35BB0D08
:102C1000890B062E7430BC002E30BD003A083C07EC
:102C200086003B083D3D870081014908BA00BB0191
:102C30000530BA35BB0D890B192E8530BC002E30FE
:102C4000BD003A083C0786003B083D3D8700003048
:102C5000C03FC13F4908BA00BB010530BA35BB0DC2
:102C6000890B2E2E8730BC002E30BD003A083C0761
:102C700086003B083D3D87000030C03FC13F49080A
:102C8000BA00BB010530BA35BB0D890B432E8B3022
:102C9000BC002E30BD003A083C0786003B083D3D95
:102CA0008700FF3081000130C9075D084902031C1D
:102CB0005A2E5B2E982D05304101BB000F30BA0013
:102CC000F130890B612EBA0B612EBB0B612E763071
:102CD0004001E100B430E200A2313D2293311330D3
:102CE0004001E100B130E200A2313D2293314101C7
:102CF000C401CB2EB5304001E100B430E200410107
:102D00004408013E4001E300003003180130E400B4
:102D1000A2313D22933141014408BA00BB01053084
:102D2000BA35BB0D890B902E7130BC002E30BD0022
:102D30003A083C0786003B083D3D87000108031D1B
:102D4000A22EA32EAC2E38304001E100B530E200B7
:102D5000A2313D229331C82E4408BA00BB01053090
:102D6000BA35BB0D890BB02E7030BC002E30BD00C3
:102D70003A083C0786003B083D3D8700083081004B
:102D800031304001E100B530E200A2313D22933103
:102D900001304101C4075D084402031CD02ED12E2E
:102DA0007A2E4A304001E100AD30E200A2313D22EE
:102DB00093319C31512493314101C301092F943047
:102DC0004001E100B330E20041014308013E40010F
:102DD000E300003003180130E4000530A000410199
:102DE0004308A23182229331343E860001308700AD
:102DF00001084101BA00BB013A084001E500410168
:102E00003B084001E600A2313D22933101304101EF
:102E1000C3075D084302031C0E2F0F2FDF2E1E3049
:102E20004001E100B330E200A2313D229331410183
:102E3000C5015B2F05304001A00041014508A231CA
:102E400082229331373E8600013087000103031D43
:102E50002A2F2B2F582F1E304001E100B430E20002
:102E600041014508013E4001E300003003180130F4
:102E7000E400A2313D22933103304001D3004101EF
:102E800045089D31D125933115304101BB004B30B0
:102E9000BA00BE30890B4A2FBA0B4A2FBB0B4A2F00
:102EA00000004001D301410145089D31D1259331F6
:102EB00001304101C5075D084502031C602F612FE9
:102EC0001A2F62304001E100B530E200A2313D220C
:102ED0009331EA304001E100B130E200A2313D22FD
:102EE000933164004101C2017C2F42089E31C82603
:102EF000933101304101C2075D084202031C812F5A
:102F0000822F752FA131A3219331003A0319892F04
:102F10008A2F712FA231F62293314101C8000D3062
:102F200048060319942F952F9B2F0A304806031D3E
:102F30009A2F9B2FBF2F4808A331CD2393314101F6
:102F40005C08203E8600033087008101203040016C
:102F5000EC0088316120933162304001E100B530EE
:102F6000E200A2313D22933154304001E100B530FE
:102F7000E200A2313D2293314101DC01712F083082
:102F800048060319C42FC52FCB2F7F304806031DD9
:102F9000CA2FCB2FDB2F5C080319CF2FD02F712F17
:102FA0000130DC028D304001E100B530E200A23199
:102FB0003D229331712F3F305C020318E02FE12F47
:102FC000712F4808A331CD2393316130410148026C
:102FD000031CEB2FEC2FF42F7B3048020318F12F4A
:102FE000F22FF42F2030C8025C08203E8600033008
:102FF0008700480881000130DC07712F803152289A
:10300000883488348834883440019601043097002D
:1030100003309800043091009B30920047309300B9
:103020007E01B8010830C300CE010430B9009230EF
:10303000C4004730CF00E501BA01C501D001FF301F
:10304000BB00FF30C600FF30D100FF30BC00FF30B6
:10305000C700FF30D2000830E80009307D01CB0006
:1030600010307E019A0010307D01C50014307E01C1
:10307000A00011307D01C60015307E01A100BD0108
:10308000BE01BF01C801C901CA01D301D401D501E4
:10309000E901EA01EB010800003040012C021F3079
:1030A00003192B02031C5528562858280030C22823
:1030B0002908AD002E30A0002A08A1002C08A3008A
:1030C0002B08A200A3318823983140012808A100D1
:1030D0002708A0002D30A2002B08013EA3000030DD
:1030E0002C3DA400A4314F249831003A031D7928C7
:1030F0007A287B285628E8304001CD000330CE00E6
:1031000091281A30890B8228003201304001CD020B
:103110000030CE3B4D084E04031D8F289028912887
:103120005628A1315A219831003A031D9828992830
:103130008128E8304001CD000330CE00AF281A309E
:10314000890BA028003201304001CD020030CE3B77
:103150004D084E04031DAD28AE28AF285628430164
:103160001119B328B4289F288530890BB528000091
:10317000A131AB219831003A0319BF28C128013091
:10318000C228003008004001A4000C297430A000BF
:10319000B530A1003D29D130A000B430A1003D29B7
:1031A000FA30A000B430A1003D290A30A000B530AB
:1031B000A1003D290230A000B530A1003D29EA3030
:1031C000A000B430A1003D29F230A000B430A1002D
:1031D0003D298830A000B530A1003D291230A00063
:1031E000B530A1003D292230A000B530A1003D2915
:1031F000A130A000B430A1003D29AB30A000B43014
:10320000A1003D298130A000B430A1003D291A3031
:10321000A000B530A1003D292408A200A301230885
:10322000003A0319142907292208003A0319C6286D
:10323000013A0319CB28033A0319D028013A03199C
:10324000D528073A0319DA28013A0319DF28033A87
:103250000319E428013A0319E9280F3A0319EE2863
:10326000013A0319F328033A0319F828013A03191C
:10327000FD28073A031902290729080050019E1862
:10328000422943293E291E1701309A0070309B00C5
:103290009D0141015E0850019C00400103108B1FFD
:1032A00052295329542903148B1350011E155530EC
:1032B0009F00AA309F009E149E185F2960295C29F8
:1032C0001E114001031C6529662967298B173430BC
:1032D000A000A101A20150019E186F2970296B293D
:1032E0001E1740012108033E50019A0070309B00D8
:1032F0009D01400120082107860001308700010858
:1033000050019C00400103108B1F872988298929BF
:1033100003148B1350011E1555309F00AA309F00D7
:103320009E149E189429952991291E114001031C71
:103330009A299B299C298B170130A1070030A23DB7
:1033400000302202283003192102031CA829A929D0
:103350006B2950019E18AD29AE29A9291E170230EC
:103360009A0070309B009D015A309C004001031070
:103370008B1FBB29BC29BD2903148B1350011E15BB
:1033800055309F00AA309F009E149E18C829C92955
:10339000C5291E114001031CCE29CF29D0298B1726
:1033A00008004001E701D30167089D31D12599311B
:1033B0004001D30167089A316922993101304001F7
:1033C000E70704306702031CE629E729D3291530F3
:1033D0004001E2004B30E100BE30890BED29E10BEA
:1033E000ED29E20BED290000A231002299310530D0
:1033F0004001E2000F30E100F130890BFD29E10BC3
:10340000FD29E20BFD29400117172030CF000030C5
:10341000D0000530D100D201A2314D229931013ABC
:10342000031D132A142A652A20304001CF000030E2
:10343000D0000A30D100D201A2314D229931FF30A3
:103440004101E100FF30E20020304001A7000030E0
:10345000A8001430A900E130AA000230AB0000300F
:10346000AC0098314C20993142015F084001E400E2
:1034700042015E084001E3002030A7000030A800B0
:103480000C30A9006330AA000230AB000030AC0061
:1034900098314C20993142015D084001E60042011B
:1034A0005C084001E5002030A7000030A800A90119
:1034B0006530AA000230AB000030AC0098314C20DF
:1034C000993108304001EF00682A04304001EF00D4
:1034D00008004001DC0004305C020318702A712AE5
:1034E000A42A962A53080319762A772A792A96114C
:1034F000022B9615022B530803197F2A802A822A51
:103500009712022B9716022B53080319882A892A2F
:103510008B2A9811022B9815022B53080319912A14
:10352000922A942A9813022B9817022B5C08003ACF
:103530000319722A013A03197B2A033A0319842AD0
:10354000013A03198D2A022B05306F02031CA92AA8
:10355000AA2A022B5C08FC3EDA0002305A02031849
:10356000B22AB42A0130B52A0030DD005A1CB92A2B
:10357000BA2ABF2A0430D6000030D700C12AD601AB
:10358000D7015608DB005D08E13E86008701043064
:10359000D4005B0ACC2AD435890BCB2A5408FF3AD5
:1035A00081055308031DD52AD62AE32A5D08E13E8A
:1035B000860087010430D4005B0ADF2AD435890BEA
:1035C000DE2A540881045D080319E72AE82AED2A57
:1035D0001530D8000030D900F12A1430D80000305E
:1035E000D9005808D5002030CF000030D000550851
:1035F000D1005D08E13E860087010108D200A231BA
:103600004D229A31080040012F08B7002E08B6005D
:1036100036083704031D0D2B0E2B122B2A30B60053
:10362000B530B700B801B901192B0130B807003027
:10363000B93D3608380784003708393D8500120047
:10364000031D232B242B152B3908B3003808B20097
:1036500041014B084001B50041014A084001B40056
:103660006D18332B342B6C2B462B20304001A300DC
:103670000030A4002D08A6002C08A50088310320E6
:103680009B3101304001B8070030B93D3908803A1C
:10369000B0003508803A3002031D502B3408380240
:1036A000031C532B542B352B6C2B36088400370806
:1036B00085000008B000B1013008A3003108A40063
:1036C0002D08A6002C08A500883103209B3101306D
:1036D0004001B6070030B73DFF304001B207FF3070
:1036E000B33D320A031D782B330A031D782B792B47
:1036F000552B6D1C7C2B7D2B9D2B8F2B203040015F
:10370000A3000030A4002D08A6002C08A5008831D5
:1037100003209B3101304001B8070030B93D390822
:10372000803AB0003508803A3002031D992B3408E6
:103730003802031C9C2B9D2B7E2B0800013040017E
:10374000C300BF1BA42BA62B0130A72B0030C60043
:1037500041014B084001C50041014A084001C40035
:1037600046080319B42BB52BC92BFF30C407FF3013
:10377000C53D4608031DBD2BBE2BC32B2B30C100FE
:103780000030C200C72B2D30C1000030C2004108FC
:10379000C6001F30C7000030C8004301BF01052C20
:1037A000FF30C707FF30C83D4708A03E8600013004
:1037B00087000A30A3000030A4003F08A6003E089E
:1037C000A500A63131269B3140012408AA00230818
:1037D000A900A23170229B3140012908303E8100AE
:1037E000C301FF30C407FF30C53D0A30A3000030DD
:1037F000A4003F08A6003E08A500A63183269B3101
:1038000040012408BF002308BE0040014808803A58
:10381000C00080304002031D0F2C01304702031C02
:10382000122C132C312C40013E083F04031D192C8F
:103830001A2CD02B4308031D1E2C1F2CD02B4508FF
:10384000803AC00080304002031D282C0130440221
:10385000031C2B2C2C2C312C4001ED18302C312C3E
:10386000D02B400146080319362C372C422CFF3050
:10387000C707FF30C83D4708A03E860001308700DB
:10388000460881003D08B5003C08B4004708A03E4A
:10389000B6004508B8004408B700A5319A259B3109
:1038A000080050011E1702309A0070309B001E1451
:1038B0005A301C06031D5D2C5E2CC02C1E170130D7
:1038C0009A0070309B001E141C084101DE00343049
:1038D0004001A700A901AA0150011E1740012908B3
:1038E000033E50019A0070309B001E1440012708CF
:1038F000290786000130870050011C088100013033
:103900004001A9070030AA3D00302A0228300319DF
:103910002902031C8C2C8D2C6C2CA801B72C053093
:10392000A0002808A23182229C31353E8600013059
:10393000870009300106031D9E2C9F2CB42C4001EA
:103940002808A300A4010530A335A40D890BA42CDD
:103950007030A5002E30A600230825078600240815
:10396000263D87000930810001304001A807410150
:103970005D0840012802031CBE2CBF2C8F2C0F2D8C
:10398000FF304101DE004001AB010530A0002B08F3
:10399000A23182229C31343E8600013087004001F2
:1039A0002B080B3E81000530A0002B08A23182229B
:1039B0009C31353E86000130870081010530400191
:1039C000A0002B08A23182229C31363E86000130B5
:1039D0008700FF30810005304001A0002B08A23194
:1039E00082229C31373E86000130870081010530FC
:1039F0004001A0002B08A23182229C31383E860073
:103A000001308700810101304001AB0708302B02F3
:103A1000031C0B2D0C2DC52C99313E219C31080027
:103A20004001AF002F03031D162D172D1A2D433013
:103A3000B0001C2D5230B0000D30B500B6010A3078
:103A4000A3000030A4002B08AD00AE012D08A50096
:103A50002E08A600A63183269D3140012308303E62
:103A6000B1000A30A3000030A4002B08AD00AE0165
:103A70002D08A5002E08A600A63131269D31400153
:103A80002308303EB2000A30A3000030A4002C0806
:103A9000AD00AE012D08A5002E08A600A631832694
:103AA0009D3140012308303EB3000A30A3000030AE
:103AB000A4002C08AD00AE012D08A5002E08A6001C
:103AC000A63131269D3140012308303EB40030300C
:103AD000A4000030A500A231AA229D310B30400184
:103AE000AD006230890B722DAD0B722D00000A30D3
:103AF0004001A3000030A4002C08AD00AE012D0849
:103B0000A5002E08A600A63183269D31400123087A
:103B1000303EB1000A30A3000030A4002C08AD00F4
:103B2000AE012D08A5002E08A600A63131269D3134
:103B300040012308303EB2000A30A3000030A40048
:103B40002B08AD00AE012D08A5002E08A600A63159
:103B500083269D3140012308303EB3000A30A30084
:103B60000030A4002B08AD00AE012D08A5002E08E2
:103B7000A600A63131269D3140012308303EB40015
:103B80003030A4000030A500A231AA229D310B30B4
:103B90004001AD006230890BCB2DAD0BCB2D000069
:103BA00008004001DC000130DF000130E000E82DBA
:103BB0000130DF000130E000FE2DDF01E001FE2DCD
:103BC0000130DF00E001FE2DDF010130E000FE2DBD
:103BD0005308D400D5015508003A0319F02DFE2DE5
:103BE0005408003A0319D82D013A0319DD2D033A80
:103BF0000319E02D013A0319E42DFE2D04305C0277
:103C00000318032E042E572E492E5F080319092E80
:103C10000A2E0C2E16140D2E161060080319112EE4
:103C2000122E142E9614C72E9610C72E5F08031955
:103C30001A2E1B2E1D2E16161E2E16126008031984
:103C4000222E232E252E9616C72E9612C72E5F08DB
:103C500003192B2E2C2E2E2E16172F2E161360081E
:103C60000319332E342E362E9617C72E9613C72ED1
:103C70005F0803193C2E3D2E3F2E1816402E1812B9
:103C800060080319442E452E472E9816C72E981209
:103C9000C72E5C08003A0319052E013A0319162EA7
:103CA000033A0319272E013A0319382EC72E05307F
:103CB0006F02031C5C2E5D2EC72E5C08FC3EDB00F1
:103CC00002305B020318652E672E0130682E00302B
:103CD000DE005B1C6C2E6D2E722E0430D70000307F
:103CE000D800742ED701D8015708DD005E08E13EE8
:103CF000860087010330D4005D0A7F2ED435890BFE
:103D00007E2E5408FF3A81055F080319882E892EFC
:103D1000962E5E08E13E860087010130D4005D0AE0
:103D2000922ED435890B912E540881046008031912
:103D30009A2E9B2EA82E5E08E13E86008701023057
:103D4000D4005D0AA42ED435890BA32E5408810417
:103D50005E080319AC2EAD2EB22E1530D9000030FE
:103D6000DA00B62E1430D9000030DA005908D60037
:103D70002030CF000030D0005608D1005E08E13E70
:103D8000860087010108D200A2314D229D31080032
:103D90004101B7003708A000A1010530A035A10DF1
:103DA000890BCE2E7030A2002E30A30020082207EF
:103DB000A4002108233DA5002408B8002508B90067
:103DC0003708873193279E314101A0003808013E12
:103DD000A1000030393DA20021088600220887009A
:103DE0002008810038088600390887004131010821
:103DF000031DFB2EFD2E87314B2F38088600390816
:103E0000870042310103031D062F072F142FE830CE
:103E1000A0000330A1003808860039088700593116
:103E20002008C03F2108C13F3808860039088700B4
:103E3000593116000104031D1E2F1F2FFB2E3808B9
:103E400086003908870001080319272F282FFB2E29
:103E50003808860039088700053001060319312F1C
:103E6000322FFB2E38088600390887000A300106F9
:103E700003193B2F3C2FFB2E38088600390887009A
:103E80000B3001060319452F462FFB2E38088600FC
:103E9000390887000C30010603194F2F502FFB2ED5
:103EA00038088600390887005B31010A0319592F49
:103EB0005B2F92319D2A38088600390887005B31D4
:103EC0000108B6003808860039088700043001066A
:103ED000031D6B2F6D2F9131F3294001D301410157
:103EE00036089A3169229E3105304001A000410117
:103EF0003608A23182229E31373E8600013087008B
:103F00000103031D842F852FBD2F03304001D300F3
:103F1000410136089D31D1259E31F4304101A00088
:103F20000130A1003608A200A3010530A235A30D7F
:103F3000890B962F8730A4002E30A5002208240775
:103F400086002308253D87002008C03F2108C13F87
:103F50003608A000A1010530A035A10D890BAC2FBA
:103F60007030A2002E30A30020082207860021080E
:103F7000233D87000C308100D12F41013608A0007D
:103F8000A1010530A035A10D890BC22F7030A20010
:103F90002E30A3002008220786002108233D870039
:103FA00081013608A000A1010530A035A10D890BC3
:103FB000D52F8B30A2002E30A300200822078600C8
:103FC0002108233D8700FF308100DE304001E10001
:103FD000A930E20041013708013E4001E300003012
:103FE00003180130E40041013608013E4001E500BC
:103FF000003003180130E600A2313D229E31592FD6
:1042AC00080040016F080800420120080800420184
:1042BC001D121D1608004201A00108300800A33190
:1042CC002D23A1310800A431E924A1310800883143
:1042DC000020A13108004201213543018C0003303C
:1042EC000800A1319C21A131F7007708080090311A
:1042FC000020A131F70077080800430111140230A7
:10430C004201AD00080050018C018D011312931273
:10431C0008000834FF34FF34FF34FF34FF34031437
:10432C004201210D43018C0004300800430111159A
:10433C00A2315E22A131003008007008031DA729AC
:10434C00A9290130AA290030080042012C0840019B
:10435C00A0004201AC0140012008080040016E0899
:10436C00031DB929BB290130BC29003008004001CC
:10437C0021084101D700400120084101D600080066
:10438C00400121084101D500400120084101D40021
:10439C000800603051018D008F01910106309300AF
:1043AC002030920008004E010C100B14003040011C
:1043BC00A0000030A100A131BD21A1310800640092
:1043CC00800101310130FE020030FF3B7F087E048A
:1043DC00031DE62900344101540855040319F7293B
:1043EC00F829FD2955088A0054080A00A1314E010C
:1043FC0090100800803043018F000830900091012C
:10440C0092014F308D004E011914991443019016EE
:10441C0008004001200821040319152A162A1D2A18
:10442C0021084101CF00400120084101CE000800C5
:10443C004001200821040319242A252A2C2A2108AA
:10444C004101CD00400120084101CC000800400191
:10445C00A200A131B421A231003A0319362A372A1D
:10446C002F2A40012208A331CD23A231080063304A
:10447C004001EB000030D900DA006208DC00610872
:10448C00DB006B30DD00A3314923A2310800400171
:10449C005008A8004F08A7005108A9005230AA00E4
:1044AC000130AB000030AC0098314C20A231080038
:1044BC004201A0010030A200FF30A100A301A40121
:1044CC00A701A801AD014E010F108F1043019013ED
:1044DC00101308004001AA1B742A752A762A812A17
:1044EC002909AB002A09AC00AB0A0319AC0A2B084A
:1044FC00A9002C08AA0008004001A200A101221C5E
:10450C00882A892A8B2A2008A1070310A00D0310E2
:10451C00A20C2208031D932A942A852A210808003C
:10452C000130450190008F019101F9308D008C0113
:10453C0002304101D4000030D5004E0190109A1485
:10454C00D03045018E000800B82A240884002508C4
:10455C0085000008A5312425A23101304001A407B3
:10456C000030A53D40012408840025088500120078
:10457C00031DC12AC22AAB2A0800A131CF21A231C6
:10458C0098310420A231A2310022A231A23196220C
:10459C00A231A431B224A231A1316D21A231A131B9
:1045AC008921A231A131D921A23108004001200872
:1045BC00A500250886008701A50A2208A400210869
:1045CC00A300A10A0319A20A230884002408850069
:1045DC000008C03F8908031DF42AF52ADF2A0800C9
:1045EC007108A03E86000230870001084001A1003E
:1045FC007108013E3F39A0002008F1004E019912CC
:10460C00700803190A2B0B2B0D2B0130F002991695
:10461C00400121080800403040016E020318172B9E
:10462C00182B2A2B7308203E8600023087000108C5
:10463C0042019A007308013E3F39F7007708F300F6
:10464C0001304001EE072C2B4E01191208000630E8
:10465C004201AD000330AC004E018F1042012D0819
:10466C00F800F901F835F90D00307807840028308E
:10467C00793D80388500013F8A00003F0A00A33154
:10468C004201AD00080040015C08E0005B08DF005F
:10469C005B2B5A08CA005908C9005F30CB005D0873
:1046AC00CC00CD019031A320A33140015F088400E0
:1046BC00600885001200031D642B652B4F2BD9015C
:1046CC00DA0108004001A401A501201C6E2B6F2B00
:1046DC00732B2208A4072308A53D0130A235A30D96
:1046EC00890B742B0130A136A00C890B792B200877
:1046FC002104031D822B832B6B2B2508A10024087E
:10470C00A000080040012108A6002008A5009C2B51
:10471C002608860087010108A4000130A607250899
:10472C0086008701240881000130A5070130A20210
:10473C000030A33B220A031DA72B230A031DA72B22
:10474C00A82B8E2B08004001B201B301C02B3108FD
:10475C00AF00B0012F08A3003008A4002E08A6005B
:10476C002D08A50088310320A33101304001B20788
:10477C000030B33D2C083207860001308700010859
:10478C00B1003108031DCB2BCC2BAD2B0800400105
:10479C00A1004E01191AD32BD42BD92B400121087F
:1047AC0042019A00F12B40016E080319DE2BDF2B1E
:1047BC00F12B7408203E860002308700210881000E
:1047CC007408013E3F39A0002008F4004E01191274
:1047DC0001304001EE024E01191608004201250875
:1047EC0026040319FA2BFB2B0E2C0130A5020030EA
:1047FC00A63B2308860024088700010843018C008F
:10480C0001304201A3070030A43D0330F7001D2CFA
:10481C002B080319122C132C192CAB0143019114E6
:10482C000130F7001D2CA1319C21A331F700770832
:10483C000800262C0130A0070130A1070030A23D52
:10484C00400121088400220885000008A3002008EC
:10485C0086000330870001082306031D362C372CF5
:10486C00402C20088600033087000108031D3F2CD4
:10487C00402C202C2008860003308700210884005F
:10488C002208850000080102A000A101031CA1035D
:10489C0008004001A501A1315A21A431003A031DA1
:1048AC00582C592C7D2C01304201A00040012108CC
:1048BC004201A200400120084201A100AB014001CD
:1048CC0022084201A300A401400124084201A600D1
:1048DC00400123084201A500A701A801A901AA01D2
:1048EC00AC01A1318321A43101304001A50040016C
:1048FC00250808000430F70043010F1C862C872C78
:10490C00AF2C420129082A0403198D2C8E2C9E2CC5
:10491C00270886002808870043010C088100013015
:10492C004201A7070030A83D0130A9020030AA3B84
:10493C0029082A040319A32CA42CA82C4301911296
:10494C001116B02C43019110911611160730F70077
:10495C00B02C9115770808004E019912983041013E
:10496C00D8002730D9004E01191211304101DA005C
:10497C002330DB00483042019F0090309D002630F0
:10498C009E0040309B0003309C0056304001A0003C
:10499C002130A100A2310F22A4315D304001A000D2
:1049AC002130A100A2311E22A4314201B001B1017B
:1049BC00F401F30140304001EE00F201F101F0018D
:1049CC004E01991608004E010F1043010F1EEF2CDB
:1049DC00F02CF42CA2315E22A4310F2D8F1AF72C5F
:1049EC00F82C022D111FFB2CFC2C022D0530420142
:1049FC00AD000130AC000F2D8F1E052D062D0F2D97
:104A0C00111F092D0A2D0F2D05304201AD0002306A
:104A1C00AC0042012D08F800F901F835F90D003011
:104A2C00780784002830793D80388500013F8A0062
:104A3C00003F0A00A5314201AD0008004001A10071
:104A4C008B131713A6300032890B292D003240012D
:104A5C00A201A3014001211C342D352D372D171730
:104A6C00382D1713A6300032890B392D0032031064
:104A7C004001A10C0130A2070030A33D2308803A6D
:104A8C00A00080302002031D4D2D08302202031C93
:104A9C00502D512D302D40011717A6300032890BA7
:104AAC00542D00328B17A6300032890B5A2D003250
:104ABC0008004001A801A1315A21A531003A031D7B
:104ACC00682D692D972D01304201A000400121086D
:104ADC004201A200400120084201A1000130AB00BC
:104AEC00400122084201A300A40140012408420114
:104AFC00A600400123084201A500400125084201FF
:104B0C00A700A801400127084201AA00400126087D
:104B1C004201A900AC01A1318321A5310130400132
:104B2C00A80040012808080040016D1C9E2D9F2DF7
:104B3C00A82D3608AC003508AE003408AD00A33102
:104B4C00A923A5314001B81FAC2DAD2DAF2DB70158
:104B5C00B801BA01BB01C32D20304001A3000030C5
:104B6C00A4003508A6003408A50088310320A5311F
:104B7C0001304001BA070030BB3D3B08803AB90018
:104B8C003808803A3902031DCD2D37083A02031C30
:104B9C00D02DD12DB22D40016D18D52DD62DDF2D58
:104BAC003608AC003508AE003408AD00A331A9239B
:104BBC00A531080001304001A3020030A43B230AB8
:104BCC00031DEC2D240A031DEC2DED2DFA2DA00157
:104BDC00A101302E0130A0070130A1070030A23D09
:104BEC000130A3020030A43B20088600033087006C
:104BFC0001080319022E032E222E210884002208FC
:104C0C008500120003190B2E0C2E222E23082404CF
:104C1C000319112E122E222E210884002208850041
:104C2C000008A5002008860003308700010825062F
:104C3C000319212E222EF02D200886000330870028
:104C4C00210884002208850000080102A000A101AF
:104C5C00031CA10308004001A801A61F362E372E05
:104C6C003E2EA509A609A50A0319A60A0130A8001B
:104C7C00A41F412E422E472EA309A409A30A0319EF
:104C8C00A40A2308240403194C2E4D2E742E013033
:104C9C00A700572E0130A335A40D890B512E0130DE
:104CAC00A707A41F5A2E5B2E502E24082602031D84
:104CBC00612E23082502031C642E652E692E230801
:104CCC00A5022408A63B0130A436A30C890B6A2E3E
:104CDC000130A702031D732E742E5B2E28080319B6
:104CEC00782E792E7E2EA509A609A50A0319A60AE7
:104CFC002608A4002508A30008004001A801A41F51
:104D0C00882E892E902EA309A409A30A0319A40A9C
:104D1C000130A800A61F932E942E9B2EA509A60940
:104D2C00A50A0319A60A0130A806A901AA0123089D
:104D3C0024040319A22EA32ED02E0130A700AD2ED1
:104D4C000130A335A40D890BA72E0130A707A41F92
:104D5C00B02EB12EA62E0130A935AA0D890BB22E7C
:104D6C0024082602031DBC2E23082502031CBF2E7B
:104D7C00C02EC52E2308A5022408A63B29140130F9
:104D8C00A436A30C890BC62E0130A702031DCF2E0F
:104D9C00D02EB12E28080319D42ED52EDA2EA9091F
:104DAC00AA09A90A0319AA0A2A08A4002908A30017
:104DBC0008004001AC01AD01260886008701403F88
:104DCC00A800413FA900280884002908850012008A
:104DDC002A3A031DF22EF32E222F26088600870175
:104DEC000130810741310318810A270886008701A9
:104DFC0001088400850102308107003FAC00013FAF
:104E0C00AD00362F2D08A1002C08A0000A30A200FE
:104E1C000030A300A3316823A63140012B082007E2
:104E2C00AC000030213DAD00260886008701013022
:104E3C00810741310318810A260886008701403F0B
:104E4C00A800413FA9002808840029088500000813
:104E5C00D03EAB000A302B02031C352F362F082F07
:104E6C002D08A7002C08A600080040012B08AF0055
:104E7C002A08A1002908A0002F30A2000130A300AD
:104E8C000030A4002C08A5002E08A7002D08A600B1
:104E9C00A5315F25A731003A031D552F562F572FEB
:104EAC00972FE8304001B0000330B1006D2F1A305D
:104EBC00890B5E2F003201304001B0020030B13B53
:104ECC0030083104031D6B2F6C2F6D2F972FA131E0
:104EDC005A21A731003A031D742F752F5D2FE8302E
:104EEC004001B0000330B1008B2F1A30890B7C2F9E
:104EFC00003201304001B0020030B13B30083104C7
:104F0C00031D892F8A2F8B2F972F430111198F2F58
:104F1C00902F7B2F8530890B912F0000A131AB2175
:104F2C00A73108007235703E860087012F30873D0F
:104F3C0072350030873D0030C03FC13F42019D1C9F
:104F4C00A82FA92FC52F7208F700F801F735F80D17
:104F5C007030F9002F30FA0077087907860078084E
:104F6C007A3D8700011541014C084D040319BF2FF0
:104F7C00C02FC52F4D088A004C080A00A7314201EA
:104F8C001D1DC92FCA2FE62F7208F700F801F7353F
:104F9C00F80D7030F9002F30FA0077087907860089
:104FAC0078087A3D8700811441014E084F0403199B
:104FBC00E02FE12FE62F4F088A004E080A00A73198
:104FCC0042011908FB007208013E3F39FC007C08C5
:104FDC007106031DF22FF32FF42FFF2F7208A03E42
:104FEC008600023087007B0881007C08F2000130CB
:104FFC00F0070800613421349534213471342134A4
:10500C00F434233480342434773421347D34213403
:10501C009C34213400341034203420342034203497
:10502C002034203420342034203420344534783457
:10503C0061346D3470346C3465343A342034533408
:10504C004234433454344C342034523445344C348C
:10505C0020343134203432342034203420342D3474
:10506C002034523465346C346534613473346534B3
:10507C0020343134203461346E346434203432348E
:10508C0020345334773469347434633468342E34B4
:10509C000D340A34003420342034203420342034AD
:1050AC002034203420342034203445347834613496
:1050BC006D3470346C3465343A34203453344234A7
:1050CC00433454344C34203443344F344E34203431
:1050DC003134203432342034203420342D342034F4
:1050EC0043346F346E346E3465346334743420342A
:1050FC003134203461346E3464342034323420340E
:10510C005334773469347434633468342E340D3446
:10511C000A34003450346F347234743420342534EF
:10512C0064343A342034483475346E346734203463
:10513C0075347034203464347534723469346E349C
:10514C0067342034743461346C346B342E34203432
:10515C0050346F3472347434203425346434203435
:10516C006934733420346E346F34773420344134E2
:10517C00553454344F34203441344E345334573432
:10518C00453452342E340D340A3400342034203457
:10519C002034203420342034203420342034203463
:1051AC004534783461346D3470346C3465343A344D
:1051BC00203453344234433454344C342034463445
:1051CC0055344C344C345F345234453453344534B8
:1051DC005434203420342D34203452346534733418
:1051EC006534743420345334773469347434633410
:1051FC00683462346F346134723464342E340D3458
:10520C000A34003420342034203420342034203428
:10521C0020342034203420345534733461346734D2
:10522C0065343A34203453344534543420344834BF
:10523C004C3420343C3470346F34723474343A341B
:10524C0031342D34253464343E3420343C346534CC
:10525C00783474343A34313430342D34393439347C
:10526C0020346F34723420344F34463446343E3458
:10527C000D340A34003450346F34723474342034A6
:10528C00253464343A342034483475346E346734FD
:10529C002034753470342034643475347234693489
:1052AC006E3467342034743461346C346B342E3483
:1052BC00203450346F3472347434203425346434D4
:1052CC0020346934733420346E346F3477342034A2
:1052DC0042345534533459342E340D340A3400349A
:1052EC0053344134563445345F3454344F345F3482
:1052FC0045344534503452344F344D3420343A34E0
:10530C00203453346134763465342034633475344A
:10531C007234723465346E347434203473346534BE
:10532C007434743469346E346734733420347434A4
:10533C006F34203445344534503452344F344D346A
:10534C002E340D340A340034533442344334543440
:10535C004C342034203420343A3420344D346134ED
:10536C006E34753461346C346C34793420344F348D
:10537C004E342F344F34463446342F34463455345F
:10538C004C344C345F3452344534533445345434F7
:10539C00203453347734693474346334683462346D
:1053AC006F346134723464342E340D340A34003466
:1053BC0050346F34723474342034253464343A34B9
:1053CC002034433461346C346C346534723420349E
:1053DC00613462346F3472347434653464342E3412
:1053EC00203450346F3472347434203425346434A3
:1053FC002034733474346F347034703465346434E2
:10540C002034723469346E34673469346E346734E2
:10541C002E340D340A34003450346F3472347434F6
:10542C002034253464343A3420344F3466346634B2
:10543C002D3448346F346F346B3420342D343E3477
:10544C00203448344F3454344C3449344E3445347D
:10545C00203474346F34203445347834743420342C
:10546C002534643420342D343E34203452344F34BB
:10547C005534543449344E3447340D340A340034E2
:10548C002034203420342034203420342034203470
:10549C0020342034553473346134673465343A34F1
:1054AC002034533445345434203445345834543433
:1054BC0020343C3470346F34723474343A343134B4
:1054CC002D34253464343E3420343C346534783403
:1054DC0074343A34313430342D34393439343E3434
:1054EC000D340A3400342034203420342034203459
:1054FC002034203420342034203455347334613437
:10550C006734653420343A342034533442344334D1
:10551C0054344C34203443344F344E342F345234BE
:10552C0045344C3420343C3470346F34723474341D
:10553C0031343E3420343C3470346F34723474342F
:10554C0032343E340D340A34003450346F347234F7
:10555C0074342034253464343A3420345034723466
:10556C006534663469347834203464346934613495
:10557C006C346534643420342D343E34203445345A
:10558C0078347434653472346E3461346C34203451
:10559C00493450342034433461346C346C3420340A
:1055AC004D346F34643465340D340A340034533460
:1055BC0045345434203445345834543420343A343B
:1055CC002034533465347434203465347834743472
:1055DC0065346E34733469346F346E3428346E34FD
:1055EC0075346D3462346534723429342034663445
:1055FC006F3472342034653461346334683420344D
:10560C0070346F34723474342E340D340A340034E4
:10561C0020342034203420342034203420342034DE
:10562C0020342034553473346134673465343A345F
:10563C0020345334453454342034413441342034F0
:10564C0020343C3470346F34723474343A34313422
:10565C002D34253464343E3420343C344F344E34B1
:10566C002F344F34463446343E340D340A3400342F
:10567C0050346F34723474342034253464343A34F6
:10568C00203449346E34763461346C346934643487
:10569C0020346E3475346D34623465347234203495
:1056AC006F347234203449345034203455346E34D1
:1056BC006934743420342534643420342D343E342D
:1056CC00203442345534533459340D340A340034B4
:1056DC0050346F34723474342034253464343A3496
:1056EC00203452346F347534743469346E34673406
:1056FC00203474346F3420344934503420345534CD
:10570C006E34693474342034283450346F34723429
:10571C00743420342534643429342E3420344E34FB
:10572C0075346D346234653472343A342034003458
:10573C0020342034203420342034203420342034BD
:10574C0020342034553473346134673465343A343E
:10575C002034533445345434203454345934503474
:10576C00453420343C3470346F34723474343E34E9
:10577C0020343C3453344C34493443342F3449347E
:10578C0050343E340D340A34003450346F34723497
:10579C00743420342534643420342834493450345F
:1057AC00203455346E346934743429343A3420340A
:1057BC00533465346E34643469346E346734203455
:1057CC006434693467346934743420345B3425347C
:1057DC0064345D3420342E342E342E340D340A349B
:1057EC000034533475346334633465347334733434
:1057FC003A34203450346F347234743420342534B9
:10580C006434203473347434613474346534203427
:10581C00733465347434203474346F34203441342C
:10582C00553454344F34203441344E34533457347B
:10583C00453452340D340A340034553473346134E5
:10584C00673465343A34203453344534543420347A
:10585C00543459345034453420343C3470346F341F
:10586C00723474343A3431342D34253464343E3447
:10587C0020343C3453344C344934433420346F3466
:10588C0072342034493450343E340D340A340034EC
:10589C0050346F34723474342034253464343A34D4
:1058AC002034433461346C346C34653464342034C7
:1058BC0050346F34723474342034253464342034CE
:1058CC002D343E3420344134553454344F34203448
:1058DC0041344E3453345734453452346534643483
:1058EC000D340A3400345534733461346734653400
:1058FC003A34203453344234433454344C3420340A
:10590C00523445344C3420343C346C3469346E3469
:10591C00653431343E3420343C346C3469346E3468
:10592C00653432343E342034283431342D3425342B
:10593C00643429340D340A340034553473346134EE
:10594C00673465343A342034533442344334543459
:10595C004C34203443344F344E3420343C346C3487
:10596C0069346E34653431343E3420343C346C3418
:10597C0069346E34653432343E3420342834313456
:10598C002D342534643429340D340A340034533422
:10599C0045345434203441344134203420343A34A6
:1059AC002034533465347434203470346F3472348E
:1059BC007434203474346F342034413455345434BA
:1059CC004F34203441344E345334573445345234EC
:1059DC0020346D346F34643465342E340D340A3411
:1059EC00003444344F345F34463455344C344C34E6
:1059FC005F345234453453344534543420342034D9
:105A0C003A3420345234653473346534743420346D
:105A1C0050344234583443346F3472346534203447
:105A2C00703472346F346734723461346D342E34A4
:105A3C000D340A34003445347834653463347534A9
:105A4C007434653464343A342034533477346934E0
:105A5C0074346334683443346F346E347434723455
:105A6C006F346C342834663461346C34733465347C
:105A7C002C342034253464342C34203425346434D0
:105A8C0029340D340A3400345034423458344334FD
:105A9C006F34723465343A3420344C346F3461349E
:105AAC00643469346E34673420347334653474343C
:105ABC00743469346E34673473342034663472341D
:105ACC006F346D34203445344534503452344F34B3
:105ADC004D342E340D340A3400345334753463345D
:105AEC0063346534733473343A34203450346F3443
:105AFC0072347434203425346434203468346F3474
:105B0C0074346C3469346E346534203473346534D5
:105B1C007434203474346F34203445347834743411
:105B2C002034253464340D340A340034453478344C
:105B3C006534633475347434653464343A342034E5
:105B4C0053347734693474346334683443346F3485
:105B5C006E34743472346F346C342834743472345C
:105B6C00753465342C342034253464342C3420348E
:105B7C002534643429340D340A34003453347534E8
:105B8C00633463346534733473343A3420344534B9
:105B9C0078347434653472346E3461346C3420343B
:105BAC005034723465346634693478342034733448
:105BBC0065347434203474346F34203427342534F1
:105BCC00643427340D340A34003450346F34723456
:105BDC0074342034253464343A34203441346E34F3
:105BEC00733477346534723465346434203450340F
:105BFC006F347234743420342534643420342D34AE
:105C0C003E342034543441344C344B3449344E34C7
:105C1C0047340D340A34003450346F3472347434D5
:105C2C002034253464343A3420344934503420340C
:105C3C0055346E3469347434203461346E347334B6
:105C4C007734653472346534643420342D343E3406
:105C5C002034543441344C344B3449344E3447346E
:105C6C000D340A34003450346F34723474342034AC
:105C7C00253464343A3420344434693461346C341B
:105C8C0069346E346734203463346F346D3470345B
:105C9C006C3465347434653420342D343E34203403
:105CAC0052344F345534543449344E3447340D3413
:105CBC000A340034533475346334633465347334C8
:105CCC0073343A34203450346F3472347434203496
:105CDC0025346434203465347834743465346E344B
:105CEC00733469346F346E342034733465347434E3
:105CFC00203474346F342034253464340D340A3435
:105D0C00003453347534633463346534733473340E
:105D1C003A34203450346F34723474342034253493
:105D2C0064342034743479347034653420347334EE
:105D3C0065347434203474346F3420344934503422
:105D4C00203455346E34693474340D340A340034D0
:105D5C0050346F34723474342034253464343A340F
:105D6C0020344434693461346C3469346E346734AF
:105D7C002034733474346134723474346534643460
