:0400000080315228D1
:1000060008007E14803100308600003087000B1F08
:100016000D280E2850284E01191E122813281E28B6
:100026000F1E162817281E28410163088A00620839
:100036000A0080315028991E212822282D288F1E3B
:10004600252826282D28410161088A0060080A0013
:1000560080315028991C3028312839288F1C3428A3
:1000660035283928AE31942680315028191C3C2871
:100076003D2845280F1C402841284528AE319826A2
:10008600803150289A1C482849285028901C4C2812
:100096004D285028AF31152780317E100900803158
:1000A6005428BE308400AE30850041011200EA00BB
:1000B6001200EB001200EC001200ED001200EE0040
:1000C6001200EF004201983100208031E80098319B
:1000D60001208031E900983102208031EA00983110
:1000E60003208031EB00003084002F308500F03093
:1000F600FE000030FF00A73161278031FD0140017D
:10010600ED01EE01EF01C630840000308500243099
:10011600FE000030FF00A7316127803120308400C7
:10012600013085004830FE000030FF00A73161270E
:100136008031A0308400013085004030FE00003060
:10014600FF00A7316127803120308400023085000E
:100156004030FE000030FF00A73161278031A0301B
:100166008400023085004030FE000030FF00A731D9
:10017600612780317E1040019331B22B40016C081B
:100186008600023087000108031DCA28CB28CC2828
:100196003D2FBB30E100B130E200AF316127803145
:1001A60040016C08A000D230A100B130A200983105
:1001B600BF208031400120082104031DE328E428E4
:1001C600322A2130E100A930E200AF3161278031C7
:1001D6004101B601232A3608A000A10120084001EA
:1001E600A000410121084001A1000E30A20000300C
:1001F600A30098310420803180304101A2002F30C5
:10020600A300400120084101220786004001210881
:100216004101233D870001089C31A724803140011C
:1002260027084101AB00400126084101AA00003021
:100236004001E100B030E20041013608013E4001D4
:10024600E300003003180130E40041013608A00045
:100256000230A035890B2C292008483E8600013043
:1002660087000108A100A20121084001E500410123
:1002760022084001E60041012B084001E800410147
:100286002A084001E700AF31612780314101360875
:10029600A000A10120084001A00041012108400161
:1002A600A1000E30A2000030A30098310420803156
:1002B6008D304101A2002F30A300400120084101EA
:1002C60022078600400121084101233D8700010ADB
:1002D60003196E296F29AA293608A000A101200852
:1002E6004001A000410121084001A1000E30A200FA
:1002F6000030A3009831042080318D304101A200E6
:100306002F30A3004001200841012207860040014A
:1003160021084101233D87000108013EA400003069
:1003260003180130A5002408AA002508AB00963062
:100336004001E100B030E20041012B084001E40039
:1003460041012A084001E300AF31612780314101B4
:100356003608A000A10120084001A00041012108A3
:100366004001A1000E30A2000030A3009831042005
:10037600803181304101A2002F30A30040012008C6
:10038600410122078600400121084101233D8700E3
:100396000108031DCF29D029D529B330A800B130D3
:1003A600A900D929A630A800B130A9000C30400117
:1003B600E100B130E200410129084001E4004101B9
:1003C60028084001E300AF3161278031410136083A
:1003D600A0000230A035890BED2920084A3E860090
:1003E60001308700010A0319F929FA29182ABA30B7
:1003F6004001E100B030E20041013608A0000230C1
:10040600A035890B032A20084A3E86000130870062
:100416000108A100A20121084001E30041012208D0
:100426004001E400AF3161278031BB304001E1007B
:10043600B130E200AF316127803101304101B607AA
:100446006A083602031C282A292AEE283B30400176
:10045600E100A930E200AF31612780313D2F6C0801
:10046600A0002130A100B130A2000830A300003066
:10047600A4009A3191228031400120082104031DF5
:10048600452A462AD12A6C08083E86000230870093
:100496000108CF3E4101AE006A082E020318542A15
:1004A600552AB52A40016C08093E860002308700AD
:1004B60020300106031D602A612AB52A6C080A3E0F
:1004C60086000230870030300102031C6B2A6C2A3A
:1004D600B52A6C080A3E8600023087003A300102CF
:1004E6000318762A772AB52A6C080B3E8600023056
:1004F60087000A30A0006C080A3E8400023085009E
:100506000008AF31A62780310107F03E4101AC005B
:100516002E08A0000230A035890B8E2A2008483EFE
:100526008600013087002C088100D5304001E100AB
:10053600A430E20041012E08013E4001E3000030F4
:1005460003180130E40041012C08A000A101200895
:100556004001E500410121084001E600AF31612775
:1005660080313D2F55304001E100A930E200AF3126
:100576006127803150304001E100A230E2004101A4
:100586006A08A000A10120084001E30041012108FA
:100596004001E400AF31612780313D2F6C08A00097
:1005A6003330A100B130A2000730A3000030A40010
:1005B6009A3191228031400120082104031DE42A4A
:1005C600E52ACD2B6C08073E86000230870001081D
:1005D600CF3E4101B500AF0140016C08093EA000C5
:1005E600F330A100B130A2000230A3000030A40015
:1005F6009A3191228031400120082104031D042BE9
:10060600052B092B02304101AF00212B6C08093E56
:10061600A000E030A100B130A2000330A3000030FA
:10062600A4009A3191228031400120082104031D43
:100636001D2B1E2B212B01304101AF0041016A0801
:1006460035020318272B282BB12B2F0803192C2B27
:100656002D2BB12B2F03031D312B322B652B350888
:10066600A000A10120084001A0004101210840018D
:10067600A1000E30A2000030A30098310420803182
:1006860080304101A2002F30A30040012008410123
:1006960022078600400121084101233D8700810190
:1006A600B8304001E100A530E20041013508013EC5
:1006B6004001E300003003180130E400AF31612748
:1006C60080313D2F02302F06031D6A2B6B2B9F2B8B
:1006D6003508A000A10120084001A0004101210821
:1006E6004001A1000E30A2000030A3009831042082
:1006F600803180304101A2002F30A3004001200844
:10070600410122078600400121084101233D87005F
:10071600093081000C304001E100A330E2004101C4
:100726003508013E4001E300003003180130E400C3
:10073600AF31612780313D2F93304001E100A83071
:10074600E20041013508013E4001E3000030031894
:100756000130E400AF31612780313D2F5530400133
:10076600E100A930E200AF316127803193304001CA
:10077600E100A530E20041016A08A000A1012008BD
:100786004001E300410121084001E400AF31612747
:1007960080313D2F6C08A000DA30A100B030A200F5
:1007A6009831BF208031400120082104031DDC2B35
:1007B600DD2BF22B1830E100B030E200AF316127BB
:1007C600803129304101A1009630A0007F30890B8D
:1007D600EA2BA00BEA2BA10BEA2B01003D2F6C089C
:1007E600A0009F30A100B130A2000630A300003067
:1007F600A4009A3191228031400120082104031D72
:10080600052C062C912D6C08063EA000C330A100D5
:10081600B130A2000430A3000030A4009A31912226
:100826008031400120082104031D1A2C1B2CB32CF7
:100836006C080A3E8600023087000108D03E41015E
:10084600B00040016C080C3E8600023087000108AB
:10085600D03E4101B10040016C080B3E86000230DB
:10086600870020300106031D392C3A2C982C1E30A7
:10087600E100A830E20041013008A000A1012008F3
:100886004001E300410121084001E4004101310833
:10089600A200A30122084001E5004101230840010E
:1008A600E60041013108A400A50124084001E70043
:1008B600410125084001E80041013008A600A701D2
:1008C60026084001E900410127084001EA00AF314E
:1008D60061278031410130084001A80041013108FB
:1008E6004001A900013087313E2780318630400122
:1008F600E100A430E20041013008A000A101200877
:100906004001E300410121084001E40041013108B2
:10091600A200A30122084001E5004101230840018D
:10092600E600AF31612780313D2FE930E100A83084
:10093600E200AF31612780318D304001E100A33004
:10094600E20041016A08A000A10120084001E3007D
:10095600410121084001E400AF31612780313D2F7C
:100966006C08063EA000BE30A100B130A2000430E3
:10097600A3000030A4009A31912280314001200862
:100986002104031DC72CC82C602D6C080A3E860066
:10099600023087000108D03E4101B20040016C08D8
:1009A6000C3E8600023087000108D03E4101B300AC
:1009B60040016C080B3E860002308700203001069D
:1009C600031DE62CE72C452D0030E100A830E2009F
:1009D60041013208A000A10120084001E3004101C5
:1009E60021084001E40041013308A200A3012208C6
:1009F6004001E500410123084001E60041013308BA
:100A0600A400A50124084001E70041012508400192
:100A1600E80041013208A600A70126084001E900C6
:100A2600410127084001EA00AF31612780314101C9
:100A360032084001A800410133084001A9000030F6
:100A460087313E2780310B304001E100A430E200BF
:100A560041013208A000A10120084001E300410144
:100A660021084001E40041013308A200A301220845
:100A76004001E500410123084001E600AF3161274E
:100A860080313D2FE930E100A830E200AF31612727
:100A9600803163304001E100A330E20041016A0881
:100AA600A000A10120084001E30041012108400106
:100AB600E400AF31612780313D2F6C08063EA0006F
:100AC600DD30A100B030A2009831BF208031400156
:100AD60020082104031D702D712D812D9830A4004E
:100AE600B130A500AF31CE278031D9304001E100C9
:100AF600A630E200AF31612780313D2F9330E1000F
:100B0600A630E200AF3161278031FC304001E100C0
:100B1600A630E200AF31612780313D2F6C08A0007E
:100B26003B30A100B130A2000730A3000030A40082
:100B36009A3191228031400120082104031DA42D01
:100B4600A52D5D2E6C08073E860002308700010841
:100B5600CF3E4101B4006A0834020318B32DB42D08
:100B6600492E40016C08083E86000230870020307E
:100B76000106031DBF2DC02D492E6C08093EA0009D
:100B8600E030A100B130A2000330A3000030A40081
:100B96009A3191228031400120082104031DD42D71
:100BA600D52DF52D41013408A0000230A035890B62
:100BB600D92D20084A3E860001308700FF3081008B
:100BC6004B304001E100A630E20041013408013E0D
:100BD6004001E300003003180130E400AF31612723
:100BE60080313D2F6C08093E860002308700303088
:100BF6000102031CFF2D002E3D2F6C08093E8600C6
:100C0600023087003A30010203180A2E0B2E3D2FC0
:100C16006C080A3E8600023087000A30A0006C0885
:100C2600093E8400023085000008AF31A6278031D6
:100C36000107F03E4101AD003408A0000230A035A6
:100C4600890B222E20084A3E8600013087002D0897
:100C560081005D304001E100A430E200410134082A
:100C6600013E4001E300003003180130E400410179
:100C76002D08A000A10120084001E500410121083E
:100C86004001E600AF31612780313D2F123040012F
:100C9600E100A130E20041016A08A000A10120089C
:100CA6004001E300410121084001E400AF31612722
:100CB60080313D2F6C08A000CB30A100B030A200DF
:100CC6009831BF208031400120082104031D6C2E7D
:100CD6006D2E792E9D31742580316E304001E100F4
:100CE600A530E200AF31612780313D2F6C08A000AE
:100CF600CD30A100B130A2009831BF208031400133
:100D060020082104031D882E892E322FA930E100E8
:100D1600B030E200AF316127803127304001E10079
:100D2600A630E200AF3161278031AB304001E100EF
:100D3600A230E200AF316127803146304001E10048
:100D4600A230E20041016A08A000A101200840018A
:100D5600E300410121084001E400AF316127803101
:100D6600B7304001E100A330E200AF3161278031A6
:100D7600DC304001E100A230E20041016A08A00037
:100D8600A10120084001E300410121084001E400DF
:100D9600AF31612780316F304001E100A630E200BB
:100DA600AF316127803108304001E100A130E20017
:100DB60041016A08A000A10120084001E3004101A9
:100DC60021084001E400AF3161278031AA3040019B
:100DD600E100A130E200AF31612780317930400176
:100DE600E100A230E200AF3161278031513040018D
:100DF600E100A030E200AF316127803112304001BE
:100E0600E100A030E200AF3161278031CC304001F3
:100E1600E100A030E200AF3161278031BB304001F4
:100E2600E100B130E200AF31612780317630400118
:100E3600E100A130E200AF3161278031E1304001AD
:100E4600E100A330E200AF31612780314430400138
:100E5600E100A930E200AF31612780313D2F2F300C
:100E6600E100B030E2006C08E3000230E400AF318C
:100E76006127803108004001AC002C03031D442F7C
:100E8600452F482F4330AD004A2F5230AD000D306C
:100E9600B200B3010A30A0000030A1002808AA0061
:100EA600AB012A08A2002B08A3009B31342387310B
:100EB60040012008303EAE000A30A0000030A100FC
:100EC6002808AA00AB012A08A2002B08A3009A3121
:100ED600E222873140012008303EAF000A30A000F0
:100EE6000030A1002908AA00AB012A08A2002B089D
:100EF600A3009B313423873140012008303EB000E7
:100F06000A30A0000030A1002908AA00AB012A0877
:100F1600A2002B08A3009A31E22287314001200863
:100F2600303EB1002D30A4000030A500AF31CE27F1
:100F360087310B304001AA006230890BA02FAA0B23
:100F4600A02F00000A304001A0000030A1002908AF
:100F5600AA00AB012A08A2002B08A3009B31342368
:100F6600873140012008303EAE000A30A000003034
:100F7600A1002908AA00AB012A08A2002B08A30099
:100F86009A31E222873140012008303EAF000A3014
:100F9600A0000030A1002808AA00AB012A08A20080
:100FA6002B08A3009B313423873140012008303EB3
:100FB600B0000A30A0000030A1002808AA00AB014A
:100FC6002A08A2002B08A3009A31E22287314001A9
:100FD6002008303EB1002D30A4000030A500AF310E
:100FE600CE2787310B304001AA006230890BF92FDA
:0A0FF600AA0BF92F00000800080004
:101002004301901290164101C601003008004001D0
:10101200A801AE3186268831003A031D1128122814
:10102200402801304101C600400121084101C800A9
:10103200400120084101C7000130D10040012208CF
:101042004101C900CA01400124084101CC0040010C
:1010520023084101CB00400125084101CD00CE010A
:10106200400127084101D000400126084101CF007C
:10107200D201AE31B226883101304001A8004001D0
:101082002808080040014B0886008701403FCE0037
:10109200413FCF004E0884004F0885001200253AD8
:1010A200031D542855287A294B08860087010130F0
:1010B200810741310318810A4101D401D501003071
:1010C200E400FF304201A000FF30A1004001D8013E
:1010D2008F284101641440014B08860087010130CA
:1010E200810741310318810A8F284101E4146C28D9
:1010F2000130D8008F284B0886008701403FCE0080
:10110200413FCF004E0884004F08850000082D3A69
:1011120003196A281D3A03197628792858080319F1
:10112200932894287C284101641C982899289B289C
:10113200FD30E40540014B08A6004C08A7009B3196
:1011420090238831400127084101D500400126083B
:101152004101D400D51FAE28AF28B5286414D409A4
:10116200D509D40A0319D50A40014B088600870124
:10117200403FD600413FD7005608840057088500FB
:101182001200643A0319C628C728D12856088400D9
:10119200570885001200693A031DD028D128F72884
:1011A2004C0886004D088700010884008501023042
:1011B2008107003FD200013FD3005608013ECE0016
:1011C2000030573DCF004B08860087014E08C03FD4
:1011D2004F08C13F4A08BD004908BC005308BF0080
:1011E2005208BE009131452188319429D8014B081B
:1011F20086008701403FCE00413FCF004E08840069
:101202004F0885001200733A031D08290929142981
:101212004B08860087010130810741310318810A9A
:101222000130D80056294B0886008701403FCE0086
:10123200413FCF004E0884004F08850012006C3AEF
:10124200031D2429252956294B0886008701403F82
:10125200CE00413FCF0001304E0784004F080318F3
:10126200013E850012006C3A031D3829392956299E
:101272004B0886008701403FCE00413FCF0002303D
:101282004E0784004F080318013E85001200733A8E
:10129200031D4C294D2956294B088600870103302E
:1012A200810741310318810A1129580803195A2963
:1012B2005B2970294A08AD004908AC004C08860039
:1012C2004D08870001088400850102308107003F34
:1012D200AE00013FAF009F31612788319429400160
:1012E2004B08860087010130810741310318810ACA
:1012F20094294B0886008701403FCE00413FCF0032
:101302004E0884004F0885000008D000D101500823
:10131200A3005108A4004A08A6004908A5009C3170
:1013220049248831702908004101AF002F08A0002C
:10133200A10120084001A000410121084001A100B3
:101342000E30A2000030A300983104208931803091
:101352004101A2002F30A3004001200841012207D1
:10136200A400400121084101233DA5002408B0004A
:101372002508B1002F089D31DF2589314101A000E8
:101382003008013EA1000030313DA2002108860054
:101392002208870020088100300886003108870073
:1013A20041310108031DD629D729C52F30088600EF
:1013B2003108870042310103031DE029E129EE29AA
:1013C200E830A0000330A100300886003108870011
:1013D2004B312008C03F2108C13F30088600310848
:1013E20087004B3116000104031DF829F929C52F86
:1013F200300886003108870001080319012A022AF1
:10140200C52F300886003108870005300106031910
:101412000B2A0C2AC52F30088600310887004D316F
:10142200010A0319152A162A6F2B30088600310883
:1014320087004D310108AD00300886003108870071
:1014420004300106031D262A272A8D2A4001D301D2
:1014520041012D089E31C526893141012D08A00088
:10146200A10120084001A000410121084001A10082
:101472000E30A2000030A300983104208931803060
:101482004101A2002F30A3004001200841012207A0
:101492008600400121084101233D870081012D087A
:1014A200A000A10120084001A00041012108400143
:1014B200A1000E30A2000030A3009831042089312F
:1014C2008D304101A2002F30A300400120084101CC
:1014D20022078600400121084101233D8700FF3099
:1014E2008100DE304001E100A130E20041012F081D
:1014F200013E4001E300003003180130E4004101E5
:101502002D08013E4001E500003003180130E600DD
:10151200AF31612789316F2B30088600310887008F
:1015220006300106031D962A972A6F2B2F08013ECB
:101532004001A80041012D08013E4001A9000030F0
:1015420087313E27893141012D08A000A1012008E1
:101552004001A000410121084001A1000E30A2007B
:101562000030A30098310420893180304101A2006B
:101572002F30A300400120084101220786004001CC
:1015820021084101233D8700093001060319CA2AB7
:10159200CB2A332B03304001D30041012D08923175
:1015A200B922893141012D08A000A1012008400182
:1015B200A000410121084001A1000E30A20000302C
:1015C200A30098310420893180304101A2002F30DC
:1015D200A3004001200841012207860040012108A2
:1015E2004101233D8700073081002D08A000A101A1
:1015F20020084001A000410121084001A1000E3055
:10160200A2000030A3009831042089318D304101BD
:10161200A2002F30A30040012008410122078600CA
:10162200400121084101233D8700FF308100413004
:101632004001E100A130E20041012F08013E4001DA
:10164200E300003003180130E40041012D08013E9F
:101652004001E500003003180130E600AF31612798
:1016620089316F2B2D08A000A10120084001A000A4
:10167200410121084001A1000E30A2000030A30068
:101682009831042089318D304101A2002F30A3000E
:101692004001200841012207860040012108410142
:1016A200233D8700FF30810090304001E100A030EF
:1016B200E20041012F08013E4001E300003003181F
:1016C2000130E40041012D08013E4001E5000030F7
:1016D20003180130E600AF31612789314001D3019F
:1016E20041012F089231B92289314001D3014101D0
:1016F2002F089E31C5268931410130088600310804
:101702008700093001060319872B882BC52F300863
:101712008600310887008101300886003108870081
:101722004D31FF30810005304001E100A930E20077
:1017320041012F08013E4001E3000030031801304F
:10174200E400AF3161278931C52F300886003108A6
:10175200870042310108031DAF2BB02BF22F300856
:1017620086003108870041310103031DB92BBA2BD2
:10177200F22F2F08A0000230A035890BBD2B2008C4
:101782004A3E860001308700010A0319C92BCA2B81
:101792004D2C300886003108870045310A3040015F
:1017A200A0000030A10041012F08A0000230A035A6
:1017B200890BD82B20084A3E84000130850000089E
:1017C200A100A20121084001A2004101220840011A
:1017D200A3009B313423893140012008810041015B
:1017E200300886003108870046310A304001A000E7
:1017F2000030A10041012F08A0000230A035890B62
:10180200FF2B20084A3E8400013085000008A10019
:10181200A20121084001A200410122084001A300C7
:101822009A31E222893140012008810041013008C9
:10183200860031088700443102308100300886007A
:10184200310887000330810012304001E100A230EC
:10185200E20041012F08013E4001E300003003187D
:101862000130E40041012F08A0000230A035890BAD
:10187200372C20084A3E8600013087000108A1006B
:10188200A20121084001E500410122084001E600D1
:10189200AF3161278931F22F4001D301D30A4101CF
:1018A2002F089231B922893141013008860031086E
:1018B20087004331810130088600310887004431B6
:1018C20081013008860031088700013081003F30F5
:1018D2004001E100A730E20041012F08013E400132
:1018E200E300003003180130E400AF316127893191
:1018F200F22F300886003108870042310103031DB0
:10190200832C842CF22F3008860031088700413165
:101912000108031D8D2C8E2CF22F4001D3014101B1
:101922002F089231B92289314101300886003108ED
:1019320087004331013081005830A0000230A100FD
:10194200300886003108870047312008C03F21084F
:10195200C13F300886003108870002308100FC3028
:101962004001E100A430E20041012F08013E4001A4
:10197200E300003003180130E400AF316127893100
:10198200F22F300886003108870042310103031D1F
:10199200CB2CCC2CEA2C3008860031088700413150
:1019A2000108031DD52CD62CEA2C300886003108FC
:1019B20087004331013081075830A0000230A10076
:1019C200300886003108870047312008C03F2108CF
:1019D200C13F300886003108870041310103031DF1
:1019E200F32CF42CF22F300886003108870047319F
:1019F20016000104031DFE2CFF2CF22F3008860076
:101A020031088700433101080319082D092DF22FEF
:101A1200300886003108870043310A300106031975
:101A2200132D142D212D30088600310887004331F3
:101A32000108A000A1012008A6002108A700232D6B
:101A4200A601A7012608A9003008860031088700F0
:101A5200443101083007A0000030313DA1002008C8
:101A62008600210887004531290881003008860058
:101A7200310887004431013081073008860031087F
:101A820087004331810176304001E100A830E20055
:101A920041012F08013E4001E300003003180130EC
:101AA200E40041012908A000A10120084001E5004D
:101AB200410121084001E600AF316127893141012E
:101AC2003008860031088700443102300102031CCD
:101AD2006B2D6C2DF22F3008860031088700033001
:101AE200810048304001E100A530E20041012F08A9
:101AF200013E4001E300003003180130E400AF3141
:101B020061278931F22F300886003108870046317B
:101B12000A304001A00041013008840031088500EC
:101B220005310008AF31A627893101074101AA001A
:101B3200FF30AE00AB01B32D2B08A0000230A03560
:101B4200890BA02D2008483E86000130870001083D
:101B52002A06031DAD2DAE2DB12D2B08AE00B92DD9
:101B62000130AB076A082B02031CB82DB92D9D2D3D
:101B72002E0A0319BD2DBE2DC42D2E082F06031DBE
:101B8200C32DC42DF02D03304001D30041012F0895
:101B92009231B9228931410130088600310887002B
:101BA20007308100DD304001E100A530E200410153
:101BB2002F08013E4001E300003003180130E40029
:101BC20041012A08A000A10120084001E5004101CD
:101BD20021084001E600AF3161278931F22F2E083A
:101BE200A000A10120084001A000410121084001FC
:101BF200A1000E30A2000030A300983104208931E8
:101C020080304101A2002F30A30040012008410191
:101C120022078600400121084101233D8700010877
:101C2200031D142E152E932E3008860031088700CE
:101C32004D312E0881002E08A000A101200840018C
:101C4200A000410121084001A1000E30A200003095
:101C5200A3009831042089318D304101A2002F3038
:101C6200A30040012008410122078600400121080B
:101C72004101233D87002F08810002304001D3003B
:101C820041012F089231B922893141013008860081
:101C920031088700043081004001D301D30A410199
:101CA2002E089E31C526893141012E08A000A101CE
:101CB20020084001A000410121084001A1000E308E
:101CC200A2000030A3009831042089318030410104
:101CD200A2002F30A3004001200841012207860004
:101CE200400121084101233D870005308100223057
:101CF2004001E100A530E20041012F08013E400110
:101D0200E300003003180130E40041012E08013ED7
:101D12004001E500003003180130E600AF316127D1
:101D22008931F22F2E08A000A10120084001A00055
:101D3200410121084001A1000E30A2000030A300A1
:101D420098310420893180304101A2002F30A30054
:101D5200400120084101220786004001210841017B
:101D6200233D870009300106031DB82EB92E1F2F0F
:101D720030088600310887004D312E0881002E0878
:101D8200A000A10120084001A0004101210840015A
:101D9200A1000E30A2000030A30098310420893146
:101DA2008D304101A2002F30A300400120084101E3
:101DB20022078600400121084101233D87002F08A8
:101DC20081004001D30141012F089231B9228931AA
:101DD2004101300886003108870006308100300852
:101DE2008600310887004D310108A8002F08013E06
:101DF2004001A80041012808013E4001A90001302C
:101E020087313E27893138304001E100A330E200BA
:101E120041012F08013E4001E30000300318013068
:101E2200E40041012E08013E4001E50000300318A4
:101E32000130E600AF3161278931F22F03304001D2
:101E4200D30041012F089231B92289314101300872
:101E520086003108870007308100B6304001E1007A
:101E6200A630E20041012F08013E4001E3000030AC
:101E720003180130E40041012E08013E4001E50053
:101E8200003003180130E600AF3161278931F22FAB
:101E9200300886003108870042310108031D522FA5
:101EA200532FF22F30088600310887004131010399
:101EB200031D5C2F5D2FF22F4001D30141012F083A
:101EC2009E31C526893141013008860031088700DC
:101ED2004D310108AC004001D30141012C0892317F
:101EE200B922893141012F08013E4001A800410178
:101EF2002C08013E4001A900013087313E2789317B
:101F020041013008860031088700063081002C0824
:101F1200A000A10120084001A000410121084001C8
:101F2200A1000E30A2000030A300983104208931B4
:101F320080304101A2002F30A3004001200841015E
:101F420022078600400121084101233D8700063017
:101F52008100AE304001E100A430E20041012F08CF
:101F6200013E4001E300003003180130E40041016A
:101F72002C08013E4001E500003003180130E60064
:101F8200AF3161278931F22F4101300886003108D3
:101F920087000108A000A1012108003A0319D22FED
:101FA200F22F2008003A0319A62B013A03197A2CC2
:101FB200033A0319C22C013A0319842D073A031973
:101FC200F22F013A0319492F033A0319F22F013A6A
:101FD2000319F22F0F3A0319F22F013A0319F22FC4
:101FE200F22F410130088600310887004231300863
:101FF2008400310885000131000881000800400199
:10200200E701D30167089231B92290314001D3012F
:1020120067089E31C526903101304001E707043040
:102022006702031C15281628022815304001E20019
:102032004B30E100BE30890B1C28E10B1C28E20B5F
:102042001C280000AF312427903105304001E20006
:102052000F30E100F130890B2C28E10B2C28E20B28
:102062002C28400117172030CF000030D000053057
:10207200D100D201AF3171279031013A031D4228BC
:102082004328942820304001CF000030D0000A308D
:10209200D100D201AF3171279031FF304101EE0002
:1020A200FF30EF0020304001A7000030A8001430BC
:1020B200A900EE30AA000230AB000030AC009E3125
:1020C2004E26903142016B084001E40042016A0849
:1020D2004001E3002030A7000030A8000C30A90026
:1020E2006330AA000230AB000030AC009E314E26B5
:1020F2009031420169084001E6004201680840014E
:10210200E5002030A7000030A800A9016530AA0030
:102112000230AB000030AC009E314E2690310830C8
:102122004101EB00972804304101EB000800500107
:102132001E1701309A0070309B001E145A301C0684
:10214200031DA428A528042948304001AA00AC0197
:10215200AD0150011E1740012C08023E50019A00A9
:1021620070309B001E1440012A082C0786000130A3
:10217200870050011C08810001304001AC0700308B
:10218200AD3D00302D02203003192C02031CCA2859
:10219200CB28AA28AB01FB282B08A6000230A635C3
:1021A200890BD0282608493E860001308700093075
:1021B2000106031DDD28DE28F9282B08A600A70149
:1021C2002608A0002708A1000E30A2000030A300BC
:1021D20098310420903180304001A8002F30A900AE
:1021E2002008280786002108293D87000930810040
:1021F2000130AB0741016A0840012B02031C02298E
:102202000329CD2844294001AE012E08A600023040
:10221200A635890B09292608483E86000130870029
:102222002E080B3E81002E08A6000230A635890B2F
:1022320017292608493E86000130870081012E08B1
:10224200A6000230A635890B232926084A3E8600BD
:1022520001308700FF3081002E08A6000230A6352B
:10226200890B302926084B3E860001308700810108
:102272000130AE0708302E02031C402941290629ED
:102282009D3174259031080001304001C300BF1B0D
:102292004B294D2901304E290030C6004101550815
:1022A2004001C500410154084001C4004608031919
:1022B2005B295C297029FF30C407FF30C53D460801
:1022C200031D642965296A292B30C1000030C20030
:1022D2006E292D30C1000030C2004108C6001F30F7
:1022E200C7000030C8004201C701AD29FF304001DC
:1022F200C707FF30C83D4708283E860001308700E7
:102302000A30A0000030A1003F08A3003E08A2004E
:102312009A31E222913140012108A7002008A6004B
:10232200AF319427913140012608303E8100C3012C
:10233200FF30C407FF30C53D0A30A0000030A100C5
:102342003F08A3003E08A2009B3134239131400193
:102352002108BF002008BE0040014808803AC000A2
:1023620080304002031DB72901304702031CBA29FD
:10237200BB29D92940013E083F04031DC129C229B6
:1023820077294308031DC629C72977294508803ABA
:10239200C00080304002031DD02901304402031CDA
:1023A200D329D429D9294101E418D829D92977294F
:1023B200400146080319DE29DF29EA29FF30C70751
:1023C200FF30C83D4708283E860001308700460896
:1023D20081003D08B5003C08B4004708283EB6001D
:1023E2004508B8004408B7009A310122913108002B
:1023F200FC01B12A7C08F600F7017608F0007708A4
:10240200F1000E30F2000030F300A731C227913103
:102412008730F8002F30F9007008780786007108BD
:10242200793D8700160001040319182A192A372A50
:102432007C08F600F7017608F0007708F1000E300C
:10244200F2000030F300A731C22791318730F80043
:102452002F30F9007008780786007108793D8700EF
:102462000130810241310030813B7F317C08F6002E
:10247200F7017608F0007708F1000E30F200003024
:10248200F300A731C22791318930F8002F30F900CB
:102492007008780786007108793D870016000104EC
:1024A2000319542A552A732A7C08F600F701760884
:1024B200F0007708F1000E30F2000030F300A7318F
:1024C200C22791318930F8002F30F900700878075F
:1024D20086007108793D8700013081024131003068
:1024E200813B7F317C08F600F7017608F00077081F
:1024F200F1000E30F2000030F300A731C227913113
:102502008B30F8002F30F9007008780786007108C8
:10251200793D8700160001040319902A912AAF2AF7
:102522007C08F600F7017608F0007708F1000E301B
:10253200F2000030F300A731C22791318B30F8004E
:102542002F30F9007008780786007108793D8700FE
:102552000130810241310030813B7F310130FC0783
:1025620041016A087C02031CB72AB82AFB29080029
:102572004001DC000130DF000130E000D02A0130F0
:10258200DF000130E000E62ADF01E001E62A013047
:10259200DF00E001E62ADF010130E000E62A53080D
:1025A200D400D5015508003A0319D82AE62A54085E
:1025B200003A0319C02A013A0319C52A033A03193A
:1025C200C82A013A0319CC2AE62A04305C0203180D
:1025D200EB2AEC2A3F2B312B5F080319F12AF22A4E
:1025E200F42A1614F52A161060080319F92AFA2A91
:1025F200FC2A9614B12B9610B12B5F080319022BFB
:10260200032B052B1616062B1612600803190A2B2C
:102612000B2B0D2B9616B12B9612B12B5F080319BB
:10262200132B142B162B1617172B161360080319CE
:102632001B2B1C2B1E2B9617B12B9613B12B5F084D
:102642000319242B252B272B1816282B1812600868
:1026520003192C2B2D2B2F2B9816B12B9812B12B43
:102662005C08003A0319ED2A013A0319FE2A033ADB
:1026720003190F2B013A0319202BB12B053041010D
:102682006B02031C452B462BB12B40015C08FC3E20
:10269200DB0002305B0203184F2B512B0130522B0F
:1026A2000030DE005B1C562B572B5C2B0430D6000F
:1026B2000030D7005E2BD601D7015608DD005E0838
:1026C200EE3E860087010330D4005D0A692BD435C3
:1026D200890B682B5408FF3A81055F080319722B96
:1026E200732B802B5E08EE3E860087010130D400FA
:1026F2005D0A7C2BD435890B7B2B5408810460083E
:102702000319842B852B922B5E08EE3E86008701EF
:102712000230D4005D0A8E2BD435890B8D2B5408E0
:1027220081045E080319962B972B9C2B1530D80039
:102732000030D900A02B1430D8000030D90058083E
:10274200DA002030CF000030D0005A08D1005E08F5
:10275200EE3E860087010108D200AF317127923127
:10276200080015304101B8004B30B700BE30890B6C
:10277200B82BB70BB82BB80BB82B0000AF31E7273B
:102782009331F9304001A0001130A100AE31F6269C
:1027920093318B170B17B9304001E100B130E200E1
:1027A200AF316127933182304001E100B030E20065
:1027B200AF3161279331903100209331AE318326BE
:1027C20093314101EA006E304001E100B030E20095
:1027D20041016A08B700B80137084001E30041012E
:1027E20038084001E400AF316127933102304001E3
:1027F200E100A630E200AF3161279331E4304001BD
:10280200E100B130E200AF316127933198304001ED
:10281200A400B130A500AF31CE279331153041016C
:10282200B8004B30B700BE30890B152CB70B152CF6
:10283200B80B152C0000E7304001E100B130E20096
:10284200AF316127933198304001A400B130A50027
:10285200AF31CE27933115304101B8004B30B7006C
:10286200BE30890B322CB70B322CB80B322C000045
:10287200EA304001E100B130E200AF31612793312B
:1028820098304001A400B130A500AF31CE2793317A
:1028920015304101B8004B30B700BE30890B4F2CC8
:1028A200B70B4F2CB80B4F2C0000ED304001E1006C
:1028B200B130E200AF316127933198304001A4007A
:1028C200B130A500AF31CE27933115304101B800A8
:1028D2004B30B700BE30890B6C2CB70B6C2CB80B8D
:1028E2006C2C0000F0304001E100B130E200AF3169
:1028F2006127933198304001A400B130A500AF3177
:10290200CE27933115304101B8004B30B700BE30AD
:10291200890B892CB70B892CB80B892C0000043049
:102922004001E100B130E200AF3161279331CD3097
:102932004001E100A830E200AF316127933101305C
:102942004101C200E92C0130C300E12C64004101C5
:1029520042084001A800410143084001A90001309A
:1029620087313E279331F5304001E100B030E2007B
:1029720041014208B700B80137084001E3004101B4
:1029820038084001E40041014308B900BA0139089E
:102992004001E50041013A084001E600AF316127FC
:1029A200933103304101B8000830B7007730890B0A
:1029B200D82CB70BD82CB80BD82C01304101C30747
:1029C20043086A020318E62CE72CA72C0130C20741
:1029D20042086A020318EE2CEF2CA42C0130C2002C
:1029E200372D0130C3002F2D640041014208400100
:1029F200A800410143084001A900003087313E2769
:102A02009331E8304001E100B030E2004101420878
:102A1200B700B80137084001E3004101380840011E
:102A2200E40041014308B900BA0139084001E50058
:102A320041013A084001E600AF316127933103308A
:102A42004101B8000830B7007730890B262DB70B4B
:102A5200262DB80B262D01304101C30743086A0217
:102A62000318342D352DF52C0130C20742086A02B5
:102A720003183C2D3D2DF22C3C304001E100A830E2
:102A8200E200AF3161279331B0304001E100A8305C
:102A9200E200AF31612793314101C5018B2E450818
:102AA200B700B80137084001A000410138084001D1
:102AB200A1000E30A2000030A3009831042093310F
:102AC20080304101B9002F30BA0040012008410195
:102AD200390786004001210841013A3D8700810102
:102AE20045089D31DF2593314101B7004508B80003
:102AF200B90138084001A000410139084001A10094
:102B02000E30A2000030A3009831042093318130AE
:102B12004101BA002F30BB004001200841013A07B1
:102B2200BC004001210841013B3DBD003C0886003C
:102B32003D088700370881004508B700B80137080B
:102B42004001A000410138084001A1000E30A2005E
:102B52000030A30098310420933182304101B90042
:102B62002F30BA0040012008410139078600400198
:102B7200210841013A3D87004508BB00BC013B08E2
:102B82004001A00041013C084001A1000E30A2001A
:102B92000030A30098310420933181304101BD00FF
:102BA2002F30BE004001200841013D078400400152
:102BB200210841013E3D8500000881004508B7001B
:102BC200B80137084001A000410138084001A100C6
:102BD2000E30A2000030A3009831042093318330DC
:102BE2004101B9002F30BA004001200841013907E4
:102BF20086004001210841013A3D870081014508D4
:102C0200B700B80137084001A0004101380840016F
:102C1200A1000E30A2000030A300983104209331AD
:102C220084304101B9002F30BA004001200841012F
:102C3200390786004001210841013A3D87008101A0
:102C42004508B700B80137084001A0004101380823
:102C52004001A1000E30A2000030A30098310420F0
:102C6200933187304101B9002F30BA00400120086A
:102C72004101390786004001210841013A3D8700A0
:102C82000030C03FC13F4508B700B80137084001D6
:102C9200A000410138084001A1000E30A20000301E
:102CA200A30098310420933189304101B9002F30BB
:102CB200BA0040012008410139078600400121087D
:102CC20041013A3D87000030C03FC13F4508B7008F
:102CD200B80137084001A000410138084001A100B5
:102CE2000E30A2000030A3009831042093318D30C1
:102CF2004101B9002F30BA004001200841013907D3
:102D020086004001210841013A3D8700FF308100E1
:102D12000130C5076A084502031C902E912E502DE2
:102D220005304101B8000F30B700F130890B972E02
:102D3200B70B972EB80B972E01304001E100B1304E
:102D4200E200AF31612793311E304001E100A7302C
:102D5200E200AF31612793314101C1011D2F1730CC
:102D62004001E100B130E20041014108013E400171
:102D7200E300003003180130E400AF3161279331E2
:102D820041014108B700B80137084001A0004101E4
:102D920038084001A1000E30A2000030A300983193
:102DA2000420933181304101B9002F30BA00400133
:102DB20020084101390786004001210841013A3DBE
:102DC20087000108031DE62EE72EF02E9130400108
:102DD200E100B130E200AF31612793311A2F41088F
:102DE200B700B80137084001A0004101380840018E
:102DF200A1000E30A2000030A300983104209331CC
:102E020080304101B9002F30BA0040012008410151
:102E1200390786004001210841013A3D8700083008
:102E220081008A304001E100B130E200AF31612718
:102E3200933101304101C1076A084102031C222F6C
:102E4200232FB02E34304001E100A430E200AF3134
:102E5200612793319031982093314101C0015B2F5A
:102E620045304001E100B030E20041014008013E3E
:102E72004001E300003003180130E4004101400842
:102E8200B7000230B735890B432F3708483E86001A
:102E9200013087000108B800B90138084001E50097
:102EA200410139084001E600AF3161279331013019
:102EB2004101C0076A084002031C602F612F312FB5
:102EC200BB304001E100B130E200AF316127933104
:102ED20059304001E100A830E200AF31612793315F
:102EE20064004101BF017C2F3F0889319521933154
:102EF20001304101BF076A083F02031C812F822F64
:102F0200752FAE31D2269331003A0319892F8A2FB9
:102F1200712FA731A52793314101C4000D3044061A
:102F22000319942F952F9B2F0A304406031D9A2FC5
:102F32009B2FBF2F44089831942093314101690897
:102F4200A03E8600023087008101A0304001EC00E3
:102F52008031C1209331BB304001E100B130E20049
:102F6200AF3161279331AD304001E100B130E20071
:102F7200AF31612793314101E901712F08304406D5
:102F82000319C42FC52FCB2F7F304406031DCA2F30
:102F9200CB2FDB2F69080319CF2FD02F712F0130D0
:102FA200E902DC304001E100B130E200AF316127DB
:102FB2009331712F3F3069020318E02FE12F712FF7
:102FC2004408983194209331613041014402031C3A
:102FD200EB2FEC2FF42F7B3044020318F12FF22F4A
:102FE200F42F2030C4026908A03E86000230870018
:102FF200440881000130E907712F8031522888345A
:103002008834883488344001A401A501201C0A2890
:103012000B280F282208A4072308A53D0130A2355A
:10302200A30D890B10280130A136A00C890B15289D
:1030320020082104031D1E281F2807282508A10097
:103042002408A000080040012108A6002008A500CD
:1030520038282608860087010108A4000130A60747
:10306200250886008701240881000130A507013068
:10307200A2020030A33B220A031D4328230A031D98
:10308200432844282A2808004001B201B3015C28E1
:103092003108AF00B0012F08A3003008A4002E08A9
:1030A200A6002D08A5009C31492498310130400129
:1030B200B2070030B33D2C0832078600013087008A
:1030C2000108B1003108031D672868284928080053
:1030D20041014B084C0403196F28702883280130E2
:1030E200CB020030CC3B490886004A088700010821
:1030F20043018C0001304101C9070030CA3D033051
:10310200F000922851080319872888288E28D101B7
:10311200430191140130F0009228AE31CB26983150
:10312200F000700808004001A1004E01191A9A2807
:103132009B28A0284001210842019A00BC28410195
:1031420066080319A528A628BC286808A03E8600A0
:103152000130870040012108810041016808013ED9
:103162003F394001A00020084101E8004E01191238
:1031720001304101E6024E0119160800C62801304D
:10318200A0070130A1070030A23D400121088400C0
:10319200220885000008A30020088600023087006C
:1031A20001082306031DD628D728E0282008860018
:1031B200023087000108031DDF28E028C02820080C
:1031C200860002308700210884002208850000085A
:1031D2000102A000A101031CA10308004001A501F6
:1031E200AE3186269831003A031DF828F9281D29A8
:1031F20001304101C600400121084101C8004001DF
:1032020020084101C700D101400122084101C90043
:10321200CA01400124084101CC00400123084101B8
:10322200CB00CD01CE01CF01D001D201AE31B22609
:10323200983101304001A500400125080800043002
:10324200F00043010F1C262927294F2941014F086D
:10325200500403192D292E293E294D0886004E08B7
:10326200870043010C08810001304101CD07003085
:10327200CE3D0130CF020030D03B4F08500403193D
:103282004329442948294301911211165029430127
:103292009110911611160730F000502991157008FF
:1032A20008004E0199120A304101E0001D30E10090
:1032B2004E0119126D304101E2002730E30048301F
:1032C20042019F0090309D0026309E0040309B00BE
:1032D20003309C0003304001A0000030A100AF3158
:1032E200332799318C304001A0002E30A100AF313C
:1032F200422799314201A401A5014101E801E701F8
:103302004030E600FD014001ED014101E5014E01C1
:10331200991608004E010F1043010F1E91299229A0
:103322009629AF3182279931B1298F1A99299A2981
:10333200A429111F9D299E29A42905304101D300EA
:103342000130D200B1298F1EA729A829B129111F46
:10335200AB29AC29B12905304101D3000230D2009A
:1033620041015308F100F201F135F20D003071070D
:1033720084002030723D80388500013F8A00003F82
:103382000A0099314101D30008004001A1008B13CA
:103392001713A6300032890BCB2900324001A2015B
:1033A200A3014001211CD629D729D9291717DA29C7
:1033B2001713A6300032890BDB29003203104001BB
:1033C200A10C0130A2070030A33D2308803AA000DF
:1033D20080302002031DEF2908302202031CF2294B
:1033E200F329D22940011717A6300032890BF6299A
:1033F20000328B17A6300032890BFC2900320800FC
:103402004101641C052A062A102A40013608AC0034
:103412003508AE003408AD00983145209A3140019C
:10342200B81F142A152A172AB701B801BA01BB011D
:103432002B2A20304001A3000030A4003508A6004A
:103442003408A5009C3149249A3101304001BA0761
:103452000030BB3D3B08803AB9003808803A390257
:10346200031D352A37083A02031C382A392A1A2A38
:10347200410164183D2A3E2A482A40013608AC0020
:103482003508AE003408AD00983145209A31080065
:1034920040019601043097000330980004309100F7
:1034A2009B309200473093007E01B8010830C30080
:1034B200CE010430B9009230C4004730CF00E5019C
:1034C200BA01C501D001FF30BB00FF30C600FF309A
:1034D200D100FF30BC00FF30C700FF30D2000830FF
:1034E200E80009307D01CB0010307E019A001030D7
:1034F2007D01C50014307E01A00011307D01C6009F
:1035020015307E01A100BD01BE01BF01C801C90184
:10351200CA01D301D401D501E901EA01EB01080096
:1035220001304001A3020030A43B230A031D9D2A5F
:10353200240A031D9D2A9E2AAB2AA001A101E12A89
:103542000130A0070130A1070030A23D0130A302E3
:103552000030A43B200886000230870001080319CE
:10356200B32AB42AD32A2108840022088500120033
:103572000319BC2ABD2AD32A230824040319C22A08
:10358200C32AD32A21088400220885000008A50046
:103592002008860002308700010825060319D22A76
:1035A200D32AA12A2008860002308700210884003D
:1035B2002208850000080102A000A101031CA1034A
:1035C20008004001A501A31FE72AE82AEF2AA20961
:1035D200A309A20A0319A30A0130A500A11FF22A16
:1035E200F32AF82AA009A109A00A0319A10A2008AE
:1035F20021040319FD2AFE2A252B0130A400082BE1
:103602000130A035A10D890B022B0130A407A11FA7
:103612000B2B0C2B012B21082302031D122B20083C
:103622002202031C152B162B1A2B2008A20221089A
:10363200A33B0130A136A00C890B1B2B0130A40245
:10364200031D242B252B0C2B25080319292B2A2B90
:103652002F2BA209A309A20A0319A30A2308A10076
:103662002208A00008004001A501A11F392B3A2B16
:10367200412BA009A109A00A0319A10A0130A50042
:10368200A31F442B452B4C2BA209A309A20A031901
:10369200A30A0130A506A601A701200821040319E7
:1036A200532B542B812B0130A4005E2B0130A0350B
:1036B200A10D890B582B0130A407A11F612B622B8E
:1036C200572B0130A635A70D890B632B2108230246
:1036D200031D6D2B20082202031C702B712B762BED
:1036E2002008A2022108A33B26140130A136A00C17
:1036F200890B772B0130A402031D802B812B622BB7
:1037020025080319852B862B8B2BA609A709A60A48
:103712000319A70A2708A1002608A00008004001F3
:10372200AC01AD01260886008701403FA800413F59
:10373200A900280884002908850012002A3A031DDE
:10374200A32BA42BD32B26088600870101308107E7
:1037520041310318810A2708860087010108840085
:10376200850102308107003FAC00013FAD00E72B2D
:103772002D08A1002C08A0000A30A2000030A300EE
:10378200983104209B3140012B082007AC00003007
:10379200213DAD00260886008701013081074131B5
:1037A2000318810A260886008701403FA800413F8E
:1037B200A90028088400290885000008D03EAB0033
:1037C2000A302B02031CE62BE72BB92B2D08A7008E
:1037D2002C08A600080040012B08AF002A08A1000F
:1037E2002908A0002F30A2000130A3000030A4005D
:1037F2002C08A5002E08A7002D08A6008831082055
:103802009B31003A031D062C072C082C482CE8306B
:103812004001B0000330B1001E2C1A30890B0F2C6E
:10382200003201304001B0020030B13B30083104B7
:10383200031D1C2C1D2C1E2C482CAE3186269B31C0
:10384200003A031D252C262C0E2CE8304001B00036
:103852000330B1003C2C1A30890B2D2C0032013080
:103862004001B0020030B13B30083104031D3A2C54
:103872003B2C3C2C482C43011119402C412C2C2C64
:103882008530890B422C0000AE31DB269B310800CB
:1038920040012508260403194F2C502C562C2508CC
:1038A2002604031D552C562C5B2C2308AF315127BF
:1038B2009C31A62C2508860026088700493116006F
:1038C20001040319652C662C862C2508860026081F
:1038D20087004931403FA700413FA80025088600E4
:1038E200260887004231403FA900413FAA002A082A
:1038F200803AAB002808803A2B02031D822C27084D
:1039020029020318852C862CA62C40012508860046
:103912002608870042312508840026088500003FDA
:10392200A700013FA800403F27078400413F283DF0
:10393200850023088000250886002608870042317A
:103942000130810741310318810A08004001AA00B1
:10395200E12CC830A600B130A700092D2A30A600FC
:10396200B130A700092D5330A600B130A700092DB0
:103972006330A600B130A700092D5B30A600B1303C
:10398200A700092D4330A600B130A700092D4B3006
:10399200A600B130A700092DD730A600B130A7008C
:1039A200092D6B30A600B130A700092D7B30A6008F
:1039B200B130A700092D7330A600B130A700092D40
:1039C2002A08A800A9012908003A0319E92CDC2CCD
:1039D2002808003A0319AA2C013A0319AF2C033A1A
:1039E2000319B42C013A0319B92C073A0319BE2C56
:1039F200013A0319C32C033A0319C82C013A0319DB
:103A0200CD2C0F3A0319D22C013A0319D72CDC2CF6
:103A120008007D35003E860087012F30873D7D35C9
:103A22000030873D0030C03FC13F42019D1C1A2D2E
:103A32001B2D372D7D08F000F101F035F10D00301E
:103A4200F2002F30F3007008720786007108733D90
:103A5200870001154101560857040319312D322DF3
:103A6200372D57088A0056080A009D3142011D1D54
:103A72003B2D3C2D582D7D08F000F101F035F10D64
:103A82000030F2002F30F3007008720786007108D0
:103A9200733D870081144101580859040319522DBE
:103AA200532D582D59088A0058080A009D314201A9
:103AB2001908F4007D08013E3F39F5007508400100
:103AC2006D06031D652D662D672D732D7D08203E25
:103AD200860002308700740881007508FD000130FD
:103AE2004101E507080048304001A000A101A20100
:103AF20050019E187D2D7E2D792D1E174001210823
:103B0200023E50019A0070309B009D014001200846
:103B12002107860001308700010850019C00400106
:103B220003108B1F952D962D972D03148B13500187
:103B32001E1555309F00AA309F009E149E18A22D7C
:103B4200A32D9F2D1E114001031CA82DA92DAA2DC6
:103B52008B170130A1070030A23D00302202203035
:103B620003192102031CB62DB72D792D50019E1881
:103B7200BB2DBC2DB72D1E1701309A0070309B0053
:103B82009D015A309C00400103108B1FC92DCA2D84
:103B9200CB2D03148B1350011E1555309F00AA30F4
:103BA2009F009E149E18D62DD72DD32D1E11400195
:103BB200031CDC2DDD2DDE2D8B1708004001B70024
:103BC200043037020318E62DE72D062EF82D0C0CD3
:103BD200890C01394D2E0D0E01394D2E0E0C890C1A
:103BE20001394D2E0E0E890C890C01394D2E3708E4
:103BF200003A0319E82D013A0319EC2D033A03198F
:103C0200EF2D013A0319F32D4C2E053041016B02C1
:103C1200031C0C2E0D2E4C2E40013708FC3EB60024
:103C220004303706031D162E172E262E2030A9002B
:103C32000030AA001230AB00EC30AC000230AD0014
:103C42000030AE009B31EC239D3102304001360240
:103C520003182C2E2E2E01302F2E0030B400361CCD
:103C6200332E342E392E8030B2000030B3003D2E78
:103C72000830B2000030B3003208B5003408EC3E20
:103C82008600870101083505031D482E4A2E0130A2
:103C92004B2E00304D2E00300800003040012C0227
:103CA2001F3003192B02031C572E582E5A2E003098
:103CB200C42E2908AD002E30A0002A08A1002C082D
:103CC200A3002B08A200983124209E31400128082D
:103CD200A1002708A0002D30A2002B08013EA3005E
:103CE20000302C3DA4009831EF209E31003A031D94
:103CF2007B2E7C2E7D2E582EE8304001CD000330E5
:103D0200CE00932E1A30890B842E003201304001EE
:103D1200CD020030CE3B4D084E04031D912E922E53
:103D2200932E582EAE3186269E31003A031D9A2ECE
:103D32009B2E832EE8304001CD000330CE00B12E01
:103D42001A30890BA22E003201304001CD02003020
:103D5200CE3B4D084E04031DAF2EB02EB12E582E71
:103D620043011119B52EB62EA12E8530890BB72E1F
:103D72000000AE31DB269E31003A0319C12EC32E5C
:103D82000130C42E003008004001DC0004305C0227
:103D92000318CC2ECD2E002FF22E53080319D22E4B
:103DA200D32ED52E9611602F9615602F5308031926
:103DB200DB2EDC2EDE2E9712602F9716602F530813
:103DC2000319E42EE52EE72E9811602F9815602F27
:103DD20053080319ED2EEE2EF02E9813602F98172C
:103DE200602F5C08003A0319CE2E013A0319D72E30
:103DF200033A0319E02E013A0319E92E602F053028
:103E020041016B02031C062F072F602F40015C0843
:103E1200FC3EDA0002305A020318102F122F013032
:103E2200132F0030DD005A1C172F182F1D2F0430BE
:103E3200D5000030D6001F2FD501D6015508DB0072
:103E42005D08EE3E860087010430D4005B0A2A2F0B
:103E5200D435890B292F5408FF3A81055308031DD5
:103E6200332F342F412F5D08EE3E86008701043048
:103E7200D4005B0A3D2FD435890B3C2F54088104B2
:103E82005D080319452F462F4B2F1530D700003000
:103E9200D8004F2F1430D7000030D8005708D9006F
:103EA2002030CF000030D0005908D1005D08EE3E2E
:103EB200860087010108D200AF3171279E310800C8
:103EC20040012F08B7002E08B60036083704031D3C
:103ED2006B2F6C2F702F8330B600B130B700B80152
:103EE200B901772F0130B8070030B93D36083807DD
:103EF20084003708393D85001200031D812F822F6F
:103F0200732F3908B3003808B20041015508400147
:103F1200B500410154084001B40041016418922FD8
:103F2200932FCC2FA52F20304001A3000030A400F6
:103F32002D08A6002C08A5009C3149249F31013090
:103F42004001B8070030B93D40013908803AB0005D
:103F52003508803A3002031DB02F34083802031CA2
:103F6200B32FB42F942FCC2F360884003708850046
:103F72000008B000B1013008A3003108A4002D08E8
:103F8200A6002C08A5009C3149249F310130400134
:103F9200B6070030B73DFF304001B207FF30B33DF6
:103FA200320A031DD82F330A031DD82FD92FB52F5C
:103FB2004101641CDD2FDE2FFF2FF02F2030400146
:103FC200A3000030A4002D08A6002C08A5009C31F7
:103FD20049249F3101304001B8070030B93D40010A
:103FE2003908803AB0003508803A3002031DFB2FB1
:103FF20034083802031CFE2FFF2FDF2F08009034F5
:104002002E34C4342E34A0342E346934183420347F
:104012001934A6342E34AC342E34CB342E3401343D
:104022000834203420342034203420342034203406
:104032002034203420344534783461346D34703483
:104042006C3465343A342034533442344334543477
:104052004C342034523445344C34203431342034FE
:1040620032342034203420342D3420345234653418
:104072006C34653461347334653420343134203423
:1040820061346E346434203432342034533477341F
:1040920069347434633468342E340D340A34003491
:1040A200203420342034203420342034203420346E
:1040B200203420344534783461346D3470346C34B7
:1040C20065343A34203453344234433454344C3417
:1040D200203443344F344E3420343134203432349B
:1040E2002034203420342D34203443346F346E3461
:1040F2006E346534633474342034313420346134A2
:104102006E34643420343234203453347734693496
:104112007434633468342E340D340A340034503429
:104122006F34723474342034253464343A34203495
:10413200483475346E346734203475347034203426
:1041420064347534723469346E34673420347434B0
:1041520061346C346B342E34203450346F34723406
:104162007434203425346434203469347334203474
:104172006E346F34773420344134553454344F34F0
:10418200203441344E3453345734453452342E346F
:104192000D340A34003420342034203420342034C6
:1041A20020342034203420342034453478346134AF
:1041B2006D3470346C3465343A34203453344234C0
:1041C200433454344C342034463455344C344C3417
:1041D2005F3452344534533445345434203420341B
:1041E2002D342034523465347334653474342034BD
:1041F20053347734693474346334683462346F34DA
:104202006134723464342E340D340A340034203470
:1042120020342034203420342034203420342034FC
:104222002034553473346134673465343A3420347D
:10423200533445345434203448344C3420343C34E0
:1042420070346F34723474343A3431342D3425344A
:1042520064343E3420343C346534783474343A3433
:10426200313430342D343934393420346F347234AB
:1042720020344F34463446343E340D340A3400344C
:1042820050346F34723474342034253464343A3404
:104292002034483475346E346734203475347034C5
:1042A200203464347534723469346E3467342034A3
:1042B200743461346C346B342E34203450346F34A3
:1042C20072347434203425346434203469347334C1
:1042D20020346E346F3477342034423455345334BE
:1042E20059342E340D340A340034533441345634A4
:1042F20045345F3454344F345F344534453450349C
:1043020052344F344D3420343A34203453346134EF
:1043120076346534203463347534723472346534DF
:104322006E347434203473346534743474346934C0
:104332006E3467347334203474346F34203445342B
:104342004534503452344F344D342E340D340A3403
:10435200003453344234433454344C342034203403
:1043620020343A3420344D3461346E34753461343F
:104372006C346C34793420344F344E342F344F340F
:10438200463446342F34463455344C344C345F343E
:10439200523445345334453454342034533477340E
:1043A200693474346334683462346F34613472341F
:1043B20064342E340D340A34003450346F34723481
:1043C20074342034253464343A3420344334613430
:1043D2006C346C34653472342034613462346F343A
:1043E20072347434653464342E34203450346F346F
:1043F2007234743420342534643420347334743485
:104402006F347034703465346434203472346934F7
:104412006E34673469346E3467342E340D340A34A2
:10442200003450346F34723474342034253464349C
:104432003A3420344F34663466342D3448346F3481
:104442006F346B3420342D343E34203448344F34AE
:1044520054344C3449344E344534203474346F343B
:104462002034453478347434203425346434203490
:104472002D343E34203452344F345534543449347C
:104482004E3447340D340A3400342034203420347E
:104492002034203420342034203420342034553445
:1044A20073346134673465343A34203453344534D8
:1044B2005434203445345834543420343C34703429
:1044C2006F34723474343A3431342D3425346434D4
:1044D2003E3420343C346534783474343A343134E4
:1044E20030342D34393439343E340D340A34003406
:1044F200203420342034203420342034203420341A
:1045020020342034553473346134673465342034B4
:104512003A34203453344234433454344C34203407
:1045220043344F344E342F34523445344C342034D7
:104532003C3470346F347234743431343E34203449
:104542003C3470346F347234743432343E340D344B
:104552000A34003453344534543420344534583406
:10456200543420343A34203453346534743420348F
:1045720065347834743465346E34733469346F342A
:104582006E3428346E3475346D346234653472346A
:104592002934203466346F34723420346534613403
:1045A20063346834203470346F34723474342E348B
:1045B2000D340A34003420342034203420342034A2
:1045C2002034203420342034203455347334613480
:1045D200673465343A342034533445345434203407
:1045E20041344134203420343C3470346F347234DA
:1045F20074343A3431342D34253464343E34203426
:104602003C344F344E342F344F34463446343E34E7
:104612000D340A34003453347534633463346534EE
:10462200733473343A34203450346F347234743403
:104632002034253464342034733474346134743453
:1046420065342034733465347434203474346F34F4
:1046520020344134553454344F34203441344E34B0
:1046620053345734453452340D340A340034503400
:104672006F34723474342034253464343A34203440
:10468200433461346C346C346534643420345034D3
:104692006F347234743420342534643420342D342D
:1046A2003E3420344134553454344F342034413470
:1046B2004E345334573445345234653464340D34F3
:1046C2000A340034553473346134673465343A340F
:1046D200203453344234433454344C34203452342E
:1046E20045344C3420343C346C3469346E34653493
:1046F20031343E3420343C346C3469346E346534A5
:1047020032343E342034283431342D342534643468
:1047120029340D340A340034553473346134673427
:1047220065343A34203453344234433454344C34B0
:10473200203443344F344E3420343C346C346934A6
:104742006E34653431343E3420343C346C34693454
:104752006E34653432343E342034283431342D34CE
:104762002534643429340D340A3400345334453446
:104772005434203441344134203420343A34203407
:10478200533465347434203470346F347234743476
:10479200203474346F3420344134553454344F341B
:1047A200203441344E345334573445345234203457
:1047B2006D346F34643465342E340D340A3400346D
:1047C20044344F345F34463455344C344C345F34C3
:1047D20052344534533445345434203420343A343A
:1047E2002034523465347334653474342034503494
:1047F2004234583443346F34723465342034703464
:1048020072346F346734723461346D342E340D3443
:104812000A3400344534783465346334753474347E
:10482200653464343A34203453347734693474341C
:104832006334683443346F346E34743472346F3496
:104842006C342834663461346C34733465342C34FB
:104852002034253464342C3420342534643429340F
:104862000D340A34003450344234583443346F34F3
:10487200723465343A3420344C346F3461346434E5
:1048820069346E3467342034733465347434743468
:1048920069346E34673473342034663472346F345E
:1048A2006D34203445344534503452344F344D3411
:1048B2002E340D340A340034533475346334633483
:1048C2006534733473343A34203450346F34723470
:1048D2007434203425346434203468346F347434AE
:1048E2006C3469346E346534203473346534743412
:1048F200203474346F3420344534783474342034A2
:10490200253464340D340A34003445347834653443
:10491200633475347434653464343A342034533433
:104922007734693474346334683443346F346E34A6
:10493200743472346F346C34283474347234753491
:1049420065342C342034253464342C34203425341A
:10495200643429340D340A34003450346F347234E0
:1049620074342034253464343A34203441346E347F
:10497200733477346534723465346434203450349B
:104982006F347234743420342534643420342D343A
:104992003E342034543441344C344B3449344E3454
:1049A20047340D340A340034533475346334633479
:1049B2006534733473343A34203450346F3472347F
:1049C20074342034253464342034653478347434B7
:1049D20065346E34733469346F346E342034733416
:1049E20065347434203474346F34203425346434A0
:1049F2000D340A34003450346F3472347434203439
:104A0200253464343A3420344434693461346C34A7
:104A120069346E34673420347334743461347234DC
:104A220074346534643420342D343E3420344434B8
:104A3200493441344C3449344E3447340D340A3409
:104A4200003450346F347234743420342534643476
:104A52003A342034433461346C346C3469346E3407
:104A62006734203450346F34723474342034253433
:104A7200643420342D343E342034433441344C34B5
:104A82004C3449344E3447340D340A3400345034F3
:104A92006F34723474342034253464343A3420341C
:104AA2004E3475346D346234653472342034633478
:104AB2006F346D3470346C3465347434653420343E
:104AC2002D343E34203452344F3455345434493426
:104AD2004E3447340D340A3400345334753463345D
:104AE20063346534733473343A3420345334653464
:104AF2007434743469346E346734733420347334E8
:104B02006134763465346434203474346F34203440
:104B120045344534503452344F344D342E340D34F0
:104B22000A340034553473346134673465343A34AA
:104B32002034533445345434203441344134203405
:104B42003C3470346F34723474343A3431342D342A
:104B5200253464343E3420343C344F344E342F34C4
:104B62004F34463446343E340D340A340034533420
:104B72007534633463346534733473343A342034B3
:104B820050346F3472347434203425346434203415
:104B9200733474346134743465342034733465345A
:104BA2007434203474346F342034493444344C34F3
:104BB20045340D340A34003450346F347234743452
:104BC2002034253464343A34203449346E34763413
:104BD20061346C346934643420346E3475346D3429
:104BE20062346534723420342534643420342D34F4
:104BF2003E34203442345534533459340D340A345B
:104C0200003450344234583443346F34723465348F
:104C12003A34203449346E3469347434693461343A
:104C22006C3469347A3469346E34673420345334E2
:104C32007734693474346334683462346F34613481
:104C4200723464342E342E342E34003453345434BB
:104C52004134543420342034203420343A34203443
:104C620044346934733470346C34613479342034AC
:104C7200633475347234723465346E34743420346F
:104C82005334743461347434753473342E340D34C3
:104C92000A34003453347534633463346534733402
:104CA20073343A34203450346F34723474342034D0
:104CB20025346434203468346F3474346C34693489
:104CC2006E3465342034643469347334613462344C
:104CD2006C34653464340D340A340034533445344E
:104CE2005434203448344C34203420343A34203480
:104CF200533465347434203470346F347234743401
:104D0200203448344F3454344C3449344E344534CE
:104D120020346E3475346D346234653472340D343B
:104D22000A3400344534723472346F3472343A3493
:104D3200203455346E346B346E346F3477346E34C1
:104D4200203453344234433454344C342034733496
:104D52007534623463346F346D346D3461346E345F
:104D620064342E340D340A34003450346F347234C7
:104D720074342034253464343A34203450346F345B
:104D820072347434203425346434203469347334F6
:104D92002034623475347334793420342D343E3403
:104DA200203442345534533459340D340A340034E7
:104DB200453478346534633475347434653464341A
:104DC2003A34203453347734693474346334683475
:104DD20062346F346134723464342034463475344E
:104DE2006C346C3420345234653473346534743426
:104DF2000D340A34003441347634613469346C340D
:104E0200613462346C3465343A34203443344F3480
:104E12004E342C342034523445344C342C34203427
:104E2200463455344C344C345F3452344534533464
:104E3200453454340D340A34003450344234583436
:104E420043346F34723465343A3420344334683432
:104E5200653463346B3469346E34673420344C34D3
:104E620049344E34453420346D346F3464347534EF
:104E72006C34653473340D340A34003450346F3476
:104E8200723474342034253464343A3420344F3448
:104E9200663466342D3448346F346F346B342034C6
:104EA2002D343E3420344434493441344C34543467
:0C4EB2004F344E3445340D340A340034C3
:104EC2006400800101310130FE020030FF3B7F08A7
:104ED2007E04031D622F0034403041016602031834
:104EE200732F742F862F6708A03E8600013087003B
:104EF200010842019A0041016708013E3F39F00072
:104F02007008E7000130E607882F4E0119120800E9
:104F120006304101D3000330D2004E018F1041010F
:104F22005308F100F201F135F20D003071078400EF
:104F32002030723D80388500013F8A00003F0A0020
:104F4200A7314101D300080040016D08203E8600D0
:104F5200023087000108A1006D08013E3F39A00020
:104F62002008ED004E019912410165080319BA2F7C
:104F7200BB2FBD2F0130E5024E01991640012108D9
:104F82000800F401F501701CC72FC82FCC2F72083E
:104F9200F4077308F53D0130F235F30D890BCD2F7F
:104FA2000130F136F00C890BD22F70087104031D09
:104FB200DB2FDC2FC42F7508F1007408F000080005
:104FC20040015C08E0005B08DF00F32F5A08CA00CA
:104FD2005908C9005F30CB005D08CC00CD01883193
:104FE2004320A73140015F08840060088500120059
:104FF200031DFC2FFD2FE72FD901DA0108005234DF
:1050020065346C346534613473346534203453341C
:10501200773469347434633468343A342034253450
:1050220064342D34253464342034253464342D34EE
:10503200253464340D340A34003443346F346E340E
:105042006E346534633474342034533477346934C1
:105052007434633468343A342034253464342D345F
:10506200253464342034253464342D3425346434B6
:105072000D340A34003450344234583443346F34DB
:10508200723465343A3420345334773469347434A6
:1050920063346834203474346534733474342034A3
:1050A20064346F346E3465342E340D340A34003473
:1050B20050344234583443346F34723465343A34A1
:1050C20020343D343D343D3420345034423458345D
:1050D20020345234653461346434793420343D34BC
:1050E2003D343D340D340A34003450346F3472345C
:1050F20074342034253464343A34203444346934EA
:10510200673469347434203425346434203472347E
:1051120065346334653469347634653464340D340B
:105122000A3400344534723472346F3472343A348F
:10513200203450346F34723474342034253464345F
:1051420020347334743461347434653420346534F7
:10515200723472346F3472340D340A340034503481
:105162004234583443346F34723465343A34203420
:105172005234653473346534743469346E3467344C
:10518200203441346C346C342034533474346134FC
:1051920074346534733400345034423458344334F4
:1051A2006F34723465343A34203454346534733491
:1051B200743469346E346734203453347734693448
:1051C20074346334683473342E340D340A34003446
:1051D2004534723472346F3472343A342034493480
:1051E2006E34763461346C3469346434203461341E
:1051F2007234673475346D3465346E347434733498
:105202002E340D340A34003450346F347234743412
:105212002034253464343A342034483475346E34BE
:1052220067342034753470342E3420342D343E34B7
:105232002034493444344C3445340D340A34003477
:105242002D342D342D3420344C3469346E3465348D
:1052520020345334743461347434753473342034E8
:105262002D342D342D342D342D342D342D340D3454
:105272000A3400342D342D342D342D342D342D3474
:105282002D342D342D342D342D342D342D342D3414
:105292002D342D342D342D342D342D342D342D3404
:1052A2002D340D340A3400344534723472346F3480
:1052B20072343A34203449346E34763461346C3486
:1052C20069346434203466346F3472346D3461343A
:0A52D20074342E340D340A34003415
:105D060041016B08080041014608080050019E1138
:105D1600080042011D121D1608004101C601083087
:105D26000800A7318927AE31080099318B21AE31A1
:105D36000800AE318926AE310800410147354301DE
:105D46008C0003300800AE31CB26AE31F00070086F
:105D5600080088310120AE31F000700808004301C8
:105D6600111402304101D300080050018C018D014D
:105D760013129312080008340434FF34FF34FF343E
:105D8600FF3403144101470D43018C000430080021
:105D960043011115AF318227AE31003008004101B1
:105DA6006508031DD72ED92E0130DA2E00300800E3
:105DB600410152084001A0004101D20140012008E2
:105DC600080041016608031DE92EEB2E0130EC2E7A
:105DD60000300800400121084101DF004001200891
:105DE6004101DE000800400121084101DD004001BB
:105DF60020084101DC000800603051018D008F0150
:105E06009101063093002030920008004E010C10DC
:105E16000B1400304001A0000030A100AE31ED2689
:105E2600AF31080041015C085D0403191B2F1C2FCC
:105E3600212F5D088A005C080A00AF314E019010E0
:105E46000800803043018F000830900091019201D4
:105E56004F308D004E011914991443019016080015
:105E66004001200821040319392F3A2F412F210818
:105E76004101D900400120084101D8000800400135
:105E8600200821040319482F492F502F21084101CA
:105E9600D700400120084101D60008004001A200B9
:105EA600AE31E426AF31003A03195A2F5B2F532F38
:105EB6004001220898319420AF3108006330400138
:105EC600EB000030D900DA006208DC006108DB0074
:105ED6006B30DD00A731E127AF31080040015008E3
:105EE600A8004F08A7005108A9005230AA000130A7
:105EF600AB000030AC009E314E26AF3108004101A8
:105F0600C6010030C800FF30C700C901CA01CD0173
:105F1600CE01D3014E010F108F10430190131013C1
:105F260008004001A71B982F992F9A2FA52F260905
:105F3600A8002709A900A80A0319A90A2808A60083
:105F46002908A70008004001A200A101221CAC2FCD
:105F5600AD2FAF2F2008A1070310A00D0310A20C30
:105F66002208031DB72FB82FA92F210808000130DA
:105F7600450190008F019101F9308D008C01FF30B1
:105F86004101DC000730DD004E0190109A14D0303C
:105F960045018E000800DC2F2408840025088500B2
:105FA60000089931C621AF3101304001A407003005
:105FB600A53D400124088400250885001200031D24
:105FC600E52FE62FCF2F0800AE31FF26AF319A31ED
:105FD6004922AF31AF312427AF31AF31BA27AF31C4
:105FE60099315221AF31AE319C26AF31AE31B82650
:105FF600AF31AF310927AF31080050346F347234F6
:10600600743420342534643420345B344534783495
:1060160074343A34253464345D3420343A342034CC
:1060260025342D34383473340034523465347334A3
:1060360065347434743469346E34673420345034BF
:106046004234583443346F34723465342E342E342B
:106056002E340D340A34003455346E346B346E34B9
:106066006F3477346E34203443346F346D346D348A
:1060760061346E3464343A342034253473340D3448
:106086000A340034203450346F347234743420347B
:1060960025343234643420343A3420344534783468
:1060A60074342034253464340D340A3400342434F2
:1060B6002F3400340034EF341834003400340834FC
:1060C600083400340034DB342E3486342E34003465
:1060D6000034003400342034413463347434693479
:1060E6007634653420344C3449344E344534533494
:1060F6003A342034253464340D340A3400345034B0
:106106004234583443346F34723465343A3420346C
:106116005334743461347234743469346E3467348D
:106126000D340A3400342034283454346134723443
:106136006734653474343A34203450346F347234EE
:106146007434203425346434293400342D342D3409
:106156002D3443346F346D346D3461346E346434AD
:1061660073342D342D342D340D340A340034203458
:1061760020347C34203448346F3474346C346934BD
:106186006E3465343A342534303432346434003471
:1061960053344134563445345F3454344F345F34C9
:1061A60045344534503452344F344D34003444343D
:1061B6004F345F34463455344C344C345F345234A7
:1061C6004534533445345434003420344F34463443
:1061D60046343A34253464342D34253464340D344D
:1061E6000A34003420344F344E343A34253464347F
:1061F6002D34253464340D340A34003420342D34DF
:10620600203464346F346E3465342E340D340A34DD
:10621600003420347C34203448346F346F346B348B
:106226003A34253473340034203450346F347234A5
:1062360074342034253432346434003453344534D1
:1062460054342034453458345434203400344434DF
:10625600493441344C3454344F344E34453400348C
:1062660053344534543420344134413420340034DA
:10627600533445345434203448344C3420340034B8
:10628600523449344E34473449344E34473400345A
:10629600543441344C344B3449344E34473400344E
:1062A6004434493441344C3449344E344734003450
:1062B600433441344C344C3449344E34473400343E
:1062C60052344F345534543449344E344734003400
:1062D60055344E3441345634413449344C34003408
:1062E60055344E344B344E344F3457344E340034D8
:1062F6004134553454344F3441344E3453340034DD
:1063060028346E3475346C346C34293400342D34AE
:1063160020344E3447340D340A3400342D342034BE
:106326004F344B340D340A34003452344634463438
:10633600463446340D3400345334423443345434F2
:106346004C34203400344F344634463428344834F0
:10635600293400345034423458343E342034003426
:106366004F344E3428344C34293400340D340A3436
:106376000D340A340034523445344C34203400345D
:1063860043344F344E3420340034493444344C348E
:1063960045340034483445344C3450340034533496
:1063A600543441345434003442345534533459341B
:1063B600003408342034083400344F34463446342C
:1063C600003431342E34003432342E340034333435
:1063D6002E34003434342E34003435342E34003424
:0663E6004F344E34003478
:020000040001F9
:0A000E008C3FFC3FEE0EFF3FFF3F6A
:00000001FF
