:1000000080315228FF3404347E1480310030860061
:10001000003087000B1F0D280E2850284E01191E96
:10002000122813281E280F1E162817281E284301E1
:100030002B088A002A080A0080315028991E21289E
:1000400022282D288F1E252826282D2843012908FF
:100050008A0028080A0080315028991C302831284D
:1000600039288F1C342835283928AB31E7238031D3
:100070005028191C3C283D2845280F1C40284128A1
:100080004528AB31EB23803150289A1C4828492859
:100090005028901C4C284D285028AC3182248031A7
:1000A0007E10090080315428803103208031FD000A
:1000B0004101803102208031EF004201A031002057
:1000C0008031ED00A03101208031EE00A03102200E
:1000D0008031EF0034308400AC30850043011200E1
:1000E000CE001200CF001200D0001200D10012008A
:1000F000D2001200D3001200D4001200D500C83084
:1001000084002D3085002830FE000230FF00AC3125
:1001100076248031F701F801F901FA01FB01FC01B5
:100120004101EB01EC01ED01EE015430840001309E
:1001300085001930FE000030FF00AC31762480319C
:10014000A0308400013085002E30FE000030FF001A
:10015000AC3176248031203084000230850040307C
:10016000FE000030FF00AC3176248031A0308400E6
:10017000023085004030FE000030FF00AC317624B4
:10018000803120308400033085004030FE00003094
:10019000FF00AC3176248031A0308400033085002C
:1001A0004030FE000030FF00AC31762480317E10FC
:1001B00040018031DB2815304201BF004B30BE00CA
:1001C000BE30890BE128BE0BE128BF0BE1280000FF
:1001D000AD316A2580318D304001A0002530A1006D
:1001E000AC31572480318B170B1709304001E100E7
:1001F000BD30E200AC31CE248031AE304001E100B0
:10020000BA30E200C230E300BB30E400AC31CE24AF
:10021000803100304201C6007F30C700803040018D
:10022000E100B530E2000030E3007F30E400AC31A3
:10023000CE248031A4304001E100B730E20000302C
:10024000E3000130E400AC31CE248031A631292610
:1002500080318731FE2780314201ED002930400195
:10026000E100BA30E20042016D08BE00BF013E0865
:100270004001E30042013F084001E400AC31CE24DC
:10028000803181304001E100B730E200AC31CE2452
:100290008031E8304001A400BC30A500AD315125CB
:1002A000803105304201BF000F30BE00F130890BB4
:1002B0005729BE0B5729BF0B57294201CA017F2975
:1002C000E8304001A400BC30A500AD31512580319B
:1002D00005304201BF000F30BE00F130890B6E299E
:1002E000BE0B6E29BF0B6E2944304001E100BD30CA
:1002F000E200AC31CE24803102304201CA074A0804
:100300006D0203188429852960290D304001E10020
:10031000BC30E200AC31CE248031D5304001E10068
:10032000B930E200AC31CE24803101304201D0003E
:10033000DE290130D100D629640042015008400175
:10034000A800420151084001A90001309031142059
:10035000803154304001E100BC30E20042015008DD
:10036000BE00BF013E084001E30042013F084001DA
:10037000E40042015108C000C10140084001E5000D
:10038000420141084001E600AC31CE248031033007
:100390004201BF000830BE007730890BCD29BE0B6B
:1003A000CD29BF0BCD2902304201D10751086D0282
:1003B0000318DB29DC299C290130D00750086D0285
:1003C0000318E329E42999290B304001E100BD30ED
:1003D000E200AC31CE24803101304201D000352A18
:1003E0000130D1002D2A6400420150084001A800CC
:1003F000420151084001A9000030903114208031A1
:1004000020304001E100BC30E20042015008BE0053
:10041000BF013E084001E30042013F084001E40003
:1004200042015108C000C10140084001E5004201FD
:1004300041084001E600AC31CE2480310330420156
:10044000BF000830BE007730890B242ABE0B242A57
:10045000BF0B242A02304201D10751086D02031854
:10046000322A332AF3290130D00750086D020318CD
:100470003A2A3B2AF0290B304001E100BD30E2006E
:10048000AC31CE24803144304001E100B930E2008B
:10049000AC31CE248031B8304001E100B930E20007
:1004A000AC31CE2480314201D201132B5208BE0060
:1004B000BF010530BE35BF0D890B5A2AC830C000B8
:1004C0002D30C1003E08400786003F08413D8700AF
:1004D00081015208A3311B2380314201BE00520822
:1004E000BF00C0010530BF35C00D890B732AC9306C
:1004F000C1002D30C2003F084107C3004008423D03
:10050000C40043088600440887003E088100520862
:10051000BE00BF010530BE35BF0D890B8B2ACA3026
:10052000C0002D30C1003E08400786003F08413D15
:1005300087005208C200C3010530C235C30D890BC4
:100540009D2AC930C4002D30C500420844078400EC
:100550004308453D8500000881005208BE00BF01E8
:100560000530BE35BF0D890BB12ACB30C0002D3010
:10057000C1003E08400786003F08413D87008101D9
:100580005208BE00BF010530BE35BF0D890BC42A1D
:10059000CC30C0002D30C1003E08400786003F0827
:1005A000413D870081015208BE00BF010530BE35C4
:1005B000BF0D890BD72ADD30C0002D30C1003E08A9
:1005C000400786003F08413D87000030C03FC13FE3
:1005D0005208BE00BF010530BE35BF0D890BEC2AA5
:1005E000DF30C0002D30C1003E08400786003F08C4
:1005F000413D87000030C03FC13F5208BE00BF01EF
:100600000530BE35BF0D890B012BE330C0002D3006
:10061000C1003E08400786003F08413D8700FF308B
:1006200081000130D2076D085202031C182B192BD0
:10063000562A05304201BF000F30BE00F130890B51
:100640001F2BBE0B1F2BBF0B1F2B0A304001E100DD
:10065000BC30E200AC31CE24803109304001E100F1
:10066000B830E200AC31CE2480314201CD01892B7B
:100670005E304001E100BC30E20042014D08013E25
:100680004001E300003003180130E400AC31CE2417
:10069000803142014D08BE00BF010530BE35BF0D9F
:1006A000890B4E2BC930C0002D30C1003E084007D9
:1006B00086003F08413D87000108031D602B612B28
:1006C0006A2BE1304001E100BC30E200AC31CE24C5
:1006D0008031862B4D08BE00BF010530BE35BF0DF1
:1006E000890B6E2BC830C0002D30C1003E0840077A
:1006F00086003F08413D870008308100DA30400124
:10070000E100BC30E200AC31CE2480310130420146
:10071000CD076D084D02031C8E2B8F2B382BA73075
:100720004001E100B530E200AC31CE2480319D3192
:100730000F2580314201CE01172C4E08BE00BF01AB
:100740003E084001A00042013F084001A1001530D1
:10075000A2000030A300AE3152268031CA304201DF
:10076000C0002E30C1004001200842014007860031
:10077000400121084201413D87000103031DC12BB7
:10078000C22BD42BF7304001E100BA30E200420125
:100790004E08013E4001E300003003180130E40040
:1007A000AC31CE248031142C4E08BE00BF013E086F
:1007B0004001A00042013F084001A1001530A20005
:1007C0000030A300AE3152268031C8304201C00053
:1007D0002E30C10040012008420140078600400140
:1007E00021084201413D87000108C200C3014208BF
:1007F000C8004308C9004F304001E100BB30E200AF
:1008000042014E08013E4001E30000300318013070
:10081000E400420149084001E60042014808400165
:10082000E500AC31CE24803101304201CE076D08A5
:100830004E02031C1C2C1D2C9D2B94304001E1000A
:10084000BA30E200AC31CE2480314201CF017D2CA0
:100850004F08BE00BF013E084001A00042013F0812
:100860004001A1001530A2000030A300AE31522695
:100870008031CA304201C0002E30C1004001200842
:10088000420140078600400121084201413D8700A6
:100890000103031D4C2C4D2C7A2CB1304001E1009A
:1008A000BB30E20042014F08013E4001E30000304E
:1008B00003180130E400AC31CE2480310330400114
:1008C000D60042014F089831DA20803115304201BC
:1008D000BF004B30BE00BE30890B6C2CBE0B6C2CA5
:1008E000BF0B6C2C00004001D60142014F0898312B
:1008F000DA20803101304201CF076D084F02031C1E
:10090000822C832C282C0B304001E100BD30E2000A
:10091000AC31CE24803161304001E100B930E200D9
:10092000AC31CE24803164004201CC019E2C4C08B5
:100930009A31DF22803101304201CC076D084C0230
:10094000031CA32CA42C972CAC313C248031003AFE
:100950000319AB2CAC2C932CAD31BB25803142015B
:10096000D30041016E08031DB62CB72CC22C1B30DE
:1009700042015306031DBD2CBE2CC22C0130410187
:10098000EE00932C41016E03031DC72CC82CD62CFE
:100990005B3042015306031DCE2CCF2CD32C0230EA
:1009A0004101EE00932C4101EE01932C02306E06C2
:1009B000031DDB2CDC2C192D413042015306031D95
:1009C000E22CE32CD32CCB01F02C36304001E1009B
:1009D000BD30E200AC31CE24803101304201CB0782
:1009E0006C084B02031CF52CF62CE52C2030400142
:1009F000A0000230A100A030A2000330A300AE315D
:100A00003326803120304001A000AD313B258031BC
:100A1000400120084201EC0033304001E100BC30CD
:100A2000E2002030E3000230E400AC31CE2480311B
:100A3000D32C0D304201530603191F2D202D262DD6
:100A40000A305306031D252D262D5B2D5308AE318C
:100A50009626803142016C08203E860002308700D5
:100A600081016C080319352D362D422DA03040012F
:100A7000A0000330A1002030A2000230A300AE315C
:100A80003326803120304001EC0085319C258031B7
:100A90000B304001E100BD30E200AC31CE248031AA
:100AA000FD304001E100BC30E200AC31CE248031A9
:100AB0004201EC01932C083053060319602D612D7F
:100AC000672D7F305306031D662D672D772D6C082B
:100AD00003196B2D6C2D932C0130EC023630400144
:100AE000E100BD30E200AC31CE248031932C3F30A8
:100AF0006C0203187C2D7D2D932C5308AE31962665
:100B00008031613042015302031C872D882D902DC6
:100B10007B30530203188D2D8E2D902D2030D30263
:100B20006C08203E860002308700530881000130A7
:100B3000EC07932C8031522840016C08860002306B
:100B400087000108031DA52DA62DA82D9731FF2F85
:100B50000B30E100BD30E200AC31CE2485314001E4
:100B60006C08A0002730A100BD30A200AE31C02625
:100B70008531400120082104031DBF2DC12D903176
:100B8000D5282330E100BB30E200C230E300BB30A7
:100B9000E400AC31CE24853141016F0A031DD12D13
:100BA000D22DDB2D64304001E100BB30E200AC31DE
:100BB000CE248531EF2D0D304001E100BB30E20045
:100BC00041016F084201A000A10120084001E3009B
:100BD000420121084001E400AC31CE24853160306F
:100BE0004001E100BA30E200AC31CE24853142014F
:100BF000BD01A72F3D08A000A10120084001A000D1
:100C0000420121084001A1001530A2000030A300DC
:100C1000AE3152268531CA304201A2002E30A300E7
:100C200040012008420122078600400121084201BC
:100C3000233D87000103031D1E2E1F2E2C2E28305E
:100C40004001A0000130A1002C30A200BD30A30063
:100C5000AE3133268531382E28304001A0000130D6
:100C6000A1001830A200BD30A300AE31332685317B
:100C700042013D08A000A10120084001A00042015E
:100C800021084001A1001530A2000030A300AE31C0
:100C900052268531C8304201A2002E30A300400107
:100CA0002008420122078600400121084201233D1D
:100CB00087000108A400A5012408B2002508B3009C
:100CC000CB304001E100B830E20042013D08013E76
:100CD0004001E300003003180130E4004201330812
:100CE0004001E600420132084001E5002830E700FB
:100CF0000130E80042013D08A000A1010530A03507
:100D0000A10D890B7F2EC830A2002D30A300200832
:100D1000220786002108233D87000108A43177249B
:100D2000853140012108EA002008E900AC31CE24D9
:100D3000853142013D08A000A1010530A035A10D7B
:100D4000890B9E2EE330A2002D30A300200822073D
:100D500086002108233D8700010A0319B02EB12E19
:100D6000D42E8D304001E100BB30E20042013D084D
:100D7000A000A1010530A035A10D890BBB2EE330E9
:100D8000A2002D30A3002008220786002108233D61
:100D900087000108013E4001E300003003180130E4
:100DA000E400AC31CE24853142013D08A000A10110
:100DB0000530A035A10D890BD92EC930A2002D30E8
:100DC000A3002008220786002108233D8700010890
:100DD000031DEB2EEC2EF12E0330AC00BD30AD0028
:100DE000F52EF630AC00BC30AD002B304001E100F8
:100DF000BC30E20042012D084001E40042012C0811
:100E00004001E300AC31CE24853142013D08A00011
:100E1000A10120084001A000420121084001A100D9
:100E20001530A2000030A300AE3152268531CB3000
:100E30004201A2002E30A3004001200842012207F7
:100E40008600400121084201233D87000108031963
:100E50002A2F2B2F9C2FFD304001E100BB30E200F8
:100E6000AC31CE2485314201AF01762F3D08A00080
:100E7000A10120084001A000420121084001A10079
:100E80001530A2000030A300AE3152268531CC309F
:100E90004201A2002E30A300400120084201220797
:100EA000A400400121084201233DA5002F0824078A
:100EB00086000030253D87000108A600A70126080E
:100EC000B2002708B30028304001E100BC30E20046
:100ED000420133084001E400420132084001E300CE
:100EE000AC31CE24853101304201AF073D08A0006E
:100EF000A10120084001A000420121084001A100F9
:100F00001530A2000030A300AE3152268531CB301F
:100F10004201A2002E30A300400120084201220716
:100F20008600400121084201233D870001082F026D
:100F3000031C9B2F9C2F362F0B304001E100BD304E
:100F4000E200AC31CE24853101304201BD076D088D
:100F50003D02031CAC2FAD2FFA2D7A304001E10089
:100F6000BA30E200AC31CE248531A62D4001960185
:100F70000430970003309800043091009B309200B9
:100F8000473093007E01B8010830C300CE01043021
:100F9000B9009230C4004730CF00E501BA01C50165
:100FA000D001FF30BB00FF30C600FF30D100FF3062
:100FB000BC00FF30C700FF30D2000830E800093025
:100FC0007D01CB0010307E019A0010307D01C500FC
:100FD00014307E01A00011307D01C60015307E0165
:100FE000A100BD01BE01BF01C801C901CA01D301F1
:100FF000D401D501E901EA01EB0108007D080800F0
:101000004001250826040319062807280D2825086D
:101010002604031D0C280D2812282308AC31BE24F9
:1010200088315D282508860026088700493116008A
:10103000010403191C281D283D28250886002608C0
:1010400087004931403FA700413FA800250886009E
:10105000260887004231403FA900413FAA002A08E4
:10106000803AAB002808803A2B02031D3928270854
:10107000290203183C283D285D28400125088600E8
:101080002608870042312508840026088500003F95
:10109000A700013FA800403F27078400413F283DAB
:1010A0008500230880002508860026088700423135
:1010B0000130810741310318810A080028304001BE
:1010C000E100BC30E20041012E083C07A0000030E6
:1010D0003D3DA10020088600210887004531010818
:1010E000A200A30122084001E300410123084001BE
:1010F000E400AC31CE24883101304101AE073C0818
:1011000086003D088700443101082E02031C89280F
:101110008A285E2824304001E100B530E200AC317D
:10112000CE248831F02F4001D601D60A41013B0878
:101130009831DA20883141013C0886003D0887005B
:10114000433181013C0886003D088700443181011C
:101150003C0886003D088700013081006C3040016A
:10116000E100B830E20041013B08013E4001E300EC
:10117000003003180130E400AC31CE248831F02F68
:101180003C0886003D08870042310103031DC92841
:10119000CA28F02F3C0886003D088700413101082D
:1011A000031DD328D428F02F4001D60141013B086C
:1011B0009831DA20883141013C0886003D088700DB
:1011C0004331013081005830A0000230A1003C08BA
:1011D00086003D08870055312008C03F2108C13FE7
:1011E0003C0886003D08870002308100CD30400178
:1011F000E100B530E20041013B08013E4001E3005F
:10120000003003180130E400AC31CE248831F02FD7
:101210003C0886003D08870042310103031D112967
:10122000122930293C0886003D0887004131010819
:10123000031D1B291C2930293C0886003D08870016
:101240004331013081075830A0000230A1003C0832
:1012500086003D08870055312008C03F2108C13F66
:101260003C0886003D08870041310103031D3929F0
:101270003A29102A3C0886003D088700553116009F
:101280000104031D44294529102A3C0886003D0815
:1012900087004331010803194E294F29102A3C08C1
:1012A00086003D08870043310A3001060319592999
:1012B0005A2967293C0886003D0887004331010808
:1012C000A000A1012008A9002108AA006929A901FC
:1012D000AA012908B0003C0886003D088700443177
:1012E00001083C07A00000303D3DA1002008860019
:1012F000210887004531300881003C0886003D0800
:1013000087004431013081073C0886003D08870092
:10131000433181019B304001E100B930E2004101DD
:101320003B08013E4001E300003003180130E400B7
:1013300041013008A000A10120084001E500410161
:1013400021084001E600AC31CE24883141013C083F
:1013500086003D08870044310103031DB029B129EF
:10136000D4296F0A0319B529B629D42930086F0684
:10137000031DBB29BC29D4293C0886003D088700F1
:101380005C3101308100A7304001E100B130E20062
:1013900041013B08013E4001E300003003180130E9
:1013A000E400AC31CE24883141013C0886003D0880
:1013B00087005C3101080319DE29DF29FF293C0879
:1013C00086003D088700443110300102031CE929E2
:1013D000EA29F1293C0886003D0887000330810096
:1013E000102AB830A0000B30A1003C0886003D0850
:1013F000870057312008C03F2108C13F102A3C0810
:1014000086003D088700443102300102031C092A8E
:101410000A2A102A3C0886003D0887000330810014
:101420003C0886003D08870041310103031D192A4D
:101430001A2AF02F3C0886003D0887005531160017
:101440000104031D242A252AF02F3C0886003D08AC
:10145000870043310108031D2E2A2F2AF02F3C0854
:1014600086003D0887005C3101080319382A392AB3
:10147000F02F3C0886003D0887004431023001020D
:10148000031C432A442AF02F3C0886003D088700AD
:10149000573116000104031D4E2A4F2AF02F0B303E
:1014A0004001E100B530E20041013B08013E40014E
:1014B000E300003003180130E400AC31CE24883161
:1014C00041013C0886003D08870003308100F02F71
:1014D0003C0886003D0887005C3101080319712A29
:1014E000722AC92BFF30B800B601B72A3608A0000F
:1014F000A10120084001A000410121084001A100F4
:101500001530A2000030A300AE3152268831CA3017
:101510004101A2002E30A300400120084101220712
:101520008600400121084101233D87000103031D7E
:101530009A2A9B2AB52A3608A000A1010530A035B9
:10154000A10D890B9F2AC830A2002D30A3002008CE
:10155000220786002108233D87000108031DB12AC8
:10156000B22AB52A3608B800BF2A0130B6074201B0
:101570006D0841013602031CBE2ABF2A762A380AAA
:101580000319C32AC42AA82B3C0886003D088700FB
:101590005B31380881003808A000A1010530A03572
:1015A000A10D890BCF2AE330A2002D30A300200823
:1015B000220786002108233D87003B088100400167
:1015C000D60141013B089831DA20883141013C08BD
:1015D00086003D088700043081003808A000A10182
:1015E0000530A035A10D890BF12AE530A2002D3080
:1015F000A3002008220786002108233D8700013030
:1016000081003808A000A1010530A035A10D890B8B
:10161000052BE630A2002D30A3002008220786000B
:101620002108233D870081013808A000A101053071
:10163000A035A10D890B182BE730A2002D30A30097
:101640002008220786002108233D8700810164309D
:10165000A0000030A1003808A200A3010530A23587
:10166000A30D890B2F2BDF30A4002D30A5002208FD
:10167000240786002308253D87002008C03F210855
:10168000C13F3808A000A1010530A035A10D890B8C
:10169000452BC830A2002D30A30020082207860069
:1016A0002108233D87000A3081006A304001E100B3
:1016B000B230E20041013B08013E4001E30000304E
:1016C00003180130E40041013808013E4001E50003
:1016D000003003180130E600AC31CE2488310130EF
:1016E0004101AF00942B28304001E100BC30E20002
:1016F00041012F083C07A00000303D3DA10020081B
:1017000086002108870045310108A200A3012208B4
:101710004001E300410123084001E400AC31CE2444
:10172000883101304101AF073C0886003D08870041
:10173000443101082F02031C9E2B9F2B732B0B306F
:101740004001E100BD30E200AC31CE248831F02F01
:1017500003304001D60041013B089831DA2088313E
:1017600041013C0886003D088700073081007E303B
:101770004001E100B930E20041013B08013E400177
:10178000E300003003180130E400AC31CE2488318E
:10179000F02F3C0886003D08870046310A304001A2
:1017A000A00041013C0884003D0885000531000887
:1017B000AD312725883101074101AD00FF30B90067
:1017C000B4010D2C3408A000A10120084001A000A4
:1017D000410121084001A1001530A2000030A30002
:1017E000AE3152268831C8304101A2002E30A3000C
:1017F00040012008410122078600400121084101E3
:10180000233D870001082D06031D072C082C0B2CF7
:101810003408B900152C0130B40742016D084101AC
:101820003402031C142C152CE22B390A0319192C31
:101830001A2C452C39083B0603191F2C202C452C4B
:101840003908A000A10120084001A00041012108A1
:101850004001A1001530A2000030A300AE31522695
:101860008831CA304101A2002E30A3004001200877
:10187000410122078600400121084101233D8700E4
:101880000103031D442C452C712C03304001D6006C
:1018900041013B089831DA20883141013C0886003B
:1018A0003D088700073081003A304001E100B23046
:1018B000E20041013B08013E4001E3000030031813
:1018C0000130E40041012D08A000A10120084001E1
:1018D000E500410121084001E600AC31CE24883109
:1018E000F02F3908A000A1010530A035A10D890B0A
:1018F000752CC830A2002D30A300200822078600D6
:101900002108233D87000108031D872C882CEA2C21
:101910003C0886003D0887005B31390881003908A2
:10192000A000A1010530A035A10D890B932CE33057
:10193000A2002D30A3002008220786002108233DA5
:1019400087003B08810002304001D60041013B087E
:101950009831DA20883141013C0886003D08870033
:10196000043081004001D601D60A41013908A63170
:10197000C526883141013908A000A1010530A035F4
:10198000A10D890BBF2CC830A2002D30A300200868
:10199000220786002108233D870005308100F330AF
:1019A0004001E100B530E20041013B08013E400149
:1019B000E300003003180130E40041013908013E22
:1019C0004001E500003003180130E600AC31CE24C0
:1019D0008831F02F3908A000A1010530A035A10DF4
:1019E000890BEE2CC830A2002D30A300200822075E
:1019F00086002108233D870009300106031D012DC3
:101A0000022D5A2D3C0886003D0887005B313908BD
:101A100081003908A000A1010530A035A10D890B76
:101A20000D2DE330A2002D30A300200822078600F0
:101A30002108233D87003B0881004001D601410178
:101A40003B089831DA20883141013C0886003D0886
:101A50008700063081003C0886003D0887005B3126
:101A60000108A8003B08013E4001A80041012808E8
:101A7000013E4001A90001309031142088314A30E4
:101A80004001E100B330E20041013B08013E40016A
:101A9000E300003003180130E40041013908013E41
:101AA0004001E500003003180130E600AC31CE24DF
:101AB0008831F02F03304001D60041013B089831B6
:101AC000DA20883141013C0886003D088700073054
:101AD000810018304001E100B730E20041013B08CD
:101AE000013E4001E300003003180130E4004101F1
:101AF0003908013E4001E500003003180130E600DE
:101B0000AC31CE248831F02F3C0886003D08870098
:101B100042310108031D8D2D8E2DF02F3C088600CB
:101B20003D08870041310103031D972D982DF02FAB
:101B30004001D60141013B08A631C526883141014B
:101B40003C0886003D0887005B310108B500400174
:101B5000D601410135089831DA20883141013B082E
:101B6000013E4001A80041013508013E4001A900A5
:101B7000013090311420883141013C0886003D0835
:101B80008700063081003508A000A1010530A0358E
:101B9000A10D890BC72DC830A2002D30A30020084D
:101BA000220786002108233D870006308100BD30D2
:101BB0004001E100B430E20041013B08013E400138
:101BC000E300003003180130E40041013508013E14
:101BD0004001E500003003180130E600AC31CE24AE
:101BE0008831F02F3C0886003D08870057311600E9
:101BF0000104031DFC2DFD2DF02F3C0886003D083F
:101C000087005B310108B700370A0319082E092E37
:101C1000212E3708A000A1010530A035A10D890BA8
:101C20000D2EC830A2002D30A30020082207860008
:101C30002108233D8700043001060319202E212EA0
:101C40002F2E4001D60141013B08A631C52688311F
:101C500041013C0886003D0887008101F02F3C08C7
:101C600086003D0887005F310108031D382E392E9C
:101C7000C72E3C0886003D0887005D313708A0006C
:101C8000A1010530A035A10D890B422ECC30A20058
:101C90002D30A3002008220784002108233D850061
:101CA000000801020318552E562EB12E3708A00049
:101CB000A1010530A035A10D890B5A2E3C088600E4
:101CC0003D0887005D31CD30A2002D30A300010812
:101CD0002207A4000030233DA50020082407860029
:101CE0002108253D87000108B10031080319792E2C
:101CF0007A2E822E3108A000A1012008AB00210815
:101D0000AC00862E0A30AB000030AC003C088600E8
:101D10003D0887005E312B0881003C0886003D08A5
:101D200087005F3101308100C7304001E100B230EF
:101D3000E20041013B08013E4001E300003003188E
:101D40000130E40041013108A000A1012008400158
:101D5000E500410121084001E600AC31CE24883184
:101D6000C72E3C0886003D0887000B3081004001EB
:101D7000D60141013B08A631C52688310230400119
:101D8000D600410137089831DA208831F02F41011F
:101D90003C0886003D0887005F310103031DD12EFA
:101DA000D22EF02E4001D601D60A41013B08A631C1
:101DB000C526883114304101A0000030A1003C0844
:101DC00086003D08870057312008C03F2108C13FE9
:101DD0003C0886003D0887005F3102308100F02F0B
:101DE0003C0886003D0887005F3102300106031D74
:101DF000FA2EFB2EF02F4001D60141013B08A631FF
:101E0000C526883141013C0886003D0887005E31C7
:101E1000013081023C0886003D0887005E310108E0
:101E20000319132F142F292F1430A0000030A10004
:101E30003C0886003D08870057312008C03F210834
:101E4000C13F3C0886003D0887005F3101308100BA
:101E5000F02F2C30A0000130A1003C0886003D0886
:101E6000870057312008C03F2108C13F3C08860049
:101E70003D0887005F3181013C0886003D088700EE
:101E80005D3101308107F02F3C0886003D08870056
:101E900042310108031D4D2F4E2FF02F3C088600C4
:101EA0003D08870041310103031D572F582FF02FA4
:101EB0003C0886003D0887005B310108B200400104
:101EC000D601410132089831DA20883141013B08BE
:101ED000013E4001A80041013208013E4001A90035
:101EE000013090311420883141013C0886003D08C2
:101EF0008700063081003208A000A1010530A0351E
:101F0000A10D890B7F2FC830A2002D30A30020081F
:101F1000220786002108233D870006308100E43037
:101F20004001E100B430E20041013B08013E4001C4
:101F3000E300003003180130E400AC31CE248831D6
:101F4000F02F3C0886003D08870057311600010439
:101F5000031DAB2FAC2FF02F4001D60141013B08F0
:101F60009831DA20883141013C0886003D0887001D
:101F70008101F02F41013C0886003D0887000108DF
:101F8000A000A1012108003A0319C72FF02F200853
:101F9000003A0319FE2F013A0319C028033A031926
:101FA0000829013A0319682A073A0319F02F013A60
:101FB0000319842D033A0319F02F013A0319F02F66
:101FC0000F3A0319F02F013A0319F02F033A0319BE
:101FD000F22D013A0319442F073A0319A12FF02FCC
:101FE00041013C0886003D08870042313C088400DE
:101FF0003D08850001310008810008009931D5298C
:102000000130450190008F019101F9308D008C0164
:1020100000304201E8001830E9004E0190109A1497
:10202000D03045018E0008004001AC002C03031D98
:102030001A281B281E284330AD0020285230AD003E
:102040000D30B200B3010A30A0000030A100280812
:10205000AA00AB012A08A2002B08A300A1319F21EE
:10206000903140012008303EAE000A30A000003020
:10207000A1002808AA00AB012A08A2002B08A3008F
:10208000A1314D21903140012008303EAF000A308F
:10209000A0000030A1002908AA00AB012A08A20074
:1020A0002B08A300A1319F21903140012008303E30
:1020B000B0000A30A0000030A1002908AA00AB013E
:1020C0002A08A2002B08A300A1314D219031400124
:1020D0002008303EB1002D30A4000030A500AD3105
:1020E000512590310B304001AA006230890B7628CF
:1020F000AA0B762800000A304001A0000030A100A1
:102100002908AA00AB012A08A2002B08A300A131CC
:102110009F21903140012008303EAE000A30A000DF
:102120000030A1002908AA00AB012A08A2002B0850
:10213000A300A1314D21903140012008303EAF0075
:102140000A30A0000030A1002808AA00AB012A082C
:10215000A2002B08A300A1319F219031400120084B
:10216000303EB0000A30A0000030A1002808AA00CC
:10217000AB012A08A2002B08A300A1314D21903108
:1021800040012008303EB1002D30A4000030A500F1
:10219000AD31512590310B304001AA006230890BDE
:1021A000CF28AA0BCF28000008006C08A0006830D8
:1021B000A100BC30A2000830A3000030A400A03170
:1021C000FC209031400120082104031DE828E92863
:1021D00089296C08083E8600023087000108CF3E3E
:1021E0004201B1006D0831020318F728F8286D2963
:1021F00040016C08093E860002308700203001064D
:10220000031D032904296D296C080A3E860002304B
:10221000870030300102031C0E290F296D296C083C
:102220000A3E8600023087003A300102031819295D
:102230001A296D296C080B3E8600023087000A308F
:10224000A0006C080A3E8400023085000008AD3111
:10225000272590310107F03E4201AE003108A00071
:10226000A10120084001A000420121084001A10075
:102270001530A2000030A300AE3152269031C83094
:102280004201A2002E30A300400120084201220793
:102290008600400121084201233D87002E0881006D
:1022A00032304001E100B530E20042013108013E28
:1022B0004001E300003003180130E40042012E0821
:1022C000A000A10120084001E500420121084001D1
:1022D000E600AC31CE249031FF2FC7304001E10041
:1022E000BA30E200AC31CE2490314C304001E100F4
:1022F000B130E20042016D08A000A10120084001B8
:10230000E300420121084001E400AC31CE249031C9
:10231000FF2F6C08A0008330A100BC30A200073062
:10232000A3000030A400A031FC209031400120081F
:102330002104031D9C299D29572A6C08073E86000D
:10234000023087000108CF3E4201B900B4014001CC
:102350006C08093EA0003E30A100BD30A200023052
:10236000A3000030A400A031FC20903140012008DF
:102370002104031DBC29BD29C12902304201B4003A
:10238000D9296C08093EA0003A30A100BD30A20056
:102390000330A3000030A400A031FC2090314001A4
:1023A00020082104031DD529D629D929013042014D
:1023B000B40042016D0839020318DF29E0293B2AE5
:1023C00034080319E429E5293B2A3403031DE929CC
:1023D000EA290F2A3908A000A1010530A035A10D76
:1023E000890BEE29C830A2002D30A3002008220757
:1023F00086002108233D8700810164304001E1000F
:10240000B630E20042013908013E4001E3000030ED
:1024100003180130E400AC31CE249031FF2F02309C
:102420003406031D142A152AFF2F3908A000A10124
:102430000530A035A10D890B192AC830A2002D3016
:10244000A3002008220786002108233D87000930C9
:102450008100F3304001E100B230E200420139086E
:10246000013E4001E300003003180130E400AC31CC
:10247000CE249031FF2FC7304001E100BA30E20096
:10248000AC31CE2490313F304001E100B630E20063
:1024900042016D08A000A10120084001E3004201B3
:1024A00021084001E400AC31CE249031FF2F6C08AC
:1024B000A000EF30A100BB30A200AE31C0269031A9
:1024C000400120082104031D662A672A7C2AE03087
:1024D000E100BA30E200AC31CE2490312930420123
:1024E000A1009630A0007F30890B742AA00B742ABB
:1024F000A10B742A0100FF2F6C08A000EF30A1008F
:10250000BC30A2000630A3000030A400A031FC20A3
:102510009031400120082104031D8F2A902A1B2C92
:102520006C08063EA0001330A100BD30A2000430AC
:10253000A3000030A400A031FC209031400120080D
:102540002104031DA42AA52A3D2B6C080A3E8600FF
:10255000023087000108D03E4201B50040016C08FE
:102560000C3E8600023087000108D03E4201B600D2
:1025700040016C080B3E86000230870020300106C7
:10258000031DC32AC42A222B2630E100B930E20001
:1025900042013508A000A10120084001E3004201EA
:1025A00021084001E40042013608A200A3012208EC
:1025B0004001E500420123084001E60042013608DF
:1025C000A400A50124084001E700420125084001BC
:1025D000E80042013508A600A70126084001E900ED
:1025E000420127084001EA00AC31CE24903142017B
:1025F00035084001A800420136084001A900013019
:1026000090311420903146304001E100B430E200B6
:1026100042013508A000A10120084001E300420169
:1026200021084001E40042013608A200A30122086B
:102630004001E500420123084001E600AC31CE2410
:102640009031FF2FF130E100B930E200AC31CE24FF
:1026500090319F304001E100B330E20042016D084B
:10266000A000A10120084001E3004201210840012F
:10267000E400AC31CE249031FF2F6C08063EA00060
:102680000E30A100BD30A2000430A3000030A40031
:10269000A031FC209031400120082104031D512B62
:1026A000522BEA2B6C080A3E860002308700010894
:1026B000D03E4201B70040016C080C3E860002305B
:1026C00087000108D03E4201B80040016C080B3E73
:1026D00086000230870020300106031D702B712B0D
:1026E000CF2B0830E100B930E20042013708A000EA
:1026F000A10120084001E300420121084001E4005B
:1027000042013808A200A30122084001E50042016D
:1027100023084001E60042013808A400A50124086E
:102720004001E700420125084001E8004201370866
:10273000A600A70126084001E90042012708400140
:10274000EA00AC31CE249031420137084001A800A4
:10275000420138084001A900003090311420903126
:102760001D304001E100B430E20042013708A00012
:10277000A10120084001E300420121084001E400DA
:1027800042013808A200A30122084001E5004201ED
:1027900023084001E600AC31CE249031FF2FF13008
:1027A000E100B930E200AC31CE2490317530400107
:1027B000E100B330E20042016D08A000A101200851
:1027C0004001E300420121084001E400AC31CE2485
:1027D0009031FF2F6C08063EA000F230A100BB3004
:1027E000A200AE31C0269031400120082104031D13
:1027F000FA2BFB2B0B2CE830A400BC30A500AD312C
:10280000512590315E304001E100B730E200AC313B
:10281000CE249031FF2FF530E100B630E200AC312C
:10282000CE249031C6304001E100B730E200AC3137
:10283000CE249031FF2F6C08A0008B30A100BC305B
:10284000A2000730A3000030A400A031FC2090318A
:10285000400120082104031D2E2C2F2C982D6C08DC
:10286000073E8600023087000108CF3E4201BB00D0
:102870006D083B0203183D2C3E2C842D40016C0852
:10288000083E86000230870020300106031D492CD7
:102890004A2C842D6C08093EA0003A30A100BD30BE
:1028A000A2000330A3000030A400A031FC2090312E
:1028B000400120082104031D5E2C5F2C932C420153
:1028C0003B08A000A10120084001A000420121080E
:1028D0004001A1001530A2000030A300AE31522605
:1028E0009031CB304201A2002E30A30040012008DD
:1028F000420122078600400121084201233D870052
:102900008101D1304001E100B630E20042013B08D4
:10291000013E4001E300003003180130E400AC3117
:10292000CE249031FF2F4201BC01CB2C3B08A000EC
:10293000A10120084001A000420121084001A1009E
:102940001530A2000030A300AE3152269031CC30B9
:102950004201A2002E30A3004001200842012207BC
:10296000A400400121084201233DA5003C082407A2
:1029700086000030253D87003C0840016C0742017D
:10298000A6002608093E8400023085000008D03EDB
:1029900081000130BC073C0840016C074201A000E7
:1029A0002008093E86000230870030300102031CF7
:1029B000DA2CDB2CF12C3C0840016C074201A00012
:1029C0002008093E8600023087003A3001020318D1
:1029D000EA2CEB2CF12C10303C02031CF02CF12CD7
:1029E000962C3C080319F52CF62C7B2D3B08A000F7
:1029F000A10120084001A000420121084001A100DE
:102A00001530A2000030A300AE3152269031CB30F9
:102A10004201A2002E30A3004001200842012207FB
:102A20008600400121084201233D87003C088100C7
:102A30004B304001E100B830E20042013B08013E6A
:102A40004001E300003003180130E400AC31CE2433
:102A500090314201B0016C2D3B08A000A10120087B
:102A60004001A000420121084001A1001530A20050
:102A70000030A300AE3152269031CC304201A2008A
:102A80002E30A3004001200842012207A40040018B
:102A900021084201233DA5003008240786000030AC
:102AA000253D87000108A600A7012608B2002708D7
:102AB000B30028304001E100BC30E200420133089D
:102AC0004001E400420132084001E300AC31CE2471
:102AD000903101304201B0073C083002031C712DD7
:102AE000722D2C2D0B304001E100BD30E200AC31E5
:102AF000CE249031FF2F8C304001E100B830E2004D
:102B0000AC31CE249031FF2F79304001E100B0305C
:102B1000E20042016D08A000A10120084001E3008D
:102B2000420121084001E400AC31CE249031FF2F56
:102B30006C08A000D230A100BB30A200AE31C0268C
:102B400090314001200821040319A72DA82DB82D8C
:102B50006C08A000E130A100BB30A200AE31C0265D
:102B60009031400120082104031DB72DB82DC42D3C
:102B7000A731622790316E304001E100B430E200AD
:102B8000AC31CE249031FF2F6C08A0007130A10031
:102B9000BC30A2000830A3000030A400A031FC200B
:102BA0009031400120082104031DD72DD82D352E4A
:102BB0006C08083EA0003A30A100BD30A2000330EE
:102BC000A3000030A400A031FC2090314001200877
:102BD0002104031DEC2DED2DF92DFF304101EF00F7
:102BE00045304001E100BA30E200AC31CE249031F2
:102BF000FF2F6C08083E860002308700303001024B
:102C0000031C032E042E2D2E6C08083E8600023075
:102C100087003A30010203180E2E0F2E2D2E6C085D
:102C2000083E8600023087000108D03E4101EF00D7
:102C300096304001E100B430E20041016F084201EA
:102C4000A000A10120084001E30042012108400149
:102C5000E400AC31CE249031FF2FEA30E100B830EF
:102C6000E200AC31CE249031FF2F6C08A00036304A
:102C7000A100BC30A2000930A3000030A400A031A4
:102C8000FC209031400120082104031D482E492ECC
:102C90000B2F6C08093E8600023087000108CF3EEA
:102CA0004201BA006D083A020318572E582EF72E2B
:102CB00040016C080A3E8600023087002030010681
:102CC000031D632E642EF72E6C080B3EA0001830F7
:102CD000A100BD30A2000430A3000030A400A03148
:102CE000FC209031400120082104031D782E792E0C
:102CF000AD2E42013A08A000A10120084001A00029
:102D0000420121084001A1001530A2000030A300BB
:102D1000AE3152269031CA304201A2002E30A300BB
:102D2000400120084201220786004001210842019B
:102D3000233D87008101AD304001E100B630E20063
:102D400042013A08013E4001E3000030031801301F
:102D5000E400AC31CE249031FF2F6C080B3EA00074
:102D60004130A100BD30A2000230A3000030A40019
:102D7000A031FC209031400120082104031DC12E08
:102D8000C22EF72E42013A08A000A10120084001FE
:102D9000A000420121084001A1001530A20000302E
:102DA000A300AE3152269031CA304201A2002E302B
:102DB000A3004001200842012207860040012108AB
:102DC0004201233D87000130810059304001E1007C
:102DD000B530E20042013A08013E4001E300003014
:102DE00003180130E400AC31CE249031FF2F1F30A6
:102DF0004001E100B330E20042016D08A000A101F2
:102E000020084001E300420121084001E400AC3108
:102E1000CE249031FF2F6C08A0002230A100BD30DD
:102E2000A200AE31C02690314001200821040319D0
:102E30001A2F1B2F2B2F6C08A0004630A100BD308D
:102E4000A200AE31C0269031400120082104031DAC
:102E50002A2F2B2FF42FA030E100BB30E200AC3141
:102E6000CE24903189304001E100B630E200AC312F
:102E7000CE249031D9304001E100B130E200AC31D4
:102E8000CE24903142304001E100B130E2004201F5
:102E90006D08A000A10120084001E30042012108C3
:102EA0004001E400AC31CE249031C9304001E10052
:102EB000B330E200AC31CE2490310A304001E10061
:102EC000B230E20042016D08A000A10120084001DB
:102ED000E300420121084001E400AC31CE249031EE
:102EE00039304001E100B030E200AC31CE24903105
:102EF0006F304001E100B030E20042016D08A000F7
:102F0000A10120084001E300420121084001E40042
:102F1000AC31CE24903119304001E100B630E200EE
:102F2000AC31CE249031E8304001E100B730E2000E
:102F3000AC31CE2490313B304001E100B730E200AB
:102F4000AC31CE2490319A304001E100B230E20041
:102F5000AC31CE249031DA304001E100B030E200F3
:102F6000AC31CE24903175304001E100B130E20047
:102F7000AC31CE24903151304001E100A830E20064
:102F8000AC31CE24903112304001E100A830E20093
:102F9000AC31CE249031CC304001E100A830E200C9
:102FA000AC31CE2490310B304001E100BD30E20065
:102FB000AC31CE24903100304001E100B030E2006D
:102FC000AC31CE249031F3304001E100B330E20067
:102FD000AC31CE24903183304001E100BA30E200C0
:102FE000AC31CE249031FF2F3930E100BB30E2000C
:102FF0006C08E3000230E400AC31CE2490310800CC
:10300000080040012208A7002108A6002008A80007
:103010001A2826088600270887000108A500013025
:10302000A6070030A73D28088600870125088100F3
:103030000130A8070130A3020030A43B230A031D7E
:103040002528240A031D25282628092808000130E0
:103050004001C300BF1B2D282F280130302800302D
:10306000C600420163084001C500420162084001F8
:10307000C400460803193D283E285228FF30C407E3
:10308000FF30C53D4608031D462847284C282B30F5
:10309000C1000030C20050282D30C1000030C200F5
:1030A0004108C6001F30C7000030C8004301CD01F1
:1030B0008F28FF304001C707FF30C83D4708AE3EAC
:1030C0008600013087000A30A0000030A1003F08D0
:1030D000A3003E08A200A1314D21983140012108F2
:1030E000A7002008A600AD3102259831400126082E
:1030F000303E8100C301FF30C407FF30C53D0A30B8
:10310000A0000030A1003F08A3003E08A200A131AA
:103110009F21983140012108BF002008BE004001D6
:103120004808803AC00080304002031D99280130D1
:103130004702031C9C289D28BA2840013E083F04F2
:10314000031DA328A42859284308031DA828A9283B
:1031500059284508803AC00080304002031DB2283B
:1031600001304402031CB528B628BA28F718B9283C
:10317000BA285928400146080319BF28C028CB287F
:10318000FF30C707FF30C83D4708AE3E860001301C
:103190008700460881003D08B5003C08B400470898
:1031A000AE3EB6004508B8004408B700A0316A201A
:1031B000983108004001DF000130E2000130E300F7
:1031C000F1280130E2000130E3000729E201E301C8
:1031D00007290130E200E3010729E2010130E300A1
:1031E00007295608D700D8015808003A0319F928CA
:1031F00007295708003A0319E128013A0319E6287C
:10320000033A0319E928013A0319ED280729043084
:103210005F0203180C290D2960295229620803193D
:1032200012291329152916141629161063080319D3
:103230001A291B291D299614D4299610D42962080D
:10324000031923292429262916162729161263086B
:1032500003192B292C292E299616D4299612D42904
:103260006208031934293529372916173829161306
:10327000630803193C293D293F299617D429961341
:10328000D4296208031945294629482918164929CD
:103290001812630803194D294E2950299816D4296C
:1032A0009812D4295F08003A03190E29013A03192C
:1032B0001F29033A03193029013A03194129D42956
:1032C00005307D02031C65296629D4295F08FC3E70
:1032D000DE0002305E0203186E2970290130712968
:1032E0000030E1005E1C752976297B290430DA0064
:1032F0000030DB007D29DA01DB015A08E0006108BB
:103300006E3E8600013087000330D700600A8929AD
:10331000D735890B88295708FF3A810562080319B8
:1033200092299329A12961086E3E86000130870009
:103330000130D700600A9D29D735890B9C29570891
:10334000810463080319A529A629B42961086E3EE2
:103350008600013087000230D700600AB029D735D7
:10336000890BAF295708810461080319B829B929C5
:10337000BE291530DC000030DD00C2291430DC002D
:103380000030DD005C08D9002030D2000030D300CE
:103390005908D40061086E3E86000130870001089C
:1033A000D500AD311425983108003C0886003D0851
:1033B000870042310108031DDE29E0298F31F02FFB
:1033C0003C0886003D08870041310103031DE929BF
:1033D000EA29DE293C0886003D0887005C3181012E
:1033E0003B08A000A10120084001A00041012108E4
:1033F0004001A1001530A2000030A300AE315226DA
:103400009931CB304101A2002E30A30040012008A9
:10341000410122078600400121084101233D870028
:1034200001080319142A162A88319328B3014D2A5A
:1034300033083C07A00000303D3DA1002008860075
:103440002108870045313B08A200A3012208400162
:10345000A000410123084001A1001530A200003066
:10346000A300AE3152269931CC304101A4002E3058
:10347000A5004001200841012407A60040012108C1
:103480004101253DA7003308260784000030273D71
:103490008500000881000130B3073B08A000A101AE
:1034A00020084001A000410121084001A100153081
:1034B000A2000030A300AE3152269931CB30410139
:1034C000A2002E30A30040012008410122078600FF
:1034D000400121084101233D870001083302031CFC
:1034E000722A732A182A3C0886003D088700443156
:1034F0003B08A000A10120084001A00041012108D3
:103500004001A1001530A2000030A300AE315226C8
:103510009931CB304101A2002E30A3004001200898
:10352000410122078400400121084101233D85001B
:10353000000881006F0A03199E2A9F2AB22A3C08BC
:1035400086003D088700453101086F06031DA92A42
:10355000AA2AB22A3C0886003D0887005C31013067
:103560008100C42A3C0886003D08870044310330AE
:103570000102031CBC2ABD2AC42A3C0886003D085F
:1035800087005C31013081003C0886003D088700DF
:10359000033081002A304001E100B830E2004101EF
:1035A0003B08013E4001E300003003180130E40015
:1035B000AC31CE2499314101AE0188317F284101DF
:1035C000BB003B08A000A1010530A035A10D890B6F
:1035D000E52AC830A2002D30A30020082207A4004D
:1035E0002108233DA5002408BC002508BD003B0898
:1035F000A3311B239A314101A0003C08013EA100E8
:1036000000303D3DA20021088600220887002008E6
:1036100081003C0886003D08870041310108031DF8
:10362000122B142B8F31BA2F3C0886003D088700DF
:1036300042310103031D1D2B1E2B2B2BE830A00054
:103640000330A1003C0886003D088700593120085E
:10365000C03F2108C13F3C0886003D088700593122
:1036600016000104031D352B362B122B3C08860057
:103670003D088700010803193E2B3F2B122B3C0805
:1036800086003D088700053001060319482B492BA9
:10369000122B3C0886003D0887000A3001060319FA
:1036A000522B532B122B3C0886003D0887000B3011
:1036B000010603195C2B5D2B122B3C0886003D088C
:1036C00087000C3001060319662B672B122B3C0870
:1036D00086003D0887005B31010A0319702B722BAD
:1036E0009C31D72C3C0886003D0887005B310108DF
:1036F000BA003C0886003D08870004300106031D1F
:10370000822B842B9C312D2C4001D60141013A089B
:10371000A631C5269A3141013A08A000A10120082E
:103720004001A000410121084001A1001530A20084
:103730000030A300AE3152269A31CA304101A200B6
:103740002E30A300400120084101220786004001DD
:1037500021084101233D87000103031DB02BB22B3B
:103760009B31EB2B03304001D60041013A089831E0
:10377000DA209A31F4304101A0000130A1003A086A
:10378000A200A3010530A235A30D890BC32BDF30A6
:10379000A4002D30A5002208240786002308253D1B
:1037A00087002008C03F2108C13F3A08A000A101BE
:1037B0000530A035A10D890BD92BC830A2002D30C2
:1037C000A3002008220786002108233D87000C3033
:1037D00081009B31FE2B3A08A000A1010530A035E5
:1037E000A10D890BEF2BC830A2002D30A3002008BB
:1037F000220786002108233D870081013A08A000A6
:10380000A1010530A035A10D890B022CE330A200E7
:103810002D30A3002008220786002108233D8700C1
:10382000FF3081000E304001E100B130E200410183
:103830003B08013E4001E300003003180130E40082
:1038400041013A08013E4001E50000300318013013
:10385000E600AC31CE249B31D72C3C0886003D08D5
:10386000870006300106031D362C372CD72C3B0869
:10387000013E4001A80041013A08013E4001A90073
:103880000030903114209B3141013A08A000A10181
:103890000530A035A10D890B492CC830A2002D3070
:1038A000A3002008220786002108233D8700093055
:1038B000010603195C2C5D2CA92C03304001D600B5
:1038C00041013A089831DA209B3141013A08A000C1
:1038D000A1010530A035A10D890B6A2CC830A200CA
:1038E0002D30A3002008220786002108233D8700F1
:1038F000073081003A08A000A1010530A035A10DD4
:10390000890B7E2CE330A2002D30A3002008220773
:1039100086002108233D8700FF308100A53040014B
:10392000E100B030E20041013B08013E4001E3000C
:10393000003003180130E40041013A08013E400123
:10394000E500003003180130E600AC31CE249B3195
:10395000D72C3A08A000A1010530A035A10D890B94
:10396000AD2CE330A2002D30A300200822078600F2
:103970002108233D8700FF30810090304001E100A5
:10398000A830E20041013B08013E4001E300003065
:1039900003180130E40041013A08013E4001E5000E
:1039A000003003180130E600AC31CE249B314001D9
:1039B000D60141013B089831DA209B314001D60104
:1039C00041013B08A631C5269B3141013C088600D8
:1039D0003D088700093001060319EF2CF12C8F31C7
:1039E000BA2F3C0886003D08870081013C0886000C
:1039F0003D0887005B31FF3081000D304001E10060
:103A0000BA30E20041013B08013E4001E3000030D2
:103A100003180130E400AC31CE249B31EF2C003090
:103A20004201A7007F30A80000304001A0007F3095
:103A3000A100AC31F0249D31400120084201A200D8
:103A40000130A7070030A83D28084001A10042012D
:103A500027084001A000AC31F0249D31400120082E
:103A60004201A3000130A7070030A83D5A302306C9
:103A7000031D3B2D3C2DAD2D22084101EF00C83028
:103A80004201A0002E30A100A401A50124082007B6
:103A900086002508213D870028084001A100420139
:103AA00027084001A000AC31F0249D3140012008DE
:103AB000810001304201A7070030A83D0130A40772
:103AC0000030A53D00302502A83003192402031C54
:103AD0006A2D6B2D462DA601A62D26084001EC006F
:103AE000ED016C08A0006D08A1001530A2000030A7
:103AF000A300AE3152269D31C9304001EE002E3078
:103B0000EF0020086E07860021086F3D870009300E
:103B10000106031D8C2D8D2DA32D42012608400189
:103B2000EC00ED010530EC35ED0D890B932DC8301F
:103B3000EE002D30EF006C086E0786006D086F3DBB
:103B400087000930810001304201A6076D08260276
:103B5000031CAB2DAC2D6D2D782EFF304101EF00F5
:103B60004201A90129084001EC00ED016C08A00008
:103B70006D08A1001530A2000030A300AE3152261E
:103B80009D31C8304001EE002E30EF0020086E0756
:103B9000860021086F3D8700420129080B3E810005
:103BA00029084001EC00ED016C08A0006D08A1009F
:103BB0001530A2000030A300AE3152269D31C9302D
:103BC0004001EE002E30EF0020086E07860021082D
:103BD0006F3D87008101420129084001EC00ED01A1
:103BE0006C08A0006D08A1001530A2000030A300F1
:103BF000AE3152269D31CA304001EE002E30EF002A
:103C000020086E07860021086F3D87008101420170
:103C100029084001EC00ED016C08A0006D08A1002E
:103C20001530A2000030A300AE3152269D31CB30BA
:103C30004001EE002E30EF0020086E0786002108BC
:103C40006F3D87008101420129084001EC00ED0130
:103C50006C08A0006D08A1001530A2000030A30080
:103C6000AE3152269D31DC304001EE002E30EF00A7
:103C700020086E07860021086F3D87008101420100
:103C800029084001EC00ED016C08A0006D08A100BE
:103C90001530A2000030A300AE3152269D31CC3049
:103CA0004001EE002E30EF0020086E07A60021082C
:103CB0006F3DA7000030A800A9001030AA00003016
:103CC000AB00AD31D8259D3101304201A907083044
:103CD0002902031C6C2E6D2EB22DA73162279D3157
:103CE000AC304001E100B830E200AC31CE249D316F
:103CF000080040014B0886008701403FCE00413F4D
:103D0000CF004E0884004F0885001200253A031D9D
:103D10008A2E8B2EE52F4B08860087010130810704
:103D200041310318810A4201E201E3010030F7004A
:103D3000FF304301A000FF30A1004001D601C22E98
:103D400077144B0886008701013081074131031841
:103D5000810AC22EF714A12E0130D600C22E4B08C4
:103D600086008701403FCE00413FCF004E088400CF
:103D70004F08850000082D3A0319A02E1D3A03199B
:103D8000AA2EAC2E56080319C62EC72EAF2E771CAE
:103D9000CA2ECB2ECD2EFD30F7054B08A6004C08C1
:103DA000A700A131FB219E31400127084201E30019
:103DB000400126084201E200E31FDF2EE02EE62E3E
:103DC0007714E209E309E20A0319E30A40014B0808
:103DD00086008701403FD700413FD8005708840044
:103DE000580885001200643A0319F72EF82E022FA6
:103DF00057088400580885001200693A031D012FF6
:103E0000022F282F4C0886004D08870001088400E7
:103E1000850102308107003FD200013FD3005708DF
:103E2000013ECE000030583DCF004B088600870190
:103E30004E08C03F4F08C13F4A08BD004908BC00BA
:103E40005308BF005208BE00983127209E31FF2F33
:103E500057088400580885001200783A031D312F56
:103E6000322F622F4C0886004D088700010884001D
:103E7000850102308107003FD200013FD30057087F
:103E8000013ECE000030583DCF004B088600870130
:103E90004E08C03F4F08C13F592F4A08BD0049088E
:103EA000BC005308BF005208BE00A33189239E31D5
:103EB000FF2F57088400580885000008783A031936
:103EC0004D2F622FD6014B0886008701403FCE0060
:103ED000413FCF004E0884004F0885001200733A1E
:103EE000031D732F742F7F2F4B088600870101302D
:103EF000810741310318810A0130D600C12F4B08D8
:103F000086008701403FCE00413FCF004E0884002D
:103F10004F08850012006C3A031D8F2F902FC12F80
:103F20004B0886008701403FCE00413FCF00013063
:103F30004E0784004F080318013E850012006C3ABA
:103F4000031DA32FA42FC12F4B0886008701403FDC
:103F5000CE00413FCF0002304E0784004F080318C7
:103F6000013E85001200733A031DB72FB82FC12FF1
:103F70004B08860087010330810741310318810A0D
:103F80007C2F56080319C52FC62FDB2F4A08AD001A
:103F90004908AC004C0886004D08870001088400E1
:103FA000850102308107003FAE00013FAF00A43120
:103FB000F2249E31FF2F40014B088600870101301B
:103FC000810741310318810AFF2F4B0886008701C2
:103FD000403FCE00413FCF004E0884004F0885008F
:103FE0000008D000D1015008A3005108A4004A08DD
:103FF000A6004908A500883100209E31DB2F08006B
:104000000834FF34FF34420159085A0403190928BF
:104010000A281D280130D9020030DA3B57088600F3
:1040200058088700010843018C0001304201D7077E
:104030000030D83D0330F0002C285F0803192128F8
:1040400022282828DF01430191140130F0002C2898
:10405000AC311E24A031F000700808004001A80116
:10406000AB31D923A031003A031D372838286728FF
:1040700001304201D400400121084201D600400134
:1040800020084201D5000130DF0040012208420132
:10409000D700D801400124084201DA00400123087A
:1040A0004201D900400125084201DB000130DC005B
:1040B000400127084201DE00400126084201DD00E0
:1040C000E001AC310524A03101304001A8004001DD
:1040D00028080800771C6D286E28782840013608CB
:1040E000AC003508AE003408AD00AE317226A03108
:1040F0004001B81F7C287D287F28B701B801BA018C
:10410000BB01932820304001A3000030A4003508F3
:10411000A6003408A50088310020A03101304001FC
:10412000BA070030BB3D3B08803AB9003808803AF6
:104130003902031D9D2837083A02031CA028A12834
:1041400082287718A428A528AF2840013608AC009B
:104150003508AE003408AD00AE317226A03108003B
:1041600020304001A6000B0D0B0D0139A5005001B8
:104170001E131E159E16F028210850019B004001B9
:10418000200850019A0001304001A0070030A13DF5
:10419000220886008701403FA300413FA400240875
:1041A00050019D004001220886008701010850014E
:1041B0009C0002304001A2072608031DE028E128E8
:1041C000E32850019E128B137C0850019F007B084E
:1041D0009F009E144001250C031C8B1303188B17A2
:1041E00001304001A602260A031DF728F828BC2842
:1041F00050011E111E08080001304001A3020030CA
:10420000A43B230A031D0829240A031D08290929A0
:104210001629A001A1014C290130A0070130A107F6
:104220000030A23D0130A3020030A43B20088600EC
:1042300002308700010803191E291F293E29210881
:1042400084002208850012000319272928293E2905
:104250002308240403192D292E293E29210884002E
:10426000220885000008A50020088600023087008B
:104270000108250603193D293E290C29200886003E
:10428000023087002108840022088500000801020E
:10429000A000A101031CA10308004001A501A31F68
:1042A000522953295A29A209A309A20A0319A30AC8
:1042B0000130A500A11F5D295E296329A009A1097C
:1042C000A00A0319A10A20082104031968296929F1
:1042D00090290130A40073290130A035A10D890B6C
:1042E0006D290130A407A11F762977296C2921089F
:1042F0002302031D7D2920082202031C8029812915
:1043000085292008A2022108A33B0130A136A00C78
:10431000890B86290130A402031D8F299029772952
:1043200025080319942995299A29A209A309A20A03
:104330000319A30A2308A1002208A00008004001D5
:10434000A501A11FA429A529AC29A009A109A00A9A
:104350000319A10A0130A500A31FAF29B029B7296D
:10436000A209A309A20A0319A30A0130A506A601FE
:10437000A701200821040319BE29BF29EC29013017
:10438000A400C9290130A035A10D890BC329013032
:10439000A407A11FCC29CD29C2290130A635A70D1C
:1043A000890BCE2921082302031DD82920082202C7
:1043B000031CDB29DC29E1292008A2022108A33BF8
:1043C00026140130A136A00C890BE2290130A40289
:1043D000031DEB29EC29CD2925080319F029F12922
:1043E000F629A609A709A60A0319A70A2708A10002
:1043F0002608A00008004001AC01AD012608860097
:104400008701403FA800413FA900280884002908EF
:10441000850012002A3A031D0E2A0F2A3E2A26087A
:10442000860087010130810741310318810A27087E
:104430008600870101088400850102308107003F62
:10444000AC00013FAD00522A2D08A1002C08A000AD
:104450000A30A2000030A300AE315226A131400143
:104460002B082007AC000030213DAD002608860057
:1044700087010130810741310318810A260886002F
:104480008701403FA800413FA9002808840029086F
:1044900085000008D03EAB000A302B02031C512AD5
:1044A000522A242A2D08A7002C08A6000800400143
:1044B0002B08AF002A08A1002908A0002F30A20075
:1044C0000130A3000030A4002C08A5002E08A7008E
:1044D0002D08A600A0312E20A231003A031D712A1A
:1044E000722A732AB32AE8304001B0000330B100C9
:1044F000892A1A30890B7A2A003201304001B00231
:104500000030B13B30083104031D872A882A892AEC
:10451000B32AAB31D923A231003A031D902A912A44
:10452000792AE8304001B0000330B100A72A1A30E0
:10453000890B982A003201304001B0020030B13BB3
:1045400030083104031DA52AA62AA72AB32A43014D
:104550001119AB2AAC2A972A8530890BAD2A0000A5
:10456000AC314524A23108007935703E86008701C0
:104570002F30873D79350030873D0030C03FC13F47
:1045800042019D1CC42AC52AE02A7908F000F101E5
:10459000F035F10D7030F2002F30F3007008720723
:1045A00086007108733D87000115640865040319CE
:1045B000DA2ADB2AE02A65088A0064080A00A231A8
:1045C00042011D1DE42AE52A002B7908F000F101C3
:1045D000F035F10D7030F2002F30F30070087207E3
:1045E00086007108733D870081146608670403190B
:1045F000FA2AFB2A002B67088A0066080A00A23103
:1046000042011908F4007908013E3F39F5007508A8
:104610007806031D0C2B0D2B0E2B1A2B7908203E30
:10462000860003308700740881007508F9000130A6
:104630004101EB0708004001B700043037020318BE
:10464000222B232B422B342B0C0C890C0139882B69
:104650000D0E0139882B0E0C890C0139882B0E0E9A
:10466000890C890C0139882B3708003A0319242B4F
:10467000013A0319282B033A03192B2B013A03198A
:104680002F2B872B05307D02031C472B482B872BB4
:104690003708FC3EB60004303706031D502B512B63
:1046A000602B2030A9000030AA001230AB00D430BB
:1046B000AC000230AD000030AE00A2315722A33171
:1046C0000230400136020318662B682B0130692B3B
:1046D0000030B400361C6D2B6E2B732B8030B20073
:1046E0000030B300772B0830B2000030B30032083E
:1046F000B5003408D43E8600013087000108350536
:10470000031D832B852B0130862B0030882B003036
:10471000080001304001C100420163084001C300AC
:10472000420162084001C2001F30C5000030C600CF
:104730004301CD01C32BFF304001C507FF30C63D0B
:104740003E080F39C4000A3044020318A82BA92BD5
:10475000AC2B3030C407AE2B5730C4074508AE3EF3
:1047600086000130870044088100C101FF30C20784
:10477000FF30C33D3E0E0F39BE003F0EF039BE0480
:104780003F0E0F39BF0040014608803AC00080301C
:104790004002031DCD2B02304502031CD02BD12B30
:1047A000EE2B40013E083F04031DD72BD82B9B2B3B
:1047B0004108031DDC2BDD2B9B2B4308803AC000F6
:1047C00080304002031DE62B01304202031CE92B1E
:1047D000EA2BEE2BF718ED2BEE2B9B2B40013D081F
:1047E000B5003C08B4004508AE3EB6004308B8002A
:1047F0004208B700A0316A20A33108000030400110
:104800002F021F3003192E02031C072C082C0A2C20
:104810000030762C2B08B0003130A0002D08A2000B
:104820002C08A1002F08A4002E08A3009831012015
:10483000A33140012A08A1002908A0003030A200BD
:104840002E08013EA30000302F3DA400AE31F0261B
:10485000A331003A031D2D2C2E2C2F2C082CE830D0
:104860004001D0000330D100452C1A30890B362C82
:10487000003201304001D0020030D13B50085104D9
:10488000031D432C442C452C082CAB31D923A331D8
:10489000003A031D4C2C4D2C352CE8304001D00043
:1048A0000330D100632C1A30890B542C00320130B4
:1048B0004001D0020030D13B50085104031D612C4F
:1048C000622C632C082C43011119672C682C532C83
:1048D0008530890B692C0000AC314524A331003AA6
:1048E0000319732C752C0130762C00300800400120
:1048F000A400C02C1D30A000BD30A100F12C7A30E6
:10490000A000BC30A100F12CA330A000BC30A1005D
:10491000F12CB330A000BC30A100F12CAB30A000D2
:10492000BC30A100F12C9330A000BC30A100F12CD0
:104930009B30A000BC30A100F12C3130A000BD3074
:10494000A100F12CBB30A000BC30A100F12CCB3079
:10495000A000BC30A100F12C4030A000BC30A10070
:10496000F12C4A30A000BC30A100F12C1530A00081
:10497000BC30A100F12CC330A000BC30A100F12C50
:104980002408A200A3012308003A0319C82CBB2C59
:104990002208003A03197A2C013A03197F2C033AB2
:1049A0000319842C013A0319892C073A03198E2C18
:1049B000013A0319932C033A0319982C013A03196D
:1049C0009D2C0F3A0319A22C013A0319A72C033A84
:1049D0000319AC2C013A0319B12C073A0319B62C70
:1049E000BB2C080040012F08B7002E08B60036087F
:1049F0003704031DFC2CFD2C012DD330B600BC3038
:104A0000B700B801B901082D0130B8070030B93D31
:104A10003608380784003708393D85001200031D29
:104A2000122D132D042D3908B3003808B2004201AD
:104A300063084001B500420162084001B4007718E4
:104A4000222D232D5B2D352D20304001A300003079
:104A5000A4002D08A6002C08A50088310020A43150
:104A600001304001B8070030B93D3908803AB00044
:104A70003508803A3002031D3F2D34083802031CEC
:104A8000422D432D242D5B2D3608840037088500E8
:104A90000008B000B1013008A3003108A4002D08BF
:104AA000A6002C08A50088310020A4310130400167
:104AB000B6070030B73DFF304001B207FF30B33DCD
:104AC000320A031D672D330A031D672D682D442DFF
:104AD000771C6B2D6C2D8C2D7E2D20304001A3007A
:104AE0000030A4002D08A6002C08A5008831002065
:104AF000A43101304001B8070030B93D3908803A8F
:104B0000B0003508803A3002031D882D3408380281
:104B1000031C8B2D8C2D6D2D0800F601212E76089F
:104B2000F000F1010530F035F10D890B932DDD30EA
:104B3000F2002D30F3007008720786007108733D93
:104B40008700160001040319A62DA72DBF2D760896
:104B5000F000F1010530F035F10D890BAB2DDD30A2
:104B6000F2002D30F3007008720786007108733D63
:104B700087000130810241310030813B7F3176086E
:104B8000F000F1010530F035F10D890BC32DDF3058
:104B9000F2002D30F3007008720786007108733D33
:104BA0008700160001040319D62DD72DEF2D7608A6
:104BB000F000F1010530F035F10D890BDB2DDF3010
:104BC000F2002D30F3007008720786007108733D03
:104BD00087000130810241310030813B7F3176080E
:104BE000F000F1010530F035F10D890BF32DE130C6
:104BF000F2002D30F3007008720786007108733DD3
:104C00008700160001040319062E072E1F2E7608B2
:104C1000F000F1010530F035F10D890B0B2EE1307C
:104C2000F2002D30F3007008720786007108733DA2
:104C300087000130810241310030813B7F310130FA
:104C4000F60742016D087602031C272E282E8F2DB1
:104C500008004001EA01D6016A089831DA20A6313D
:104C60004001D6016A08A631C526A63101304001AF
:104C7000EA0704306A02031C3E2E3F2E2B2E15300D
:104C80004001E5004B30E400BE30890B452EE40BBB
:104C9000452EE50B452E0000AC319124A6310530A0
:104CA0004001E5000F30E400F130890B552EE40B94
:104CB000552EE50B552E400117172030D20000303D
:104CC000D3000530D400D501AD311425A631013A09
:104CD000031D6B2E6C2EC22E20304001D2000030FE
:104CE000D3000A30D400D501AD311425A631FF30F0
:104CF0004201EE00FF30EF0020304001A9000030FB
:104D0000AA001430AB006E30AC000130AD000230B0
:104D1000AE000030AF00A331FE23A631430153089B
:104D20004001E700430152084001E6002030A9009D
:104D30000030AA000C30AB006630AC000030AD0093
:104D40000230AE000030AF00A331FE23A631430194
:104D500051084001E900430150084001E8002030BB
:104D6000A9000030AA00AB016830AC000030AD00F3
:104D70000230AE000030AF00A331FE23A631083070
:104D8000FD00C42E0430FD0008004001DF000430A7
:104D90005F020318CC2ECD2E002FF22E56080319D9
:104DA000D22ED32ED52E9611612F9615612F56082F
:104DB0000319DB2EDC2EDE2E9712612F9716612F42
:104DC00056080319E42EE52EE72E9811612F981549
:104DD000612F56080319ED2EEE2EF02E9813612F39
:104DE0009817612F5F08003A0319CE2E013A031974
:104DF000D72E033A0319E02E013A0319E92E612F49
:104E000005307D02031C052F062F612F5F08FC3E35
:104E1000DD0002305D0203180E2F102F0130112F1C
:104E20000030E0005D1C152F162F1B2F0430D90019
:104E30000030DA001D2FD901DA015908DE006008C0
:104E40006E3E8600013087000430D7005E0A292FAD
:104E5000D735890B282F5708FF3A81055608031DBF
:104E6000322F332F412F60086E3E860001308700BD
:104E70000430D7005E0A3D2FD735890B3C2F5708E9
:104E8000810460080319452F462F4B2F1530DB0096
:104E90000030DC004F2F1430DB000030DC005B08FA
:104EA000D8002030D2000030D3005808D400600869
:104EB0006E3E8600013087000108D500AD31142513
:104EC000A6310800AA304101E0000030E1000030C6
:104ED000E5007F30E600E901EA0155304001A0001D
:104EE000AA30A100AC310B24A731F42FE701E8016F
:104EF000FF30E40069086A04031D7F2F802F832F91
:104F00006F08E400B52F69036A04031D882F892FF9
:104F10008C2F5A30E400B52F6908FE3E4001A700EF
:104F2000FF3041016A3D4001A80000302802A8304E
:104F30000319270203189D2F9E2FB52FC83041015A
:104F4000E2002E30E300690862074001A70041013A
:104F50006A08633D4001A8002708FE3E8600FF3036
:104F6000283D870001084101E40041016408400137
:104F7000A700A80141016735A03E860087014001D6
:104F80002708C03F2808C13F01304101E907003030
:104F9000EA3D0130E7070030E83D0030680220308C
:104FA00003196702031CD52FD62F782F8B136608A1
:104FB0004001A100410165084001A000AD31F52587
:104FC000A731410166084001A10041016508400187
:104FD000A000A030A200A031B020A7318B17203054
:104FE0004101E5070030E63D410161086A02031D09
:104FF000FB2F60086902031CFE2FFF2F762F08008D
:10500000E3342B3417342C34F3342B34033420346E
:1050100021342F34F9342B34FF342B341E342C3408
:1050200025342C34203420342034203420342034CF
:1050300020342034203420344534783461346D34C5
:1050400070346C3465343A3420345334423443344D
:1050500054344C342034523445344C3420343134BC
:10506000203432342034203420342D34203452344F
:1050700065346C34653461347334653420343134D0
:10508000203461346E346434203432342034533468
:10509000773469347434633468342E340D340A340C
:1050A0000034203420342034203420342034203480
:1050B0002034203420344534783461346D347034F5
:1050C0006C3465343A3420345334423443345434E9
:1050D0004C34203443344F344E3420343134203473
:1050E00032342034203420342D34203443346F348F
:1050F0006E346E3465346334743420343134203487
:1051000061346E3464342034323420345334773490
:1051100069347434633468342E340D340A34003402
:1051200050346F34723474342034253464343A3457
:105130002034483475346E34673420347534703418
:10514000203464347534723469346E3467342034F6
:10515000743461346C346B342E34203450346F34F6
:105160007234743420342534643420346934733414
:1051700020346E346F347734203441345534543411
:105180004F34203441344E34533457344534523440
:105190002E340D340A3400342034203420342034AA
:1051A00020342034203420342034203445347834E2
:1051B00061346D3470346C3465343A342034533493
:1051C0004234433454344C342034463455344C3413
:1051D0004C345F34523445345334453454342034E1
:1051E00020342D34203452346534733465347434AF
:1051F000203453347734693474346334683462341B
:105200006F346134723464342E340D340A34003413
:1057B000080042015408080050019E1108004201EF
:1057C0001D121D1608004201D40108300800AD3139
:1057D0009F25AB310800AF318A27AB310800AB31D0
:1057E000DC23AB3108004201553543018C00033006
:1057F0000800AC311E24AB31F00070080800AC3159
:105800002524AB31F0007008080043011114023068
:105810004201E100080040012108FB002008FC00D3
:10582000080050018C018D0113129312080003141B
:105830004201550D43018C0004300800430111154D
:10584000AC31DE24AC3100300800430190129016D8
:105850004201D401003008007A08031D302C322C9C
:105860000130332C00300800C234BB348834883413
:1058700088348834FF34FF3441016B08031D412C08
:10588000432C0130442C00300800420160084001E4
:10589000A0004201E0014001200808004001210869
:1058A0004201EB00400120084201EA0008004001EB
:1058B00021084201E900400120084201E8000800F7
:1058C000603051018D008F0191010630930020302E
:1058D000920008004E010C100B1400304001A00093
:1058E0000030A100AC314E24AC31080064008001CE
:1058F00001310130FE020030FF3B7F087E04031DB2
:10590000772C00344201680869040319882C892C1B
:105910008E2C69088A0068080A00AC314E0190108C
:105920000800803043018F000830900091019201FF
:105930004F308D004E011914991443019016080040
:105940004001200821040319A62CA72CAE2C210805
:105950004201E700400120084201E6000800400142
:10596000200821040319B52CB62CBD2C21084201B6
:10597000E500400120084201E40008004001A200C7
:10598000AC312C24AC31003A0319C72CC82CC02CE4
:1059900040012208AE319626AC3108006330400148
:1059A000EB000030D900DA006208DC006108DB009F
:1059B0006B30DD00AE311426AC3108004201D40159
:1059C0000030D600FF30D500D701D801DB01DC0163
:1059D000E1014E010F108F104301901310130800C6
:1059E0004001210850019B004001200850019A000D
:1059F0001E131E141D084001A10050011C08400187
:105A0000A00008004001A71B062D072D082D132D0F
:105A10002609A8002709A900A80A0319A90A280825
:105A2000A6002908A700080040015308AA00520850
:105A3000A9005408AB005530AC000030AD00013077
:105A4000AE000030AF00A331FE23AD3108004001AD
:105A5000A200A101221C2D2D2E2D302D2008A107E2
:105A60000310A00D0310A20C2208031D382D392DA0
:105A70002A2D2108080040012008A200412D0130F4
:105A8000A00720088600023087000108031D492D69
:105A90004A2D3F2D22082002A000A101A01BA10336
:105AA00008005F2D24088400250885000008AF3118
:105AB000C527AD3101304001A4070030A53D4001AC
:105AC00024088400250885001200031D682D692D17
:105AD000522D0800AC316024AD318731B627AD318D
:105AE000AC319124AD3190310020AD31AF3153272D
:105AF000AD31AB31EF23AD31AC311124AD31AC312F
:105B00006A24AD31080040307A020318882D892DAF
:105B10009C2D41016C08A03E8600023087000108E0
:105B200042019A0041016C08013E3F39F0007008C3
:105B3000EC000130FA079E2D4E01191208000630C4
:105B40004201E1000330E0004E018F104201610884
:105B5000F100F201F135F20D0030710784002830B8
:105B6000723D80388500013F8A00003F0A00AD3158
:105B70004201E10008007808203E860003308700DB
:105B800001084001A1007808013E3F39A00020082B
:105B9000F8004E01991241016B080319D02DD12D47
:105BA000D32D0130EB024E01991640012108080067
:105BB00040012708AD002608AC00E82D2C0886001F
:105BC0002D088700280881000130AC070030AD3D6A
:105BD0000130AA020030AB3B2A0A031DF32D2B0A29
:105BE000031DF32DF42DDE2D08000B0D0B0D0139D7
:105BF0004001A200210850019B00400120085001F3
:105C00009A001E131E161E158B137C089F007B081E
:105C10009F009E144001220C031C8B1303188B174A
:105C200050011E111E08080040015C08E0005B08DE
:105C3000DF00262E5A08CA005908C9005F30CB0081
:105C40005D08CC00CD019E317926AE3140015F0860
:105C50008400600885001200031D2F2E302E1A2E9E
:105C6000D901DA01080040012108A7002008A60098
:105C70002708870026088600A60A0319A70A230812
:105C8000A5002208A400A20A0319A30A240884007C
:105C9000250885000008C03F8908031D502E512E9D
:105CA000382E08004001A401A501201C582E592EB1
:105CB0005D2E2208A4072308A53D0130A235A30DBF
:105CC000890B5E2E0130A136A00C890B632E2008B3
:105CD0002104031D6C2E6D2E552E2508A1002408CD
:105CE000A00008004001B201B301892E3108AF00C5
:105CF000B0012F08A3003008A4002E08A6002D082C
:105D0000A50088310020AE3101304001B2070030DB
:105D1000B33D2C0832078600013087000108B1002E
:105D20003108031D942E952E762E08004001A10007
:105D30004E01191A9C2E9D2EA22E400121084201CF
:105D40009A00BD2E7A080319A62EA72EBD2E41015A
:105D50006D08A03E860002308700400121088100C6
:105D600041016D08013E3F394001A000200841017A
:105D7000ED004E0119120130FA024E011916080009
:105D8000C72E0130A0070130A1070030A23D40011D
:105D900021088400220885000008A300200886004E
:105DA0000230870001082306031DD72ED82EE12ECE
:105DB00020088600023087000108031DE02EE12E36
:105DC000C12E2008860002308700210884002208A6
:105DD000850000080102A000A101031CA103080026
:105DE0004001A501AB31D923AE31003A031DF92E94
:105DF000FA2E1E2F01304201D40040012108420139
:105E0000D600400120084201D500DF0140012208F0
:105E10004201D700D801400124084201DA004001C4
:105E200023084201D900DB01DC01DD01DE01E001D4
:105E3000AC310524AE3101304001A50040012508F8
:105E400008000430F00043010F1C272F282F502F8B
:105E500042015D085E0403192E2F2F2F3F2F5B0890
:105E600086005C08870043010C0881000130420174
:105E7000DB070030DC3D0130DD020030DE3B5D0839
:105E80005E040319442F452F492F43019112111627
:105E9000512F43019110911611160730F000512F28
:105EA0009115700808004E019912B4304301A80002
:105EB0002230A9004E01191283304301AA002D306F
:105EC000AB00483042019F0090309D0026309E007C
:105ED00040309B0003309C00D8304001A0002B30A4
:105EE000A100AC31A024AF31DF304001A0002B3045
:105EF000A100AC31AF24AF314301A601A70141019C
:105F0000ED01EC014030FA00F901F801EB014E011E
:105F1000991608004E010F1043010F1E902F912F6C
:105F2000952FAC31DE24AF31B02F8F1A982F992FD7
:105F3000A32F111F9C2F9D2FA32F05304201E1009D
:105F40000130E000B02F8F1EA62FA72FB02F111FFA
:105F5000AA2FAB2FB02F05304201E1000230E00044
:105F600042016108F100F201F135F20D00307107D4
:105F700084002830723D80388500013F8A00003F50
:105F80000A00AF314201E10008004001A1008B137B
:105F90001713A6300032890BCA2F00324001A2012C
:105FA000A3014001211CD52FD62FD82F1717D92F89
:105FB0001713A6300032890BDA2F0032031040018C
:105FC000A10C0130A2070030A33D2308803AA000B5
:105FD00080302002031DEE2F08302202031CF12F17
:105FE000F22FD12F40011717A6300032890BF52F61
:105FF00000328B17A6300032890BFB2F00320800CD
:1060000053344134563445345F3453344534543476
:10601000543449344E3447345334203420343A34E1
:106020002034533461347634653420346334753429
:106030007234723465346E3474342034733465349D
:106040007434743469346E34673473342034743483
:106050006F3420344E3456344D3420345334743439
:106060006F3472346134673465342E340D340A343D
:106070000034533445345434203448344C342034C0
