:1000000080315228080008007E14803100308600BC
:10001000003087000B1F0D280E2850284E01191E96
:10002000122813281E280F1E162817281E284101E3
:100030005A088A0059080A0080315028991E212840
:1000400022282D288F1E252826282D2841015808D2
:100050008A0057080A0080315028991C302831281E
:1000600039288F1C342835283928A031A92080311F
:100070005028191C3C283D2845280F1C40284128A1
:100080004528A031AD20803150289A1C48284928A5
:100090005028901C4C284D285028A13147218031F0
:1000A0007E100900803154288731FF278031EF000E
:1000B000D9308400A0308500DD3086000030870014
:1000C0000030FF000630A1313B218031D330840065
:1000D000A03085005E308600013087000030FF00D0
:1000E0000630A1313B218031703084002E308500F4
:1000F0008030FE000130FF00A1312F218031F0015E
:10010000F101F201F301F401F501F601ED01EE0157
:10011000CB308400003085001230FE000030FF003C
:10012000A1312F21803120308400013085003E3004
:10013000FE000030FF00A1312F218031A03084006B
:10014000013085002030FE000030FF00A1312F215A
:10015000803120308400023085004030FE000030C5
:10016000FF00A1312F218031A030840002308500B2
:100170004030FE000030FF00A1312F2180312030BF
:100180008400033085004030FE000030FF00A131C4
:100190002F218031A0308400033085004030FE00E4
:1001A0000030FF00A1312F2180317E1040019331BA
:1001B000882B380886003908870042310103031D67
:1001C000E228E328012938088600390887004131F0
:1001D0000108031DEC28ED2801293808860039089C
:1001E00087004331013081075830A0000230A10060
:1001F000380886003908870055312008C03F21089B
:10020000C13F380886003908870041310103031DCA
:100210000A290B29E1293808860039088700553159
:1002200016000104031D15291629E1293808860046
:10023000390887004331010803191F292029E129C2
:10024000380886003908870043310A30010603194F
:100250002A292B2938293808860039088700433194
:100260000108A000A1012008A7002108A8003A2940
:10027000A701A8012708AD003808860039088700C3
:10028000443101083807A0000030393DA1002008A2
:1002900086002108870045312D0881003808860036
:1002A0003908870044310130810738088600390851
:1002B00087004331810124304001E100B230E20087
:1002C00041013708013E4001E300003003180130CE
:1002D000E40041012D08A000A10120084001E50033
:1002E000410121084001E600A13193218031410103
:1002F000380886003908870044310103031D81292D
:100300008229A5295E0A031986298729A5292D088E
:100310005E06031D8C298D29A52938088600390819
:1003200087005C3101308100AB304001E100AA3030
:10033000E20041013708013E4001E30000300318AC
:100340000130E400A1319321803141013808860059
:10035000390887005C3101080319AF29B029D02979
:100360003808860039088700443110300102031C28
:10037000BA29BB29C229380886003908870003300A
:100380008100E129B830A0000B30A10038088600B8
:100390003908870057312008C03F2108C13FE129B3
:1003A0003808860039088700443102300102031CF6
:1003B000DA29DB29E129380886003908870003306B
:1003C0008100380886003908870041310103031D88
:1003D000EA29EB29872F380886003908870055312C
:1003E00016000104031DF529F629872F3808860019
:1003F0003908870043310108031DFF29002A872F90
:1004000038088600390887005C3101080319092A79
:100410000A2A872F380886003908870044310230BD
:100420000102031C142A152A872F38088600390870
:100430008700573116000104031D1F2A202A872F29
:1004400039304001E100AE30E20041013708013EA1
:100450004001E300003003180130E400A131932192
:100460008031410138088600390887000330810057
:10047000872F38088600390887005C310108031986
:10048000422A432A862BFF30B400B201762A053077
:100490004001A00041013208A131D8218031393E0C
:1004A0008600013087000103031D572A582A732A4A
:1004B00041013208A000A1010530A035A10D890B32
:1004C0005D2A7030A2002E30A3002008220786008B
:1004D0002108233D87000108031D6F2A702A732A13
:1004E0003208B4007C2A01304101B2075D083202B3
:1004F000031C7B2A7C2A472A340A0319802A812A72
:10050000652B38088600390887005B313408810084
:100510003408A000A1010530A035A10D890B8C2A5B
:100520008B30A2002E30A30020082207860021086D
:10053000233D8700370881004001D301410137087E
:100540009D31D12580314101380886003908870066
:10055000043081003408A000A1010530A035A10DB0
:10056000890BAE2A8D30A2002E30A300200822076E
:1005700086002108233D8700013081003408A00057
:10058000A1010530A035A10D890BC22A8E30A20031
:100590002E30A3002008220786002108233D870073
:1005A00081013408A000A1010530A035A10D890BFF
:1005B000D52A8F30A2002E30A30020082207860003
:1005C0002108233D870081016430A0000030A10094
:1005D0003408A200A3010530A235A30D890BEC2A33
:1005E0008730A4002E30A5002208240786002308A7
:1005F000253D87002008C03F2108C13F3408A000E6
:10060000A1010530A035A10D890B022B7030A2008D
:100610002E30A3002008220786002108233D8700F2
:100620000A3081006E304001E100AB30E200410150
:100630003708013E4001E300003003180130E400B8
:1006400041013408013E4001E5000030031801304B
:10065000E600A1319321803101304101AC00512BE2
:10066000C4304001E100B530E20041012C083807F8
:10067000A0000030393DA100200886002108870035
:1006800045310108A200A30122084001E300410115
:1006900023084001E400A131932180310130410160
:1006A000AC073808860039088700443101082C025D
:1006B000031C5B2B5C2B302B78304001E100B53004
:1006C000E200A13193218031872F03304001D30014
:1006D000410137089D31D12580314101380886001C
:1006E000390887000730810007304001E100B2304F
:1006F000E20041013708013E4001E30000300318E9
:100700000130E400A13193218031872F3808860021
:100710003908870046310A304001A00041013808FD
:1007200084003908850005310008A131D8218031C5
:1007300001074101AB00FF30B500B001B72B053018
:100740004001A00041013008A131D8218031363E5E
:10075000860001308700010841012B06031DB12BE3
:10076000B22BB52B3008B500BD2B0130B0075D08AA
:100770003002031CBC2BBD2B9F2B350A0319C12B48
:10078000C22BD92B350837060319C72BC82BD92BF9
:1007900005304001A00041013508A131D821803148
:1007A000393E8600013087000103031DD82BD92B69
:1007B000052C03304001D300410137089D31D1257C
:1007C00080314101380886003908870007308100F0
:1007D0003E304001E100AB30E20041013708013E0C
:1007E0004001E300003003180130E40041012B0810
:1007F000A000A10120084001E500410121084001BD
:10080000E600A13193218031872F41013508A000F6
:10081000A1010530A035A10D890B0A2C7030A20072
:100820002E30A3002008220786002108233D8700E0
:100830000108031D1C2C1D2C7F2C3808860039084C
:1008400087005B31350881003508A000A101053023
:10085000A035A10D890B282C8B30A2002E30A300CF
:100860002008220786002108233D870037088100E1
:1008700002304001D300410137089D31D12580313C
:1008800041013808860039088700043081004001A2
:10089000D301D30A410135089931CD21803141017D
:1008A0003508A000A1010530A035A10D890B542CFD
:1008B0007030A2002E30A3002008220786002108F5
:1008C000233D870005308100D4304001E100AE3087
:1008D000E20041013708013E4001E3000030031807
:1008E0000130E40041013508013E4001E5000030DF
:1008F00003180130E600A13193218031872F35089C
:10090000A000A1010530A035A10D890B832C70300A
:10091000A2002E30A3002008220786002108233DD4
:10092000870009300106031D962C972CEF2C380800
:100930008600390887005B31350881003508A00042
:10094000A1010530A035A10D890BA22C8B30A2008E
:100950002E30A3002008220786002108233D8700AF
:10096000370881004001D301410137089D31D1256D
:10097000803141013808860039088700063081003F
:1009800038088600390887005B310108A60037085F
:10099000013E4001AB0041012608013E4001AC0090
:1009A00001309D31102580314E304001E100AC30E6
:1009B000E20041013708013E4001E3000030031826
:1009C0000130E40041013508013E4001E5000030FE
:1009D00003180130E600A13193218031872F0330C5
:1009E0004001D300410137089D31D12580314101BB
:1009F00038088600390887000730810067304001D9
:100A0000E100B030E20041013708013E4001E3005F
:100A1000003003180130E40041013508013E400177
:100A2000E500003003180130E600A1319321803148
:100A3000872F380886003908870042310108031DD6
:100A4000222D232D872F3808860039088700413151
:100A50000103031D2C2D2D2D872F4001D3014101B2
:100A600037089931CD218031410138088600390895
:100A700087005B310108B1004001D3014101310819
:100A80009D31D125803141013708013E4001AB0045
:100A900041013108013E4001AC0001309D3110257B
:100AA000803141013808860039088700063081000E
:100AB0003108A000A1010530A035A10D890B5C2DE6
:100AC0007030A2002E30A3002008220786002108E3
:100AD000233D870006308100EB304001E100AD305E
:100AE000E20041013708013E4001E30000300318F5
:100AF0000130E40041013108013E4001E5000030D1
:100B000003180130E600A13193218031872F380886
:100B1000860039088700573116000104031D912D06
:100B2000922D872F38088600390887005B3101082D
:100B3000B300330A03199D2D9E2DB62D3308A00056
:100B4000A1010530A035A10D890BA22D7030A200A6
:100B50002E30A3002008220786002108233D8700AD
:100B6000043001060319B52DB62DC42D4001D30163
:100B7000410137089931CD21803141013808860083
:100B8000390887008101872F3808860039088700D7
:100B90005F310108031DCD2DCE2D5C2E3808860057
:100BA000390887005D313308A000A1010530A03568
:100BB000A10D890BD72D7430A2002E30A300200880
:100BC000220784002108233D850000080102031844
:100BD000EA2DEB2D462E3308A000A1010530A035EB
:100BE000A10D890BEF2D38088600390887005D318B
:100BF0007530A2002E30A30001082207A4000030A7
:100C0000233DA5002008240786002108253D8700F4
:100C10000108AE002E0803190E2E0F2E172E2E08D7
:100C2000A000A1012008A9002108AA001B2E0A305B
:100C3000A9000030AA0038088600390887005E3114
:100C40002908810038088600390887005F310130A3
:100C50008100CB304001E100AB30E20041013708B8
:100C6000013E4001E300003003180130E40041017F
:100C70002E08A000A10120084001E5004101210843
:100C80004001E600A131932180315C2E38088600B6
:100C9000390887000B3081004001D301410137083A
:100CA0009931CD21803102304001D3004101330818
:100CB0009D31D1258031872F4101380886003908C0
:100CC00087005F310103031D662E672E852E4001CC
:100CD000D301D30A410137089931CD218031143035
:100CE0004101A0000030A1003808860039088700C3
:100CF00057312008C03F2108C13F38088600390815
:100D000087005F3102308100872F3808860039085C
:100D100087005F3102300106031D8F2E902E872F32
:100D20004001D301410137089931CD218031410182
:100D300038088600390887005E31013081023808A2
:100D40008600390887005E3101080319A82EA92EF4
:100D5000BE2E1430A0000030A100380886003908EB
:100D6000870057312008C03F2108C13F380886005E
:100D7000390887005F3101308100872F2C30A000B7
:100D80000130A10038088600390887005731200853
:100D9000C03F2108C13F38088600390887005F310D
:100DA000810138088600390887005D3101308107EC
:100DB000872F380886003908870042310108031D53
:100DC000E22EE32E872F380886003908870041314C
:100DD0000103031DEC2EED2E872F380886003908FD
:100DE00087005B310108AF004001D30141012F08AA
:100DF0009D31D125803141013708013E4001AB00D2
:100E000041012F08013E4001AC0001309D31102509
:100E1000803141013808860039088700063081009A
:100E20002F08A000A1010530A035A10D890B142FBA
:100E30007030A2002E30A30020082207860021086F
:100E4000233D87000630810012304001E100AE30C2
:100E5000E20041013708013E4001E3000030031881
:100E60000130E400A13193218031872F38088600BA
:100E700039088700573116000104031D402F412F08
:100E8000872F4001D301410137089D31D1258031A1
:100E9000410138088600390887008101872F410108
:100EA00038088600390887000108A000A101210840
:100EB000003A03195C2F872F2008003A923103195A
:100EC000632A8031013A0319952F033A0319D9286F
:100ED000013A0319392A073A0319872F013A0319EE
:100EE000192D033A0319872F013A0319872F0F3A57
:100EF0000319872F013A0319872F033A0319872D06
:100F0000013A0319D92E073A0319362F872F4101C9
:100F100038088600390887004231380884003908CB
:100F2000850001310008810008009331402B7235A3
:100F3000703E860087012F30873D72350030873D37
:100F40000030C03FC13F42019D1CA72FA82FC42FD6
:100F50007208F700F801F735F80D7030F9002F30FE
:100F6000FA0077087907860078087A3D870001152E
:100F700041014D084E040319BE2FBF2FC42F4E0848
:100F80008A004D080A00873142011D1DC82FC92F54
:100F9000E52F7208F700F801F735F80D7030F90009
:100FA0002F30FA0077087907860078087A3D8700A5
:100FB000811441014F0850040319DF2FE02FE52F62
:100FC00050088A004F080A00873142011908FB00C7
:100FD0007208013E3F39FC007C087106031DF12FA9
:100FE000F22FF32FFE2F7208203E86000330870079
:100FF0007B0881007C08F2000130F007080004340F
:101000004301901290164201A001003008004001F7
:10101000A801A0319B208831003A031D1028112817
:101020003F2801304201A000400121084201A200F6
:10103000400120084201A1000130AB00400122081C
:101040004201A300A401400124084201A60040017E
:1010500023084201A500400125084201A700A8017C
:10106000400127084201AA00400126084201A900C8
:10107000AC01A031C720883101304001A8004001F7
:101080002808080040016C0886000230870001082B
:10109000031D4B284C284D28FF2F7830E100B53038
:1010A000E200A1319321883140016C08A000943006
:1010B000A100B530A200A331692388314001200886
:1010C0002104031D64286528C3297E30E100B33064
:1010D000E200A730E300B530E400A131932188316C
:1010E00041015E0A031D752876287F28BF30400124
:1010F000E100B330E200A1319321883192286830B9
:101100004001E100B330E20041015E08A000A1010E
:1011100020084001E300410121084001E400A13121
:1011200093218831EA304001E100B230E200A13180
:10113000932188314101B901B42905304001A00053
:1011400041013908A131D8218831393E860001306A
:1011500087000103031DAD28AE28BB28A83040013D
:10116000A0000030A1009930A200B530A300A23148
:10117000BA228831C728A8304001A0000030A10061
:101180008530A200B530A300A231BA228831543094
:101190004001E100B130E20041013908013E400167
:1011A000E300003003180130E4000530A0004101E5
:1011B0003908A131D8218831363E860001308700B8
:1011C00001084101A000A10120084001E500410102
:1011D00021084001E600A830E7000030E8004101A6
:1011E0003908A200A3010530A235A30D890BF4280C
:1011F0007030A4002E30A5002208240786002308A2
:10120000253D8700010898312720883140012108B9
:10121000EA002008E900A131932188314101390811
:10122000A000A1010530A035A10D890B13298B3039
:10123000A2002E30A3002008220786002108233DAB
:101240008700010A03192529262949291030400160
:10125000E100B430E20041013908A000A1010530ED
:10126000A035A10D890B30298B30A2002E30A300B0
:101270002008220786002108233D87000108013E3F
:101280004001E300003003180130E400A131932154
:10129000883141013908A000A1010530A035A10D18
:1012A000890B4E297130A2002E30A300200822079E
:1012B00086002108233D87000108031D602961295C
:1012C00066297030AC00B530AD006A296330AC00DF
:1012D000B530AD00A2304001E100B430E200410180
:1012E0002D084001E40041012C084001E300A13138
:1012F0009321883105304001A00041013908A13116
:10130000D8218831383E860001308700010A031950
:101310008A298B29A92945304001E100B430E20037
:101320000530A00041013908A131D8218831383E6B
:1013300086000130870001084101A000A1012008BA
:101340004001E300410121084001E400A131932163
:10135000883178304001E100B530E200A1319321BD
:10136000883101304101B9075D083902031CB929F0
:10137000BA299D2804304001E100B330E200A131D8
:1013800093218831FF2F6C08A000D530A100B43024
:10139000A2000830A3000030A400A5310625883142
:1013A000400120082104031DD629D729642A6C088E
:1013B000083E8600023087000108CF3E4101B000A0
:1013C0005D0830020318E529E629482A40016C0827
:1013D000093E86000230870020300106031DF129F6
:1013E000F229482A6C080A3E860002308700303015
:1013F0000102031CFC29FD29482A6C080A3E8600CC
:10140000023087003A3001020318072A082A482AC6
:101410006C080B3E8600023087000A30A0006C0882
:101420000A3E8400023085000008A131D8218831AD
:101430000107F03E4101AE0005304001A00041012E
:101440003008A131D8218831363E8600013087002E
:1014500041012E08810060304001E100AE30E20021
:1014600041013008013E4001E30000300318013023
:10147000E40041012E08A000A10120084001E50080
:10148000410121084001E600A13193218831FF2F5D
:1014900038304001E100B330E200A13193218831BE
:1014A00050304001E100AA30E20041015D08A00097
:1014B000A10120084001E300410121084001E400AE
:1014C000A13193218831FF2F6C08A000F030A100DA
:1014D000B430A2000730A3000030A400A5310625D7
:1014E0008831400120082104031D772A782A442BE3
:1014F0006C08073E8600023087000108CF3E41019C
:10150000B800B10140016C08093EA000BE30A10046
:10151000B530A2000230A3000030A400A53106259A
:101520008831400120082104031D972A982A9C2A0B
:1015300002304101B100B42A6C08093EA000AB3072
:10154000A100B530A2000330A3000030A400A531F3
:1015500006258831400120082104031DB02AB12A44
:10156000B42A01304101B10041015D08380203187D
:10157000BA2ABB2A282B31080319BF2AC02A282BD4
:101580003103031DC42AC52AEA2A3808A000A10194
:101590000530A035A10D890BC92A7030A2002E306C
:1015A000A3002008220786002108233D870081012F
:1015B0006A304001E100AF30E20041013808013EED
:1015C0004001E300003003180130E400A131932111
:1015D0008831FF2F02303106031DEF2AF02A162B27
:1015E0003808A000A1010530A035A10D890BF42A0F
:1015F0007030A2002E30A3002008220786002108A8
:10160000233D870009308100F7304001E100AB3015
:10161000E20041013808013E4001E30000300318B8
:101620000130E400A13193218831FF2F4130400186
:10163000E100B230E20041013808013E4001E30020
:10164000003003180130E400A13193218831FF2FCD
:1016500038304001E100B330E200A13193218831FC
:1016600045304001E100AF30E20041015D08A000DB
:10167000A10120084001E300410121084001E400EC
:10168000A13193218831FF2F6C08A0006530A100A3
:10169000B430A200A331692388314001200821041D
:1016A000031D532B542B692B5130E100B330E20062
:1016B000A1319321883129304101A1009630A00049
:1016C0007F30890B612BA00B612BA10B612B0100DB
:1016D000FF2F6C08A0005C30A100B530A2000630DE
:1016E000A3000030A400A531062588314001200860
:1016F0002104031D7C2B7D2B082D6C08063EA000C9
:101700008030A100B530A2000430A3000030A40056
:10171000A53106258831400120082104031D912BA5
:10172000922B2A2C6C080A3E8600023087000108A2
:10173000D03E4101B20040016C080C3E86000230F0
:1017400087000108D03E4101B30040016C080B3E08
:1017500086000230870020300106031DB02BB12B1C
:101760000F2CAF30E100B130E20041013208A0009F
:10177000A10120084001E300410121084001E400EB
:1017800041013308A200A30122084001E500410104
:1017900023084001E60041013308A400A501240804
:1017A0004001E700410125084001E80041013208FD
:1017B000A600A70126084001E900410127084001D1
:1017C000EA00A13193218831410132084001AB0088
:1017D000410133084001AC0001309D3110258831B2
:1017E0009C304001E100AD30E20041013208A00030
:1017F000A10120084001E300410121084001E4006B
:1018000041013308A200A30122084001E500410183
:1018100023084001E600A13193218831FF2F973042
:10182000E100B230E200A13193218831A3304001C0
:10183000E100AC30E20041015D08A000A1012008F8
:101840004001E300410121084001E400A13193215E
:101850008831FF2F6C08063EA0007B30A100B53018
:10186000A2000430A3000030A400A5310625883171
:10187000400120082104031D3E2C3F2CD72C6C086E
:101880000A3E8600023087000108D03E4101B400C4
:1018900040016C080C3E8600023087000108D03EF3
:1018A0004101B50040016C080B3E86000230870004
:1018B00020300106031D5D2C5E2CBC2C9130E10014
:1018C000B130E20041013408A000A101200840012C
:1018D000E300410121084001E40041013508A20074
:1018E000A30122084001E500410123084001E60070
:1018F00041013508A400A50124084001E700410189
:1019000025084001E80041013408A600A701260887
:101910004001E900410127084001EA00A13193217B
:101920008831410134084001AB00410135084001D4
:10193000AC0000309D311025883121304001E1009C
:10194000AD30E20041013408A000A10120084001AF
:10195000E300410121084001E40041013508A200F3
:10196000A30122084001E500410123084001E600EF
:10197000A13193218831FF2F9730E100B230E2008E
:10198000A1319321883179304001E100AC30E2008F
:1019900041015D08A000A10120084001E3004101D0
:1019A00021084001E400A13193218831FF2F6C0808
:1019B000063EA0006830A100B430A200A331692324
:1019C0008831400120082104031DE72CE82CF82C65
:1019D0005530A400B530A500A23116228831AD30B3
:1019E0004001E100B030E200A13193218831FF2FA6
:1019F0004430E100B030E200A13193218831D03091
:101A00004001E100B030E200A13193218831FF2F85
:101A10006C08A000F830A100B430A2000730A30089
:101A20000030A400A531062588314001200821049A
:101A3000031D1B2D1C2DD52D6C08073E8600023082
:101A400087000108CF3E4101B6005D083602031849
:101A50002A2D2B2DC12D40016C08083E8600023036
:101A6000870020300106031D362D372DC12D6C084F
:101A7000093EA000AB30A100B530A2000330A300A6
:101A80000030A400A531062588314001200821043A
:101A9000031D4B2D4C2D6B2D0530A0004101360848
:101AA000A131D8218831383E860001308700FF30CF
:101AB0008100FC304001E100AF30E2004101360816
:101AC000013E4001E300003003180130E400A13181
:101AD00093218831FF2F6C08093E86000230870071
:101AE00030300102031C752D762DFF2F6C08093E46
:101AF0008600023087003A3001020318802D812DC4
:101B0000FF2F6C080A3E8600023087000A30A000D2
:101B10006C08093E8400023085000008A131D821FC
:101B200088310107F03E4101AF0005304001A000BF
:101B300041013608A131D8218831383E8600013074
:101B4000870041012F08810073304001E100AD3072
:101B5000E20041013608013E4001E3000030031875
:101B60000130E40041012F08A000A101200840013C
:101B7000E500410121084001E600A13193218831AF
:101B8000FF2F12304001E100A930E20041015D0861
:101B9000A000A10120084001E3004101210840010B
:101BA000E400A13193218831FF2F6C08A00056304A
:101BB000A100B430A200A33169238831400120087C
:101BC0002104031DE42DE52DF12D9831A22088314B
:101BD00020304001E100AF30E200A1319321883193
:101BE000FF2F6C08A000DE30A100B430A200083046
:101BF000A3000030A400A53106258831400120084B
:101C00002104031D042E052E612E6C08083EA00041
:101C1000AB30A100B530A2000330A3000030A40017
:101C2000A53106258831400120082104031D192E05
:101C30001A2E262EFF304101DE00CF304001E10098
:101C4000B230E200A13193218831FF2F6C08083EA9
:101C500086000230870030300102031C302E312E06
:101C6000592E6C08083E8600023087003A30010287
:101C700003183B2E3C2E592E6C08083E860002307D
:101C800087000108D03E4101DE00C4304001E10080
:101C9000AD30E20041015E08A000A1012008400132
:101CA000E300410121084001E400A1319321883182
:101CB000FF2F7330E100B130E200A1319321883170
:101CC000FF2F6C08A000AD30A100B430A200093095
:101CD000A3000030A400A53106258831400120086A
:101CE0002104031D742E752E0B2F6C08093E8600EF
:101CF000023087000108CF3E4101B7005D0837027E
:101D00000318832E842EF72E40016C080A3E8600AD
:101D10000230870020300106031D8F2E902EF72EF3
:101D20006C080B3EA0008530A100B530A200043045
:101D3000A3000030A400A531062588314001200809
:101D40002104031DA42EA52EC32E0530A0004101A1
:101D50003708A131D8218831393E8600013087000B
:101D60008101D8304001E100AF30E2004101370885
:101D7000013E4001E300003003180130E400A131CE
:101D800093218831FF2F6C080B3EA000C130A100C9
:101D9000B530A2000230A3000030A400A531062512
:101DA0008831400120082104031DD72ED82EF72E9C
:101DB0000530A00041013708A131D8218831393ED2
:101DC0008600013087000130810087304001E1004A
:101DD000AE30E20041013708013E4001E30000302F
:101DE00003180130E400A13193218831FF2F233003
:101DF0004001E100AC30E20041015D08A000A1011A
:101E000020084001E300410121084001E400A13124
:101E100093218831FF2F6C08A0008F30A100B530CE
:101E2000A200A3316923883140012008210403194D
:101E30001A2F1B2F2B2F6C08A000C730A100B53024
:101E4000A200A33169238831400120082104031D29
:101E50002A2F2B2FF42F2330E100B430E200A131E0
:101E600093218831B4304001E100AF30E200A1316C
:101E700093218831DD304001E100AA30E200A13138
:101E80009321883146304001E100AA30E20041014F
:101E90005D08A000A10120084001E30041012108E4
:101EA0004001E400A13193218831CD304001E100AF
:101EB000AC30E200A131932188310E304001E100C5
:101EC000AB30E20041015D08A000A1012008400103
:101ED000E300410121084001E400A1319321883150
:101EE00020304001E100B030E200A131932188317F
:101EF00008304001E100A930E20041015D08A00086
:101F0000A10120084001E300410121084001E40053
:101F1000A13193218831FA304001E100AE30E20076
:101F2000A13193218831F2304001E100B030E2006C
:101F3000A131932188318A304001E100B030E200C4
:101F4000A131932188319E304001E100AB30E200A5
:101F5000A13193218831AA304001E100A930E2008B
:101F6000A1319321883179304001E100AA30E200AB
:101F7000A1319321883151304001E100A830E200C5
:101F8000A1319321883112304001E100A830E200F4
:101F9000A13193218831CC304001E100A830E2002A
:101FA000A1319321883178304001E100B530E20061
:101FB000A1319321883176304001E100A930E2005F
:101FC000A13193218831F7304001E100AC30E200CB
:101FD000A131932188310D304001E100B330E2009E
:101FE000A13193218831FF2F9430E100B330E2001A
:101FF0006C08E3000230E400A1319321883108002D
:102000004001A501A0319B209031003A031D092811
:102010000A282E2801304201A00040012108420177
:10202000A200400120084201A100AB0140012208AA
:102030004201A300A401400124084201A60040017E
:1020400023084201A500A701A801A901AA01AC012A
:10205000A031C720903101304001A5004001250882
:10206000080040014B0886008701403FCE00413FF9
:10207000CF004E0884004F0885001200253A031D4A
:102080004228432866294B088600870101308107D2
:1020900041310318810A4101CB01CC0100304001DC
:1020A000ED00FF304201AE00FF30AF004001D8012B
:1020B0007B286D144B088600870101308107413170
:1020C0000318810A7B28ED145A280130D8007B2898
:1020D0004B0886008701403FCE00413FCF004E08AD
:1020E00084004F08850000082D3A031959281D3A2D
:1020F000031963286528580803197F288028682851
:102100006D1C832884288628FD30ED054B08A60029
:102110004C08A700A631052690314001270841014F
:10212000CC00400126084101CB00CC1F98289928FB
:10213000A12840016D144101CB09CC09CB0A031938
:10214000CC0A40014B0886008701403FD600413F42
:10215000D70056088400570885001200643A031916
:10216000B228B328BD2856088400570885001200FD
:10217000693A031DBC28BD28E3284C0886004D0899
:10218000870001088400850102308107003FD200EA
:10219000013FD3005608013ECE000030573DCF002E
:1021A0004B08860087014E08C03F4F08C13F4A08D0
:1021B000BD004908BC005308BF005208BE009B3157
:1021C0009E2390318029D8014B0886008701403F2B
:1021D000CE00413FCF004E0884004F08850012001A
:1021E000733A031DF428F52800294B08860087015F
:1021F0000130810741310318810A0130D80042299A
:102200004B0886008701403FCE00413FCF004E087B
:1022100084004F08850012006C3A031D1029112913
:1022200042294B0886008701403FCE00413FCF0046
:1022300001304E0784004F080318013E850012004C
:102240006C3A031D2429252942294B088600870161
:10225000403FCE00413FCF0002304E0784004F0880
:102260000318013E85001200733A031D38293929ED
:1022700042294B088600870103308107413103184A
:10228000810AFD2858080319462947295C294A086C
:10229000AD004908AC004C0886004D0887000108D5
:1022A0008400850102308107003FAE00013FAF008E
:1022B0009A3167229031802940014B0886008701BE
:1022C0000130810741310318810A80294B088600BB
:1022D0008701403FCE00413FCF004E0884004F08A9
:1022E00085000008D000D1015008A3005108A400C7
:1022F0004A08A6004908A500A631BE2690315C29EF
:102300000800380886003908870006300106031DDA
:102310008A298B292B2A3708013E4001AB00410155
:102320003608013E4001AC0000309D31102591314E
:1023300041013608A000A1010530A035A10D890B8F
:102340009D297030A2002E30A300200822078600AD
:102350002108233D8700093001060319B029B1295E
:10236000FD2903304001D300410136089D31D125BC
:10237000913141013608A000A1010530A035A10D21
:10238000890BBE297030A2002E30A300200822073E
:1023900086002108233D8700073081003608A00011
:1023A000A1010530A035A10D890BD2298B30A200E7
:1023B0002E30A3002008220786002108233D870035
:1023C000FF30810041304001E100A930E2004101CD
:1023D0003708013E4001E300003003180130E400FB
:1023E00041013608013E4001E5000030031801308C
:1023F000E600A131932191312B2A3608A000A101DA
:102400000530A035A10D890B012A8B30A2002E309A
:10241000A3002008220786002108233D8700FF3003
:10242000810090304001E100A830E200410137080E
:10243000013E4001E300003003180130E400410197
:102440003608013E4001E500003003180130E60087
:10245000A131932191314001D301410137089D31D0
:10246000D12591314001D301410137089931CD2166
:10247000913141013808860039088700093001068A
:102480000319432A452A87314F2F38088600390817
:102490008700810138088600390887005B31FF30EA
:1024A0008100B3304001E100B230E2004101370861
:1024B000013E4001E300003003180130E400A13187
:1024C00093219131432A3808860039088700423128
:1024D0000108031D6C2A6E2A8731872F3808860071
:1024E0003908870041310103031D772A782A6C2AB5
:1024F00038088600390887005C31810105304001C9
:10250000A00041013708A131D8219131383E860021
:1025100001308700010A03198E2A8F2A132B4101EB
:10252000380886003908870045310A304001A30089
:102530000030A4000530A00041013708A131D821A6
:102540009131383E84000130850000084101A0002F
:10255000A10120084001A500410121084001A60079
:10256000A531A92591314001230881004101380896
:1025700086003908870046310A304001A300003048
:10258000A4000530A00041013708A131D8219131C4
:10259000383E84000130850000084101A000A101FF
:1025A00020084001A500410121084001A600A531F5
:1025B00057259131400123088100410138088600E8
:1025C0003908870044311030810038088600390806
:1025D00087000330810012304001E100AA30E200A0
:1025E00041013708013E4001E3000030031801308B
:1025F000E4000530A00041013708A131D821913114
:10260000383E86000130870001084101A000A10189
:1026100020084001E500410121084001E600A13108
:10262000932191316C2A4001D301D30A410137082B
:102630009D31D12591314101380886003908870044
:10264000433181013808860039088700443181010F
:102650003808860039088700013081003430400195
:10266000E100B130E20041013708013E4001E300E2
:10267000003003180130E400A131932191316C2A1C
:10268000380886003908870042310103031D492BB1
:102690004A2B6C2A38088600390887004131010826
:1026A000031D532B542B6C2A4001D30141013708E1
:1026B0009D31D125913141013808860039088700C4
:1026C0004331013081005830A0000230A1003808A9
:1026D00086003908870055312008C03F2108C13FD6
:1026E000380886003908870002308100AE3040018A
:1026F000E100AE30E20041013708013E4001E30055
:10270000003003180130E400A131932191316C2A8B
:1027100015304101BB004B30BA00BE30890B8E2B07
:10272000BA0B8E2BBB0B8E2B0000A2312F229331C4
:1027300002304001A0001B30A100A13110219331D3
:102740008B170B1776304001E100B530E200A13164
:1027500093219331FC304001E100B330E200A1311C
:1027600093219331993135219331A03198209331C0
:102770004101DD00E8304001E100B330E2004101F9
:102780005D08BA00BB013A084001E30041013B0883
:102790004001E400A131932193318F304001E100E9
:1027A000AF30E200A13193219331AF304001E1001D
:1027B000B530E200A1319321933155304001A4009E
:1027C000B530A500A2311622933115304101BB006E
:1027D0004B30BA00BE30890BEB2BBA0BEB2BBB0B8B
:1027E000EB2B0000B2304001E100B530E200A13136
:1027F0009321933155304001A400B530A500A2319A
:102800001622933115304101BB004B30BA00BE3067
:10281000890B082CBA0B082CBB0B082C0000B53018
:102820004001E100B530E200A131932193315530F0
:102830004001A400B530A500A23116229331153015
:102840004101BB004B30BA00BE30890B252CBA0BBE
:10285000252CBB0B252C0000B8304001E100B53021
:10286000E200A1319321933155304001A400B530ED
:10287000A500A2311622933115304101BB004B3027
:10288000BA00BE30890B422CBA0B422CBB0B422C37
:102890000000BB304001E100B530E200A1319321DE
:1028A000933155304001A400B530A500A231162265
:1028B000933115304101BB004B30BA00BE30890B5B
:1028C0005F2CBA0B5F2CBB0B5F2C00008F304001DC
:1028D000E100B430E200A131932193317B3040011B
:1028E000E100B230E200A131932193310130410186
:1028F000C700BF2C0130C800B72C64004101470855
:102900004001AB00410148084001AC0001309D315D
:102910001025933180304001E100B430E2004101E4
:102920004708BA00BB013A084001E30041013B08F7
:102930004001E40041014808BC00BD013C084001E1
:10294000E50041013D084001E600A13193219331AA
:1029500003304101BB000830BA007730890BAE2C40
:10296000BA0BAE2CBB0BAE2C02304101C807480895
:102970005D020318BC2CBD2C7D2C0130C707470815
:102980005D020318C42CC52C7A2C0130C7000D2D14
:102990000130C800052D6400410147084001AB002B
:1029A000410148084001AC0000309D3110259331B1
:1029B00073304001E100B430E20041014708BA0041
:1029C000BB013A084001E30041013B084001E4003B
:1029D00041014808BC00BD013C084001E50041013F
:1029E0003D084001E600A1319321933103304101BC
:1029F000BB000830BA007730890BFC2CBA0BFC2CDA
:102A0000BB0BFC2C02304101C80748085D020318CB
:102A10000A2D0B2DCB2C0130C70747085D02031888
:102A2000122D132DC82CCD304001E100B130E20051
:102A3000A131932193315E304001E100B230E200D8
:102A4000A131932193314101C901E32D4908BA0015
:102A5000BB010530BA35BB0D890B2A2D7030BC0087
:102A60002E30BD003A083C0786003B083D3D8700FC
:102A700081014908A7311C2793314101BA00490857
:102A8000BB00BC010530BB35BC0D890B432D71303B
:102A9000BD002E30BE003B083D07BF003C083E3D58
:102AA000C0003F088600400887003A0881004908B6
:102AB000BA00BB010530BA35BB0D890B5B2D7230F6
:102AC000BC002E30BD003A083C0786003B083D3D67
:102AD00087004908BE00BF010530BE35BF0D890B18
:102AE0006D2D7130C0002E30C1003E0840078400BB
:102AF0003F08413D8500000881004908BA00BB013C
:102B00000530BA35BB0D890B812D7330BC002E30DA
:102B1000BD003A083C0786003B083D3D8700810127
:102B20004908BA00BB010530BA35BB0D890B942D9D
:102B30007430BC002E30BD003A083C0786003B08CC
:102B40003D3D870081014908BA00BB010530BA3517
:102B5000BB0D890BA72D8530BC002E30BD003A0877
:102B60003C0786003B083D3D87000030C03FC13F29
:102B70004908BA00BB010530BA35BB0D890BBC2D25
:102B80008730BC002E30BD003A083C0786003B0869
:102B90003D3D87000030C03FC13F4908BA00BB013E
:102BA0000530BA35BB0D890BD12D8B30BC002E30D2
:102BB000BD003A083C0786003B083D3D8700FF30DA
:102BC00081000130C9075D084902031CE82DE92D89
:102BD000262D05304101BB000F30BA00F130890BC2
:102BE000EF2DBA0BEF2DBB0BEF2D8C304001E10028
:102BF000B430E200A1319321933113304001E10060
:102C0000B130E200A131932193314101C501592E28
:102C1000CB304001E100B430E20041014508013E03
:102C20004001E300003003180130E400A13193219A
:102C3000933141014508BA00BB010530BA35BB0DDF
:102C4000890B1E2E7130BC002E30BD003A083C07A7
:102C500086003B083D3D87000108031D302E312EC4
:102C60003A2E4E304001E100B530E200A13193210F
:102C70009331562E4508BA00BB010530BA35BB0D5D
:102C8000890B3E2E7030BC002E30BD003A083C0748
:102C900086003B083D3D87000830810047304001F9
:102CA000E100B530E200A1319321933101304101BF
:102CB000C5075D084502031C5E2E5F2E082E4A30B4
:102CC0004001E100AD30E200A131932193319C310C
:102CD000512493314101C401972EAA304001E100F3
:102CE000B330E20041014408013E4001E3000030FE
:102CF00003180130E4000530A00041014408A1316F
:102D0000D8219331363E8600013087000108410109
:102D1000BA00BB013A084001E50041013B0840010F
:102D2000E600A1319321933101304101C4075D08D0
:102D30004402031C9C2E9D2E6D2E1E304001E1008E
:102D4000B330E200A131932193314101C601E92E54
:102D500005304001A00041014608A131D82193313E
:102D6000393E8600013087000103031DB82EB92EBD
:102D7000E62E34304001E100B430E2004101460863
:102D8000013E4001E300003003180130E400A131AE
:102D90009321933103304001D300410146089D3116
:102DA000D125933115304101BB004B30BA00BE3004
:102DB000890BD82EBA0BD82EBB0BD82E00004001A1
:102DC000D301410146089D31D125933101304101A4
:102DD000C6075D084602031CEE2EEF2EA82E7830A3
:102DE0004001E100B530E200A13193219331EA3096
:102DF0004001E100B130E200A13193219331640040
:102E00004101C3010A2F43089E31C8269331013086
:102E10004101C3075D084302031C0F2F102F032F2E
:102E2000A031ED209331003A0319172F182FFF2EF0
:102E3000A231482293314101CA005B08031D212FB2
:102E4000222F2B2F1B304A06031D272F282F2B2F15
:102E50000130DB00FF2E5B03031D2F2F302F3C2F93
:102E60005B304A06031D352F362F392F0230DB0029
:102E7000FF2E4101DB01FF2E02305B06031D412FB7
:102E8000422F7E2F41304A06031D472F482F392FEE
:102E9000C201552FA3304001E100B530E200A1315D
:102EA0009321933101304101C2075C084202031CA7
:102EB0005A2F5B2F4A2F20304001A0000230A10082
:102EC000A030A2000330A300A231BA2293312030F7
:102ED0004001A000A23100229331400120084101AD
:102EE000DC00AA304001E100B430E2002030E30011
:102EF0000230E400A13193219331392F0D304A067D
:102F00000319832F842F8A2F0A304A06031D892F25
:102F10008A2FBF2F4A0898310020933141015C0865
:102F2000203E86000230870081015C080319992F3A
:102F30009A2FA62FA0304001A0000330A10020301E
:102F4000A2000230A300A231BA2293312030400106
:102F5000EC0088314220933178304001E100B530F7
:102F6000E200A131932193316A304001E100B53094
:102F7000E200A131932193314101DC01FF2E0830A1
:102F80004A060319C42FC52FCB2F7F304A06031DD5
:102F9000CA2FCB2FDB2F5C080319CF2FD02FFF2E8A
:102FA0000130DC02A3304001E100B530E200A13184
:102FB00093219331FF2E3F305C020318E02FE12F65
:102FC000FF2E4A08983100209331613041014A02B6
:102FD000031CEB2FEC2FF42F7B304A020318F12F48
:102FE000F22FF42F2030CA025C08203E8600023007
:102FF00087004A0881000130DC07FF2E803152280B
:103000004001A1004E01191A062807280C2840018A
:10301000210842019A00242840016E080319112852
:10302000122824287408A03E860002308700210858
:1030300081007408013E3F39A0002008F4004E01D1
:10304000191201304001EE024E011916080040012C
:10305000A40070288A30A000B530A100A128E73074
:10306000A000B430A100A1281030A000B530A1000C
:10307000A1282030A000B530A100A1281830A00060
:10308000B530A100A1280030A000B530A100A128D2
:103090000830A000B530A100A1289E30A000B530B6
:1030A000A100A1282830A000B530A100A128383007
:1030B000A000B530A100A128B730A000B430A10015
:1030C000A128C130A000B430A100A1289730A000F1
:1030D000B430A100A1283030A000B530A100A12853
:1030E0002408A200A3012308003A031978286B28BA
:1030F0002208003A03192A28013A03192F28033A13
:1031000003193428013A03193928073A03193E28CC
:10311000013A03194328033A03194828013A0319CD
:103120004D280F3A03195228013A03195728033A38
:1031300003195C28013A03196128073A0319662824
:103140006B28080050019E18A628A728A2281E1741
:1031500001309A0070309B009D0141015E085001D2
:103160009C00400103108B1FB628B728B828031411
:103170008B1350011E1555309F00AA309F009E14DE
:103180009E18C328C428C0281E114001031CC9284A
:10319000CA28CB288B173630A000A101A20150010C
:1031A0009E18D328D428CF281E1740012108033E9B
:1031B00050019A0070309B009D01400120082107BA
:1031C000860001308700010850019C004001031077
:1031D0008B1FEB28EC28ED2803148B1350011E15D0
:1031E00055309F00AA309F009E149E18F828F92899
:1031F000F5281E114001031CFE28FF2800298B170B
:103200000130A1070030A23D00302202283003190E
:103210002102031C0C290D29CF2850019E181129C9
:1032200012290D291E1702309A0070309B009D0153
:103230005A309C00400103108B1F1F29202921298F
:1032400003148B1350011E1555309F00AA309F00A8
:103250009E149E182C292D2929291E114001031C7A
:103260003229332934298B1708004001E701D301A3
:1032700067089D31D12599314001D3016708993103
:10328000CD21993101304001E70704306702031C6A
:103290004A294B29372915304001E2004B30E10023
:1032A000BE30890B5129E10B5129E20B5129000055
:1032B000A1315621993105304001E2000F30E10083
:1032C000F130890B6129E10B6129E20B6129400191
:1032D00017172030CF000030D0000530D100D201C8
:1032E000A131A3219931013A031D77297829C929F0
:1032F00020304001CF000030D0000A30D100D20190
:10330000A131A3219931FF304101E100FF30E200FA
:1033100020304001A7000030A8001430A900E1309F
:10332000AA000230AB000030AC00A73189279931E8
:10333000420163084001E400420162084001E300E9
:103340002030A7000030A8000C30A9006330AA008C
:103350000230AB000030AC00A7318927993142011F
:1033600061084001E600420160084001E5002030AC
:10337000A7000030A800A9016530AA000230AB0008
:103380000030AC00A7318927993108304001EF00A7
:10339000CC2904304001EF0008004001DC0004307B
:1033A0005C020318D429D529082AFA2953080319DD
:1033B000DA29DB29DD299611662A9615662A530833
:1033C0000319E329E429E6299712662A9716662A43
:1033D00053080319EC29ED29EF299811662A98154D
:1033E000662A53080319F529F629F8299813662A3D
:1033F0009817662A5C08003A0319D629013A03197E
:10340000DF29033A0319E829013A0319F129662A49
:1034100005306F02031C0D2A0E2A662A5C08FC3E4A
:10342000DA0002305A020318162A182A0130192A23
:103430000030DD005A1C1D2A1E2A232A0430D60023
:103440000030D700252AD601D7015608DB005D08D9
:10345000E13E860087010430D4005B0A302AD4356F
:10346000890B2F2A5408FF3A81055308031D392A76
:103470003A2A472A5D08E13E860087010430D400DD
:103480005B0A432AD435890B422A540881045D081B
:1034900003194B2A4C2A512A1530D8000030D90084
:1034A000552A1430D8000030D9005808D5002030F3
:1034B000CF000030D0005508D1005D08E13E860005
:1034C00087010108D200A131A321993108004001F0
:1034D0002F08B7002E08B60036083704031D712ADE
:1034E000722A762A4030B600B530B700B801B9016B
:1034F0007D2A0130B8070030B93D3608380784000E
:103500003708393D85001200031D872A882A792A49
:103510003908B3003808B20041014C084001B50039
:1035200041014B084001B4006D18972A982AD02A0F
:10353000AA2A20304001A3000030A4002D08A600D4
:103540002C08A500A631BE269A3101304001B807EB
:103550000030B93D3908803AB0003508803A300271
:10356000031DB42A34083802031CB72AB82A992A42
:10357000D02A36088400370885000008B000B10161
:103580003008A3003108A4002D08A6002C08A500CF
:10359000A631BE269A3101304001B6070030B73D52
:1035A000FF304001B207FF30B33D320A031DDC2A71
:1035B000330A031DDC2ADD2AB92A6D1CE02AE12A20
:1035C000012BF32A20304001A3000030A4002D0875
:1035D000A6002C08A500A631BE269A310130400174
:1035E000B8070030B93D3908803AB0003508803A54
:1035F0003002031DFD2A34083802031C002B012B66
:10360000E22A0800FD01962B7D08F700F80105303D
:10361000F735F80D890B082B8530F9002E30FA00AC
:1036200077087907860078087A3D8700160001043C
:1036300003191B2B1C2B342B7D08F700F8010530D8
:10364000F735F80D890B202B8530F9002E30FA0064
:1036500077087907860078087A3D87000130810273
:1036600041310030813B7F317D08F700F8010530A2
:10367000F735F80D890B382B8730F9002E30FA001A
:1036800077087907860078087A3D870016000104DC
:1036900003194B2B4C2B642B7D08F700F8010530E8
:1036A000F735F80D890B502B8730F9002E30FA00D2
:1036B00077087907860078087A3D87000130810213
:1036C00041310030813B7F317D08F700F801053042
:1036D000F735F80D890B682B8930F9002E30FA0088
:1036E00077087907860078087A3D8700160001047C
:1036F00003197B2B7C2B942B7D08F700F8010530F8
:10370000F735F80D890B802B8930F9002E30FA003F
:1037100077087907860078087A3D870001308102B2
:1037200041310030813B7F310130FD0741015D08AF
:103730007D02031C9C2B9D2B042B080001304001B3
:10374000C300BF1BA42BA62B0130A72B0030C60043
:1037500041014C084001C50041014B084001C40033
:1037600046080319B42BB52BC92BFF30C407FF3013
:10377000C53D4608031DBD2BBE2BC32B2B30C100FE
:103780000030C200C72B2D30C1000030C2004108FC
:10379000C6001F30C7000030C8004301BF01052C20
:1037A000FF30C707FF30C83D4708A03E8600013004
:1037B00087000A30A3000030A4003F08A6003E089E
:1037C000A500A53157259B3140012408AA002308F4
:1037D000A900A131C6219B3140012908303E81005A
:1037E000C301FF30C407FF30C53D0A30A3000030DD
:1037F000A4003F08A6003E08A500A531A9259B31DD
:1038000040012408BF002308BE0040014808803A58
:10381000C00080304002031D0F2C01304702031C02
:10382000122C132C312C40013E083F04031D192C8F
:103830001A2CD02B4308031D1E2C1F2CD02B4508FF
:10384000803AC00080304002031D282C0130440221
:10385000031C2B2C2C2C312C4001ED18302C312C3E
:10386000D02B400146080319362C372C422CFF3050
:10387000C707FF30C83D4708A03E860001308700DB
:10388000460881003D08B5003C08B4004708A03E4A
:10389000B6004508B8004408B700A43178249B312D
:1038A000080050011E1702309A0070309B001E1451
:1038B0005A301C06031D5D2C5E2CC02C1E170130D7
:1038C0009A0070309B001E141C084101DE00363047
:1038D0004001A700A901AA0150011E1740012908B3
:1038E000033E50019A0070309B001E1440012708CF
:1038F000290786000130870050011C088100013033
:103900004001A9070030AA3D00302A0228300319DF
:103910002902031C8C2C8D2C6C2CA801B72C053093
:10392000A0002808A131D8219C31373E8600013003
:10393000870009300106031D9E2C9F2CB42C4001EA
:103940002808A300A4010530A335A40D890BA42CDD
:103950007030A5002E30A600230825078600240815
:10396000263D87000930810001304001A807410150
:103970005D0840012802031CBE2CBF2C8F2C0F2D8C
:10398000FF304101DE004001AB010530A0002B08F3
:10399000A131D8219C31363E86000130870040019C
:1039A0002B080B3E81000530A0002B08A131D82147
:1039B0009C31373E8600013087008101053040018F
:1039C000A0002B08A131D8219C31383E860001305F
:1039D0008700FF30810005304001A0002B08A13195
:1039E000D8219C31393E86000130870081010530A5
:1039F0004001A0002B08A131D8219C313A3E86001D
:103A000001308700810101304001AB0708302B02F3
:103A1000031C0B2D0C2DC52C9831A2209C310800C5
:103A20004001AF002F03031D162D172D1A2D433013
:103A3000B0001C2D5230B0000D30B500B6010A3078
:103A4000A3000030A4002B08AD00AE012D08A50096
:103A50002E08A600A531A9259D3140012308303E3E
:103A6000B1000A30A3000030A4002B08AD00AE0165
:103A70002D08A5002E08A600A53157259D3140012F
:103A80002308303EB2000A30A3000030A4002C0806
:103A9000AD00AE012D08A5002E08A600A531A92570
:103AA0009D3140012308303EB3000A30A3000030AE
:103AB000A4002C08AD00AE012D08A5002E08A6001C
:103AC000A53157259D3140012308303EB4003030E8
:103AD000A4000030A500A23116229D310B30400118
:103AE000AD006230890B722DAD0B722D00000A30D3
:103AF0004001A3000030A4002C08AD00AE012D0849
:103B0000A5002E08A600A531A9259D314001230856
:103B1000303EB1000A30A3000030A4002C08AD00F4
:103B2000AE012D08A5002E08A600A53157259D3110
:103B300040012308303EB2000A30A3000030A40048
:103B40002B08AD00AE012D08A5002E08A600A5315A
:103B5000A9259D3140012308303EB3000A30A3005F
:103B60000030A4002B08AD00AE012D08A5002E08E2
:103B7000A600A53157259D3140012308303EB400F1
:103B80003030A4000030A500A23116229D310B3048
:103B90004001AD006230890BCB2DAD0BCB2D000069
:103BA00008004001DC000130DF000130E000E82DBA
:103BB0000130DF000130E000FE2DDF01E001FE2DCD
:103BC0000130DF00E001FE2DDF010130E000FE2DBD
:103BD0005308D400D5015508003A0319F02DFE2DE5
:103BE0005408003A0319D82D013A0319DD2D033A80
:103BF0000319E02D013A0319E42DFE2D04305C0277
:103C00000318032E042E572E492E5F080319092E80
:103C10000A2E0C2E16140D2E161060080319112EE4
:103C2000122E142E9614C72E9610C72E5F08031955
:103C30001A2E1B2E1D2E16161E2E16126008031984
:103C4000222E232E252E9616C72E9612C72E5F08DB
:103C500003192B2E2C2E2E2E16172F2E161360081E
:103C60000319332E342E362E9617C72E9613C72ED1
:103C70005F0803193C2E3D2E3F2E1816402E1812B9
:103C800060080319442E452E472E9816C72E981209
:103C9000C72E5C08003A0319052E013A0319162EA7
:103CA000033A0319272E013A0319382EC72E05307F
:103CB0006F02031C5C2E5D2EC72E5C08FC3EDB00F1
:103CC00002305B020318652E672E0130682E00302B
:103CD000DE005B1C6C2E6D2E722E0430D70000307F
:103CE000D800742ED701D8015708DD005E08E13EE8
:103CF000860087010330D4005D0A7F2ED435890BFE
:103D00007E2E5408FF3A81055F080319882E892EFC
:103D1000962E5E08E13E860087010130D4005D0AE0
:103D2000922ED435890B912E540881046008031912
:103D30009A2E9B2EA82E5E08E13E86008701023057
:103D4000D4005D0AA42ED435890BA32E5408810417
:103D50005E080319AC2EAD2EB22E1530D9000030FE
:103D6000DA00B62E1430D9000030DA005908D60037
:103D70002030CF000030D0005608D1005E08E13E70
:103D8000860087010108D200A131A3219D310800DE
:103D90004101B7003708A000A1010530A035A10DF1
:103DA000890BCE2E7030A2002E30A30020082207EF
:103DB000A4002108233DA5002408B8002508B90067
:103DC0003708A7311C279E314101A0003808013E69
:103DD000A1000030393DA20021088600220887009A
:103DE0002008810038088600390887004131010821
:103DF000031DFB2EFD2E87314F2F38088600390812
:103E0000870042310103031D062F072F142FE830CE
:103E1000A0000330A1003808860039088700593116
:103E20002008C03F2108C13F3808860039088700B4
:103E3000593116000104031D1E2F1F2FFB2E3808B9
:103E400086003908870001080319272F282FFB2E29
:103E50003808860039088700053001060319312F1C
:103E6000322FFB2E38088600390887000A300106F9
:103E700003193B2F3C2FFB2E38088600390887009A
:103E80000B3001060319452F462FFB2E38088600FC
:103E9000390887000C30010603194F2F502FFB2ED5
:103EA00038088600390887005B31010A0319592F49
:103EB0005B2F92312B2A38088600390887005B3146
:103EC0000108B6003808860039088700043001066A
:103ED000031D6B2F6D2F913181294001D3014101C9
:103EE00036089931CD219E3105304001A0004101B5
:103EF0003608A131D8219E31393E86000130870035
:103F00000103031D842F852FBD2F03304001D300F3
:103F1000410136089D31D1259E31F4304101A00088
:103F20000130A1003608A200A3010530A235A30D7F
:103F3000890B962F8730A4002E30A5002208240775
:103F400086002308253D87002008C03F2108C13F87
:103F50003608A000A1010530A035A10D890BAC2FBA
:103F60007030A2002E30A30020082207860021080E
:103F7000233D87000C308100D12F41013608A0007D
:103F8000A1010530A035A10D890BC22F7030A20010
:103F90002E30A3002008220786002108233D870039
:103FA00081013608A000A1010530A035A10D890BC3
:103FB000D52F8B30A2002E30A300200822078600C8
:103FC0002108233D8700FF308100DE304001E10001
:103FD000A930E20041013708013E4001E300003012
:103FE00003180130E40041013608013E4001E500BC
:103FF000003003180130E600A13193219E31592F82
:1041300040016F08080042012008080050019E114C
:10414000080042011D121D1608004201A00108309E
:104150000800A2317F22A0310800A4310224A0313E
:104160000800A0319E20A031080042012135430102
:104170008C0003300800A031E620A031F70077085A
:10418000080088310020A031F700770808004301BB
:10419000111402304201AD00080050018C018D0164
:1041A000131293120800A734B53488348834883445
:1041B00088340834FF34FF34FF34FF34FF340314F1
:1041C0004201210D43018C00043008004301111508
:1041D000A131B421A031003008007008031DF1287E
:1041E000F3280130F4280030080042012C08400177
:1041F000A0004201AC0140012008080040016E0807
:10420000031D03290529013006290030080040015B
:1042100021084101D600400120084101D5000800D5
:10422000400121084101D400400120084101D30090
:104230000800603051018D008F019101063093001C
:104240002030920008004E010C100B140030400189
:10425000A0000030A100A1310721A13108006400B5
:10426000800101310130FE020030FF3B7F087E04F7
:10427000031D30290034FE0012001E000130FE0232
:104280000030FF3B7F087E04031D3C2900344101C0
:104290005308540403194D294E29532954088A0000
:1042A00053080A00A1314E019010080080304301EC
:1042B0008F0008309000910192014F308D004E0127
:1042C0001914991443019016080040012008210494
:1042D00003196B296C29732921084101D000400181
:1042E00020084101CF0008004001200821040319E3
:1042F0007A297B29822921084101CE00400120082A
:104300004101CD0008004001A200A031FE20A131F2
:10431000003A03198C298D298529400122089831FA
:104320000020A131080063304001EB000030D900CB
:10433000DA006208DC006108DB006B30DD00A231CE
:104340009B22A131080040015008A8004F08A70097
:104350005108A9005230AA000130AB000030AC0077
:10436000A7318927A13108004201A0010030A20035
:10437000FF30A100A301A401A701A801AD014E01D6
:104380000F108F1043019013101308004001AA1B57
:10439000CA29CB29CC29D7292909AB002A09AC0085
:1043A000AB0A0319AC0A2B08A9002C08AA000800C4
:1043B0004001A200A101221CDE29DF29E1292008F9
:1043C000A1070310A00D0310A20C2208031DE92968
:1043D000EA29DB29210808000130450190008F01FE
:1043E0009101F9308D008C0103304101D300003080
:1043F000D4004E0190109A14D03045018E00080070
:1044000040012008A200062A0130A00720088600EB
:10441000023087000108031D0E2A0F2A042A2208F1
:104420002002A000A101A01BA1030800242A240847
:104430008400250885000008A4313D24A231013004
:104440004001A4070030A53D400124088400250850
:1044500085001200031D2D2A2E2A172A0800A131DB
:104460001921A231A431BE24A231A1315621A23199
:10447000A131EC21A231A331CB23A231A031B12053
:10448000A231A031CD20A231A1312321A2310800D7
:104490007108203E86000330870001084001A1001A
:1044A0007108013E3F39A0002008F1004E01991229
:1044B000700803195C2A5D2A5F2A0130F002991600
:1044C000400121080800403040016E020318692AAB
:1044D0006A2A7C2A7308A03E860002308700010801
:1044E00042019A007308013E3F39F7007708F30054
:1044F00001304001EE077E2A4E01191208000630F5
:104500004201AD000330AC004E018F1042012D0876
:10451000F800F901F835F90D0030780784002830EB
:10452000793D80388500013F8A00003F0A00A231B2
:104530004201AD00080040015C08E0005B08DF00BC
:10454000AD2A5A08CA005908C9005F30CB005D087F
:10455000CC00CD0190313120A23140015F088400B0
:10456000600885001200031DB62AB72AA12AD901C6
:10457000DA01080040012108A7002008A60027084A
:10458000870026088600A60A0319A70A2308A500A3
:104590002208A400A20A0319A30A240884002508FB
:1045A00085000008C03F8908031DD72AD82ABF2AE2
:1045B00008004001A401A501201CDF2AE02AE42A0A
:1045C0002208A4072308A53D0130A235A30D890BBD
:1045D000E52A0130A136A00C890BEA2A2008210423
:1045E000031DF32AF42ADC2A2508A1002408A000D0
:1045F000080040012108A6002008A5000D2B260870
:10460000860087010108A4000130A607250886005E
:104610008701240881000130A5070130A202003083
:10462000A33B220A031D182B230A031D182B192B49
:10463000FF2A08004001B201B301312B3108AF005D
:10464000B0012F08A3003008A4002E08A6002D08F2
:10465000A500A631BE26A33101304001B2070030CB
:10466000B33D2C0832078600013087000108B100F5
:104670003108031D3C2B3D2B1E2B08004201250851
:1046800026040319442B452B582B0130A50200307A
:10469000A63B2308860024088700010843018C00FC
:1046A00001304201A3070030A43D0330F700672B1F
:1046B0002B0803195C2B5D2B632BAB014301911479
:1046C0000130F700672BA031E620A331F70077080F
:1046D0000800702B0130A0070130A1070030A23D77
:1046E000400121088400220885000008A30020085A
:1046F00086000230870001082306031D802B812BD2
:104700008A2B20088600023087000108031D892BB0
:104710008A2B6A2B2008860002308700210884003B
:104720002208850000080102A000A101031CA103CA
:1047300008000430F70043010F1C9F2BA02BC82B4F
:10474000420129082A040319A62BA72BB72B2708F7
:1047500086002808870043010C08810001304201CF
:10476000A7070030A83D0130A9020030AA3B290864
:104770002A040319BC2BBD2BC12B43019112111626
:10478000C92B43019110911611160730F700C92B60
:104790009115770808004E01991297304101D70012
:1047A0000730D8004E01191263304101D900223080
:1047B000DA00483042019F0090309D0026309E0074
:1047C00040309B0003309C0002304001A0000030CC
:1047D000A100A1316521A331A1304001A00020300A
:1047E000A100A1317421A3314201B201B301F4014E
:1047F000F30140304001EE00F201F101F0014E0101
:10480000991608004E010F1043010F1E082C092CA9
:104810000D2CA131B421A431282C8F1A102C112C6D
:104820001B2C111F142C152C1B2C05304201AD0024
:104830000130AC00282C8F1E1E2C1F2C282C111F81
:10484000222C232C282C05304201AD000230AC0074
:1048500042012D08F800F901F835F90D003078070C
:1048600084002830793D80388500013F8A00003F70
:104870000A00A4314201AD0008004001A1008B13E1
:104880001713A6300032890B422C00324001A201DE
:10489000A3014001211C4D2C4E2C502C1717512CDC
:1048A0001713A6300032890B522C0032031040013E
:1048B000A10C0130A2070030A33D2308803AA000DC
:1048C00080302002031D662C08302202031C692C54
:1048D0006A2C492C40011717A6300032890B6D2C29
:1048E00000328B17A6300032890B732C003208007F
:1048F00040016D1C7C2C7D2C862C3608AC003508C4
:10490000AE003408AD00A3311A23A4314001B81F12
:104910008A2C8B2C8D2CB701B801BA01BB01A12CBC
:1049200020304001A3000030A4003508A600340860
:10493000A500A631BE26A43101304001BA070030DF
:10494000BB3D3B08803AB9003808803A3902031D64
:10495000AB2C37083A02031CAE2CAF2C902C400134
:104960006D18B32CB42CBD2C3608AC003508AE0045
:104970003408AD00A3311A23A43108004001960188
:104980000430970003309800043091009B3092006F
:10499000473093007E01B8010830C300CE010430D7
:1049A000B9009230C4004730CF00E501BA01C5011B
:1049B000D001FF30BB00FF30C600FF30D100FF3018
:1049C000BC00FF30C700FF30D2000830E8000930DB
:1049D0007D01CB0010307E019A0010307D01C500B2
:1049E00014307E01A00011307D01C60015307E011B
:1049F000A100BD01BE01BF01C801C901CA01D301A7
:104A0000D401D501E901EA01EB01080001304001C0
:104A1000A3020030A43B230A031D122D240A031D08
:104A2000122D132D202DA001A101562D0130A0071C
:104A30000130A1070030A23D0130A3020030A43BA9
:104A4000200886000230870001080319282D292D2F
:104A5000482D210884002208850012000319312DF9
:104A6000322D482D230824040319372D382D482DC5
:104A700021088400220885000008A500200886007F
:104A800002308700010825060319472D482D162DF1
:104A90002008860002308700210884002208850053
:104AA00000080102A000A101031CA10308004001AD
:104AB000A801A61F5C2D5D2D642DA509A609A50AD8
:104AC0000319A60A0130A800A41F672D682D6D2DBB
:104AD000A309A409A30A0319A40A23082404031997
:104AE000722D732D9A2D0130A7007D2D0130A33535
:104AF000A40D890B772D0130A707A41F802D812DD0
:104B0000762D24082602031D872D23082502031C69
:104B10008A2D8B2D8F2D2308A5022408A63B01305A
:104B2000A436A30C890B902D0130A702031D992DEB
:104B30009A2D812D280803199E2D9F2DA42DA5099E
:104B4000A609A50A0319A60A2608A4002508A30099
:104B500008004001A801A41FAE2DAF2DB62DA3095A
:104B6000A409A30A0319A40A0130A800A61FB92D9D
:104B7000BA2DC12DA509A609A50A0319A60A013057
:104B8000A806A901AA01230824040319C82DC92DC8
:104B9000F62D0130A700D32D0130A335A40D890BCC
:104BA000CD2D0130A707A41FD62DD72DCC2D013038
:104BB000A935AA0D890BD82D24082602031DE22D44
:104BC00023082502031CE52DE62DEB2D2308A50265
:104BD0002408A63B29140130A436A30C890BEC2D24
:104BE0000130A702031DF52DF62DD72D2808031936
:104BF000FA2DFB2D002EA909AA09A90A0319AA0A50
:104C00002A08A4002908A30008004001AC01AD0156
:104C1000260886008701403FA800413FA9002808D8
:104C200084002908850012002A3A031D182E192E27
:104C3000482E26088600870101308107413103187C
:104C4000810A270886008701010884008501023057
:104C50008107003FAC00013FAD005C2E2D08A10094
:104C60002C08A0000A30A2000030A300A231D922F3
:104C7000A63140012B082007AC000030213DAD00DB
:104C80002608860087010130810741310318810A17
:104C9000260886008701403FA800413FA900280858
:104CA0008400290885000008D03EAB000A302B02A2
:104CB000031C5B2E5C2E2E2E2D08A7002C08A600B0
:104CC000080040012B08AF002A08A1002908A00015
:104CD0002F30A2000130A3000030A4002C08A50052
:104CE0002E08A7002D08A60088310720A631003A1B
:104CF000031D7B2E7C2E7D2EBD2EE8304001B000A2
:104D00000330B100932E1A30890B842E003201300B
:104D10004001B0020030B13B30083104031D912E38
:104D2000922E932EBD2EA0319B20A631003A031D5A
:104D30009A2E9B2E832EE8304001B0000330B10044
:104D4000B12E1A30890BA22E003201304001B00280
:104D50000030B13B30083104031DAF2EB02EB12E10
:104D6000BD2E43011119B52EB62EA12E8530890B0B
:104D7000B72E0000A031F520A6310800400125081B
:104D800026040319C42EC52ECB2E25082604031D88
:104D9000CA2ECB2ED02E2308A1318321A6311B2F62
:104DA00025088600260887004931160001040319EA
:104DB000DA2EDB2EFB2E25088600260887004931D7
:104DC000403FA700413FA80025088600260887002D
:104DD0004231403FA900413FAA002A08803AAB0077
:104DE0002808803A2B02031DF72E270829020318F2
:104DF000FA2EFB2E1B2F400125088600260887006F
:104E000042312508840026088500003FA700013FA5
:104E1000A800403F27078400413F283D8500230824
:104E2000800025088600260887004231013081076E
:104E300041310318810A08004001B70004303702ED
:104E40000318232F242F432F352F0C0C890C0139E5
:104E5000882F0D0E0139882F0E0C890C0139882FEF
:104E60000E0E890C890C0139882F3708003A031976
:104E7000252F013A0319292F033A03192C2F013A40
:104E80000319302F872F05306F02031C482F492F3D
:104E9000872F3708FC3EB60004303706031D512F1C
:104EA000522F612F2030A9000030AA001230AB0031
:104EB000DF30AC000230AD000030AE00A63161261C
:104EC000A7310230400136020318672F692F0130E5
:104ED0006A2F0030B200361C6E2F6F2F742F803077
:104EE000B4000030B500782F0830B4000030B500B1
:104EF0003408B3003208DF3E86008701010833051D
:104F0000031D832F852F0130862F0030882F00301E
:104F10000800003040012C021F3003192B02031C33
:104F2000922F932F952F0030FF2F2908AD002E30A0
:104F3000A0002A08A1002C08A3002B08A200A2317F
:104F4000F922A73140012808A1002708A0002D3030
:104F5000A2002B08013EA30000302C3DA40090319C
:104F60000020A731003A031DB62FB72FB82F932F7B
:104F7000E8304001CD000330CE00CE2F1A30890B2F
:104F8000BF2F003201304001CD020030CE3B4D0832
:104F90004E04031DCC2FCD2FCE2F932FA0319B205D
:104FA000A731003A031DD52FD62FBE2FE830400180
:104FB000CD000330CE00EC2F1A30890BDD2F0032EC
:104FC00001304001CD020030CE3B4D084E04031DA0
:104FD000EA2FEB2FEC2F932F43011119F02FF12F14
:104FE000DC2F8530890BF22F0000A031F520A7318E
:104FF000003A0319FC2FFE2F0130FF2F003008006C
:10500000A5342034DF342034B53420343E34233406
:1050100099342334BB342034C1342034E634203472
:105020000034083420342034203420342034203418
:1050300020342034203420344534783461346D34C5
:1050400070346C3465343A3420345334423443344D
:1050500054344C342034523445344C3420343134BC
:10506000203432342034203420342D34203452344F
:1050700065346C34653461347334653420343134D0
:10508000203461346E346434203432342034533468
:10509000773469347434633468342E340D340A340C
:1050A0000034203420342034203420342034203480
:1050B0002034203420344534783461346D347034F5
:1050C0006C3465343A3420345334423443345434E9
:1050D0004C34203443344F344E3420343134203473
:1050E00032342034203420342D34203443346F348F
:1050F0006E346E3465346334743420343134203487
:1051000061346E3464342034323420345334773490
:1051100069347434633468342E340D340A34003402
:1051200050346F34723474342034253464343A3457
:105130002034483475346E34673420347534703418
:10514000203464347534723469346E3467342034F6
:10515000743461346C346B342E34203450346F34F6
:105160007234743420342534643420346934733414
:1051700020346E346F347734203441345534543411
:105180004F34203441344E34533457344534523440
:105190002E340D340A3400342034203420342034AA
:1051A00020342034203420342034203445347834E2
:1051B00061346D3470346C3465343A342034533493
:1051C0004234433454344C342034463455344C3413
:1051D0004C345F34523445345334453454342034E1
:1051E00020342D34203452346534733465347434AF
:1051F000203453347734693474346334683462341B
:105200006F346134723464342E340D340A34003413
:1052100020342034203420342034203420342034EE
:1052200020342034553473346134673465343A346F
:105230002034533445345434203448344C342034EE
:105240003C3470346F34723474343A3431342D3425
:10525000253464343E3420343C346534783474343A
:105260003A34313430342D343934393420346F34D5
:10527000723420344F34463446343E340D340A34CC
:10528000003450346F347234743420342534643430
:105290003A342034483475346E34673420347534ED
:1052A0007034203464347534723469346E34673445
:1052B0002034743461346C346B342E3420345034E4
:1052C0006F347234743420342534643420346934B7
:1052D000733420346E346F34773420344234553490
:1052E000533459342E340D340A3400345334413499
:1052F000563445345F3454344F345F344534453488
:10530000503452344F344D3420343A3420345334F2
:1053100061347634653420346334753472347234D5
:1053200065346E34743420347334653474347434B6
:1053300069346E3467347334203474346F342034F9
:1053400045344534503452344F344D342E340D34BA
:105350000A34003453344234433454344C3420340B
:10536000203420343A3420344D3461346E34753472
:1053700061346C346C34793420344F344E342F34EF
:105380004F34463446342F34463455344C344C3440
:105390005F34523445345334453454342034533418
:1053A0007734693474346334683462346F3461340C
:1053B000723464342E340D340A34003450346F3473
:1053C000723474342034253464343A342034433411
:1053D00061346C346C34653472342034613462343A
:1053E0006F3472347434653464342E342034503461
:1053F0006F3472347434203425346434203473347C
:1054000074346F34703470346534643420347234DE
:1054100069346E34673469346E3467342E340D3435
:105420000A34003450346F347234743420342534E8
:1054300064343A3420344F34663466342D3448347E
:105440006F346F346B3420342D343E342034483480
:105450004F3454344C3449344E344534203474344D
:105460006F34203445347834743420342534643433
:1054700020342D343E34203452344F345534543497
:1054800049344E3447340D340A3400342034203447
:10549000203420342034203420342034203420346C
:1054A000553473346134673465343A3420345334BA
:1054B00045345434203445345834543420343C3446
:1054C00070346F34723474343A3431342D342534BA
:1054D00064343E3420343C346534783474343A34A3
:1054E000313430342D34393439343E340D340A34C7
:1054F000003420342034203420342034203420342C
:1055000020342034203455347334613467346534A6
:1055100020343A34203453344234433454344C34F9
:10552000203443344F344E342F34523445344C34C9
:1055300020343C3470346F347234743431343E343B
:1055400020343C3470346F347234743432343E342A
:105550000D340A34003450346F34723474342034CF
:10556000253464343A34203450347234653466342B
:105570006934783420346434693461346C3465348B
:10558000643420342D343E3420344534783474343B
:10559000653472346E3461346C34203449345034A0
:1055A0002034433461346C346C3420344D346F34E3
:1055B000643465340D340A3400345334453454347F
:1055C000203445345834543420343A34203453345D
:1055D00065347434203465347834743465346E340E
:1055E000733469346F346E3428346E3475346D34EA
:1055F0006234653472342934203466346F34723442
:1056000020346534613463346834203470346F344A
:10561000723474342E340D340A340034203420347F
:1056200020342034203420342034203420342034DA
:10563000553473346134673465343A342034533428
:1056400045345434203441344134203420343C3403
:1056500070346F34723474343A3431342D34253428
:1056600064343E3420343C344F344E342F344F3481
:10567000463446343E340D340A34003450346F34EA
:10568000723474342034253464343A342034493448
:105690006E34763461346C346934643420346E345E
:1056A00075346D3462346534723420346F3472343E
:1056B000203449345034203455346E3469347434D1
:1056C00020342534643420342D343E3420344234A4
:1056D0005534533459340D340A34003450346F3453
:1056E000723474342034253464343A3420345234DF
:1056F0006F347534743469346E34673420347434E0
:105700006F34203449345034203455346E34693485
:1057100074342034283450346F3472347434203468
:105720002534643429342E3420344E3475346D34A9
:105730006234653472343A342034003420342034F6
:1057400020342034203420342034203420342034B9
:10575000553473346134673465343A342034533407
:10576000453454342034543459345034453420347E
:105770003C3470346F34723474343E3420343C34EE
:1057800053344C34493443342F34493450343E3448
:105790000D340A34003450346F347234743420348D
:1057A000253464342034283449345034203455347A
:1057B0006E346934743429343A34203453346534C3
:1057C0006E34643469346E3467342034643469343C
:1057D00067346934743420345B34253464345D3484
:1057E00020342E342E342E340D340A340034533405
:1057F0007534633463346534733473343A34203429
:1058000050346F347234743420342534643420348A
:1058100073347434613474346534203473346534CF
:105820007434203474346F34203441345534543457
:105830004F34203441344E34533457344534523489
:105840000D340A34003455347334613467346534AC
:105850003A34203453344534543420345434593495
:105860005034453420343C3470346F3472347434E2
:105870003A3431342D34253464343E3420343C34CD
:1058800053344C344934433420346F34723420342C
:10589000493450343E340D340A34003450346F34BB
:1058A000723474342034253464343A34203443342C
:1058B00061346C346C3465346434203450346F3467
:1058C0007234743420342534643420342D343E341E
:1058D00020344134553454344F34203441344E3420
:1058E0005334573445345234653464340D340A34F7
:1058F0000034553473346134673465343A342034B9
:1059000053344234433454344C34203452344534C8
:105910004C3420343C346C3469346E346534313466
:105920003E3420343C346C3469346E346534323463
:105930003E342034283431342D3425346434293431
:105940000D340A34003455347334613467346534AB
:105950003A34203453344234433454344C342034B5
:1059600043344F344E3420343C346C3469346E3418
:10597000653431343E3420343C346C3469346E3414
:10598000653432343E342034283431342D342534D7
:10599000643429340D340A340034533445345434D7
:1059A000203441344134203420343A3420345334C8
:1059B00065347434203470346F3472347434203469
:1059C00074346F3420344134553454344F342034DB
:1059D00041344E34533457344534523420346D34CA
:1059E0006F34643465342E340D340A340034443456
:1059F0004F345F34463455344C344C345F34523475
:105A00004534533445345434203420343A3420342B
:105A10005234653473346534743420345034423431
:105A2000583443346F3472346534203470347234F3
:105A30006F346734723461346D342E340D340A346B
:105A400000344534783465346334753474346534E3
:105A500064343A34203453347734693474346334DE
:105A6000683443346F346E34743472346F346C344D
:105A70002834663461346C34733465342C34203407
:105A8000253464342C3420342534643429340D34E2
:105A90000A34003450344234583443346F3472344E
:105AA00065343A3420344C346F34613464346934AE
:105AB0006E34673420347334653474347434693428
:105AC0006E34673473342034663472346F346D341A
:105AD000203445344534503452344F344D342E3410
:105AE0000D340A340034533475346334633465340C
:105AF000733473343A34203450346F347234743421
:105B0000203425346434203468346F3474346C3475
:105B100069346E346534203473346534743420341D
:105B200074346F342034453478347434203425345C
:105B300064340D340A3400344534783465346334C5
:105B400075347434653464343A34203453347734DF
:105B5000693474346334683443346F346E34743469
:105B600072346F346C342834743472347534653460
:105B70002C342034253464342C34203425346434DB
:105B800029340D340A3400345334753463346334A7
:105B90006534733473343A3420344534783474348F
:105BA000653472346E3461346C3420345034723461
:105BB000653466346934783420347334653474342D
:105BC000203474346F34203427342534643427343B
:105BD0000D340A34003450346F3472347434203449
:105BE000253464343A34203441346E347334773499
:105BF0006534723465346434203450346F34723414
:105C0000743420342534643420342D343E3420342C
