:0400000080315228D1
:1000060008007E14803100308600003087000B1F08
:100016000D280E2850284E01191E122813281E28B6
:100026000F1E162817281E28410163088A00620839
:100036000A0080315028991E212822282D288F1E3B
:10004600252826282D28410161088A0060080A0013
:1000560080315028991C3028312839288F1C3428A3
:1000660035283928AE31D22680315028191C3C2833
:100076003D2845280F1C402841284528AE31D62664
:10008600803150289A1C482849285028901C4C2812
:100096004D285028AF315B2780317E100900803112
:1000A6005428F8308400AE30850041011200EA0081
:1000B6001200EB001200EC001200ED001200EE0040
:1000C6001200EF004201903100208031E8009031AB
:1000D60001208031E900903102208031EA00903120
:1000E60003208031EB00003084002F308500F03093
:1000F600FE000030FF00AF314F278031FD01400187
:10010600ED01EE01EF01C630840000308500243099
:10011600FE000030FF00AF314F27803120308400D1
:10012600013085004830FE000030FF00AF314F2718
:100136008031A0308400013085004030FE00003060
:10014600FF00AF314F278031203084000230850018
:100156004030FE000030FF00AF314F278031A03025
:100166008400023085004030FE000030FF00AF31D1
:100176004F2780317E1040019331EF2B40016C08F0
:100186008600023087000108031DCA28CB28CC2828
:100196003D2F2530E100B130E200AF31A727803195
:1001A60040016C08A0003C30A100B130A20098319B
:1001B600F8208031400120082104031DE328E428AB
:1001C600322A2130E100A930E200AF31A727803181
:1001D6004101B601232A3608A000A10120084001EA
:1001E600A000410121084001A1000E30A20000300C
:1001F600A30098313D20803180304101A2002F308C
:10020600A300400120084101220786004001210881
:100216004101233D870001089C31AE248031400115
:1002260027084101AB00400126084101AA006E30B3
:100236004001E100A930E20041013608013E4001DB
:10024600E300003003180130E40041013608A00045
:100256000230A035890B2C292008483E8600013043
:1002660087000108A100A20121084001E500410123
:1002760022084001E60041012B084001E800410147
:100286002A084001E700AF31A7278031410136082F
:10029600A000A10120084001A00041012108400161
:1002A600A1000E30A2000030A30098313D2080311D
:1002B6008D304101A2002F30A300400120084101EA
:1002C60022078600400121084101233D8700010ADB
:1002D60003196E296F29AA293608A000A101200852
:1002E6004001A000410121084001A1000E30A200FA
:1002F6000030A30098313D2080318D304101A200AD
:100306002F30A3004001200841012207860040014A
:1003160021084101233D87000108013EA400003069
:1003260003180130A5002408AA002508AB000030F8
:100336004001E100B030E20041012B084001E40039
:1003460041012A084001E300AF31A727803141016E
:100356003608A000A10120084001A00041012108A3
:100366004001A1000E30A2000030A30098313D20CC
:10037600803181304101A2002F30A30040012008C6
:10038600410122078600400121084101233D8700E3
:100396000108031DCF29D029D5291D30A800B13069
:1003A600A900D9291030A800B130A9007630400143
:1003B600E100B030E200410129084001E4004101BA
:1003C60028084001E300AF31A727803141013608F4
:1003D600A0000230A035890BED2920084A3E860090
:1003E60001308700010A0319F929FA29182A24304D
:1003F6004001E100B030E20041013608A0000230C1
:10040600A035890B032A20084A3E86000130870062
:100416000108A100A20121084001E30041012208D0
:100426004001E400AF31A727803125304001E100CB
:10043600B130E200AF31A727803101304101B60764
:100446006A083602031C282A292AEE283B30400176
:10045600E100A930E200AF31A72780313D2F6C08BB
:10046600A0008B30A100B030A2000830A3000030FD
:10047600A4009A3198228031400120082104031DEE
:10048600452A462AD12A6C08083E86000230870093
:100496000108CF3E4101AE006A082E020318542A15
:1004A600552AB52A40016C08093E860002308700AD
:1004B60020300106031D602A612AB52A6C080A3E0F
:1004C60086000230870030300102031C6B2A6C2A3A
:1004D600B52A6C080A3E8600023087003A300102CF
:1004E6000318762A772AB52A6C080B3E8600023056
:1004F60087000A30A0006C080A3E8400023085009E
:100506000008AF31EC2780310107F03E4101AC0015
:100516002E08A0000230A035890B8E2A2008483EFE
:100526008600013087002C088100D5304001E100AB
:10053600A430E20041012E08013E4001E3000030F4
:1005460003180130E40041012C08A000A101200895
:100556004001E500410121084001E600AF31A7272F
:1005660080313D2F55304001E100A930E200AF3126
:10057600A727803150304001E100A230E20041015E
:100586006A08A000A10120084001E30041012108FA
:100596004001E400AF31A72780313D2F6C08A00051
:1005A6009D30A100B030A2000730A3000030A400A7
:1005B6009A3198228031400120082104031DE42A43
:1005C600E52ACD2B6C08073E86000230870001081D
:1005D600CF3E4101B500AF0140016C08093EA000C5
:1005E6005730A100B130A2000230A3000030A400B1
:1005F6009A3198228031400120082104031D042BE2
:10060600052B092B02304101AF00212B6C08093E56
:10061600A0004A30A100B130A2000330A300003090
:10062600A4009A3198228031400120082104031D3C
:100636001D2B1E2B212B01304101AF0041016A0801
:1006460035020318272B282BB12B2F0803192C2B27
:100656002D2BB12B2F03031D312B322B652B350888
:10066600A000A10120084001A0004101210840018D
:10067600A1000E30A2000030A30098313D20803149
:1006860080304101A2002F30A30040012008410123
:1006960022078600400121084101233D8700810190
:1006A600B8304001E100A530E20041013508013EC5
:1006B6004001E300003003180130E400AF31A72702
:1006C60080313D2F02302F06031D6A2B6B2B9F2B8B
:1006D6003508A000A10120084001A0004101210821
:1006E6004001A1000E30A2000030A30098313D2049
:1006F600803180304101A2002F30A3004001200844
:10070600410122078600400121084101233D87005F
:10071600093081000C304001E100A330E2004101C4
:100726003508013E4001E300003003180130E400C3
:10073600AF31A72780313D2F93304001E100A8302B
:10074600E20041013508013E4001E3000030031894
:100756000130E400AF31A72780313D2F55304001ED
:10076600E100A930E200AF31A72780319330400184
:10077600E100A530E20041016A08A000A1012008BD
:100786004001E300410121084001E400AF31A72701
:1007960080313D2F6C08A0004430A100B030A2008B
:1007A6009831F8208031400120082104031DDC2BFC
:1007B600DD2BF22B8630E100A930E200AF31A7270E
:1007C600803129304101A1009630A0007F30890B8D
:1007D600EA2BA00BEA2BA10BEA2B01003D2F6C089C
:1007E600A0000930A100B130A2000630A3000030FD
:1007F600A4009A3198228031400120082104031D6B
:10080600052C062C912D6C08063EA0002D30A1006B
:10081600B130A2000430A3000030A4009A3198221F
:100826008031400120082104031D1A2C1B2CB32CF7
:100836006C080A3E8600023087000108D03E41015E
:10084600B00040016C080C3E8600023087000108AB
:10085600D03E4101B10040016C080B3E86000230DB
:10086600870020300106031D392C3A2C982C1E30A7
:10087600E100A830E20041013008A000A1012008F3
:100886004001E300410121084001E4004101310833
:10089600A200A30122084001E5004101230840010E
:1008A600E60041013108A400A50124084001E70043
:1008B600410125084001E80041013008A600A701D2
:1008C60026084001E900410127084001EA00AF314E
:1008D600A7278031410130084001A80041013108B5
:1008E6004001A900013087313E2780318630400122
:1008F600E100A430E20041013008A000A101200877
:100906004001E300410121084001E40041013108B2
:10091600A200A30122084001E5004101230840018D
:10092600E600AF31A72780313D2FE930E100A8303E
:10093600E200AF31A72780318D304001E100A330BE
:10094600E20041016A08A000A10120084001E3007D
:10095600410121084001E400AF31A72780313D2F36
:100966006C08063EA0002830A100B130A200043079
:10097600A3000030A4009A3198228031400120085B
:100986002104031DC72CC82C602D6C080A3E860066
:10099600023087000108D03E4101B20040016C08D8
:1009A6000C3E8600023087000108D03E4101B300AC
:1009B60040016C080B3E860002308700203001069D
:1009C600031DE62CE72C452D0030E100A830E2009F
:1009D60041013208A000A10120084001E3004101C5
:1009E60021084001E40041013308A200A3012208C6
:1009F6004001E500410123084001E60041013308BA
:100A0600A400A50124084001E70041012508400192
:100A1600E80041013208A600A70126084001E900C6
:100A2600410127084001EA00AF31A7278031410183
:100A360032084001A800410133084001A9000030F6
:100A460087313E2780310B304001E100A430E200BF
:100A560041013208A000A10120084001E300410144
:100A660021084001E40041013308A200A301220845
:100A76004001E500410123084001E600AF31A72708
:100A860080313D2FE930E100A830E200AF31A727E1
:100A9600803163304001E100A330E20041016A0881
:100AA600A000A10120084001E30041012108400106
:100AB600E400AF31A72780313D2F6C08063EA00029
:100AC6004730A100B030A2009831F82080314001B3
:100AD60020082104031D702D712D812D0230A400E4
:100AE600B130A500A73177278031D9304001E10028
:100AF600A630E200AF31A72780313D2F9330E100C9
:100B0600A630E200AF31A7278031FC304001E1007A
:100B1600A630E200AF31A72780313D2F6C08A00038
:100B2600A530A100B030A2000730A3000030A40019
:100B36009A3198228031400120082104031DA42DFA
:100B4600A52D5D2E6C08073E860002308700010841
:100B5600CF3E4101B4006A0834020318B32DB42D08
:100B6600492E40016C08083E86000230870020307E
:100B76000106031DBF2DC02D492E6C08093EA0009D
:100B86004A30A100B130A2000330A3000030A40017
:100B96009A3198228031400120082104031DD42D6A
:100BA600D52DF52D41013408A0000230A035890B62
:100BB600D92D20084A3E860001308700FF3081008B
:100BC6004B304001E100A630E20041013408013E0D
:100BD6004001E300003003180130E400AF31A727DD
:100BE60080313D2F6C08093E860002308700303088
:100BF6000102031CFF2D002E3D2F6C08093E8600C6
:100C0600023087003A30010203180A2E0B2E3D2FC0
:100C16006C080A3E8600023087000A30A0006C0885
:100C2600093E8400023085000008AF31EC27803190
:100C36000107F03E4101AD003408A0000230A035A6
:100C4600890B222E20084A3E8600013087002D0897
:100C560081005D304001E100A430E200410134082A
:100C6600013E4001E300003003180130E400410179
:100C76002D08A000A10120084001E500410121083E
:100C86004001E600AF31A72780313D2F12304001E9
:100C9600E100A130E20041016A08A000A10120089C
:100CA6004001E300410121084001E400AF31A727DC
:100CB60080313D2F6C08A0003530A100B030A20075
:100CC6009831F8208031400120082104031D6C2E44
:100CD6006D2E792E9D317B2580316E304001E100ED
:100CE600A530E200AF31A72780313D2F6C08A00068
:100CF6003730A100B130A2009831F8208031400190
:100D060020082104031D882E892E322F1330E1007E
:100D1600B030E200AF31A727803127304001E10033
:100D2600A630E200AF31A7278031AB304001E100A9
:100D3600A230E200AF31A727803146304001E10002
:100D4600A230E20041016A08A000A101200840018A
:100D5600E300410121084001E400AF31A7278031BB
:100D6600B7304001E100A330E200AF31A727803160
:100D7600DC304001E100A230E20041016A08A00037
:100D8600A10120084001E300410121084001E400DF
:100D9600AF31A72780316F304001E100A630E20075
:100DA600AF31A727803108304001E100A130E200D1
:100DB60041016A08A000A10120084001E3004101A9
:100DC60021084001E400AF31A7278031AA30400155
:100DD600E100A130E200AF31A72780317930400130
:100DE600E100A230E200AF31A72780315130400147
:100DF600E100A030E200AF31A72780311230400178
:100E0600E100A030E200AF31A7278031CC304001AD
:100E1600E100A030E200AF31A72780312530400144
:100E2600E100B130E200AF31A727803176304001D2
:100E3600E100A130E200AF31A7278031E130400167
:100E4600E100A330E200AF31A727803144304001F2
:100E5600E100A930E200AF31A72780313D2F9D3058
:100E6600E100A930E2006C08E3000230E400AF3193
:100E7600A727803108004001AC002C03031D442F36
:100E8600452F482F4330AD004A2F5230AD000D306C
:100E9600B200B3010A30A0000030A1002808AA0061
:100EA600AB012A08A2002B08A3009B313B23873104
:100EB60040012008303EAE000A30A0000030A100FC
:100EC6002808AA00AB012A08A2002B08A3009A3121
:100ED600E922873140012008303EAF000A30A000E9
:100EE6000030A1002908AA00AB012A08A2002B089D
:100EF600A3009B313B23873140012008303EB000E0
:100F06000A30A0000030A1002908AA00AB012A0877
:100F1600A2002B08A3009A31E9228731400120085C
:100F2600303EB1002D30A4000030A500A731772750
:100F360087310B304001AA006230890BA02FAA0B23
:100F4600A02F00000A304001A0000030A1002908AF
:100F5600AA00AB012A08A2002B08A3009B313B2361
:100F6600873140012008303EAE000A30A000003034
:100F7600A1002908AA00AB012A08A2002B08A30099
:100F86009A31E922873140012008303EAF000A300D
:100F9600A0000030A1002808AA00AB012A08A20080
:100FA6002B08A3009B313B23873140012008303EAC
:100FB600B0000A30A0000030A1002808AA00AB014A
:100FC6002A08A2002B08A3009A31E92287314001A2
:100FD6002008303EB1002D30A4000030A500A73116
:100FE600772787310B304001AA006230890BF92F31
:0A0FF600AA0BF92F00000800080004
:101002004301901290164101C601003008004001D0
:10101200A801AE31C4268831003A031D11281228D6
:10102200402801304101C600400121084101C800A9
:10103200400120084101C7000130D10040012208CF
:101042004101C900CA01400124084101CC0040010C
:1010520023084101CB00400125084101CD00CE010A
:10106200400127084101D000400126084101CF007C
:10107200D201AE31EC26883101304001A800400196
:101082002808080040014B0886008701403FCE0037
:10109200413FCF004E0884004F0885001200253AD8
:1010A200031D542855287A294B08860087010130F0
:1010B200810741310318810A4101D401D501003071
:1010C200E400FF304201A000FF30A1004001D8013E
:1010D2008F284101641440014B08860087010130CA
:1010E200810741310318810A8F284101E4146C28D9
:1010F2000130D8008F284B0886008701403FCE0080
:10110200413FCF004E0884004F08850000082D3A69
:1011120003196A281D3A03197628792858080319F1
:10112200932894287C284101641C982899289B289C
:10113200FD30E40540014B08A6004C08A7009B3196
:1011420097238831400127084101D5004001260834
:101152004101D400D51FAE28AF28B5286414D409A4
:10116200D509D40A0319D50A40014B088600870124
:10117200403FD600413FD7005608840057088500FB
:101182001200643A0319C628C728D12856088400D9
:10119200570885001200693A031DD028D128F72884
:1011A2004C0886004D088700010884008501023042
:1011B2008107003FD200013FD3005608013ECE0016
:1011C2000030573DCF004B08860087014E08C03FD4
:1011D2004F08C13F4A08BD004908BC005308BF0080
:1011E2005208BE009131822188319429D8014B08DE
:1011F20086008701403FCE00413FCF004E08840069
:101202004F0885001200733A031D08290929142981
:101212004B08860087010130810741310318810A9A
:101222000130D80056294B0886008701403FCE0086
:10123200413FCF004E0884004F08850012006C3AEF
:10124200031D2429252956294B0886008701403F82
:10125200CE00413FCF0001304E0784004F080318F3
:10126200013E850012006C3A031D3829392956299E
:101272004B0886008701403FCE00413FCF0002303D
:101282004E0784004F080318013E85001200733A8E
:10129200031D4C294D2956294B088600870103302E
:1012A200810741310318810A1129580803195A2963
:1012B2005B2970294A08AD004908AC004C08860039
:1012C2004D08870001088400850102308107003F34
:1012D200AE00013FAF0090313620883194294001A1
:1012E2004B08860087010130810741310318810ACA
:1012F20094294B0886008701403FCE00413FCF0032
:101302004E0884004F0885000008D000D101500823
:10131200A3005108A4004A08A6004908A5009C3170
:1013220050248831702908004101AF002F08A00025
:10133200A10120084001A000410121084001A100B3
:101342000E30A2000030A30098313D208931803058
:101352004101A2002F30A3004001200841012207D1
:10136200A400400121084101233DA5002408B0004A
:101372002508B1002F089D31E62589314101A000E1
:101382003008013EA1000030313DA2002108860054
:101392002208870020088100300886003108870073
:1013A20041310108031DD629D729C52F30088600EF
:1013B2003108870042310103031DE029E129EE29AA
:1013C200E830A0000330A100300886003108870011
:1013D2004B312008C03F2108C13F30088600310848
:1013E20087004B3116000104031DF829F929C52F86
:1013F200300886003108870001080319012A022AF1
:10140200C52F300886003108870005300106031910
:101412000B2A0C2AC52F30088600310887004D316F
:10142200010A0319152A162A6F2B30088600310883
:1014320087004D310108AD00300886003108870071
:1014420004300106031D262A272A8D2A4001D301D2
:1014520041012D089F316427893141012D08A000E7
:10146200A10120084001A000410121084001A10082
:101472000E30A2000030A30098313D208931803027
:101482004101A2002F30A3004001200841012207A0
:101492008600400121084101233D870081012D087A
:1014A200A000A10120084001A00041012108400143
:1014B200A1000E30A2000030A30098313D208931F6
:1014C2008D304101A2002F30A300400120084101CC
:1014D20022078600400121084101233D8700FF3099
:1014E2008100DE304001E100A130E20041012F081D
:1014F200013E4001E300003003180130E4004101E5
:101502002D08013E4001E500003003180130E600DD
:10151200AF31A72789316F2B300886003108870049
:1015220006300106031D962A972A6F2B2F08013ECB
:101532004001A80041012D08013E4001A9000030F0
:1015420087313E27893141012D08A000A1012008E1
:101552004001A000410121084001A1000E30A2007B
:101562000030A30098313D20893180304101A20032
:101572002F30A300400120084101220786004001CC
:1015820021084101233D8700093001060319CA2AB7
:10159200CB2A332B03304001D30041012D08923175
:1015A200F622893141012D08A000A1012008400145
:1015B200A000410121084001A1000E30A20000302C
:1015C200A30098313D20893180304101A2002F30A3
:1015D200A3004001200841012207860040012108A2
:1015E2004101233D8700073081002D08A000A101A1
:1015F20020084001A000410121084001A1000E3055
:10160200A2000030A30098313D2089318D30410184
:10161200A2002F30A30040012008410122078600CA
:10162200400121084101233D8700FF308100413004
:101632004001E100A130E20041012F08013E4001DA
:10164200E300003003180130E40041012D08013E9F
:101652004001E500003003180130E600AF31A72752
:1016620089316F2B2D08A000A10120084001A000A4
:10167200410121084001A1000E30A2000030A30068
:1016820098313D2089318D304101A2002F30A300D5
:101692004001200841012207860040012108410142
:1016A200233D8700FF30810090304001E100A030EF
:1016B200E20041012F08013E4001E300003003181F
:1016C2000130E40041012D08013E4001E5000030F7
:1016D20003180130E600AF31A72789314001D30159
:1016E20041012F089231F62289314001D301410193
:1016F2002F089F3164278931410130088600310863
:101702008700093001060319872B882BC52F300863
:101712008600310887008101300886003108870081
:101722004D31FF30810005304001E100A930E20077
:1017320041012F08013E4001E3000030031801304F
:10174200E400AF31A7278931C52F30088600310860
:10175200870042310108031DAF2BB02BF22F300856
:1017620086003108870041310103031DB92BBA2BD2
:10177200F22F2F08A0000230A035890BBD2B2008C4
:101782004A3E860001308700010A0319C92BCA2B81
:101792004D2C300886003108870045310A3040015F
:1017A200A0000030A10041012F08A0000230A035A6
:1017B200890BD82B20084A3E84000130850000089E
:1017C200A100A20121084001A2004101220840011A
:1017D200A3009B313B238931400120088100410154
:1017E200300886003108870046310A304001A000E7
:1017F2000030A10041012F08A0000230A035890B62
:10180200FF2B20084A3E8400013085000008A10019
:10181200A20121084001A200410122084001A300C7
:101822009A31E922893140012008810041013008C2
:10183200860031088700443102308100300886007A
:10184200310887000330810012304001E100A230EC
:10185200E20041012F08013E4001E300003003187D
:101862000130E40041012F08A0000230A035890BAD
:10187200372C20084A3E8600013087000108A1006B
:10188200A20121084001E500410122084001E600D1
:10189200AF31A7278931F22F4001D301D30A410189
:1018A2002F089231F6228931410130088600310831
:1018B20087004331810130088600310887004431B6
:1018C20081013008860031088700013081003F30F5
:1018D2004001E100A730E20041012F08013E400132
:1018E200E300003003180130E400AF31A72789314B
:1018F200F22F300886003108870042310103031DB0
:10190200832C842CF22F3008860031088700413165
:101912000108031D8D2C8E2CF22F4001D3014101B1
:101922002F089231F62289314101300886003108B0
:1019320087004331013081005830A0000230A100FD
:10194200300886003108870047312008C03F21084F
:10195200C13F300886003108870002308100FC3028
:101962004001E100A430E20041012F08013E4001A4
:10197200E300003003180130E400AF31A7278931BA
:10198200F22F300886003108870042310103031D1F
:10199200CB2CCC2CEA2C3008860031088700413150
:1019A2000108031DD52CD62CEA2C300886003108FC
:1019B20087004331013081075830A0000230A10076
:1019C200300886003108870047312008C03F2108CF
:1019D200C13F300886003108870041310103031DF1
:1019E200F32CF42CF22F300886003108870047319F
:1019F20016000104031DFE2CFF2CF22F3008860076
:101A020031088700433101080319082D092DF22FEF
:101A1200300886003108870043310A300106031975
:101A2200132D142D212D30088600310887004331F3
:101A32000108A000A1012008A6002108A700232D6B
:101A4200A601A7012608A9003008860031088700F0
:101A5200443101083007A0000030313DA1002008C8
:101A62008600210887004531290881003008860058
:101A7200310887004431013081073008860031087F
:101A820087004331810176304001E100A830E20055
:101A920041012F08013E4001E300003003180130EC
:101AA200E40041012908A000A10120084001E5004D
:101AB200410121084001E600AF31A72789314101E8
:101AC2003008860031088700443102300102031CCD
:101AD2006B2D6C2DF22F3008860031088700033001
:101AE200810048304001E100A530E20041012F08A9
:101AF200013E4001E300003003180130E400AF3141
:101B0200A7278931F22F3008860031088700463135
:101B12000A304001A00041013008840031088500EC
:101B220005310008AF31EC27893101074101AA00D4
:101B3200FF30AE00AB01B32D2B08A0000230A03560
:101B4200890BA02D2008483E86000130870001083D
:101B52002A06031DAD2DAE2DB12D2B08AE00B92DD9
:101B62000130AB076A082B02031CB82DB92D9D2D3D
:101B72002E0A0319BD2DBE2DC42D2E082F06031DBE
:101B8200C32DC42DF02D03304001D30041012F0895
:101B92009231F622893141013008860031088700EE
:101BA20007308100DD304001E100A530E200410153
:101BB2002F08013E4001E300003003180130E40029
:101BC20041012A08A000A10120084001E5004101CD
:101BD20021084001E600AF31A7278931F22F2E08F4
:101BE200A000A10120084001A000410121084001FC
:101BF200A1000E30A2000030A30098313D208931AF
:101C020080304101A2002F30A30040012008410191
:101C120022078600400121084101233D8700010877
:101C2200031D142E152E932E3008860031088700CE
:101C32004D312E0881002E08A000A101200840018C
:101C4200A000410121084001A1000E30A200003095
:101C5200A30098313D2089318D304101A2002F30FF
:101C6200A30040012008410122078600400121080B
:101C72004101233D87002F08810002304001D3003B
:101C820041012F089231F622893141013008860044
:101C920031088700043081004001D301D30A410199
:101CA2002E089F316427893141012E08A000A1012D
:101CB20020084001A000410121084001A1000E308E
:101CC200A2000030A30098313D20893180304101CB
:101CD200A2002F30A3004001200841012207860004
:101CE200400121084101233D870005308100223057
:101CF2004001E100A530E20041012F08013E400110
:101D0200E300003003180130E40041012E08013ED7
:101D12004001E500003003180130E600AF31A7278B
:101D22008931F22F2E08A000A10120084001A00055
:101D3200410121084001A1000E30A2000030A300A1
:101D420098313D20893180304101A2002F30A3001B
:101D5200400120084101220786004001210841017B
:101D6200233D870009300106031DB82EB92E1F2F0F
:101D720030088600310887004D312E0881002E0878
:101D8200A000A10120084001A0004101210840015A
:101D9200A1000E30A2000030A30098313D2089310D
:101DA2008D304101A2002F30A300400120084101E3
:101DB20022078600400121084101233D87002F08A8
:101DC20081004001D30141012F089231F62289316D
:101DD2004101300886003108870006308100300852
:101DE2008600310887004D310108A8002F08013E06
:101DF2004001A80041012808013E4001A90001302C
:101E020087313E27893138304001E100A330E200BA
:101E120041012F08013E4001E30000300318013068
:101E2200E40041012E08013E4001E50000300318A4
:101E32000130E600AF31A7278931F22F033040018C
:101E4200D30041012F089231F62289314101300835
:101E520086003108870007308100B6304001E1007A
:101E6200A630E20041012F08013E4001E3000030AC
:101E720003180130E40041012E08013E4001E50053
:101E8200003003180130E600AF31A7278931F22F65
:101E9200300886003108870042310108031D522FA5
:101EA200532FF22F30088600310887004131010399
:101EB200031D5C2F5D2FF22F4001D30141012F083A
:101EC2009F3164278931410130088600310887003B
:101ED2004D310108AC004001D30141012C0892317F
:101EE200F622893141012F08013E4001A80041013B
:101EF2002C08013E4001A900013087313E2789317B
:101F020041013008860031088700063081002C0824
:101F1200A000A10120084001A000410121084001C8
:101F2200A1000E30A2000030A30098313D2089317B
:101F320080304101A2002F30A3004001200841015E
:101F420022078600400121084101233D8700063017
:101F52008100AE304001E100A430E20041012F08CF
:101F6200013E4001E300003003180130E40041016A
:101F72002C08013E4001E500003003180130E60064
:101F8200AF31A7278931F22F41013008860031088D
:101F920087000108A000A1012108003A0319D22FED
:101FA200F22F2008003A0319A62B013A03197A2CC2
:101FB200033A0319C22C013A0319842D073A031973
:101FC200F22F013A0319492F033A0319F22F013A6A
:101FD2000319F22F0F3A0319F22F013A0319F22FC4
:101FE200F22F410130088600310887004231300863
:101FF200840031088500013100088100080088341E
:102002008834883488340430F00043010F1C0A28D5
:102012000B28332841014F085004031911281228B4
:1020220022284D0886004E08870043010C088100D3
:1020320001304101CD070030CE3D0130CF020030EA
:10204200D03B4F0850040319272828282C28430185
:10205200911211163428430191109116111607306E
:10206200F000342891157008080040012F08B700CD
:102072002E08B60036083704031D4028412845289B
:10208200ED30B600B030B700B801B9014C280130CC
:10209200B8070030B93D3608380784003708393DA3
:1020A20085001200031D5628572848283908B30016
:1020B2003808B200410155084001B50041015408F9
:1020C2004001B4004101641867286828A1287A28D1
:1020D20020304001A3000030A4002D08A6002C08E7
:1020E200A5009C315024903101304001B8070030E6
:1020F200B93D40013908803AB0003508803A3002D3
:10210200031D852834083802031C88288928692879
:10211200A12836088400370885000008B000B10104
:102122003008A3003108A4002D08A6002C08A50041
:102132009C315024903101304001B6070030B73D48
:10214200FF304001B207FF30B33D320A031DAD2814
:10215200330A031DAD28AE288A284101641CB22827
:10216200B328D428C52820304001A3000030A400A1
:102172002D08A6002C08A5009C3150249031013076
:102182004001B8070030B93D40013908803AB0003B
:102192003508803A3002031DD02834083802031C67
:1021A200D328D428B428080050011E1701309A0001
:1021B20070309B001E145A301C06031DE128E228D1
:1021C200412948304001AA00AC01AD0150011E175F
:1021D20040012C08023E50019A0070309B001E14F0
:1021E20040012A082C0786000130870050011C0894
:1021F200810001304001AC070030AD3D00302D02BE
:10220200203003192C02031C07290829E728AB01F7
:1022120038292B08A6000230A635890B0D2926087D
:10222200493E86000130870009300106031D1A2944
:102232001B2936292B08A600A7012608A00027087B
:10224200A1000E30A2000030A30098313D20903151
:1022520080304001A8002F30A900200828078600FE
:102262002108293D8700093081000130AB07410177
:102272006A0840012B02031C3F2940290A298129AF
:102282004001AE012E08A6000230A635890B462970
:102292002608483E8600013087002E080B3E81004A
:1022A2002E08A6000230A635890B54292608493E7D
:1022B20086000130870081012E08A6000230A63573
:1022C200890B602926084A3E860001308700FF30CC
:1022D20081002E08A6000230A635890B6D2926083A
:1022E2004B3E86000130870081010130AE07083085
:1022F2002E02031C7D297E2943299D317B259031A5
:10230200080001304001C300BF1B88298A2901301F
:102312008B290030C600410155084001C50041012A
:1023220054084001C4004608031998299929AD2987
:10233200FF30C407FF30C53D4608031DA129A2296D
:10234200A7292B30C1000030C200AB292D30C100BB
:102352000030C2004108C6001F30C7000030C8006C
:102362004201C701EA29FF304001C707FF30C83DDB
:102372004708283E8600013087000A30A00000305E
:10238200A1003F08A3003E08A2009A31E922913140
:1023920040012108A7002008A600AF31DA279131B9
:1023A20040012608303E8100C301FF30C407FF30E0
:1023B200C53D0A30A0000030A1003F08A3003E083E
:1023C200A2009B313B23913140012108BF0020082C
:1023D200BE0040014808803AC00080304002031D20
:1023E200F42901304702031CF729F829162A400173
:1023F2003E083F04031DFE29FF29B4294308031D9B
:10240200032A042AB4294508803AC00080304002D9
:10241200031D0D2A01304402031C102A112A162A18
:102422004101E418152A162AB42940014608031965
:102432001B2A1C2A272AFF30C707FF30C83D47083E
:10244200283E860001308700460881003D08B5001D
:102452003C08B4004708283EB6004508B8004408C6
:10246200B7009A31082291310800FC01EE2A7C085B
:10247200F600F7017608F0007708F1000E30F2005E
:102482000030F300A731E12792318730F8002F3076
:10249200F9007008780786007108793D87001600F8
:1024A20001040319552A562A742A7C08F600F701FA
:1024B2007608F0007708F1000E30F2000030F300E9
:1024C200A731E12792318730F8002F30F9007008E8
:1024D200780786007108793D870001308102413119
:1024E2000030813B7F317C08F600F7017608F0006E
:1024F2007708F1000E30F2000030F300A731E12737
:1025020092318930F8002F30F90070087807860080
:102512007108793D8700160001040319912A922A55
:10252200B02A7C08F600F7017608F0007708F1007F
:102532000E30F2000030F300A731E12792318930EA
:10254200F8002F30F9007008780786007108793D8D
:1025520087000130810241310030813B7F317C08AC
:10256200F600F7017608F0007708F1000E30F2006D
:102572000030F300A731E12792318B30F8002F3081
:10258200F9007008780786007108793D8700160007
:1025920001040319CD2ACE2AEC2A7C08F600F701A1
:1025A2007608F0007708F1000E30F2000030F300F8
:1025B200A731E12792318B30F8002F30F9007008F3
:1025C200780786007108793D870001308102413128
:1025D2000030813B7F310130FC0741016A087C02F7
:1025E200031CF42AF52A382A08004001DC000130D5
:1025F200DF000130E0000D2B0130DF000130E00090
:10260200232BDF01E001232B0130DF00E001232B2C
:10261200DF010130E000232B5308D400D501550817
:10262200003A0319152B232B5408003A0319FD2AEB
:10263200013A0319022B033A0319052B013A031934
:10264200092B232B04305C020318282B292B7C2B0B
:102652006E2B5F0803192E2B2F2B312B1614322BC6
:10266200161060080319362B372B392B9614EE2BD4
:102672009610EE2B5F0803193F2B402B422B1616A8
:10268200432B161260080319472B482B4A2B961628
:10269200EE2B9612EE2B5F080319502B512B532B66
:1026A2001617542B161360080319582B592B5B2B42
:1026B2009617EE2B9613EE2B5F080319612B622BF4
:1026C200642B1816652B181260080319692B6A2BE4
:1026D2006C2B9816EE2B9812EE2B5C08003A03191D
:1026E2002A2B013A03193B2B033A03194C2B013ACB
:1026F20003195D2BEE2B053041016B02031C822B6B
:10270200832BEE2B40015C08FC3EDB0002305B02B7
:1027120003188C2B8E2B01308F2B0030DE005B1CBC
:10272200932B942B992B0430D6000030D7009B2B8F
:10273200D601D7015608DD005E08EE3E860087010D
:102742000330D4005D0AA62BD435890BA52B54087F
:10275200FF3A81055F080319AF2BB02BBD2B5E0832
:10276200EE3E860087010130D4005D0AB92BD435D4
:10277200890BB82B5408810460080319C12BC22BA2
:10278200CF2B5E08EE3E860087010230D4005D0A40
:10279200CB2BD435890BCA2B540881045E0803194C
:1027A200D32BD42BD92B1530D8000030D900DD2BF8
:1027B2001430D8000030D9005808DA002030CF0099
:1027C2000030D0005A08D1005E08EE3E8600870134
:1027D2000108D200AF31B72792310800153041010C
:1027E200B8004B30B700BE30890BF52BB70BF52B79
:1027F200B80BF52B0000A7319027933136304001FA
:10280200A0001230A100AF31302793318B170B1784
:1028120023304001E100B130E200AF31A72793310C
:10282200F0304001E100A930E200AF31A727933137
:102832009E31CC269331AE31C12693314101EA005B
:10284200DC304001E100A930E20041016A08B70032
:10285200B80137084001E300410138084001E400B3
:10286200AF31A727933102304001E100A630E200E8
:10287200AF31A72793314E304001E100B130E20081
:10288200AF31A727933102304001A400B130A50037
:10289200A7317727933129304101B8009630B7002C
:1028A2007F30890B522CB70B522CB80B522C513063
:1028B2004001E100B130E200AF31A727933102308D
:1028C2004001A400B130A500A73177279331293008
:1028D2004101B8009630B7007F30890B6E2CB70BE0
:1028E2006E2CB80B6E2C54304001E100B130E20086
:1028F200AF31A727933102304001A400B130A500C7
:10290200A7317727933129304101B8009630B700BB
:102912007F30890B8A2CB70B8A2CB80B8A2C6E302D
:102922004001E100B030E200AF31A7279331CD3052
:102932004001E100A830E200AF31A7279331013016
:102942004101C200E92C0130C300E12C64004101C5
:1029520042084001A800410143084001A90001309A
:1029620087313E2793315F304001E100B030E20011
:1029720041014208B700B80137084001E3004101B4
:1029820038084001E40041014308B900BA0139089E
:102992004001E50041013A084001E600AF31A727B6
:1029A200933103304101B8000830B7007730890B0A
:1029B200D82CB70BD82CB80BD82C01304101C30747
:1029C20043086A020318E62CE72CA72C0130C20741
:1029D20042086A020318EE2CEF2CA42C0130C2002C
:1029E200372D0130C3002F2D640041014208400100
:1029F200A800410143084001A900003087313E2769
:102A0200933152304001E100B030E200410142080E
:102A1200B700B80137084001E3004101380840011E
:102A2200E40041014308B900BA0139084001E50058
:102A320041013A084001E600AF31A7279331033044
:102A42004101B8000830B7007730890B262DB70B4B
:102A5200262DB80B262D01304101C30743086A0217
:102A62000318342D352DF52C0130C20742086A02B5
:102A720003183C2D3D2DF22C3C304001E100A830E2
:102A8200E200AF31A7279331B0304001E100A83016
:102A9200E200AF31A72793314101C5018B2E4508D2
:102AA200B700B80137084001A000410138084001D1
:102AB200A1000E30A2000030A30098313D209331D6
:102AC20080304101B9002F30BA0040012008410195
:102AD200390786004001210841013A3D8700810102
:102AE20045089D31E62593314101B7004508B800FC
:102AF200B90138084001A000410139084001A10094
:102B02000E30A2000030A30098313D209331813075
:102B12004101BA002F30BB004001200841013A07B1
:102B2200BC004001210841013B3DBD003C0886003C
:102B32003D088700370881004508B700B80137080B
:102B42004001A000410138084001A1000E30A2005E
:102B52000030A30098313D20933182304101B90009
:102B62002F30BA0040012008410139078600400198
:102B7200210841013A3D87004508BB00BC013B08E2
:102B82004001A00041013C084001A1000E30A2001A
:102B92000030A30098313D20933181304101BD00C6
:102BA2002F30BE004001200841013D078400400152
:102BB200210841013E3D8500000881004508B7001B
:102BC200B80137084001A000410138084001A100C6
:102BD2000E30A2000030A30098313D2093318330A3
:102BE2004101B9002F30BA004001200841013907E4
:102BF20086004001210841013A3D870081014508D4
:102C0200B700B80137084001A0004101380840016F
:102C1200A1000E30A2000030A30098313D20933174
:102C220084304101B9002F30BA004001200841012F
:102C3200390786004001210841013A3D87008101A0
:102C42004508B700B80137084001A0004101380823
:102C52004001A1000E30A2000030A30098313D20B7
:102C6200933187304101B9002F30BA00400120086A
:102C72004101390786004001210841013A3D8700A0
:102C82000030C03FC13F4508B700B80137084001D6
:102C9200A000410138084001A1000E30A20000301E
:102CA200A30098313D20933189304101B9002F3082
:102CB200BA0040012008410139078600400121087D
:102CC20041013A3D87000030C03FC13F4508B7008F
:102CD200B80137084001A000410138084001A100B5
:102CE2000E30A2000030A30098313D2093318D3088
:102CF2004101B9002F30BA004001200841013907D3
:102D020086004001210841013A3D8700FF308100E1
:102D12000130C5076A084502031C902E912E502DE2
:102D220005304101B8000F30B700F130890B972E02
:102D3200B70B972EB80B972E6B304001E100B030E5
:102D4200E200AF31A72793311E304001E100A730E6
:102D5200E200AF31A72793314101C1011D2F81301C
:102D62004001E100B030E20041014108013E400172
:102D7200E300003003180130E400AF31A72793319C
:102D820041014108B700B80137084001A0004101E4
:102D920038084001A1000E30A2000030A300983193
:102DA2003D20933181304101B9002F30BA004001FA
:102DB20020084101390786004001210841013A3DBE
:102DC20087000108031DE62EE72EF02EFB3040019E
:102DD200E100B030E200AF31A72793311A2F41084A
:102DE200B700B80137084001A0004101380840018E
:102DF200A1000E30A2000030A30098313D20933193
:102E020080304101B9002F30BA0040012008410151
:102E1200390786004001210841013A3D8700083008
:102E22008100F4304001E100B030E200AF31A72769
:102E3200933101304101C1076A084102031C222F6C
:102E4200232FB02E34304001E100A430E200AF3134
:102E5200A72793319031D52093314101C0015B2FD7
:102E6200B3304001E100A930E20041014008013ED7
:102E72004001E300003003180130E4004101400842
:102E8200B7000230B735890B432F3708483E86001A
:102E9200013087000108B800B90138084001E50097
:102EA200410139084001E600AF31A72793310130D3
:102EB2004101C0076A084002031C602F612F312FB5
:102EC20025304001E100B130E200AF31A727933154
:102ED20059304001E100A830E200AF31A727933119
:102EE20064004101BF017C2F3F0889319521933154
:102EF20001304101BF076A083F02031C812F822F64
:102F0200752FAF310C279331003A0319892F8A2F7D
:102F1200712F9831012093314101C4000D304406D4
:102F22000319942F952F9B2F0A304406031D9A2FC5
:102F32009B2FBF2F44089831CD209331410169085E
:102F4200A03E8600023087008101A0304001EC00E3
:102F52008031C120933125304001E100B130E200DF
:102F6200AF31A727933117304001E100B130E200C1
:102F7200AF31A72793314101E901712F083044068F
:102F82000319C42FC52FCB2F7F304406031DCA2F30
:102F9200CB2FDB2F69080319CF2FD02F712F0130D0
:102FA200E90246304001E100B130E200AF31A7272B
:102FB2009331712F3F3069020318E02FE12F712FF7
:102FC20044089831CD209331613041014402031C01
:102FD200EB2FEC2FF42F7B3044020318F12FF22F4A
:102FE200F42F2030C4026908A03E86000230870018
:0E2FF200440881000130E907712F8031522818
:1030020040016D08203E8600023087000108A100C1
:103012006D08013E3F39A0002008ED004E019912D3
:103022004101650803191628172819280130E502FD
:103032004E01991640012108080040015C08E00099
:103042005B08DF0030285A08CA005908C9005F30FF
:10305200CB005D08CC00CD0188314320983140017E
:103062005F088400600885001200031D39283A2891
:103072002428D901DA0108004001A401A501201C7D
:103082004328442848282208A4072308A53D0130E4
:10309200A235A30D890B49280130A136A00C890B5A
:1030A2004E2820082104031D5728582840282508A7
:1030B200A1002408A000080040012108A600200861
:1030C200A50071282608860087010108A4000130A6
:1030D200A607250886008701240881000130A5077C
:1030E2000130A2020030A33B220A031D7C28230ADE
:1030F200031D7C287D28632808004001B201B3012A
:1031020095283108AF00B0012F08A3003008A400B1
:103112002E08A6002D08A5009C31502498310130BC
:103122004001B2070030B33D2C083207860001305F
:1031320087000108B1003108031DA028A1288228B8
:10314200080041014B084C040319A828A928BC28EF
:103152000130CB020030CC3B490886004A08870088
:10316200010843018C0001304101C9070030CA3D0A
:103172000330F000CB2851080319C028C128C72802
:10318200D101430191140130F000CB28AF31052762
:103192009831F000700808004001A1004E01191A90
:1031A200D328D428D9284001210842019A00F528C1
:1031B200410166080319DE28DF28F5286808A03EC9
:1031C2008600013087004001210881004101680822
:1031D200013E3F394001A00020084101E8004E01B4
:1031E200191201304101E6024E0119160800FF28AA
:1031F2000130A0070130A1070030A23D40012108A3
:103202008400220885000008A300200886000230FE
:10321200870001082306031D0F29102919292008F8
:103222008600023087000108031D18291929F92890
:1032320020088600023087002108840022088500C9
:1032420000080102A000A101031CA1030800400123
:10325200A501AE31C4269931003A031D3129322924
:10326200562901304101C600400121084101C80030
:10327200400120084101C700D1014001220841015B
:10328200C900CA01400124084101CC0040012308C1
:103292004101CB00CD01CE01CF01D001D201AE312F
:1032A200EC26993101304001A500400125080800B3
:1032B2004E01991211304101E0001D30E1004E0132
:1032C2001912A9304101E2002730E30048304201DF
:1032D2009F0090309D0026309E0040309B000330BE
:1032E2009C0003304001A0000030A100AF317927DB
:1032F2009931CA304001A0002E30A100AF31882799
:1033020099314201A401A5014101E801E7014030E0
:10331200E600FD014001ED014101E5014E01991672
:1033220008004E010F1043010F1E982999299D296B
:10333200AF31C8279931B8298F1AA029A129AB2901
:10334200111FA429A529AB2905304101D300013061
:10335200D200B8298F1EAE29AF29B829111FB22970
:10336200B329B82905304101D3000230D20041010E
:103372005308F100F201F135F20D003071078400BB
:103382002030723D80388500013F8A00003F0A00EC
:1033920099314101D30008004001A1008B1317139A
:1033A200A6300032890BD22900324001A201A301CA
:1033B2004001211CDD29DE29E0291717E129171315
:1033C200A6300032890BE229003203104001A10C21
:1033D2000130A2070030A33D2308803AA0008030CC
:1033E2002002031DF62908302202031CF929FA29BA
:1033F200D92940011717A6300032890BFD29003266
:103402008B17A6300032890B032A003208004101D3
:10341200641C0C2A0D2A172A40013608AC00350814
:10342200AE003408AD0098317E209A314001B81FB9
:103432001B2A1C2A1E2AB701B801BA01BB01322A73
:1034420020304001A3000030A4003508A600340853
:10345200A5009C3150249A3101304001BA07003056
:10346200BB3D3B08803AB9003808803A3902031D57
:103472003C2A37083A02031C3F2A402A212A4101EA
:103482006418442A452A4F2A40013608AC00350800
:10349200AE003408AD0098317E209A310800400118
:1034A20096010430970003309800043091009B305D
:1034B2009200473093007E01B8010830C300CE016C
:1034C2000430B9009230C4004730CF00E501BA01A0
:1034D200C501D001FF30BB00FF30C600FF30D10074
:1034E200FF30BC00FF30C700FF30D2000830E800D8
:1034F20009307D01CB0010307E019A0010307D0131
:10350200C50014307E01A00011307D01C6001530C7
:103512007E01A100BD01BE01BF01C801C901CA01EE
:10352200D301D401D501E901EA01EB010800013020
:103532004001A3020030A43B230A031DA42A240A4B
:10354200031DA42AA52AB22AA001A101E82A01305A
:10355200A0070130A1070030A23D0130A3020030D4
:10356200A43B200886000230870001080319BA2A0A
:10357200BB2ADA2A210884002208850012000319D6
:10358200C32AC42ADA2A230824040319C92ACA2A04
:10359200DA2A21088400220885000008A5002008F4
:1035A200860002308700010825060319D92ADA2A83
:1035B200A82A2008860002308700210884002208F9
:1035C200850000080102A000A101031CA10308005C
:1035D2004001A501A31FEE2AEF2AF62AA209A30998
:1035E200A20A0319A30A0130A500A11FF92AFA2A87
:1035F200FF2AA009A109A00A0319A10A200821048F
:103602000319042B052B2C2B0130A4000F2B0130A6
:10361200A035A10D890B092B0130A407A11F122B84
:10362200132B082B21082302031D192B2008220229
:10363200031C1C2B1D2B212B2008A2022108A33BBB
:103642000130A136A00C890B222B0130A402031DEC
:103652002B2B2C2B132B25080319302B312B362B1C
:10366200A209A309A20A0319A30A2308A100220896
:10367200A00008004001A501A11F402B412B482BAF
:10368200A009A109A00A0319A10A0130A500A31FDC
:103692004B2B4C2B532BA209A309A20A0319A30AF1
:1036A2000130A506A601A7012008210403195A2BFF
:1036B2005B2B882B0130A400652B0130A035A10DB6
:1036C200890B5F2B0130A407A11F682B692B5E2B8E
:1036D2000130A635A70D890B6A2B21082302031D91
:1036E200742B20082202031C772B782B7D2B2008B9
:1036F200A2022108A33B26140130A136A00C890B9B
:103702007E2B0130A402031D872B882B692B2508F1
:1037120003198C2B8D2B922BA609A709A60A031934
:10372200A70A2708A1002608A00008004001AC0152
:10373200AD01260886008701403FA800413FA9004D
:10374200280884002908850012002A3A031DAA2BA2
:10375200AB2BDA2B26088600870101308107413125
:103762000318810A27088600870101088400850161
:1037720002308107003FAC00013FAD00EE2B2D0867
:10378200A1002C08A0000A30A2000030A30098314A
:103792003D209B3140012B082007AC000030213D29
:1037A200AD002608860087010130810741310318E8
:1037B200810A260886008701403FA800413FA900F0
:1037C20028088400290885000008D03EAB000A3092
:1037D2002B02031CED2BEE2BC02B2D08A7002C086F
:1037E200A600080040012B08AF002A08A100290802
:1037F200A0002F30A2000130A3000030A4002C084A
:10380200A5002E08A7002D08A600883108209B31AC
:10381200003A031D0D2C0E2C0F2C4F2CE8304001CA
:10382200B0000330B100252C1A30890B162C00325F
:1038320001304001B0020030B13B30083104031DB9
:10384200232C242C252C4F2CAE31C4269B31003A3C
:10385200031D2C2C2D2C152CE8304001B000033018
:10386200B100432C1A30890B342C00320130400154
:10387200B0020030B13B30083104031D412C422C10
:10388200432C4F2C43011119472C482C332C8530E3
:10389200890B492C0000AF3115279B3108004001EC
:1038A200250826040319562C572C5D2C25082604BE
:1038B200031D5C2C5D2C622C2308AF3197279C31B1
:1038C200AD2C250886002608870049311600010420
:1038D20003196C2C6D2C8D2C250886002608870078
:1038E2004931403FA700413FA8002508860026082D
:1038F20087004231403FA900413FAA002A08803A8E
:10390200AB002808803A2B02031D892C27082902C4
:1039120003188C2C8D2CAD2C40012508860026081E
:10392200870042312508840026088500003FA70051
:10393200013FA800403F27078400413F283D850002
:1039420023088000250886002608870042310130BE
:10395200810741310318810A08004001AA00E82CBE
:103962003230A600B130A700102D9430A600B0303E
:10397200A700102DBD30A600B030A700102DCD300D
:10398200A600B030A700102DC530A600B030A700A9
:10399200102DAD30A600B030A700102DB530A60016
:1039A200B030A700102D4130A600B130A700102D75
:1039B200D530A600B030A700102DE530A600B030FB
:1039C200A700102DDD30A600B030A700102D2A0868
:1039D200A800A9012908003A0319F02CE32C2808B1
:1039E200003A0319B12C013A0319B62C033A031910
:1039F200BB2C013A0319C02C073A0319C52C013A12
:103A02000319CA2C033A0319CF2C013A0319D42CF7
:103A12000F3A0319D92C013A0319DE2CE32C0800C2
:103A22007D35003E860087012F30873D7D35003091
:103A3200873D0030C03FC13F42019D1C212D222DF8
:103A42003E2D7D08F000F101F035F10D0030F2005D
:103A52002F30F3007008720786007108733D8700EB
:103A620001154101560857040319382D392D3E2DF1
:103A720057088A0056080A009D3142011D1D422D39
:103A8200432D5F2D7D08F000F101F035F10D00307E
:103A9200F2002F30F3007008720786007108733D40
:103AA200870081144101580859040319592D5A2DD0
:103AB2005F2D59088A0058080A009D3142011908F1
:103AC200F4007D08013E3F39F500750840016D069E
:103AD200031D6C2D6D2D6E2D7A2D7D08203E8600E6
:103AE20002308700740881007508FD000130410131
:103AF200E507080048304001A000A101A2015001E1
:103B02009E18842D852D802D1E1740012108023E0E
:103B120050019A0070309B009D014001200821074E
:103B2200860001308700010850019C00400103100B
:103B32008B1F9C2D9D2D9E2D03148B1350011E1542
:103B420055309F00AA309F009E149E18A92DAA2DC1
:103B5200A62D1E114001031CAF2DB02DB12D8B17C8
:103B62000130A1070030A23D0030220220300319AB
:103B72002102031CBD2DBE2D802D50019E18C22D89
:103B8200C32DBE2D1E1701309A0070309B009D017F
:103B92005A309C00400103108B1FD02DD12DD22D05
:103BA20003148B1350011E1555309F00AA309F003D
:103BB2009E149E18DD2DDE2DDA2D1E114001031CF0
:103BC200E32DE42DE52D8B1708004001B7000430EA
:103BD20037020318ED2DEE2D0D2EFF2D0C0C890C46
:103BE2000139542E0D0E0139542E0E0C890C013957
:103BF200542E0E0E890C890C0139542E3708003AC6
:103C02000319EF2D013A0319F32D033A0319F62D87
:103C1200013A0319FA2D532E053041016B02031CA0
:103C2200132E142E532E40013708FC3EB6000430EA
:103C32003706031D1D2E1E2E2D2E2030A90000300A
:103C4200AA001230AB00EC30AC000230AD00003004
:103C5200AE009B31F3239D3102304001360203183E
:103C6200332E352E0130362E0030B400361C3A2E5B
:103C72003B2E402E8030B2000030B300442E08307C
:103C8200B2000030B3003208B5003408EC3E8600C2
:103C9200870101083505031D4F2E512E0130522E8A
:103CA2000030542E00300800003040012C021F303A
:103CB20003192B02031C5E2E5F2E612E0030CB2EC9
:103CC2002908AD002E30A0002A08A1002C08A3006C
:103CD2002B08A20098315D209E3140012808A100E6
:103CE2002708A0002D30A2002B08013EA3000030BF
:103CF2002C3DA400993128219E31003A031D822EC9
:103D0200832E842E5F2EE8304001CD000330CE009A
:103D12009A2E1A30890B8B2E003201304001CD02CF
:103D22000030CE3B4D084E04031D982E992E9A2E3C
:103D32005F2EAE31C4269E31003A031DA12EA22E63
:103D42008A2EE8304001CD000330CE00B82E1A3062
:103D5200890BA92E003201304001CD020030CE3B4A
:103D62004D084E04031DB62EB72EB82E5F2E43010A
:103D72001119BC2EBD2EA82E8530890BBE2E000037
:103D8200AF3115279E31003A0319C82ECA2E0130D1
:103D9200CB2E003008004001E701D30167089231C1
:103DA200F6229E314001D30167089F3164279E317C
:103DB20001304001E70704306702031CE12EE22EC6
:103DC200CE2E15304001E2004B30E100BE30890BAF
:103DD200E82EE10BE82EE20BE82E0000AF316A2755
:103DE2009E3105304001E2000F30E100F130890BD5
:103DF200F82EE10BF82EE20BF82E400117172030B7
:103E0200CF000030D0000530D100D201AF31B7274A
:103E12009E31013A031D0E2F0F2F602F20304001DB
:103E2200CF000030D0000A30D100D201AF31B72725
:103E32009E31FF304101EE00FF30EF0020304001A3
:103E4200A7000030A8001430A900EE30AA0002300A
:103E5200AB000030AC009E3155269E3142016B080A
:103E62004001E40042016A084001E3002030A7005B
:103E72000030A8000C30A9006330AA000230AB0069
:103E82000030AC009E3155269E3142016908400146
:103E9200E600420168084001E5002030A70000303A
:103EA200A800A9016530AA000230AB000030AC00C6
:103EB2009E3155269E3108304101EB00632F0430BC
:103EC2004101EB0008004001DC0004305C020318F1
:103ED2006B2F6C2F9F2F912F53080319712F722F65
:103EE200742F9611FF2F9615FF2F530803197A2F5F
:103EF2007B2F7D2F9712FF2F9716FF2F5308031941
:103F0200832F842F862F9811FF2F9815FF2F530888
:103F120003198C2F8D2F8F2F9813FF2F9817FF2F98
:103F22005C08003A03196D2F013A0319762F033A00
:103F320003197F2F013A0319882FFF2F0530410102
:103F42006B02031CA52FA62FFF2F40015C08FC3E2D
:103F5200DA0002305A020318AF2FB12F0130B22F0C
:103F62000030DD005A1CB62FB72FBC2F0430D5000D
:103F72000030D600BE2FD501D6015508DB005D0802
:103F8200EE3E860087010430D4005B0AC92FD43587
:103F9200890BC82F5408FF3A81055308031DD22FFD
:103FA200D32FE02F5D08EE3E860087010430D40057
:103FB2005B0ADC2FD435890BDB2F540881045D08A2
:103FC2000319E42FE52FEA2F1530D7000030D8006F
:103FD200EE2F1430D7000030D8005708D900203017
:103FE200CF000030D0005908D1005D08EE3E8600B7
:103FF20087010108D200AF31B7279F310800CE34C4
:104002002E34FE342E34DA342E34A23418340434EE
:104012001034E0342E34E6342E3405342F34013497
:104022000834203420342034203420342034203406
:104032002034203420344534783461346D34703483
:104042006C3465343A342034533442344334543477
:104052004C342034523445344C34203431342034FE
:1040620032342034203420342D3420345234653418
:104072006C34653461347334653420343134203423
:1040820061346E346434203432342034533477341F
:1040920069347434633468342E340D340A34003491
:1040A200203420342034203420342034203420346E
:1040B200203420344534783461346D3470346C34B7
:1040C20065343A34203453344234433454344C3417
:1040D200203443344F344E3420343134203432349B
:1040E2002034203420342D34203443346F346E3461
:1040F2006E346534633474342034313420346134A2
:104102006E34643420343234203453347734693496
:104112007434633468342E340D340A340034503429
:104122006F34723474342034253464343A34203495
:10413200483475346E346734203475347034203426
:1041420064347534723469346E34673420347434B0
:1041520061346C346B342E34203450346F34723406
:104162007434203425346434203469347334203474
:104172006E346F34773420344134553454344F34F0
:10418200203441344E3453345734453452342E346F
:104192000D340A34003420342034203420342034C6
:1041A20020342034203420342034453478346134AF
:1041B2006D3470346C3465343A34203453344234C0
:1041C200433454344C342034463455344C344C3417
:1041D2005F3452344534533445345434203420341B
:1041E2002D342034523465347334653474342034BD
:1041F20053347734693474346334683462346F34DA
:104202006134723464342E340D340A340034203470
:1042120020342034203420342034203420342034FC
:104222002034553473346134673465343A3420347D
:10423200533445345434203448344C3420343C34E0
:1042420070346F34723474343A3431342D3425344A
:1042520064343E3420343C346534783474343A3433
:10426200313430342D343934393420346F347234AB
:1042720020344F34463446343E340D340A3400344C
:1042820050346F34723474342034253464343A3404
:104292002034483475346E346734203475347034C5
:1042A200203464347534723469346E3467342034A3
:1042B200743461346C346B342E34203450346F34A3
:1042C20072347434203425346434203469347334C1
:1042D20020346E346F3477342034423455345334BE
:1042E20059342E340D340A340034533441345634A4
:1042F20045345F3454344F345F344534453450349C
:1043020052344F344D3420343A34203453346134EF
:1043120076346534203463347534723472346534DF
:104322006E347434203473346534743474346934C0
:104332006E3467347334203474346F34203445342B
:104342004534503452344F344D342E340D340A3403
:10435200003453344234433454344C342034203403
:1043620020343A3420344D3461346E34753461343F
:104372006C346C34793420344F344E342F344F340F
:10438200463446342F34463455344C344C345F343E
:10439200523445345334453454342034533477340E
:1043A200693474346334683462346F34613472341F
:1043B20064342E340D340A34003450346F34723481
:1043C20074342034253464343A3420344334613430
:1043D2006C346C34653472342034613462346F343A
:1043E20072347434653464342E34203450346F346F
:1043F2007234743420342534643420347334743485
:104402006F347034703465346434203472346934F7
:104412006E34673469346E3467342E340D340A34A2
:10442200003450346F34723474342034253464349C
:104432003A3420344F34663466342D3448346F3481
:104442006F346B3420342D343E34203448344F34AE
:1044520054344C3449344E344534203474346F343B
:104462002034453478347434203425346434203490
:104472002D343E34203452344F345534543449347C
:104482004E3447340D340A3400342034203420347E
:104492002034203420342034203420342034553445
:1044A20073346134673465343A34203453344534D8
:1044B2005434203445345834543420343C34703429
:1044C2006F34723474343A3431342D3425346434D4
:1044D2003E3420343C346534783474343A343134E4
:1044E20030342D34393439343E340D340A34003406
:1044F200203420342034203420342034203420341A
:1045020020342034553473346134673465342034B4
:104512003A34203453344234433454344C34203407
:1045220043344F344E342F34523445344C342034D7
:104532003C3470346F347234743431343E34203449
:104542003C3470346F347234743432343E340D344B
:104552000A34003453344534543420344534583406
:10456200543420343A34203453346534743420348F
:1045720065347834743465346E34733469346F342A
:104582006E3428346E3475346D346234653472346A
:104592002934203466346F34723420346534613403
:1045A20063346834203470346F34723474342E348B
:1045B2000D340A34003420342034203420342034A2
:1045C2002034203420342034203455347334613480
:1045D200673465343A342034533445345434203407
:1045E20041344134203420343C3470346F347234DA
:1045F20074343A3431342D34253464343E34203426
:104602003C344F344E342F344F34463446343E34E7
:104612000D340A34003453347534633463346534EE
:10462200733473343A34203450346F347234743403
:104632002034253464342034733474346134743453
:1046420065342034733465347434203474346F34F4
:1046520020344134553454344F34203441344E34B0
:1046620053345734453452340D340A340034503400
:104672006F34723474342034253464343A34203440
:10468200433461346C346C346534643420345034D3
:104692006F347234743420342534643420342D342D
:1046A2003E3420344134553454344F342034413470
:1046B2004E345334573445345234653464340D34F3
:1046C2000A340034553473346134673465343A340F
:1046D200203453344234433454344C34203452342E
:1046E20045344C3420343C346C3469346E34653493
:1046F20031343E3420343C346C3469346E346534A5
:1047020032343E342034283431342D342534643468
:1047120029340D340A340034553473346134673427
:1047220065343A34203453344234433454344C34B0
:10473200203443344F344E3420343C346C346934A6
:104742006E34653431343E3420343C346C34693454
:104752006E34653432343E342034283431342D34CE
:104762002534643429340D340A3400345334453446
:104772005434203441344134203420343A34203407
:10478200533465347434203470346F347234743476
:10479200203474346F3420344134553454344F341B
:1047A200203441344E345334573445345234203457
:1047B2006D346F34643465342E340D340A3400346D
:1047C20044344F345F34463455344C344C345F34C3
:1047D20052344534533445345434203420343A343A
:1047E2002034523465347334653474342034503494
:1047F2004234583443346F34723465342034703464
:1048020072346F346734723461346D342E340D3443
:104812000A3400344534783465346334753474347E
:10482200653464343A34203453347734693474341C
:104832006334683443346F346E34743472346F3496
:104842006C342834663461346C34733465342C34FB
:104852002034253464342C3420342534643429340F
:104862000D340A34003450344234583443346F34F3
:10487200723465343A3420344C346F3461346434E5
:1048820069346E3467342034733465347434743468
:1048920069346E34673473342034663472346F345E
:1048A2006D34203445344534503452344F344D3411
:1048B2002E340D340A340034533475346334633483
:1048C2006534733473343A34203450346F34723470
:1048D2007434203425346434203468346F347434AE
:1048E2006C3469346E346534203473346534743412
:1048F200203474346F3420344534783474342034A2
:10490200253464340D340A34003445347834653443
:10491200633475347434653464343A342034533433
:104922007734693474346334683443346F346E34A6
:10493200743472346F346C34283474347234753491
:1049420065342C342034253464342C34203425341A
:10495200643429340D340A34003450346F347234E0
:1049620074342034253464343A34203441346E347F
:10497200733477346534723465346434203450349B
:104982006F347234743420342534643420342D343A
:104992003E342034543441344C344B3449344E3454
:1049A20047340D340A340034533475346334633479
:1049B2006534733473343A34203450346F3472347F
:1049C20074342034253464342034653478347434B7
:1049D20065346E34733469346F346E342034733416
:1049E20065347434203474346F34203425346434A0
:1049F2000D340A34003450346F3472347434203439
:104A0200253464343A3420344434693461346C34A7
:104A120069346E34673420347334743461347234DC
:104A220074346534643420342D343E3420344434B8
:104A3200493441344C3449344E3447340D340A3409
:104A4200003450346F347234743420342534643476
:104A52003A342034433461346C346C3469346E3407
:104A62006734203450346F34723474342034253433
:104A7200643420342D343E342034433441344C34B5
:104A82004C3449344E3447340D340A3400345034F3
:104A92006F34723474342034253464343A3420341C
:104AA2004E3475346D346234653472342034633478
:104AB2006F346D3470346C3465347434653420343E
:104AC2002D343E34203452344F3455345434493426
:104AD2004E3447340D340A3400345334753463345D
:104AE20063346534733473343A3420345334653464
:104AF2007434743469346E346734733420347334E8
:104B02006134763465346434203474346F34203440
:104B120045344534503452344F344D342E340D34F0
:104B22000A340034553473346134673465343A34AA
:104B32002034533445345434203441344134203405
:104B42003C3470346F34723474343A3431342D342A
:104B5200253464343E3420343C344F344E342F34C4
:104B62004F34463446343E340D340A340034533420
:104B72007534633463346534733473343A342034B3
:104B820050346F3472347434203425346434203415
:104B9200733474346134743465342034733465345A
:104BA2007434203474346F342034493444344C34F3
:104BB20045340D340A34003450346F347234743452
:104BC2002034253464343A34203449346E34763413
:104BD20061346C346934643420346E3475346D3429
:104BE20062346534723420342534643420342D34F4
:104BF2003E34203442345534533459340D340A345B
:104C0200003450344234583443346F34723465348F
:104C12003A34203449346E3469347434693461343A
:104C22006C3469347A3469346E34673420345334E2
:104C32007734693474346334683462346F34613481
:104C4200723464342E342E342E34003453345434BB
:104C52004134543420342034203420343A34203443
:104C620044346934733470346C34613479342034AC
:104C7200633475347234723465346E34743420346F
:104C82005334743461347434753473342E340D34C3
:104C92000A34003453347534633463346534733402
:104CA20073343A34203450346F34723474342034D0
:104CB20025346434203468346F3474346C34693489
:104CC2006E3465342034643469347334613462344C
:104CD2006C34653464340D340A340034533445344E
:104CE2005434203448344C34203420343A34203480
:104CF200533465347434203470346F347234743401
:104D0200203448344F3454344C3449344E344534CE
:104D120020346E3475346D346234653472340D343B
:104D22000A3400344534723472346F3472343A3493
:104D3200203455346E346B346E346F3477346E34C1
:104D4200203453344234433454344C342034733496
:104D52007534623463346F346D346D3461346E345F
:104D620064342E340D340A34003450346F347234C7
:104D720074342034253464343A34203450346F345B
:104D820072347434203425346434203469347334F6
:104D92002034623475347334793420342D343E3403
:104DA200203442345534533459340D340A340034E7
:104DB200453478346534633475347434653464341A
:104DC2003A34203453347734693474346334683475
:104DD20062346F346134723464342034463475344E
:104DE2006C346C3420345234653473346534743426
:104DF2000D340A34003441347634613469346C340D
:104E0200613462346C3465343A34203443344F3480
:104E12004E342C342034523445344C342C34203427
:104E2200463455344C344C345F3452344534533464
:104E3200453454340D340A34003450344234583436
:104E420043346F34723465343A3420344334683432
:104E5200653463346B3469346E34673420344C34D3
:104E620049344E34453420346D346F3464347534EF
:104E72006C34653473340D340A34003450346F3476
:104E8200723474342034253464343A3420344F3448
:104E9200663466342D3448346F346F346B342034C6
:104EA2002D343E3420344434493441344C34543467
:104EB2004F344E3445340D340A340034AE31C726F3
:104EC200A73108000130450190008F019101F930AE
:104ED2008D008C01FF304101DC000730DD004E0106
:104EE20090109A14D03045018E000800852F2408B6
:104EF20084002508850000089931CD21A7310130B1
:104F02004001A4070030A53D400124088400250883
:104F120085001200031D8E2F8F2F782F0800AF31CE
:104F22003927A7319A315022A731AF316A27A731E9
:104F3200A7316327A73199315921A731A7315F27BB
:104F4200A731AE31F226A731AF314327A73108008E
:104F52004030410166020318AF2FB02FC22F6708FD
:104F6200A03E860001308700010842019A004101FB
:104F72006708013E3F39F0007008E7000130E6079C
:104F8200C42F4E011912080006304101D30003302C
:104F9200D2004E018F1041015308F100F201F135A8
:104FA200F20D0030710784002030723D8038850098
:104FB200013F8A00003F0A00A7314101D3000800E7
:104FC200F401F501701CE62FE72FEB2F7208F407AE
:104FD2007308F53D0130F235F30D890BEC2F0130EA
:104FE200F136F00C890BF12F70087104031DFA2FB2
:104FF200FB2FE32F7508F1007408F000080052340B
:1050020065346C346534613473346534203453341C
:10501200773469347434633468343A342034253450
:1050220064342D34253464342034253464342D34EE
:10503200253464340D340A34003443346F346E340E
:105042006E346534633474342034533477346934C1
:105052007434633468343A342034253464342D345F
:10506200253464342034253464342D3425346434B6
:105072000D340A34003450344234583443346F34DB
:10508200723465343A3420345334773469347434A6
:1050920063346834203474346534733474342034A3
:1050A20064346F346E3465342E340D340A34003473
:1050B20050344234583443346F34723465343A34A1
:1050C20020343D343D343D3420345034423458345D
:1050D20020345234653461346434793420343D34BC
:1050E2003D343D340D340A34003450346F3472345C
:1050F20074342034253464343A34203444346934EA
:10510200673469347434203425346434203472347E
:1051120065346334653469347634653464340D340B
:105122000A3400344534723472346F3472343A348F
:10513200203450346F34723474342034253464345F
:1051420020347334743461347434653420346534F7
:10515200723472346F3472340D340A340034503481
:105162004234583443346F34723465343A34203420
:105172005234653473346534743469346E3467344C
:10518200203441346C346C342034533474346134FC
:1051920074346534733400345034423458344334F4
:1051A2006F34723465343A34203454346534733491
:1051B200743469346E346734203453347734693448
:1051C20074346334683473342E340D340A34003446
:1051D2004534723472346F3472343A342034493480
:1051E2006E34763461346C3469346434203461341E
:1051F2007234673475346D3465346E347434733498
:105202002E340D340A34003450346F347234743412
:105212002034253464343A342034483475346E34BE
:1052220067342034753470342E3420342D343E34B7
:105232002034493444344C3445340D340A34003477
:105242002D342D342D3420344C3469346E3465348D
:1052520020345334743461347434753473342034E8
:105262002D342D342D342D342D342D342D340D3454
:105272000A3400342D342D342D342D342D342D3474
:105282002D342D342D342D342D342D342D342D3414
:105292002D342D342D342D342D342D342D342D3404
:1052A2002D340D340A3400344534723472346F3480
:1052B20072343A34203449346E34763461346C3486
:1052C20069346434203466346F3472346D3461343A
:1052D20074342E340D340A34003450346F34723442
:1052E200743420342534643420345B3445347834C7
:1052F20074343A34253464345D3420343A342034FE
:1053020025342D34383473340034523465347334D4
:1053120065347434743469346E34673420345034F0
:105322004234583443346F34723465342E342E345C
:105332002E340D340A34003455346E346B346E34EA
:105342006F3477346E34203443346F346D346D34BB
:1053520061346E3464343A342034253473340D3479
:105362000A340034203450346F34723474342034AC
:1053720025343234643420343A3420344534783499
:1053820074342034253464340D340A3400346A34DD
:105392002F340034003428341934003400340834F3
:1053A20008340034003415342F34C4342E3400341D
:1053B20000340034003420344134633474346934AA
:1053C2007634653420344C3449344E3445345334C5
:1053D2003A342034253464340D340A3400345034E1
:1053E2004234583443346F34723465343A3420349E
:1053F2005334743461347234743469346E346734BF
:065402000D340A340034F1
:105D820041016B08080041014608080050019E11BC
:105D9200080042011D121D1608004101C60108300B
:105DA2000800A731C527AE31080099319221AE31E2
:105DB20008004101473543018C0003300800AF3130
:105DC2000527AE31F0007008080088310120AE319D
:105DD200F000700808004301111402304101D300A1
:105DE200080050018C018D0113129312080008342F
:105DF2000434FF34FF34FF34FF3403144101470DF0
:105E020043018C000430080043011115AF31C8274B
:105E1200AF310030080041016508031D112F132F17
:105E22000130142F00300800410152084001A00047
:105E32004101D20140012008080041016608031D0A
:105E4200232F252F0130262F003008004001210882
:105E52004101DF00400120084101DE00080040014D
:105E620021084101DD00400120084101DC00080059
:105E7200603051018D008F01910106309300203076
:105E8200920008004E010C100B1400304001A000DB
:105E92000030A100AF312727AF3108006400800134
:105EA20001310130FE020030FF3B7F087E04031DFA
:105EB200502F003441015C085D040319612F622FE9
:105EC200672F5D088A005C080A00AF314E0190100E
:105ED2000800803043018F00083090009101920148
:105EE2004F308D004E011914991443019016080089
:105EF20040012008210403197F2F802F872F2108BA
:105F02004101D900400120084101D80008004001A8
:105F12002008210403198E2F8F2F962F210841016B
:105F2200D700400120084101D60008004001A2002C
:105F3200AF311E27AF31003A0319A02FA12F992F9D
:105F4200400122089831CD20AF3108006330400172
:105F5200EB000030D900DA006208DC006108DB00E7
:105F62006B30DD0098311E20AF310800400150082F
:105F7200A8004F08A7005108A9005230AA0001301A
:105F8200AB000030AC009E315526AF310800410114
:105F9200C6010030C800FF30C700C901CA01CD01E7
:105FA200CE01D3014E010F108F1043019013101335
:105FB20008004001A71BDE2FDF2FE02FEB2F260961
:105FC200A8002709A900A80A0319A90A2808A600F7
:105FD2002908A70008004001A200A101221CF22FFB
:105FE200F32FF52F2008A1070310A00D0310A20C18
:105FF2002208031DFD2FFE2FEF2F21080800203459
:1060020028345434613472346734653474343A3425
:10601200203450346F347234743420342534643470
:10602200293400342D342D342D3443346F346D34FF
:106032006D3461346E34643473342D342D342D3424
:106042000D340A340034203420347C342034483473
:106052006F3474346C3469346E3465343A342534B4
:106062003034323464340034533441345634453499
:106072005F3454344F345F344534453450345234F1
:106082004F344D34003444344F345F344634553445
:106092004C344C345F3452344534533445345434E4
:1060A200003420344F34463446343A342534643490
:1060B2002D34253464340D340A34003420344F3402
:1060C2004E343A34253464342D34253464340D345A
:1060D2000A34003420342D34203464346F346E3466
:1060E20065342E340D340A34003420347C342034A8
:1060F20048346F346F346B343A342534733400349B
:10610200203450346F3472347434203425343234B1
:1061120064340034533445345434203445345834D0
:106122005434203400344434493441344C345434EB
:106132004F344E34453400345334453454342034CF
:1061420041344134203400345334453454342034FF
:1061520048344C3420340034523449344E344734B9
:1061620049344E3447340034543441344C344B3483
:1061720049344E34473400344434493441344C3485
:1061820049344E3447340034433441344C344C3473
:1061920049344E344734003452344F345534543435
:1061A20049344E344734003455344E344134563435
:1061B200413449344C34003455344E344B344E342B
:1061C2004F3457344E3400344134553454344F3400
:1061D20041344E345334003428346E3475346C34C4
:1061E2006C34293400342D3420344E3447340D3489
:1061F2000A3400342D3420344F344B340D340A34F5
:106202000034523446344634463446340D34003475
:1062120053344234433454344C34203400344F34F5
:106222004634463428344834293400345034423415
:1062320058343E34203400344F344E3428344C34F5
:10624200293400340D340A340D340A340034523403
:1062520045344C342034003443344F344E342034EB
:106262000034493444344C344534003448344534E1
:106272004C345034003453345434413454340034A4
:1062820042345534533459340034083420340834F9
:1062920000344F3446344634003431342E34003422
:1062A20032342E34003433342E3400344F344E34EE
:0262B2000034B6
:020000040001F9
:0A000E008C3FFC3FEE0EFF3FFF3F6A
:00000001FF
