:10000000803152287D0808007E148031003086003F
:10001000003087000B1F0D280E2850284E01191E96
:10002000122813281E280F1E162817281E284301E1
:100030002D088A002C080A0080315028991E21289A
:1000400022282D288F1E252826282D2843012B08FD
:100050008A002A080A0080315028991C302831284B
:1000600039288F1C342835283928AA318522803137
:100070005028191C3C283D2845280F1C40284128A1
:100080004528AA318922803150289A1C48284928BD
:100090005028901C4C284D285028AB311923803112
:1000A0007E10090080315428983100208031FD00F5
:1000B0004101AA3176228031EF0042018731FD27CC
:1000C0008031ED008731FE278031EE008731FF2738
:1000D0008031EF00CB308400AA308500430112004C
:1000E000D0001200D1001200D2001200D300120082
:1000F000D4001200D5001200D6001200D700C8307C
:1001000084002D3085002830FE000230FF00AB3126
:100110000D238031F701F801F901FA01FB01FC011F
:100120004101EB01EC01ED01EE015630840001309C
:1001300085001730FE000030FF00AB310D23803109
:10014000A0308400013085003030FE000030FF0018
:10015000AB310D23803120308400023085004030E7
:10016000FE000030FF00AB310D238031A030840051
:10017000023085004030FE000030FF00AB310D231F
:10018000803120308400033085004030FE00003094
:10019000FF00AB310D238031A03084000330850097
:1001A0004030FE000030FF00AB310D2380317E1067
:1001B00040018031DB2815304201BF004B30BE00CA
:1001C000BE30890BE128BE0BE128BF0BE1280000FF
:1001D000AC311624803106304001A0008030A100EF
:1001E000AB31D2238031400121084201C7004001D8
:1001F00020084201C60007304001A0008030A10065
:10020000AB31D2238031400121084201C9004001B5
:1002100020084201C800DA304001A0002430A100CB
:10022000AA31EE2280318B170B1715304001E10007
:10023000BE30E200AB316523803173304001E10014
:10024000BB30E2009530E300BC30E400AB31652305
:100250008031A5304001E100BB30E2004201470897
:100260004001E400420146084001E3004201490820
:100270004001E600420148084001E500AB3165233A
:100280008031EF304001E100B930E2000130E3009D
:10029000BD30E4007D30E500BD30E6001C30E700F5
:1002A0000C30E800AB3165238031BD304001E10006
:1002B000BB30E2000030E3008030E400AB31652366
:1002C000803139304001E100B930E2000030E30014
:1002D0007F30E400AB31652380313F304001E100E5
:1002E000BB30E2000030E3000130E400AB316523B5
:1002F0008031A53176258031803102208031420164
:10030000ED00D4304001E100BA30E20042016D0856
:10031000BE00BF013E084001E30042013F0840012A
:10032000E400AB316523803111304001E100B83089
:10033000E200AB3165238031F4304001A400BD30D0
:10034000A500AB31FD23803105304201BF000F30E5
:10035000BE00F130890BAA29BE0BAA29BF0BAA291E
:100360004201CC01D229F4304001A400BD30A500E7
:10037000AB31FD23803105304201BF000F30BE009C
:10038000F130890BC129BE0BC129BF0BC1295030E7
:100390004001E100BE30E200AB3165238031023024
:1003A0004201CC074C086D020318D729D829B3297C
:1003B00010304001E100BD30E200AB3165238031F7
:1003C00080304001E100BA30E200AB31652380317A
:1003D00001304201D200312A0130D300292A6400C1
:1003E000420152084001A800420153084001A900FF
:1003F000013090311420803157304001E100BD3090
:10040000E20042015208BE00BF013E084001E30085
:1004100042013F084001E40042015308C000C1010D
:1004200040084001E500420141084001E600AB31CF
:100430006523803103304201BF000830BE007730B1
:10044000890B202ABE0B202ABF0B202A0230420132
:10045000D30753086D0203182E2A2F2AEF290130E3
:10046000D20752086D020318362A372AEC291730B2
:100470004001E100BE30E200AB3165238031013044
:100480004201D200882A0130D300802A6400420150
:1004900052084001A800420153084001A900003061
:1004A00090311420803123304001E100BD30E20062
:1004B00042015208BE00BF013E084001E300420174
:1004C0003F084001E40042015308C000C101400858
:1004D0004001E500420141084001E600AB316523DF
:1004E000803103304201BF000830BE007730890BF5
:1004F000772ABE0B772ABF0B772A02304201D30737
:1005000053086D020318852A862A462A0130D2072D
:1005100052086D0203188D2A8E2A432A1730400193
:10052000E100BE30E200AB31652380310C30400188
:10053000E100BA30E200AB3165238031D1304001B7
:10054000E100B930E200AB31652380314201D401D2
:10055000662B5408BE00BF010530BE35BF0D890BA8
:10056000AD2AC830C0002D30C1003E0840078600CB
:100570003F08413D87008101540887318F27803132
:100580004201BE005408BF00C0010530BF35C00D98
:10059000890BC62AC930C1002D30C2003F0841076F
:1005A000C3004008423DC400430886004408870059
:1005B0003E0881005408BE00BF010530BE35BF0DA6
:1005C000890BDE2ACA30C0002D30C1003E0840072A
:1005D00086003F08413D87005408C200C301053032
:1005E000C235C30D890BF02AC930C4002D30C500B7
:1005F0004208440784004308453D85000008810007
:100600005408BE00BF010530BE35BF0D890B042B59
:10061000CB30C0002D30C1003E08400786003F08A7
:10062000413D870081015408BE00BF010530BE3541
:10063000BF0D890B172BCC30C0002D30C1003E08F8
:10064000400786003F08413D870081015408BE00F5
:10065000BF010530BE35BF0D890B2A2BDD30C00030
:100660002D30C1003E08400786003F08413D87000D
:100670000030C03FC13F5408BE00BF010530BE3549
:10068000BF0D890B3F2BDF30C0002D30C1003E086D
:10069000400786003F08413D87000030C03FC13F12
:1006A0005408BE00BF010530BE35BF0D890B542B69
:1006B000E330C0002D30C1003E08400786003F08EF
:1006C000413D8700FF3081000130D4076D0854029E
:1006D000031C6B2B6C2BA92A05304201BF000F3085
:1006E000BE00F130890B722BBE0B722BBF0B722B2D
:1006F0000D304001E100BD30E200AB3165238031B7
:1007000077304001E100B830E200AB316523803141
:100710004201CF01DC2B61304001E100BD30E2003D
:1007200042014F08013E4001E30000300318013050
:10073000E400AB316523803142014F08BE00BF01A8
:100740000530BE35BF0D890BA12BC930C0002D303F
:10075000C1003E08400786003F08413D8700010870
:10076000031DB32BB42BBD2BED304001E100BD3098
:10077000E200AB3165238031D92B4F08BE00BF01A9
:100780000530BE35BF0D890BC12BC830C0002D30E0
:10079000C1003E08400786003F08413D8700083001
:1007A0008100E6304001E100BD30E200AB3165235D
:1007B000803101304201CF076D084F02031CE12B4D
:1007C000E22B8B2B37304001E100B630E200AB3139
:1007D000652380319C317C2480314201D0016A2C18
:1007E0005008BE00BF013E084001A00042013F0882
:1007F0004001A1001530A2000030A300AC31FE245E
:100800008031CA304201C0002E30C10040012008B2
:10081000420140078600400121084201413D870016
:100820000103031D142C152C272CEC304001E10092
:10083000BB30E20042015008013E4001E3000030BD
:1008400003180130E400AB3165238031672C500878
:10085000BE00BF013E084001A00042013F08400128
:10086000A1001530A2000030A300AC31FE2480317D
:10087000C8304201C0002E30C100400120084201B2
:1008800040078600400121084201413D87000108E0
:10089000C200C3014208CA004308CB0044304001F3
:1008A000E100BC30E20042015008013E4001E3009B
:1008B000003003180130E40042014B084001E6001B
:1008C00042014A084001E500AB3165238031013027
:1008D0004201D0076D085002031C6F2C702CF02BC6
:1008E00059304001E100BB30E200AB31652380317B
:1008F0004201D101D02C5108BE00BF013E08400189
:10090000A00042013F084001A1001530A2000030C4
:10091000A300AC31FE248031CA304201C0002E3029
:10092000C100400120084201400786004001210823
:100930004201413D87000103031D9F2CA02CCD2CBB
:10094000B8304001E100BC30E20042015108013EF4
:100950004001E300003003180130E400AB316523AF
:10096000803103304001D6004201510898314720C0
:10097000803115304201BF004B30BE00BE30890BC4
:10098000BF2CBE0BBF2CBF0BBF2C00004001D601FB
:100990004201510898314720803101304201D1078E
:1009A0006D085102031CD52CD62C7B2C173040012E
:1009B000E100BE30E200AB316523803129304001D7
:1009C000E100BA30E200AB316523803164004201BE
:1009D000CE01F12C4E089A314C2280310130420177
:1009E000CE076D084E02031CF62CF72CEA2CAA3118
:1009F000D3228031003A0319FE2CFF2CE62CAC31B7
:100A0000672480314201D50041016E08031D092D84
:100A10000A2D152D1B3042015506031D102D112DD9
:100A2000152D01304101EE00E62C41016E03031D3E
:100A30001A2D1B2D292D5B3042015506031D212D3A
:100A4000222D262D02304101EE00E62C4101EE015F
:100A5000E62C02306E06031D2E2D2F2D6C2D4130FD
:100A600042015506031D352D362D262DCD01432D72
:100A700042304001E100BE30E200AB3165238031FD
:100A800001304201CD076C084D02031C482D492D51
:100A9000382D20304001A0000230A100A030A2007B
:100AA0000330A300AC31DF24803120304001A000AE
:100AB000AB31E7238031400120084201EC003630A1
:100AC0004001E100BD30E2002030E3000230E400EC
:100AD000AB3165238031262D0D30420155060319B7
:100AE000722D732D792D0A305506031D782D792D21
:100AF000AE2D5508AD316825803142016C08203E8D
:100B000086000230870081016C080319882D892D29
:100B1000952DA0304001A0000330A1002030A2009C
:100B20000230A300AC31DF24803120304001EC00E2
:100B30009D31E625803117304001E100BE30E200F2
:100B4000AB316523803109304001E100BE30E20065
:100B5000AB31652380314201EC01E62C08305506AB
:100B60000319B32DB42DBA2D7F305506031DB92DB1
:100B7000BA2DCA2D6C080319BE2DBF2DE62C0130ED
:100B8000EC0242304001E100BE30E200AB316523AF
:100B90008031E62C3F306C020318CF2DD02DE62C8F
:100BA0005508AD3168258031613042015502031C82
:100BB000DA2DDB2DE32D7B3055020318E02DE12DDE
:100BC000E32D2030D5026C08203E860002308700DD
:100BD000550881000130EC07E62C80315228400195
:100BE0004B0886008701403FCE00413FCF004E08B2
:100BF00084004F0885001200253A031D002E012EA7
:100C0000742F4B088600870101308107413103189A
:100C1000810A4201E401E5010030F700FF304301A1
:100C2000A000FF30A1004001D601382E77144B08F8
:100C3000860087010130810741310318810A382E6F
:100C4000F714172E0130D600382E4B088600870186
:100C5000403FCE00413FCF004E0884004F08850042
:100C600000082D3A0319162E1D3A0319202E222EA4
:100C7000560803193C2E3D2E252E771C402E412E62
:100C8000432EFD30F7054B08A6004C08A700A13104
:100C900042218531400127084201E5004001260834
:100CA0004201E400E51F552E562E5C2E7714E40910
:100CB000E509E40A0319E50A40014B0886008701AB
:100CC000403FD700413FD8005708840058088500AE
:100CD0001200643A03196D2E6E2E782E5708840088
:100CE000580885001200693A031D772E782E9E2E33
:100CF0004C0886004D0887000108840085010230F9
:100D00008107003FD200013FD3005708013ECE00CB
:100D10000030583DCF004B08860087014E08C03F89
:100D20004F08C13F4A08BD004908BC005308BF0036
:100D30005208BE00A7314D2785318E2F57088400F9
:100D4000580885001200783A0319A72EA82EB22E53
:100D500057088400580885001200753A031DB12E0B
:100D6000B22EF12E4C0886004D0887000108840041
:100D7000850102308107003FD200013FD3005708B0
:100D8000013ECE000030583DCF004B088600870161
:100D90004E08C03F4F08C13FE52E4A08BD00490834
:100DA000BC005308BF005208BE00A2316322853147
:100DB0008E2F4A08BD004908BC005308BF005208E6
:100DC000BE00A231D62285318E2F570884005808E4
:100DD00085000008753A0319CD2E0D3A0319D92E56
:100DE000F12ED6014B0886008701403FCE00413FDF
:100DF000CF004E0884004F0885001200733A031D8F
:100E0000022F032F0E2F4B08860087010130810728
:100E100041310318810A0130D600502F4B0886005B
:100E20008701403FCE00413FCF004E0884004F086D
:100E3000850012006C3A031D1E2F1F2F502F4B08E8
:100E400086008701403FCE00413FCF0001304E0772
:100E500084004F080318013E850012006C3A031D00
:100E6000322F332F502F4B0886008701403FCE0092
:100E7000413FCF0002304E0784004F080318013E67
:100E800085001200733A031D462F472F502F4B0841
:100E9000860087010330810741310318810A0B2F37
:100EA00056080319542F552F6A2F4A08AD004908D8
:100EB000AC004C0886004D088700010884008501BD
:100EC00002308107003FAE00013FAF00A4313F2454
:100ED00085318E2F40014B08860087010130810744
:100EE00041310318810A8E2F4B0886008701403F4D
:100EF000CE00413FCF004E0884004F088500000817
:100F0000D000D1015008A3005108A4004A08A6004F
:100F10004908A5008831002085316A2F080040016A
:100F2000B700043037020318962F972FB62FA82F3B
:100F30000C0C890C0139FC2F0D0E0139FC2F0E0C05
:100F4000890C0139FC2F0E0E890C890C0139FC2FFC
:100F50003708003A0319982F013A03199C2F033AD6
:100F600003199F2F013A0319A32FFB2F05307D0290
:100F7000031CBB2FBC2FFB2F3708FC3EB6000430F0
:100F80003706031DC42FC52FD42F2030A9000030F1
:100F9000AA001230AB00D630AC000230AD000030F9
:100FA000AE00A1319E218731023040013602031884
:100FB000DA2FDC2F0130DD2F0030B400361CE12F9A
:100FC000E22FE72F8030B2000030B300EB2F083063
:100FD000B2000030B3003208B5003408D63E8600B7
:100FE0000130870001083505031DF72FF92F013067
:100FF000FA2F0030FC2F003008000834FF34FF3493
:101000004001250826040319062807280D2825086D
:101010002604031D0C280D2812282308AB31552364
:1010200088315D282508860026088700493116008A
:10103000010403191C281D283D28250886002608C0
:1010400087004931403FA700413FA800250886009E
:10105000260887004231403FA900413FAA002A08E4
:10106000803AAB002808803A2B02031D3928270854
:10107000290203183C283D285D28400125088600E8
:101080002608870042312508840026088500003F95
:10109000A700013FA800403F27078400413F283DAB
:1010A0008500230880002508860026088700423135
:1010B0000130810741310318810A08002B304001BB
:1010C000E100BD30E20041012E083C07A0000030E5
:1010D0003D3DA10020088600210887004531010818
:1010E000A200A30122084001E300410123084001BE
:1010F000E400AB316523883101304101AE073C0883
:1011000086003D088700443101082E02031C89280F
:101110008A285E28DB304001E100B530E200AB31C7
:1011200065238831F02F4001D601D60A41013B08E2
:1011300098314720883141013C0886003D088700EE
:10114000433181013C0886003D088700443181011C
:101150003C0886003D08870001308100DA304001FC
:10116000E100B830E20041013B08013E4001E300EC
:10117000003003180130E400AB3165238831F02FD3
:101180003C0886003D08870042310103031DC92841
:10119000CA28F02F3C0886003D088700413101082D
:1011A000031DD328D428F02F4001D60141013B086C
:1011B00098314720883141013C0886003D0887006E
:1011C0004331013081005830A0000230A1003C08BA
:1011D00086003D08870055312008C03F2108C13FE7
:1011E0003C0886003D088700023081005D304001E8
:1011F000E100B630E20041013B08013E4001E3005E
:10120000003003180130E400AB3165238831F02F42
:101210003C0886003D08870042310103031D112967
:10122000122930293C0886003D0887004131010819
:10123000031D1B291C2930293C0886003D08870016
:101240004331013081075830A0000230A1003C0832
:1012500086003D08870055312008C03F2108C13F66
:101260003C0886003D08870041310103031D3929F0
:101270003A29102A3C0886003D088700553116009F
:101280000104031D44294529102A3C0886003D0815
:1012900087004331010803194E294F29102A3C08C1
:1012A00086003D08870043310A3001060319592999
:1012B0005A2967293C0886003D0887004331010808
:1012C000A000A1012008A9002108AA006929A901FC
:1012D000AA012908B0003C0886003D088700443177
:1012E00001083C07A00000303D3DA1002008860019
:1012F000210887004531300881003C0886003D0800
:1013000087004431013081073C0886003D08870092
:101310004331810163304001E100BA30E200410114
:101320003B08013E4001E300003003180130E400B7
:1013300041013008A000A10120084001E500410161
:1013400021084001E600AB316523883141013C08AA
:1013500086003D08870044310103031DB029B129EF
:10136000D4296F0A0319B529B629D42930086F0684
:10137000031DBB29BC29D4293C0886003D088700F1
:101380005C31013081005E304001E100B230E200AA
:1013900041013B08013E4001E300003003180130E9
:1013A000E400AB316523883141013C0886003D08EB
:1013B00087005C3101080319DE29DF29FF293C0879
:1013C00086003D088700443110300102031CE929E2
:1013D000EA29F1293C0886003D0887000330810096
:1013E000102AB830A0000B30A1003C0886003D0850
:1013F000870057312008C03F2108C13F102A3C0810
:1014000086003D088700443102300102031C092A8E
:101410000A2A102A3C0886003D0887000330810014
:101420003C0886003D08870041310103031D192A4D
:101430001A2AF02F3C0886003D0887005531160017
:101440000104031D242A252AF02F3C0886003D08AC
:10145000870043310108031D2E2A2F2AF02F3C0854
:1014600086003D0887005C3101080319382A392AB3
:10147000F02F3C0886003D0887004431023001020D
:10148000031C432A442AF02F3C0886003D088700AD
:10149000573116000104031D4E2A4F2AF02FC23087
:1014A0004001E100B530E20041013B08013E40014E
:1014B000E300003003180130E400AB3165238831CC
:1014C00041013C0886003D08870003308100F02F71
:1014D0003C0886003D0887005C3101080319712A29
:1014E000722AC92BFF30B800B601B72A3608A0000F
:1014F000A10120084001A000410121084001A100F4
:101500001530A2000030A300AC31FE248831CA306F
:101510004101A2002E30A300400120084101220712
:101520008600400121084101233D87000103031D7E
:101530009A2A9B2AB52A3608A000A1010530A035B9
:10154000A10D890B9F2AC830A2002D30A3002008CE
:10155000220786002108233D87000108031DB12AC8
:10156000B22AB52A3608B800BF2A0130B6074201B0
:101570006D0841013602031CBE2ABF2A762A380AAA
:101580000319C32AC42AA82B3C0886003D088700FB
:101590005B31380881003808A000A1010530A03572
:1015A000A10D890BCF2AE330A2002D30A300200823
:1015B000220786002108233D87003B088100400167
:1015C000D60141013B0898314720883141013C0850
:1015D00086003D088700043081003808A000A10182
:1015E0000530A035A10D890BF12AE530A2002D3080
:1015F000A3002008220786002108233D8700013030
:1016000081003808A000A1010530A035A10D890B8B
:10161000052BE630A2002D30A3002008220786000B
:101620002108233D870081013808A000A101053071
:10163000A035A10D890B182BE730A2002D30A30097
:101640002008220786002108233D8700810164309D
:10165000A0000030A1003808A200A3010530A23587
:10166000A30D890B2F2BDF30A4002D30A5002208FD
:10167000240786002308253D87002008C03F210855
:10168000C13F3808A000A1010530A035A10D890B8C
:10169000452BC830A2002D30A30020082207860069
:1016A0002108233D87000A30810021304001E100FC
:1016B000B330E20041013B08013E4001E30000304D
:1016C00003180130E40041013808013E4001E50003
:1016D000003003180130E600AB316523883101305A
:1016E0004101AF00942B2B304001E100BD30E200FE
:1016F00041012F083C07A00000303D3DA10020081B
:1017000086002108870045310108A200A3012208B4
:101710004001E300410123084001E400AB316523AF
:10172000883101304101AF073C0886003D08870041
:10173000443101082F02031C9E2B9F2B732B173063
:101740004001E100BE30E200AB3165238831F02F6B
:1017500003304001D60041013B08983147208831D1
:1017600041013C0886003D08870007308100463073
:101770004001E100BA30E20041013B08013E400176
:10178000E300003003180130E400AB3165238831F9
:10179000F02F3C0886003D08870046310A304001A2
:1017A000A00041013C0884003D0885000531000887
:1017B000AB31BE23883101074101AD00FF30B900D4
:1017C000B4010D2C3408A000A10120084001A000A4
:1017D000410121084001A1001530A2000030A30002
:1017E000AC31FE248831C8304101A2002E30A30064
:1017F00040012008410122078600400121084101E3
:10180000233D870001082D06031D072C082C0B2CF7
:101810003408B900152C0130B40742016D084101AC
:101820003402031C142C152CE22B390A0319192C31
:101830001A2C452C39083B0603191F2C202C452C4B
:101840003908A000A10120084001A00041012108A1
:101850004001A1001530A2000030A300AC31FE24ED
:101860008831CA304101A2002E30A3004001200877
:10187000410122078600400121084101233D8700E4
:101880000103031D442C452C712C03304001D6006C
:1018900041013B0898314720883141013C088600CE
:1018A0003D08870007308100F1304001E100B2308F
:1018B000E20041013B08013E4001E3000030031813
:1018C0000130E40041012D08A000A10120084001E1
:1018D000E500410121084001E600AB316523883174
:1018E000F02F3908A000A1010530A035A10D890B0A
:1018F000752CC830A2002D30A300200822078600D6
:101900002108233D87000108031D872C882CEA2C21
:101910003C0886003D0887005B31390881003908A2
:10192000A000A1010530A035A10D890B932CE33057
:10193000A2002D30A3002008220786002108233DA5
:1019400087003B08810002304001D60041013B087E
:1019500098314720883141013C0886003D088700C6
:10196000043081004001D601D60A41013908A63170
:101970001226883141013908A000A1010530A035A7
:10198000A10D890BBF2CC830A2002D30A300200868
:10199000220786002108233D87000530810083301F
:1019A0004001E100B630E20041013B08013E400148
:1019B000E300003003180130E40041013908013E22
:1019C0004001E500003003180130E600AB3165232B
:1019D0008831F02F3908A000A1010530A035A10DF4
:1019E000890BEE2CC830A2002D30A300200822075E
:1019F00086002108233D870009300106031D012DC3
:101A0000022D5A2D3C0886003D0887005B313908BD
:101A100081003908A000A1010530A035A10D890B76
:101A20000D2DE330A2002D30A300200822078600F0
:101A30002108233D87003B0881004001D601410178
:101A40003B0898314720883141013C0886003D0819
:101A50008700063081003C0886003D0887005B3126
:101A60000108A8003B08013E4001A80041012808E8
:101A7000013E4001A900013090311420883101302D
:101A80004001E100B430E20041013B08013E400169
:101A9000E300003003180130E40041013908013E41
:101AA0004001E500003003180130E600AB3165234A
:101AB0008831F02F03304001D60041013B089831B6
:101AC0004720883141013C0886003D0887000730E7
:101AD0008100A8304001E100B730E20041013B083D
:101AE000013E4001E300003003180130E4004101F1
:101AF0003908013E4001E500003003180130E600DE
:101B0000AB3165238831F02F3C0886003D08870003
:101B100042310108031D8D2D8E2DF02F3C088600CB
:101B20003D08870041310103031D972D982DF02FAB
:101B30004001D60141013B08A631122688314101FE
:101B40003C0886003D0887005B310108B500400174
:101B5000D6014101350898314720883141013B08C1
:101B6000013E4001A80041013508013E4001A900A5
:101B7000013090311420883141013C0886003D0835
:101B80008700063081003508A000A1010530A0358E
:101B9000A10D890BC72DC830A2002D30A30020084D
:101BA000220786002108233D87000630810074301B
:101BB0004001E100B530E20041013B08013E400137
:101BC000E300003003180130E40041013508013E14
:101BD0004001E500003003180130E600AB31652319
:101BE0008831F02F3C0886003D08870057311600E9
:101BF0000104031DFC2DFD2DF02F3C0886003D083F
:101C000087005B310108B700370A0319082E092E37
:101C1000212E3708A000A1010530A035A10D890BA8
:101C20000D2EC830A2002D30A30020082207860008
:101C30002108233D8700043001060319202E212EA0
:101C40002F2E4001D60141013B08A63112268831D2
:101C500041013C0886003D0887008101F02F3C08C7
:101C600086003D0887005F310108031D382E392E9C
:101C7000C72E3C0886003D0887005D313708A0006C
:101C8000A1010530A035A10D890B422ECC30A20058
:101C90002D30A3002008220784002108233D850061
:101CA000000801020318552E562EB12E3708A00049
:101CB000A1010530A035A10D890B5A2E3C088600E4
:101CC0003D0887005D31CD30A2002D30A300010812
:101CD0002207A4000030233DA50020082407860029
:101CE0002108253D87000108B10031080319792E2C
:101CF0007A2E822E3108A000A1012008AB00210815
:101D0000AC00862E0A30AB000030AC003C088600E8
:101D10003D0887005E312B0881003C0886003D08A5
:101D200087005F31013081007E304001E100B33037
:101D3000E20041013B08013E4001E300003003188E
:101D40000130E40041013108A000A1012008400158
:101D5000E500410121084001E600AB3165238831EF
:101D6000C72E3C0886003D0887000B3081004001EB
:101D7000D60141013B08A6311226883102304001CC
:101D8000D60041013708983147208831F02F4101B2
:101D90003C0886003D0887005F310103031DD12EFA
:101DA000D22EF02E4001D601D60A41013B08A631C1
:101DB0001226883114304101A0000030A1003C08F7
:101DC00086003D08870057312008C03F2108C13FE9
:101DD0003C0886003D0887005F3102308100F02F0B
:101DE0003C0886003D0887005F3102300106031D74
:101DF000FA2EFB2EF02F4001D60141013B08A631FF
:101E00001226883141013C0886003D0887005E317A
:101E1000013081023C0886003D0887005E310108E0
:101E20000319132F142F292F1430A0000030A10004
:101E30003C0886003D08870057312008C03F210834
:101E4000C13F3C0886003D0887005F3101308100BA
:101E5000F02F2C30A0000130A1003C0886003D0886
:101E6000870057312008C03F2108C13F3C08860049
:101E70003D0887005F3181013C0886003D088700EE
:101E80005D3101308107F02F3C0886003D08870056
:101E900042310108031D4D2F4E2FF02F3C088600C4
:101EA0003D08870041310103031D572F582FF02FA4
:101EB0003C0886003D0887005B310108B200400104
:101EC000D6014101320898314720883141013B0851
:101ED000013E4001A80041013208013E4001A90035
:101EE000013090311420883141013C0886003D08C2
:101EF0008700063081003208A000A1010530A0351E
:101F0000A10D890B7F2FC830A2002D30A30020081F
:101F1000220786002108233D8700063081009B3080
:101F20004001E100B530E20041013B08013E4001C3
:101F3000E300003003180130E400AB316523883141
:101F4000F02F3C0886003D08870057311600010439
:101F5000031DAB2FAC2FF02F4001D60141013B08F0
:101F600098314720883141013C0886003D088700B0
:101F70008101F02F41013C0886003D0887000108DF
:101F8000A000A1012108003A0319C72FF02F200853
:101F9000003A0319FE2F013A0319C028033A031926
:101FA0000829013A0319682A073A0319F02F013A60
:101FB0000319842D033A0319F02F013A0319F02F66
:101FC0000F3A0319F02F013A0319F02F033A0319BE
:101FD000F22D013A0319442F073A0319A12FF02FCC
:101FE00041013C0886003D08870042313C088400DE
:101FF0003D0885000131000881000800993142291F
:102000000130450190008F019101F9308D008C0164
:1020100075304201E8002A30E9004E0190109A1410
:10202000D03045018E0008004001AC002C03031D98
:102030001A281B281E284330AD0020285230AD003E
:102040000D30B200B3010A30A0000030A100280812
:10205000AA00AB012A08A2002B08A300A031E620A9
:10206000903140012008303EAE000A30A000003020
:10207000A1002808AA00AB012A08A2002B08A3008F
:10208000A0319420903140012008303EAF000A304A
:10209000A0000030A1002908AA00AB012A08A20074
:1020A0002B08A300A031E620903140012008303EEB
:1020B000B0000A30A0000030A1002908AA00AB013E
:1020C0002A08A2002B08A300A031942090314001DF
:1020D0002008303EB1002D30A4000030A500AB3107
:1020E000FD2390310B304001AA006230890B762825
:1020F000AA0B762800000A304001A0000030A100A1
:102100002908AA00AB012A08A2002B08A300A031CD
:10211000E620903140012008303EAE000A30A00099
:102120000030A1002908AA00AB012A08A2002B0850
:10213000A300A0319420903140012008303EAF0030
:102140000A30A0000030A1002808AA00AB012A082C
:10215000A2002B08A300A031E62090314001200806
:10216000303EB0000A30A0000030A1002808AA00CC
:10217000AB012A08A2002B08A300A03194209031C3
:1021800040012008303EB1002D30A4000030A500F1
:10219000AB31FD2390310B304001AA006230890B36
:1021A000CF28AA0BCF28000008006C08A0006B30D5
:1021B000A100BD30A2000830A3000030A400A0316F
:1021C00043209031400120082104031DE828E9281C
:1021D00089296C08083E8600023087000108CF3E3E
:1021E0004201B1006D0831020318F728F8286D2963
:1021F00040016C08093E860002308700203001064D
:10220000031D032904296D296C080A3E860002304B
:10221000870030300102031C0E290F296D296C083C
:102220000A3E8600023087003A300102031819295D
:102230001A296D296C080B3E8600023087000A308F
:10224000A0006C080A3E8400023085000008AB3113
:10225000BE2390310107F03E4201AE003108A000DC
:10226000A10120084001A000420121084001A10075
:102270001530A2000030A300AC31FE249031C830EC
:102280004201A2002E30A300400120084201220793
:102290008600400121084201233D87002E0881006D
:1022A000E9304001E100B530E20042013108013E71
:1022B0004001E300003003180130E40042012E0821
:1022C000A000A10120084001E500420121084001D1
:1022D000E600AB3165239031FF2F8C304001E100E7
:1022E000BB30E200AB316523903103304001E100A7
:1022F000B230E20042016D08A000A10120084001B7
:10230000E300420121084001E400AB316523903134
:10231000FF2F6C08A0008F30A100BD30A200073055
:10232000A3000030A400A0314320903140012008D8
:102330002104031D9C299D29572A6C08073E86000D
:10234000023087000108CF3E4201B900B4014001CC
:102350006C08093EA0004A30A100BE30A200023045
:10236000A3000030A400A031432090314001200898
:102370002104031DBC29BD29C12902304201B4003A
:10238000D9296C08093EA0004630A100BE30A20049
:102390000330A3000030A400A0314320903140015D
:1023A00020082104031DD529D629D929013042014D
:1023B000B40042016D0839020318DF29E0293B2AE5
:1023C00034080319E429E5293B2A3403031DE929CC
:1023D000EA290F2A3908A000A1010530A035A10D76
:1023E000890BEE29C830A2002D30A3002008220757
:1023F00086002108233D87008101F4304001E1007F
:10240000B630E20042013908013E4001E3000030ED
:1024100003180130E400AB3165239031FF2F023007
:102420003406031D142A152AFF2F3908A000A10124
:102430000530A035A10D890B192AC830A2002D3016
:10244000A3002008220786002108233D87000930C9
:102450008100AA304001E100B330E20042013908B6
:10246000013E4001E300003003180130E400AB31CD
:1024700065239031FF2F8C304001E100BB30E2003A
:10248000AB3165239031CF304001E100B630E2003E
:1024900042016D08A000A10120084001E3004201B3
:1024A00021084001E400AB3165239031FF2F6C0817
:1024B000A000E630A100BC30A200AD31BD259031B6
:1024C000400120082104031D662A672A7C2AD53092
:1024D000E100BB30E200AB3165239031293042018D
:1024E000A1009630A0007F30890B742AA00B742ABB
:1024F000A10B742A0100FF2F6C08A000FB30A10083
:10250000BD30A2000630A3000030A400A03143205B
:102510009031400120082104031D8F2A902A1B2C92
:102520006C08063EA0001F30A100BE30A20004309F
:10253000A3000030A400A0314320903140012008C6
:102540002104031DA42AA52A3D2B6C080A3E8600FF
:10255000023087000108D03E4201B50040016C08FE
:102560000C3E8600023087000108D03E4201B600D2
:1025700040016C080B3E86000230870020300106C7
:10258000031DC32AC42A222BB330E100B930E20074
:1025900042013508A000A10120084001E3004201EA
:1025A00021084001E40042013608A200A3012208EC
:1025B0004001E500420123084001E60042013608DF
:1025C000A400A50124084001E700420125084001BC
:1025D000E80042013508A600A70126084001E900ED
:1025E000420127084001EA00AB31652390314201E6
:1025F00035084001A800420136084001A900013019
:10260000903114209031FD304001E100B430E200FF
:1026100042013508A000A10120084001E300420169
:1026200021084001E40042013608A200A30122086B
:102630004001E500420123084001E600AB3165237B
:102640009031FF2F9C30E100BA30E200AB316523BE
:10265000903156304001E100B430E20042016D0893
:10266000A000A10120084001E3004201210840012F
:10267000E400AB3165239031FF2F6C08063EA000CB
:102680001A30A100BE30A2000430A3000030A40024
:10269000A03143209031400120082104031D512B1B
:1026A000522BEA2B6C080A3E860002308700010894
:1026B000D03E4201B70040016C080C3E860002305B
:1026C00087000108D03E4201B80040016C080B3E73
:1026D00086000230870020300106031D702B712B0D
:1026E000CF2B9530E100B930E20042013708A0005D
:1026F000A10120084001E300420121084001E4005B
:1027000042013808A200A30122084001E50042016D
:1027100023084001E60042013808A400A50124086E
:102720004001E700420125084001E8004201370866
:10273000A600A70126084001E90042012708400140
:10274000EA00AB3165239031420137084001A8000F
:10275000420138084001A900003090311420903126
:10276000D4304001E100B430E20042013708A0005B
:10277000A10120084001E300420121084001E400DA
:1027800042013808A200A30122084001E5004201ED
:1027900023084001E600AB3165239031FF2F9C30C8
:1027A000E100BA30E200AB31652390312C304001BA
:1027B000E100B430E20042016D08A000A101200850
:1027C0004001E300420121084001E400AB316523F0
:1027D0009031FF2F6C08063EA000E930A100BC300C
:1027E000A200AD31BD259031400120082104031D18
:1027F000FA2BFB2B0B2CF430A400BD30A500AB3121
:10280000FD239031EE304001E100B730E200AB3102
:1028100065239031FF2F8530E100B730E200AB3106
:102820006523903134304001E100B830E200AB3133
:1028300065239031FF2F6C08A0009730A100BD30B8
:10284000A2000730A3000030A400A0314320903143
:10285000400120082104031D2E2C2F2C982D6C08DC
:10286000073E8600023087000108CF3E4201BB00D0
:102870006D083B0203183D2C3E2C842D40016C0852
:10288000083E86000230870020300106031D492CD7
:102890004A2C842D6C08093EA0004630A100BE30B1
:1028A000A2000330A3000030A400A03143209031E7
:1028B000400120082104031D5E2C5F2C932C420153
:1028C0003B08A000A10120084001A000420121080E
:1028D0004001A1001530A2000030A300AC31FE245D
:1028E0009031CB304201A2002E30A30040012008DD
:1028F000420122078600400121084201233D870052
:10290000810161304001E100B730E20042013B0843
:10291000013E4001E300003003180130E400AB3118
:1029200065239031FF2F4201BC01CB2C3B08A00056
:10293000A10120084001A000420121084001A1009E
:102940001530A2000030A300AC31FE249031CC3011
:102950004201A2002E30A3004001200842012207BC
:10296000A400400121084201233DA5003C082407A2
:1029700086000030253D87003C0840016C0742017D
:10298000A6002608093E8400023085000008D03EDB
:1029900081000130BC073C0840016C074201A000E7
:1029A0002008093E86000230870030300102031CF7
:1029B000DA2CDB2CF12C3C0840016C074201A00012
:1029C0002008093E8600023087003A3001020318D1
:1029D000EA2CEB2CF12C10303C02031CF02CF12CD7
:1029E000962C3C080319F52CF62C7B2D3B08A000F7
:1029F000A10120084001A000420121084001A100DE
:102A00001530A2000030A300AC31FE249031CB3051
:102A10004201A2002E30A3004001200842012207FB
:102A20008600400121084201233D87003C088100C7
:102A3000B9304001E100B830E20042013B08013EFC
:102A40004001E300003003180130E400AB3165239E
:102A500090314201B0016C2D3B08A000A10120087B
:102A60004001A000420121084001A1001530A20050
:102A70000030A300AC31FE249031CC304201A200E2
:102A80002E30A3004001200842012207A40040018B
:102A900021084201233DA5003008240786000030AC
:102AA000253D87000108A600A7012608B2002708D7
:102AB000B3002B304001E100BD30E2004201330899
:102AC0004001E400420132084001E300AB316523DC
:102AD000903101304201B0073C083002031C712DD7
:102AE000722D2C2D17304001E100BE30E200AB31D9
:102AF00065239031FF2FFA304001E100B830E20049
:102B0000AB3165239031FF2F30304001E100B1300F
:102B1000E20042016D08A000A10120084001E3008D
:102B2000420121084001E400AB3165239031FF2FC1
:102B30006C08A000C930A100BC30A200AD31BD2599
:102B400090314001200821040319A72DA82DB82D8C
:102B50006C08A000D830A100BC30A200AD31BD256A
:102B60009031400120082104031DB72DB82DC42D3C
:102B7000A631AF26903125304001E100B530E200AA
:102B8000AB3165239031FF2F6C08A0007430A10099
:102B9000BD30A2000830A3000030A400A0314320C3
:102BA0009031400120082104031DD72DD82D352E4A
:102BB0006C08083EA0004630A100BE30A2000330E1
:102BC000A3000030A400A031432090314001200830
:102BD0002104031DEC2DED2DF92DFF304101EF00F7
:102BE000F0304001E100BA30E200AB3165239031B2
:102BF000FF2F6C08083E860002308700303001024B
:102C0000031C032E042E2D2E6C08083E8600023075
:102C100087003A30010203180E2E0F2E2D2E6C085D
:102C2000083E8600023087000108D03E4101EF00D7
:102C30004D304001E100B530E20041016F08420132
:102C4000A000A10120084001E30042012108400149
:102C5000E400AB3165239031FF2F7730E100B930CC
:102C6000E200AB3165239031FF2F6C08A0003930B2
:102C7000A100BD30A2000930A3000030A400A031A3
:102C800043209031400120082104031D482E492E85
:102C90000B2F6C08093E8600023087000108CF3EEA
:102CA0004201BA006D083A020318572E582EF72E2B
:102CB00040016C080A3E8600023087002030010681
:102CC000031D632E642EF72E6C080B3EA0002430EB
:102CD000A100BE30A2000430A3000030A400A03147
:102CE00043209031400120082104031D782E792EC5
:102CF000AD2E42013A08A000A10120084001A00029
:102D0000420121084001A1001530A2000030A300BB
:102D1000AC31FE249031CA304201A2002E30A30013
:102D2000400120084201220786004001210842019B
:102D3000233D870081013D304001E100B730E200D2
:102D400042013A08013E4001E3000030031801301F
:102D5000E400AB3165239031FF2F6C080B3EA000DF
:102D60004D30A100BE30A2000230A3000030A4000C
:102D7000A03143209031400120082104031DC12EC1
:102D8000C22EF72E42013A08A000A10120084001FE
:102D9000A000420121084001A1001530A20000302E
:102DA000A300AC31FE249031CA304201A2002E3083
:102DB000A3004001200842012207860040012108AB
:102DC0004201233D87000130810010304001E100C5
:102DD000B630E20042013A08013E4001E300003013
:102DE00003180130E400AB3165239031FF2FD6305A
:102DF0004001E100B330E20042016D08A000A101F2
:102E000020084001E300420121084001E400AB3109
:102E100065239031FF2F6C08A0002E30A100BE303A
:102E2000A200AD31BD2590314001200821040319D5
:102E30001A2F1B2F2B2F6C08A0005230A100BE3080
:102E4000A200AD31BD259031400120082104031DB1
:102E50002A2F2B2FF42FA730E100BC30E200AB313A
:102E60006523903119304001E100B730E200AB3109
:102E70006523903190304001E100B230E200AB3187
:102E800065239031F9304001E100B130E2004201A8
:102E90006D08A000A10120084001E30042012108C3
:102EA0004001E400AB316523903180304001E10006
:102EB000B430E200AB3165239031C1304001E10014
:102EC000B230E20042016D08A000A10120084001DB
:102ED000E300420121084001E400AB316523903159
:102EE000F0304001E100B030E200AB3165239031B9
:102EF00026304001E100B130E20042016D08A0003F
:102F0000A10120084001E300420121084001E40042
:102F1000AB3165239031A9304001E100B630E200C9
:102F2000AB316523903156304001E100B830E2000A
:102F3000AB3165239031CB304001E100B730E20086
:102F4000AB316523903151304001E100B330E200F4
:102F5000AB316523903191304001E100B130E200A6
:102F6000AB31652390312C304001E100B230E200FA
:102F7000AB316523903100304001E100B030E20018
:102F8000AB316523903112304001E100A830E200FE
:102F9000AB31652390317B304001E100B030E2007D
:102FA000AB316523903117304001E100BE30E200C3
:102FB000AB3165239031B7304001E100B030E20021
:102FC000AB3165239031AA304001E100B430E2001A
:102FD000AB31652390312E304001E100BB30E2007F
:102FE000AB3165239031FF2F2E30E100BC30E20081
:102FF0006C08E3000230E400AB3165239031080037
:103000000434771C042805280F2840013608AC003A
:103010003508AE003408AD00AD311E2598314001B1
:10302000B81F132814281628B701B801BA01BB012C
:103030002A2820304001A3000030A4003508A60053
:103040003408A50088310020983101304001BA07CA
:103050000030BB3D3B08803AB9003808803A39025D
:10306000031D342837083A02031C3728382819284A
:1030700077183B283C28462840013608AC00350824
:10308000AE003408AD00AD311E2598310800400176
:10309000DF000130E2000130E3005E280130E20091
:1030A0000130E3007428E201E30174280130E200FA
:1030B000E3017428E2010130E30074285608D700C8
:1030C000D8015808003A0319662874285708003AAE
:1030D00003194E28013A03195328033A03195628B5
:1030E000013A03195A28742804305F02031879281A
:1030F0007A28CD28BF28620803197F2880288228D3
:1031000016148328161063080319872888288A282C
:103110009614412996104129620803199028912894
:1031200093281616942816126308031998289928CC
:103130009B28961641299612412962080319A12855
:10314000A228A4281617A528161363080319A9286E
:10315000AA28AC2896174129961341296208031919
:10316000B228B328B5281816B62818126308031910
:10317000BA28BB28BD2898164129981241295F0812
:10318000003A03197B28013A03198C28033A0319E2
:103190009D28013A0319AE28412905307D02031C00
:1031A000D228D32841295F08FC3EDE0002305E02AF
:1031B0000318DB28DD280130DE280030E1005E1C2A
:1031C000E228E328E8280430DA000030DB00EA28AF
:1031D000DA01DB015A08E00061086E3E860001302A
:1031E00087000330D700600AF628D735890BF52809
:1031F0005708FF3A810562080319FF2800290E29A4
:1032000061086E3E8600013087000130D700600AF9
:103210000A29D735890B092957088104630803193E
:1032200012291329212961086E3E8600013087008A
:103230000230D700600A1D29D735890B1C29570891
:10324000810461080319252926292B291530DC0062
:103250000030DD002F291430DC000030DD005C0878
:10326000D9002030D2000030D3005908D4006108C2
:103270006E3E8600013087000108D500AB31AB23DC
:10328000983108003C0886003D088700423101085B
:10329000031D4B294D298F31F02F3C0886003D0836
:1032A000870041310103031D562957294B293C084A
:1032B00086003D0887005C3181013B08A000A10128
:1032C00020084001A000410121084001A100153063
:1032D000A2000030A300AC31FE249931CB30410173
:1032E000A2002E30A30040012008410122078600E1
:1032F000400121084101233D87000108031981296C
:10330000832988319328B301BA2933083C07A000E8
:1033100000303D3DA100200886002108870045318E
:103320003B08A200A30122084001A000410123089C
:103330004001A1001530A2000030A300AC31FE24F2
:103340009931CC304101A4002E30A5004001200865
:1033500041012407A600400121084101253DA700A5
:103360003308260784000030273D850000088100CF
:103370000130B3073B08A000A10120084001A000D4
:10338000410121084001A1001530A2000030A30036
:10339000AC31FE249931CB304101A2002E30A30084
:1033A0004001200841012207860040012108410117
:1033B000233D870001083302031CDF29E02985290A
:1033C0003C0886003D08870044313B08A000A1016D
:1033D00020084001A000410121084001A100153052
:1033E000A2000030A300AC31FE249931CB30410162
:1033F000A2002E30A30040012008410122078400D2
:10340000400121084101233D8500000881006F0A29
:1034100003190B2A0C2A1F2A3C0886003D08870046
:10342000453101086F06031D162A172A1F2A3C087A
:1034300086003D0887005C3101308100312A3C085C
:1034400086003D088700443103300102031C292A0D
:103450002A2A312A3C0886003D0887005C31013069
:1034600081003C0886003D088700033081009830C9
:103470004001E100B830E20041013B08013E40015B
:10348000E300003003180130E400AB3165239931CB
:103490004101AE0188317F284101BB003B08A000FB
:1034A000A1010530A035A10D890B522AC830A20018
:1034B0002D30A30020082207A4002108233DA500E9
:1034C0002408BC002508BD003B0887318F279A31AE
:1034D0004101A0003C08013EA10000303D3DA2009A
:1034E0002108860022088700200881003C08860009
:1034F0003D08870041310108031D7F2A812A8F3151
:10350000BA2F3C0886003D08870042310103031DA5
:103510008A2A8B2A982AE830A0000330A1003C08B0
:1035200086003D08870059312008C03F2108C13F6F
:103530003C0886003D088700593116000104031D30
:10354000A22AA32A7F2A3C0886003D08870001089A
:103550000319AB2AAC2A7F2A3C0886003D08870065
:10356000053001060319B52AB62A7F2A3C088600D1
:103570003D0887000A3001060319BF2AC02A7F2AA6
:103580003C0886003D0887000B3001060319C92A54
:10359000CA2A7F2A3C0886003D0887000C300106B5
:1035A0000319D32AD42A7F2A3C0886003D088700C5
:1035B0005B31010A0319DD2ADF2A9C31442C3C08C7
:1035C00086003D0887005B310108BA003C08860090
:1035D0003D08870004300106031DEF2AF12A9B31C4
:1035E0009A2B4001D60141013A08A63112269A31A0
:1035F00041013A08A000A10120084001A0004101BA
:1036000021084001A1001530A2000030A300AC3118
:10361000FE249A31CA304101A2002E30A30040019D
:103620002008410122078600400121084101233D75
:1036300087000103031D1D2B1F2B9B31582B0330CB
:103640004001D60041013A08983147209A31F430C0
:103650004101A0000130A1003A08A200A3010530F9
:10366000A235A30D890B302BDF30A4002D30A5002F
:103670002208240786002308253D87002008C03F34
:103680002108C13F3A08A000A1010530A035A10DD5
:10369000890B462BC830A2002D30A300200822073A
:1036A00086002108233D87000C3081009B316B2B65
:1036B0003A08A000A1010530A035A10D890B5C2BB3
:1036C000C830A2002D30A300200822078600210860
:1036D000233D870081013A08A000A1010530A035F3
:1036E000A10D890B6F2BE330A2002D30A300200821
:1036F000220786002108233D8700FF308100C53066
:103700004001E100B130E20041013B08013E4001CF
:10371000E300003003180130E40041013A08013EA3
:103720004001E500003003180130E600AB316523AD
:103730009B31442C3C0886003D088700063001067A
:10374000031DA32BA42B442C3B08013E4001A800E1
:1037500041013A08013E4001A90000309031142097
:103760009B3141013A08A000A1010530A035A10D0F
:10377000890BB62BC830A2002D30A30020082207E9
:1037800086002108233D8700093001060319C92B53
:10379000CA2B162C03304001D60041013A0898315B
:1037A00047209B3141013A08A000A1010530A03516
:1037B000A10D890BD72BC830A2002D30A300200803
:1037C000220786002108233D8700073081003A0840
:1037D000A000A1010530A035A10D890BEB2BE33032
:1037E000A2002D30A3002008220786002108233DD7
:1037F0008700FF3081005C304001E100B130E20021
:1038000041013B08013E4001E30000300318013054
:10381000E40041013A08013E4001E5000030031890
:103820000130E600AB3165239B31442C3A08A000FF
:10383000A1010530A035A10D890B1A2CE330A2009F
:103840002D30A3002008220786002108233D870091
:10385000FF3081003F304001E100B030E200410123
:103860003B08013E4001E300003003180130E40052
:1038700041013A08013E4001E500003003180130E3
:10388000E600AB3165239B314001D60141013B0885
:10389000983147209B314001D60141013B08A631B8
:1038A00012269B3141013C0886003D088700093003
:1038B000010603195C2C5E2C8F31BA2F3C08860060
:1038C0003D08870081013C0886003D0887005B3188
:1038D000FF308100B8304001E100BA30E200410120
:1038E0003B08013E4001E300003003180130E400D2
:1038F000AB3165239B315C2C00304201A7007F3047
:10390000A80000304001A0007F30A100AB31872328
:103910009C31400120084201A2000130A70700307D
:10392000A83D28084001A100420127084001A0004D
:10393000AB3187239C31400120084201A3000130B4
:10394000A7070030A83D5A302306031DA82CA92C38
:103950001A2D22084101EF00C8304201A0002E308C
:10396000A100A401A5012408200786002508213D07
:10397000870028084001A100420127084001A0005B
:10398000AB3187239C314001200881000130420186
:10399000A7070030A83D0130A4070030A53D003046
:1039A0002502A83003192402031CD72CD82CB32CD1
:1039B000A601132D26084001EC00ED016C08A000C3
:1039C0006D08A1001530A2000030A300AC31FE2428
:1039D0009C31C9304001EE002E30EF0020086E0708
:1039E000860021086F3D870009300106031DF92C70
:1039F000FA2C102D420126084001EC00ED010530A3
:103A0000EC35ED0D890B002DC830EE002D30EF00A8
:103A10006C086E0786006D086F3D870009308100D5
:103A200001304201A6076D082602031C182D192D2E
:103A3000DA2CE52DFF304101EF004201A9012908F0
:103A40004001EC00ED016C08A0006D08A1001530EC
:103A5000A2000030A300AC31FE249C31C8304001EC
:103A6000EE002E30EF0020086E07860021086F3D23
:103A70008700420129080B3E810029084001EC0023
:103A8000ED016C08A0006D08A1001530A200003007
:103A9000A300AC31FE249C31C9304001EE002E3031
:103AA000EF0020086E07860021086F3D8700810126
:103AB000420129084001EC00ED016C08A0006D08EE
:103AC000A1001530A2000030A300AC31FE249C31CF
:103AD000CA304001EE002E30EF0020086E0786004D
:103AE00021086F3D87008101420129084001EC0057
:103AF000ED016C08A0006D08A1001530A200003097
:103B0000A300AC31FE249C31CB304001EE002E30BE
:103B1000EF0020086E07860021086F3D87008101B5
:103B2000420129084001EC00ED016C08A0006D087D
:103B3000A1001530A2000030A300AC31FE249C315E
:103B4000DC304001EE002E30EF0020086E078600CA
:103B500021086F3D87008101420129084001EC00E6
:103B6000ED016C08A0006D08A1001530A200003026
:103B7000A300AC31FE249C31CC304001EE002E304D
:103B8000EF0020086E07A60021086F3DA700003057
:103B9000A800A9001030AA000030AB00AC3184248A
:103BA0009C3101304201A90708302902031CD92D9C
:103BB000DA2D1F2DA631AF269C311A304001E100CD
:103BC000B930E200AB3165239C31080040016C083C
:103BD0008600023087000108031DEF2DF02DF22D25
:103BE0009731FF2F1730E100BE30E200AB31652383
:103BF0009D3140016C08A0003330A100BE30A2000E
:103C0000AD31BD259D31400120082104031D092E41
:103C10000B2E9031D5281830E100BC30E2009530F1
:103C2000E300BC30E400AB3165239D3141016F0AF4
:103C3000031D1B2E1C2E252E59304001E100BC30E7
:103C4000E200AB3165239D31392E02304001E100A5
:103C5000BC30E20041016F084201A000A101200830
:103C60004001E300420121084001E400AB3165233B
:103C70009D310B304001E100BB30E200AB316523E8
:103C80009D314201BD01F12F3D08A000A101200896
:103C90004001A000420121084001A1001530A2000E
:103CA0000030A300AC31FE249D31CA304201A20095
:103CB0002E30A30040012008420122078600400167
:103CC00021084201233D87000103031D682E692E50
:103CD000762E28304001A0000130A1003830A2002B
:103CE000BE30A300AC31DF249D31822E283040014C
:103CF000A0000130A1002430A200BE30A300AC31EE
:103D0000DF249D3142013D08A000A10120084001AF
:103D1000A000420121084001A1001530A20000309E
:103D2000A300AC31FE249D31C8304201A2002E30E8
:103D3000A30040012008420122078600400121081B
:103D40004201233D87000108A400A5012408B20018
:103D50002508B30058304001E100B930E2004201CB
:103D60003D08013E4001E300003003180130E4004B
:103D7000420133084001E600420132084001E500FB
:103D80002830E7000130E80042013D08A000A10111
:103D90000530A035A10D890BC92EC830A2002D30E9
:103DA000A3002008220786002108233D8700010880
:103DB000A331C4239D3140012108EA002008E90015
:103DC000AB3165239D3142013D08A000A1010530C2
:103DD000A035A10D890BE82EE330A2002D30A30001
:103DE0002008220786002108233D8700010A0319C5
:103DF000FA2EFB2E1E2F82304001E100BC30E20083
:103E000042013D08A000A1010530A035A10D890B9C
:103E1000052FE330A2002D30A300200822078600E2
:103E20002108233D87000108013E4001E3000030E6
:103E300003180130E400AB3165239D3142013D0898
:103E4000A000A1010530A035A10D890B232FC93099
:103E5000A2002D30A3002008220786002108233D60
:103E600087000108031D352F362F3B2F0F30AC0084
:103E7000BE30AD003F2F0230AC00BE30AD002E3062
:103E80004001E100BD30E20042012D084001E400A4
:103E900042012C084001E300AB3165239D31420112
:103EA0003D08A000A10120084001A0004201210816
:103EB0004001A1001530A2000030A300AC31FE2467
:103EC0009D31CB304201A2002E30A30040012008DA
:103ED000420122078600400121084201233D87005C
:103EE00001080319742F752FE62FF4304001E1000B
:103EF000BC30E200AB3165239D314201AF01C02FE0
:103F00003D08A000A10120084001A00042012108B5
:103F10004001A1001530A2000030A300AC31FE2406
:103F20009D31CC304201A2002E30A3004001200878
:103F300042012207A400400121084201233DA500BF
:103F40002F08240786000030253D87000108A600C1
:103F5000A7012608B2002708B3002B304001E1007A
:103F6000BD30E200420133084001E4004201320862
:103F70004001E300AB3165239D3101304201AF07C1
:103F80003D08A000A10120084001A0004201210835
:103F90004001A1001530A2000030A300AC31FE2486
:103FA0009D31CB304201A2002E30A30040012008F9
:103FB000420122078600400121084201233D87007B
:103FC00001082F02031CE52FE62F802F1730400138
:103FD000E100BE30E200AB3165239D31013042018A
:103FE000BD076D083D02031CF62FF72F442E253028
:103FF0004001E100BB30E200AB3165239D31F02D83
:104000004301901290164201D60100300800400191
:10401000A801AA317722A031003A031D10281128E7
:10402000402801304201D600400121084201D80059
:10403000400120084201D7000130E1004001220880
:104040004201D900DA01400124084201DC004001AC
:1040500023084201DB00400125084201DD00013058
:10406000DE00400127084201E0004001260842012D
:10407000DF00E201AA31A322A03101304001A800F3
:1040800040012808080001304001A3020030A43B91
:10409000230A031D4F28240A031D4F2850285D289A
:1040A000A001A10193280130A0070130A107003031
:1040B000A23D0130A3020030A43B2008860002305C
:1040C00087000108031965286628852821088400CF
:1040D00022088500120003196E286F2885282308FE
:1040E00024040319742875288528210884002208CF
:1040F00085000008A500200886000230870001081E
:1041000025060319842885285328200886000230B4
:104110008700210884002208850000080102A00011
:10412000A101031CA10308004001A501A31F9928B8
:104130009A28A128A209A309A20A0319A30A0130F7
:10414000A500A11FA428A528AA28A009A109A00AA2
:104150000319A10A200821040319AF28B028D72881
:104160000130A400BA280130A035A10D890BB42874
:104170000130A407A11FBD28BE28B32821082302AF
:10418000031DC42820082202031CC728C828CC28E5
:104190002008A2022108A33B0130A136A00C890B04
:1041A000CD280130A402031DD628D728BE28250813
:1041B0000319DB28DC28E128A209A309A20A0319B4
:1041C000A30A2308A1002208A00008004001A501BD
:1041D000A11FEB28EC28F328A009A109A00A0319C4
:1041E000A10A0130A500A31FF628F728FE28A2097E
:1041F000A309A20A0319A30A0130A506A601A70173
:104200002008210403190529062933290130A400B7
:1042100010290130A035A10D890B0A290130A4070E
:10422000A11F1329142909290130A635A70D890BCF
:10423000152921082302031D1F2920082202031C1F
:104240002229232928292008A2022108A33B261479
:104250000130A136A00C890B29290130A402031DCD
:1042600032293329142925080319372938293D29EA
:10427000A609A709A60A0319A70A2708A100260864
:10428000A00008004001AC01AD01260886008701AE
:10429000403FA800413FA900280884002908850064
:1042A00012002A3A031D5529562985292608860019
:1042B00087010130810741310318810A27088600F0
:1042C000870101088400850102308107003FAC00AE
:1042D000013FAD0099292D08A1002C08A0000A304B
:1042E000A2000030A300AC31FE24A13140012B0814
:1042F0002007AC000030213DAD0026088600870174
:104300000130810741310318810A260886008701A0
:10431000403FA800413FA9002808840029088500E3
:104320000008D03EAB000A302B02031C98299929C3
:104330006B292D08A7002C08A600080040012B08B7
:10434000AF002A08A1002908A0002F30A2000130E8
:10435000A3000030A4002C08A5002E08A7002D08FB
:10436000A600A0310720A131003A031DB829B929C0
:10437000BA29FA29E8304001B0000330B100D02951
:104380001A30890BC129003201304001B0020030DF
:10439000B13B30083104031DCE29CF29D029FA2999
:1043A000AA317722A131003A031DD729D829C02983
:1043B000E8304001B0000330B100EE291A30890B1B
:1043C000DF29003201304001B0020030B13B30083B
:1043D0003104031DEC29ED29EE29FA2943011119B5
:1043E000F229F329DE298530890BF4290000AA314E
:1043F000DC22A13108007935703E860087012F301C
:10440000873D79350030873D0030C03FC13F4201D4
:104410009D1C0B2A0C2A282A7908F000F101F0359E
:10442000F10D7030F2002F30F30070087207860033
:104430007108733D87000115430122082304031905
:10444000222A232A282A23088A0022080A00A231C5
:1044500042011D1D2C2A2D2A482A7908F000F1015D
:10446000F035F10D7030F2002F30F3007008720754
:1044700086007108733D870081146608670403197C
:10448000422A432A482A67088A0066080A00A2319D
:1044900042011908F4007908013E3F39F50075081A
:1044A0007806031D542A552A562A622A7908203E86
:1044B000860003308700740881007508F900013018
:1044C0004101EB07080001304001C10042016508CD
:1044D0004001C300420164084001C2001F30C40013
:1044E0000030C5004301CF01A32AFF304001C407BB
:1044F000FF30C53D4408B03E8600013087000A30D9
:10450000A0000030A1003F08A3003E08A200AE3189
:104510005026A23140012008303E8100C101FF3009
:10452000C207FF30C33D0A30A0000030A1003F08A1
:10453000A3003E08A200AE31F526A23140012108B9
:10454000BF002008BE004001440845040319A92A01
:10455000AA2AC62A3E083F04031DAF2AB02A752A9C
:104560004108031DB42AB52A752A4308803AC000C1
:1045700080304002031DBE2A01304202031CC12AC2
:10458000C22AC62AF718C52AC62A752A40013D083C
:10459000B5003C08B4004408B03EB6004308B8007B
:1045A0004208B70098310120A231080001304001D3
:1045B000C100420165084001C30042016408400196
:1045C000C2001F30C5000030C6004301CF01102BD0
:1045D000FF304001C507FF30C63D3E080F39C4001B
:1045E0000A3044020318F52AF62AF92A3030C407A3
:1045F000FB2A5730C4074508B03E860001308700CB
:1046000044088100C101FF30C207FF30C33D3E0EA8
:104610000F39BE003F0EF039BE043F0E0F39BF0008
:1046200040014608803AC00080304002031D1A2B2A
:1046300002304502031C1D2B1E2B3B2B40013E0864
:104640003F04031D242B252BE82A4108031D292B99
:104650002A2BE82A4308803AC00080304002031D1C
:10466000332B01304202031C362B372B3B2BF71820
:104670003A2B3B2BE82A40013D08B5003C08B4002A
:104680004508B03EB6004308B8004208B70098316C
:104690000120A2310800003040012F021F30031911
:1046A0002E02031C542B552B572B0030C32B2B08E9
:1046B000B0003130A0002D08A2002C08A1002F0866
:1046C000A4002E08A300AD314225A33140012A08E1
:1046D000A1002908A0003030A2002E08013EA3004E
:1046E00000302F3DA400AD31ED25A331003A031D6C
:1046F0007A2B7B2B7C2B552BE8304001D0000330EC
:10470000D100922B1A30890B832B003201304001EB
:10471000D0020030D13B50085104031D902B912B47
:10472000922B552BAA317722A331003A031D992BE6
:104730009A2B822BE8304001D0000330D100B02BFF
:104740001A30890BA12B003201304001D002003019
:10475000D13B50085104031DAE2BAF2BB02B552B72
:1047600043011119B42BB52BA02B8530890BB62B27
:104770000000AA31DC22A331003A0319C02BC22B5E
:104780000130C32B003008004001A4000D2C29305B
:10479000A000BE30A1003E2C8630A000BD30A1009C
:1047A0003E2CAF30A000BD30A1003E2CBF30A00099
:1047B000BD30A1003E2CB730A000BD30A1003E2C82
:1047C0009F30A000BD30A1003E2CA730A000BD301E
:1047D000A1003E2C3D30A000BE30A1003E2CC730D1
:1047E000A000BD30A1003E2CD730A000BD30A100FC
:1047F0003E2C4330A000BD30A1003E2C4D30A00027
:10480000BD30A1003E2C1830A000BD30A1003E2CD0
:10481000CF30A000BD30A1003E2C2408A200A3018F
:104820002308003A0319152C082C2208003A031912
:10483000C72B013A0319CC2B033A0319D12B013AA8
:104840000319D62B073A0319DB2B013A0319E02B86
:10485000033A0319E52B013A0319EA2B0F3A03191E
:10486000EF2B013A0319F42B033A0319F92B013A00
:104870000319FE2B073A0319032C082C08004001EA
:104880002F08B7002E08B60036083704031D492C40
:104890004A2C4E2CDF30B600BD30B700B801B9014C
:1048A000552C0130B8070030B93D36083807840070
:1048B0003708393D85001200031D5F2C602C512CF8
:1048C0003908B3003808B200420165084001B5005C
:1048D000420164084001B40077186F2C702CA82C9A
:1048E000822C20304001A3000030A4002D08A60037
:1048F0002C08A50088310020A43101304001B80700
:104900000030B93D3908803AB0003508803A3002AD
:10491000031D8C2C34083802031C8F2C902C712C16
:10492000A82C36088400370885000008B000B101C3
:104930003008A3003108A4002D08A6002C08A5000B
:1049400088310020A43101304001B6070030B73D66
:10495000FF304001B207FF30B33D320A031DB42CD3
:10496000330A031DB42CB52C912C771CB82CB92C10
:10497000D92CCB2C20304001A3000030A4002D08FE
:10498000A6002C08A50088310020A4310130400188
:10499000B8070030B93D3908803AB0003508803A90
:1049A0003002031DD52C34083802031CD82CD92C16
:1049B000BA2C0800F6016E2D7608F000F1010530E2
:1049C000F035F10D890BE02CDD30F2002D30F300D5
:1049D0007008720786007108733D87001600010495
:1049E0000319F32CF42C0C2D7608F000F10105309E
:1049F000F035F10D890BF82CDD30F2002D30F3008D
:104A00007008720786007108733D870001308102CB
:104A100041310030813B7F317608F000F1010530F3
:104A2000F035F10D890B102DDF30F2002D30F30041
:104A30007008720786007108733D87001600010434
:104A40000319232D242D3C2D7608F000F1010530AB
:104A5000F035F10D890B282DDF30F2002D30F300F9
:104A60007008720786007108733D8700013081026B
:104A700041310030813B7F317608F000F101053093
:104A8000F035F10D890B402DE130F2002D30F300AF
:104A90007008720786007108733D870016000104D4
:104AA0000319532D542D6C2D7608F000F1010530BB
:104AB000F035F10D890B582DE130F2002D30F30067
:104AC0007008720786007108733D8700013081020B
:104AD00041310030813B7F310130F60742016D08E2
:104AE0007602031C742D752DDC2C08004001EA01B0
:104AF000D6016A0898314720A5314001D6016A08DD
:104B0000A6311226A53101304001EA0704306A02BD
:104B1000031C8B2D8C2D782D15304001E5004B307A
:104B2000E400BE30890B922DE40B922DE50B922D03
:104B30000000AB312823A53105304001E5000F30DE
:104B4000E400F130890BA22DE40BA22DE50BA22D80
:104B5000400117172030D2000030D3000530D400B8
:104B6000D501AB31AB23A531013A031DB82DB92DC9
:104B70000F2E20304001D2000030D3000A30D40084
:104B8000D501AB31AB23A531FF304201EE00FF3040
:104B9000EF0020304001A9000030AA001430AB0023
:104BA0006E30AC000130AD000230AE000030AF001E
:104BB000A3314B23A531430155084001E7004301D0
:104BC00054084001E6002030A9000030AA000C3053
:104BD000AB006630AC000030AD000230AE000030FB
:104BE000AF00A3314B23A531430153084001E90035
:104BF000430152084001E8002030A9000030AA001B
:104C0000AB016830AC000030AD000230AE000030C7
:104C1000AF00A3314B23A5310830FD00112E043025
:104C2000FD0008004001DF0004305F020318192E68
:104C30001A2E4D2E3F2E560803191F2E202E222EDF
:104C40009611AE2E9615AE2E56080319282E292E33
:104C50002B2E9712AE2E9716AE2E56080319312E14
:104C6000322E342E9811AE2E9815AE2E56080319FA
:104C70003A2E3B2E3D2E9813AE2E9817AE2E5F087F
:104C8000003A03191B2E013A0319242E033A031983
:104C90002D2E013A0319362EAE2E05307D02031C4F
:104CA000522E532EAE2E5F08FC3EDD0002305D0218
:104CB00003185B2E5D2E01305E2E0030E0005D1C7F
:104CC000622E632E682E0430D9000030DA006A2E7E
:104CD000D901DA015908DE0060086E3E8600013015
:104CE00087000430D7005E0A762ED735890B752EE3
:104CF0005708FF3A81055608031D7F2E802E8E2E01
:104D000060086E3E8600013087000430D7005E0ADE
:104D10008A2ED735890B892E57088104600803191C
:104D2000922E932E982E1530DB000030DC009C2E46
:104D30001430DB000030DC005B08D8002030D200EB
:104D40000030D3005808D40060086E3E8600013061
:104D500087000108D500AB31AB23A6310800AA308B
:104D60004101E0000030E1000030E5007F30E60066
:104D7000E901EA0155304001A000AA30A100AA31A2
:104D8000A922A631412FE701E801FF30E4006908BC
:104D90006A04031DCC2ECD2ED02E6F08E400022F06
:104DA00069036A04031DD52ED62ED92E5A30E4008D
:104DB000022F6908FE3E4001A700FF3041016A3D15
:104DC0004001A80000302802A83003192702031868
:104DD000EA2EEB2E022FC8304101E2002E30E30014
:104DE000690862074001A70041016A08633D40016C
:104DF000A8002708FE3E8600FF30283D87000108F6
:104E00004101E400410164084001A700A8014101FB
:104E10006735A03E8600870140012708C03F28086B
:104E2000C13F01304101E9070030EA3D0130E707A9
:104E30000030E83D00306802203003196702031C8F
:104E4000222F232FC52E8B1366084001A10041019C
:104E500065084001A000AC31A124A63141016608DB
:104E60004001A100410165084001A000A030A2005E
:104E7000AF31B427A6318B1720304101E507003050
:104E8000E63D410161086A02031D482F600869027E
:104E9000031C4B2F4C2FC32E080001304001C300D0
:104EA000BF1B532F552F0130562F0030C600420133
:104EB00065084001C500420164084001C40046087D
:104EC0000319632F642F782FFF30C407FF30C53DCF
:104ED0004608031D6C2F6D2F722F2B30C100003040
:104EE000C200762F2D30C1000030C2004108C6003C
:104EF0001F30C7000030C8004301CF01B52FFF307D
:104F00004001C707FF30C83D4708B03E860001306A
:104F100087000A30A0000030A1003F08A3003E082F
:104F2000A200A0319420A73140012108A700200849
:104F3000A600AB319923A73140012608303E8100FD
:104F4000C301FF30C407FF30C53D0A30A000003068
:104F5000A1003F08A3003E08A200A031E620A7312F
:104F600040012108BF002008BE0040014808803AE7
:104F7000C00080304002031DBF2F01304702031CD8
:104F8000C22FC32FE02F40013E083F04031DC92F4D
:104F9000CA2F7F2F4308031DCE2FCF2F7F2F450809
:104FA000803AC00080304002031DD82F01304402F7
:104FB000031CDB2FDC2FE02FF718DF2FE02F7F2FD4
:104FC000400146080319E52FE62FF12FFF30C707F0
:104FD000FF30C83D4708B03E8600013087004608D4
:104FE00081003D08B5003C08B4004708B03EB6005B
:104FF0004508B8004408B70098310120A7310800DF
:1050000081342A34B5342A3491342A3492342D34FC
:105010001E342E3497342A349D342A34BC342A3436
:105020000034203420342034203420342034203400
:1050300020342034203420344534783461346D34C5
:1050400070346C3465343A3420345334423443344D
:1050500054344C342034523445344C3420343134BC
:10506000203432342034203420342D34203452344F
:1050700065346C34653461347334653420343134D0
:10508000203461346E346434203432342034533468
:10509000773469347434633468342E340D340A340C
:0250A0000034DA
:1054E80008000800FF3442015608080050019E11C8
:1054F800080042011D121D1608004201D60108309D
:105508000800AC314B24AA310800AE31BA26AA31C2
:105518000800AA317A22AA3108004201573543010E
:105528008C0003300800AA31BC22AA31F0007008B0
:105538000800A0310020AA31F000700808004301DB
:10554800111402304201E300080040012108FB0069
:105558002008FC00080050018C018D0113129312E1
:10556800080003144201570D43018C000430080061
:1055780043011115AB317523AA31003008007A08B0
:10558800031DC72AC92A0130CA2A003008009534E9
:10559800BC348834883488348834FF34FF3441017B
:1055A8006B08031DD82ADA2A0130DB2A00300800EC
:1055B800420162084001A0004201E20140012008C6
:1055C8000800400121084201EB0040012008420187
:1055D800EA000800400121084201E90040012008D2
:1055E8004201E8000800603051018D008F019101EF
:1055F800063093002030920008004E010C100B1466
:1056080000304001A0000030A100AA31E522AB31F2
:1056180008006400800101310130FE020030FF3BC8
:105628007F087E04031D0E2B0034420168086904BC
:1056380003191F2B202B252B69088A0068080A00EC
:10564800AB314E0190100800803043018F000830C4
:105658009000910192014F308D004E011914991458
:1056680043019016080040012008210403193D2B2E
:105678003E2B452B21084201E7004001200842014A
:10568800E600080040012008210403194C2B4D2B8B
:10569800542B21084301A300400120084301A20024
:1056A80008004001A200AA31C322AB31003A031915
:1056B8005E2B5F2B572B40012208AD316825AB319B
:1056C800080063304001EB000030D900DA006208BE
:1056D800DC006108DB006B30DD00AC31C024AB318D
:1056E80008004201D6010030D800FF30D700D901A8
:1056F800DA01DD01DE01E3014E010F108F104301D5
:105708009013101308004001210850019B0040012C
:10571800200850019A001E131E141D084001A10004
:1057280050011C084001A00008004001A71B9D2B48
:105738009E2B9F2BAA2B2609A8002709A900A80A97
:105748000319A90A2808A6002908A700080040018B
:105758005308AA005208A9005408AB005530AC0001
:105768000030AD000130AE000030AF00A3314B2354
:10577800AB3108004001A200A101221CC42BC52B9B
:10578800C72B2008A1070310A00D0310A20C2208A4
:10579800031DCF2BD02BC12B210808004001210865
:1057A80050019B004001200850019A001E171E144A
:1057B8000000000050011D084001A10050011C0814
:1057C8004001A000080040012008A200ED2B013094
:1057D800A00720088600023087000108031DF52B6A
:1057E800F62BEB2B22082002A000A101A01BA1038D
:1057F80008000B2C24088400250885000008AF3118
:105808003027AB3101304001A4070030A53D4001ED
:1058180024088400250885001200031D142C152C6B
:10582800FE2B0800AA31F722AC31AF316B27AC311F
:10583800AB312823AC3190310020AC31AE31832616
:10584800AC31AA318D22AC31AA31AF22AC31AB31A7
:105858000123AC31080040307A020318342C352C6F
:10586800482C41016C08A03E8600023087000108E0
:1058780042019A0041016C08013E3F39F00070086E
:10588800EC000130FA074A2C4E01191208000630C4
:105898004201E3000330E2004E018F104201630829
:1058A800F100F201F135F20D003071078400283063
:1058B800723D80388500013F8A00003F0A00AC3104
:1058C8004201E30008007808203E86000330870084
:1058D80001084001A1007808013E3F39A0002008D6
:1058E800F8004E01991241016B0803197C2C7D2C9C
:1058F8007F2C0130EB024E01991640012108080067
:1059080040012708AD002608AC00942C2C0886001E
:105918002D088700280881000130AC070030AD3D14
:105928000130AA020030AB3B2A0A031D9F2C2B0A28
:10593800031D9F2CA02C8A2C08000B0D0B0D013980
:105948004001A200210850019B004001200850019D
:105958009A001E131E161E158B137C089F007B08C9
:105968009F009E144001220C031C8B1303188B17F5
:1059780050011E111E08080040015C08E0005B0889
:10598800DF00D22C5A08CA005908C9005F30CB0082
:105998005D08CC00CD018531EF25AC3140015F08B1
:1059A8008400600885001200031DDB2CDC2CC62C4B
:1059B800D901DA01080040012108A7002008A60043
:1059C8002708870026088600A60A0319A70A2308BD
:1059D800A5002208A400A20A0319A30A2408840027
:1059E800250885000008C03F8908031DFC2CFD2CF4
:1059F800E42C08004001A401A501201C042D052D5C
:105A0800092D2208A4072308A53D0130A235A30DBE
:105A1800890B0A2D0130A136A00C890B0F2D200807
:105A28002104031D182D192D012D2508A100240876
:105A3800A00008004001B201B301352D3108AF00C4
:105A4800B0012F08A3003008A4002E08A6002D08D6
:105A5800A50088310020AD3101304001B207003087
:105A6800B33D2C0832078600013087000108B100D9
:105A78003108031D402D412D222D08004001220828
:105A8800A7002108A6002008A8005B2D260886008C
:105A9800270887000108A5000130A6070030A73DA8
:105AA800280886008701250881000130A8070130F1
:105AB800A3020030A43B230A031D662D240A031DFC
:105AC800662D672D4A2D08004001A1004E01191AC4
:105AD8006E2D6F2D742D4001210842019A008F2DE3
:105AE8007A080319782D792D8F2D41016D08A03E74
:105AF80086000230870040012108810041016D08BD
:105B0800013E3F394001A00020084101ED004E014F
:105B180019120130FA024E011916080042015B08F9
:105B28005C040319982D992DAC2D0130DB0200304F
:105B3800DC3B590886005A088700010843018C009D
:105B480001304201D9070030DA3D0330F000BB2DA7
:105B580061080319B02DB12DB72DE101430191144E
:105B68000130F000BB2DAA31BC22AD31F000700825
:105B78000800C42D0130A0070130A1070030A23D64
:105B8800400121088400220885000008A30020089D
:105B980086000230870001082306031DD42DD52D69
:105BA800DE2D20088600023087000108031DDD2D48
:105BB800DE2DBE2D200886000230870021088400D3
:105BC8002208850000080102A000A101031CA1030E
:105BD80008004001A501AA317722AD31003A031D22
:105BE800F62DF72D1B2E01304201D6004001210869
:105BF8004201D800400120084201D700E1014001DC
:105C080022084201D900DA01400124084201DC00DF
:105C1800400123084201DB00DD01DE01DF01E00174
:105C2800E201AA31A322AD3101304001A5004001B3
:105C3800250808000430F00043010F1C242E252EEF
:105C48004D2E42015F08600403192B2E2C2E3C2E8A
:105C58005D0886005E08870043010C08810001305A
:105C68004201DD070030DE3D0130DF020030E03B5D
:105C78005F0860040319412E422E462E43019112FB
:105C880011164E2E43019110911611160730F0008F
:105C98004E2E9115700808004001200821040319B0
:105CA800562E572E7E2E0130A400612E0130A035CD
:105CB800A10D890B5B2E0130A407A11F642E652E50
:105CC8005A2E21082302031D6B2E20082202031CD2
:105CD8006E2E6F2E732E2008A2022108A33B0130DE
:105CE800A136A00C890B742E0130A402031D7D2E51
:105CF8007E2E652E2308A1002208A00008004E0170
:105D08009912FB304301AA002130AB004E01191251
:105D18002F304301AC002C30AD00483042019F00C9
:105D280090309D0026309E0040309B0003309C0040
:105D380074304001A0002A30A100AB313723AE31C6
:105D48007D304001A0002A30A100AB314623AE319E
:105D58004301A801A9014101ED01EC014030FA001D
:105D6800F901F801EB014E01991608004E010F10D8
:105D780043010F1EC02EC12EC52EAB317523AE3187
:105D8800E02E8F1AC82EC92ED32E111FCC2ECD2E41
:105D9800D32E05304201E3000130E200E02E8F1ED1
:105DA800D62ED72EE02E111FDA2EDB2EE02E053050
:105DB8004201E3000230E20042016308F100F2010F
:105DC800F135F20D0030710784002830723D8038BB
:105DD8008500013F8A00003F0A00AE314201E3001E
:105DE80008004001A401A501200821040319FD2E83
:105DF800FE2E2B2F0130A600082F0130A035A10D53
:105E0800890B022F0130A607A11F0B2F0C2F012F82
:105E18000130A435A50D890B0D2F21082302031D80
:105E2800172F20082202031C1A2F1B2F202F2008AF
:105E3800A2022108A33B24140130A136A00C890B2F
:105E4800212F0130A602031D2A2F2B2F0C2F2508E6
:105E5800A1002408A00008004001A1008B1317131B
:105E6800A6300032890B352F00324001A201A30170
:105E78004001211C402F412F432F1717442F171380
:105E8800A6300032890B452F003203104001A10CC7
:105E98000130A2070030A33D2308803AA0008030DB
:105EA8002002031D592F08302202031C5C2F5D2F8E
:105EB8003C2F40011717A6300032890B602F0032A3
:105EC8008B17A6300032890B662F00320800FB3092
:105ED8004001960024309700BB30980004309100B0
:105EE8009B309200473093007E01B8010830C30010
:105EF800CE010430B9009230C4004730CF00E5012C
:105F0800BA01C501D001FF30BB00FF30C600FF3029
:105F1800D100FF30BC00FF30C700FF30D20008308E
